:020000040800F2
:20000000C00C00205D8B0008E58A0008E78A00080000000000000000000000000000000014
:2000200000000000000000000000000043480008EB8A0008000000001F570008ED8A0008B3
:200040001B5900085F5F0008B76E000877890008278B0008338B0008818B0008F58A00080E
:20006000838B0008858B0008878B0008898B00088B8B00088D8B0008000000008F8B0008BC
:2000800000000000918B00080000000000000000938B000800000000958B0008978B0008C4
:2000A000998B00089B8B00089D8B00089F8B0008A18B0008A38B0008A58B0008A78B0008A8
:2000C00010B5040000F0C5FE002801D0012036E000F041F8002801D0012030E0206800F0A9
:2000E000CDFB002801D0012029E0606800F0D0FC002801D0012022E0A27A617A207A00F0F4
:2001000075F9002801D0012019E0E06800F047FA002801D0012012E0206900F006FB002837
:2001200001D001200BE0A27D617D207D00F00DF9002801D0012002E000F08FFE002010BDEC
:2001400080B5002801D1012004E001230F22D42100F0D1FE02BD80B5002069460870012303
:200160001222D421684600F0C6FE002801D001203EE068460078FB2101406846017068466C
:200180000078042101436846017001231222D421684600F0A2FE002801D0012028E001238E
:2001A0000A22D421684600F0A6FE002801D001201EE06846007887210140684601706846E8
:2001C00000786946087068460078F821014068460170684600786946087001230A22D4214F
:2001E000684600F07AFE002801D0012000E0002002BD10B582B004006846002101800223A0
:200200002822D421684600F076FE002801D0012029E06846407800026946097840182080DA
:2002200002232A22D421684600F065FE002801D0012018E068464078000269460978401855
:20024000608002232C22D421684600F054FE002801D0012007E068464078000269460978CD
:200260004018A080002016BD10B584B004000020009001A8FFF7BDFF002801D0012027E0EA
:20028000684600F0F0F9002801D0012020E0019800B200F0BBFF009900F0D3FF01F030F854
:2002A000206001A80221405E00F0B0FF009900F0C8FF01F025F8606001A80421405E00F03B
:2002C000A5FF009900F0BDFF01F01AF8A060002004B010BD10B582B0040068460021018046
:2002E00002232222D421684600F005FE002801D0012029E0684640780002694609784018EC
:20030000208002232422D421684600F0F4FD002801D0012018E068464078000269460978A4
:200320004018608002232622D421684600F0E3FD002801D0012007E068464078000269468D
:2003400009784018A080002016BD70B582B000236C462370002600250024C0B2002801D117
:20036000002600E00826C9B2002901D1002500E01025D2B2002A01D1002400E020240123AD
:200380001822D421684600F0B6FD002801D001202BE068460078F72101406846017068466C
:2003A000007806436846067068460078EF2101406846017068460078054368460570684683
:2003C0000078DF210140684601706846007804436846047001231822D421684600F07DFD4B
:2003E000002801D0012000E0002076BD70B582B000236C462370002600250024C0B20028E8
:2004000001D1002600E00826C9B2002901D1002500E01025D2B2002A01D1002400E020245E
:2004200001231922D421684600F065FD002801D001202BE068460078F721014068460170A5
:200440006846007806436846067068460078EF2101406846017068460078054368460570E2
:2004600068460078DF210140684601706846007804436846047001231922D421684600F075
:200480002CFD002801D0012000E0002076BD10B584B004000020009001A8FFF71BFF002858
:2004A00001D0012027E0684600F048FA002801D0012020E0019800B200F0A8FE009900F0DF
:2004C000C0FE00F01DFF206001A80221405E00F09DFE009900F0B5FE00F012FF606001A837
:2004E0000421405E00F092FE009900F0AAFE00F007FFA060002004B010BD10B582B00400F6
:2005000000206946087001231022D421684600F0F2FC002801D0012040E068460078F0214C
:2005200001406846017068460078002814D0102815D0202816D0302817D0402818D05028D7
:2005400019D060281AD070281BD080281CD090281DD0A0281ED020E0002020601DE0904859
:2005600020601AE08F48206017E08F48206014E08E48206011E08E4820600EE08D48206088
:200580000BE08D48206008E08C48206005E08C48206002E08B482060FFE7002016BD10B5D3
:2005A00082B0002400216A461170002100F0C6FE01D8002436E0844900F0C0FE01D2102429
:2005C00030E0824900F0BAFE01D220242AE0804900F0B4FE01D2302424E0A24900F0AEFE5A
:2005E00001D240241EE0A04900F0A8FE01D2502418E09E4900F0A2FE01D2602412E09C4963
:2006000000F09CFE01D270240CE09A4900F096FE01D2802406E0984900F090FE01D2902453
:2006200000E0A02401231022D421684600F063FC002801D0012015E0684600780007000F83
:20064000694608706846007804436846047001231022D421684600F040FC002801D00120A5
:2006600000E0002016BD10B582B0040000206946087001231022D421684600F03CFC00281C
:2006800001D001201DE0684600780C2101406846017068460078002806D004280DD008285B
:2006A00005D00C2806D00BE0A048206008E0A048206005E09F48206002E09F482060FFE73D
:2006C000002016BD10B582B0040000206946087001231022D421684600F00DFC002801D0FA
:2006E000012021E0684600780C2101406846017068460078002806D0042810D0082806D0EF
:200700000C2808D00FE08020C00520600BE08120C005206007E08220C005206003E08320D4
:20072000C0052060FFE7002016BD10B582B0002400216A461170A44900F000FE01D200245C
:200740000CE0A24900F0FAFD01D2082406E0A04900F0F4FD01D20C2400E0042401231022CB
:20076000D421684600F0C7FB002801D0012015E068460078F3210140684601706846007855
:2007800004436846047001231022D421684600F0A4FB002801D0012000E0002016BD00007B
:2007A000000050410000D041000050420000D042000050430000D043004050440080CF44E6
:2007C000002050450020D045010050410100D0410100504210B582B00400002069460870B6
:2007E00001231122D421684600F085FB002801D0012036E068460078F021014068460170C8
:2008000068460078002810D0102811D0202812D0302813D0402814D0502815D0602816D015
:20082000702817D0802818D01AE00020206017E08B48206014E08B48206011E08A4820603B
:200840000EE08A4820600BE08948206008E08948206005E08848206002E088482060FFE796
:20086000002016BD0100D042010050430100D043014050440180CF440120504510B582B0B4
:20088000002400216A461170002100F057FD01D800242AE07A4900F051FD01D2102424E06A
:2008A000784900F04BFD01D220241EE0764900F045FD01D2302418E0744900F03FFD01D25E
:2008C000402412E0B24900F039FD01D250240CE0B04900F033FD01D2602406E0AE4900F031
:2008E0002DFD01D2702400E0802401231122D421684600F000FB002801D0012015E0684641
:2009000000780007000F694608706846007804436846047001231122D421684600F0DDFAD2
:20092000002801D0012000E0002016BD23DB793D23DBF93D23DB793E23DBF93E10B582B001
:20094000040000206946087001231122D421684600F0D1FA002801D0012034E06846007843
:20096000022108406946087068460078022802D18A48206026E001231122D421684600F080
:20098000BAFA002801D001201DE0684600780C2101406846017068460078002806D0042889
:2009A00007D0082808D00C2809D00BE07C48206008E07C48206005E07B48206002E07B4823
:2009C0002060FFE7002016BD01000040010080400100004110B582B0040000206946087038
:2009E00001231122D421684600F085FA002801D0012034E0684600780221084069460870A8
:200A000068460078022802D16948206026E001231122D421684600F06EFA002801D0012010
:200A20001DE0684600780C2101406846017068460078002806D0042807D0082808D00C28A3
:200A400009D00BE05B48206008E05B48206005E05A48206002E05A482060FFE7002016BDC0
:200A6000000050410000D041000050420000D042000050430000D043004050440080CF4423
:200A8000010050410100D041010050420100D04238B50500002400206946087028004949F5
:200AA00000F04CFC1FD2022401231122D421684600F021FA002801D0012068E0684600785A
:200AC000FD210140684601706846007804436846047001231122D421684600F0FEF9002800
:200AE00054D0012053E001231122D421684600F002FA002801D0012049E068460078FD2111
:200B0000014068460170684600786946087001231122D421684600F0E0F9002801D001204B
:200B200035E02800284900F009FC01D200240EE02800264900F002FC01D2042407E028009E
:200B4000234900F0FBFB01D2082400E00C2401231122D421684600F0CEF9002801D0012069
:200B600015E068460078F3210140684601706846007804436846047001231122D42168465D
:200B800000F0ABF9002801D0012000E0002032BD010050430100D0430140504400008C406F
:200BA00000000C4100008C4100000C4200008C420000FA42000075430000FA4300007A4410
:200BC0000000FA440100FA42010075430100FA4301007A4480B50020694608700123102212
:200BE000D421684600F087F9002801D00120A8E0684600780007000F6946087068460078B7
:200C0000602101436846017068460078F321014068460170684600786946087001231022B3
:200C2000D421684600F059F9002801D0012088E001235C22D421684600F05DF9002801D0C9
:200C400001207EE0684600784006400E694608706846007869460870684600789F210140C0
:200C600068460170684600786946087068460078EF21014068460170684600786946087025
:200C800068460078F021014068460170684600786946087001235C22D421684600F01DF925
:200CA000002801D001204CE001235D22D421684600F021F9002801D0012042E0684600783C
:200CC0004007400F6946087068460078302101436846017068460078F821014068460170DE
:200CE00068460078032101436846017001235D22D421684600F0F1F8002801D0012020E00E
:200D000001235E22D421684600F0F5F8002801D0012016E068460078EF2101406846017009
:200D200068460078102101436846017001235E22D421684600F0D1F8002801D0012000E0FF
:200D4000002002BD80B500206946087001235E22D421684600F0CFF8002801D001203CE004
:200D600068460078EF21014068460170684600786946087001235E22D421684600F0ADF8B4
:200D8000002801D0012028E001235D22D421684600F0B1F8002801D001201EE06846007814
:200DA0004007400F69460870684600786946087068460078F8210140684601706846007864
:200DC0006946087001235D22D421684600F085F8002801D0012000E0002002BD10B582B069
:200DE000040000206946087001231B22D421684600F081F8002801D001200FE0684600780C
:200E0000202108406946087068460078202802D10120207001E000202070002016BD30B4C8
:200E2000012100220368001D002B0BD00468001D0C4202D04D466D1E64192260241D1B1F9F
:200E4000F0D0FAE730BC704780B500F0A7F802BD704780B500F0A2F802BD00B58BB0C0489E
:200E6000006801210143BE48016010200590C2480690022008900020079005A9A020C00534
:200E800000F070FA00220021072000F0E7FB072000F0E9FBB248006802210143B04801609F
:200EA00001200090B448019002200390002002906946CD4800F056FA00220021052000F031
:200EC000CDFB052000F0CFFB0BB000BD80B59BB2D2B2C9B200F06BF802BD80B59BB2D2B25A
:200EE000C9B200F064F802BD80B59BB2D2B2C9B200F06AF802BD80B59BB2D2B2C9B200F069
:200F000063F802BD80B500F06CF802BD704780B59BB2D2B2C9B200F06DF802BD80B59BB2A1
:200F2000D2B2C9B200F073F802BD80B500F07CF802BD704780B500F077F802BD704780B54A
:200F40009BB2D2B2C9B200F078F802BD80B59BB2D2B2C9B200F071F802BD80B59BB2D2B287
:200F6000C9B200F077F802BD80B59BB2D2B2C9B200F070F802BD80B500F079F802BD704734
:200F800080B59BB2D2B2C9B200F07AF802BD80B59BB2D2B2C9B200F080F802BD80B500F0E2
:200FA00089F8002801D0012000E0002002BD10B500249BB2D2B2C9B200F098F8002800D02A
:200FC00001242000C0B210BD10B500249BB2D2B2C9B200F0A8F8002800D001242000C0B219
:200FE00010BD80B500F066F8002801D0012000E0002002BD10B500249BB2D2B2C9B200F0A3
:2010000075F8002800D001242000C0B210BD10B500249BB2D2B2C9B200F085F8002800D04D
:2010200001242000C0B210BD80B500F043F8002801D0012000E0002002BD10B500249BB2BD
:20104000D2B2C9B200F052F8002800D001242000C0B210BD10B500249BB2D2B2C9B200F0B6
:2010600062F8002800D001242000C0B210BD80B500F020F8002801D0012000E0002002BD84
:2010800010B500249BB2D2B2C9B200F02FF8002800D001242000C0B210BD10B500249BB252
:2010A000D2B2C9B200F03FF8002800D001242000C0B210BD10B500244C4800F0EBFC002812
:2010C00011D14B484949486033204849886001204649C86047484549086000F04FF8434876
:2010E00000F0D6FA04002000C0B210BD3EB50C0000254149096802919BB201930090012386
:20110000D2B292B2E4B2210089B2384800F042FB0500EDB2002D03D02000C0B200F022F828
:201120002800C0B23EBD3EB50C0000253249096802919BB2019300900123D2B292B2E4B284
:20114000210089B2294800F0E5FB0500EDB2002D03D02000C0B200F005F82800C0B23EBD3A
:201160002C10024080B5214800F0EEFA012000F05FFEFFF79FFF01BD0000111000B585B0B0
:201180001E480068022101431C480160C02080000090122001900220039000200290042017
:2011A00004906946104800F0DDF815480068802189030143124801601248006880218903EF
:2011C0000143104801600F4800680F4901400D48016000220021172000F040FA172000F039
:2011E00042FA05B000BD000000040050E00700202E11B10000540040280200202C1002409A
:201200003810024028100240FFFFDFFF9D2102000AD5F446524200F007F80122D207104343
:20122000604700009D2102000AD002D4491E9218FCD5C905100A1206524100D3012A48419B
:20124000704730B405004D400122D20715404B180418240E30D01B0E34D0FF2C36D0FF2BD7
:201260003CD0E4180002090210431143000A090A9446C2B24A43000AC3B24B43000A484318
:20128000110A5B18190A12061B0C1A43120A091801D44918641E080A7F3C23DBFE2C08DA35
:2012A000E40509061143634699416041284330BC7047FF20C005F9E728001B0EFF2BF6D1AA
:2012C000D043F4E72800FF2CF1D1F9E74002F7D1FF2B01D14902F3D1E005E7E7D80549023B
:2012E000E4D0EDE743020020641CDFD15B129B1CDCD9D805DAE70268531C036011707047E6
:201300000122D2070118090E7F3910D449421F310FD4001805D2C0011043C84000D5D04354
:201320007047C0011043C84005D440427047002070470042F3D51000704720000CB401221D
:2013400012060318DA4207D84B18DA4204D802000A43921802D288420CBC7047FCD081425F
:20136000FAE70020F0B50200002000240026002334E005201D00AD07AD0F04277D43A8409F
:20138000304306007A481D00AD0804277D43465167480668A6434868C00300D5264364485B
:2013A000066074480668A6434868800300D526437048066070480668A6434868C00200D5CF
:2013C00026436D4806606D480668A6434868800201D534432600694806605B1C102B00D33C
:2013E000A5E0012098400C6804408442F5D14868022802D0486812281CD11800C00804259F
:2014000068431018066A0F201D006D076D0F04277D43A840864308691D006D076D0F042708
:201420007D43A840304306001800C00804256843101806624868012808D04868022805D0E7
:201440004868112802D0486812281AD1966803201D0002277D43A8408643C8681D000227AE
:201460007D43A8403043060096605668012098408643350048680600F606F60F9E402E439A
:201480005660166803201D0002277D43A840864308798007800F1D0002277D43A840304346
:2014A00006001660D66803201D0002277D43A8408643350088681E0002277E43B0402E004D
:2014C00030430600D6604868C00086D52C480068012505432A48056025481D00AD08042608
:2014E0007543465930000F26F6431D00AF07BF0F04256F43BE400640A020C005824201D11C
:20150000002037E71F48824201D1012032E71E48824201D102202DE71C48824201D1032007
:2015200028E71B48824200D023E7042022E7F0BD0004014000B5D2B2002A02D089B281612A
:2015400001E089B2816200BD426989B24A404261704780B50F49096880B20140002905D096
:2015600080B20C49086080B200F036FF01BD00000800014004040140080401400C04014037
:20158000341002400004005000080050000C0050001C0050140401400121C006C00E814081
:2015A000354801607047F0B540B2002821D5334B40B20207120F083A9208042462432F4C23
:2015C00040B205072D0F083DAD08042675436459FF258607B60F08277E43B540AC43890164
:2015E000C9B28007800F082568438140214399501BE0234A40B203009B0804246343D2587C
:20160000FF238407A40F08256C43A3409A438901C9B283079B0F0824634399401143184A34
:2016200040B28008042358431150F0BD80B5411E80225204914201D301200EE0401E114966
:20164000086003210020C043FFF7ADFF00200E49086007200D490860002002BD80B540B26F
:20166000FFF7A1FF01BD80B540B2FFF795FF01BD80B5FFF7DBFF02BD00E100E01CED00E039
:2016800000E400E014E000E018E000E010E000E010B50400002C01D1012054E03520205C1D
:2016A000002802D1200000F06CF8022035216054206800680121884321680860606832497E
:2016C000014020680161206880683049014020688160A06800280FD0E068012806D1A068ED
:2016E0008021090201432068816005E0A06884210902014320688160E068022803D1802061
:20170000000121684860206840682149014320684160206961690143A0690002084321681A
:20172000C860E069216A0143206801602068006801210143206801600020362160540120F5
:2017400035342070002010BD10B50400002C01D1012015E002203521605420680068012188
:20176000884321680860200000F00CF800203621605400203521605400203434207000200C
:2017800010BD704770470000FFFFFFF0FF7FFFFF00800002F2B582B0040000253520205C50
:2017A000012800D0B3E0089F002F03D0099EB6B2002E01D10120ABE020688069000401D5EE
:2017C0000220A5E03420205C012801D102209FE001203421605452203521605400203621D9
:2017E00060540A9800909BB292B268460189200000F053F900280DD03620205C042804D106
:20180000002034342070012082E000203434207003207DE0B6B2FF2E0BDD002000908023C5
:201820005B04FF2268460189200000F0B6FAFF250CE00020009080239B043200D2B26846CA
:201840000189200000F0A9FAB6B235000A99200000F0FAF9002807D036342078042801D109
:20186000012055E0032053E03878216888627F1C6D1E761E002D28D1B6B2002E25D00A9B89
:2018800000228021200000F097F9002801D003203EE0B6B2FF2E0BDD0020009080235B047C
:2018A000FF2268460189200000F077FAFF250CE00020009080239B043200D2B2684601895E
:2018C000200000F06AFAB6B23500B6B2002EBDD11921200000F0E5F9002807D036342078AA
:2018E000042801D1012013E0032011E020202168C861206840686649014020684160012066
:2019000035216054002034342070002000E00220FEBD0000F2B582B0040000253520205CF5
:20192000012800D0B1E0089F002F03D0099EB6B2002E01D10120A9E020688069000401D570
:201940000220A3E03420205C012801D102209DE0012034216054622035216054002036214B
:2019600060540A9800909BB292B268460189200000F0DBF800280DD03620205C042804D1FD
:20198000002034342070012080E000203434207003207BE0B6B2FF2E0CDD902080010090D9
:2019A00080235B04FF2268460189200000F0F5F9FF250DE090208001009080239B04320088
:2019C000D2B268460189200000F0E7F9B6B235000A9B00220421200000F0EEF8002801D0E3
:2019E000032053E02068406A38707F1C6D1E761E002D28D1B6B2002E25D00A9B00228021E4
:201A0000200000F0D9F8002801D003203EE0B6B2FF2E0BDD0020009080235B04FF226846AD
:201A20000189200000F0B9F9FF250CE00020009080239B043200D2B268460189200000F05A
:201A4000ACF9B6B23500B6B2002EC1D11921200000F027F9002807D036342078042801D1B3
:201A6000012013E0032011E020202168C86120684068074901402068416001203521605437
:201A8000002034342070002000E00220FEBD000000E800FE353000787047F8B50400150011
:201AA0001F0080208001009080235B043A00D2B289B2200000F071F9069E3100200000F0FC
:201AC000C3F8002807D036342078042801D101202AE0032028E0BFB2012F03D1EDB220685A
:201AE000856216E0280080B2000AC0B2216888623100200000F0A8F8002807D036342078DE
:201B0000042801D101200FE003200DE0EDB220688562330000228021200000F04DF8002826
:201B200001D0032000E00020F2BDF8B5040015001F0080208001009000233A00D2B289B250
:201B4000200000F02AF9069E3100200000F07CF8002807D036342078042801D101202AE0CF
:201B6000032028E0BFB2012F03D1EDB22068856216E0280080B2000AC0B221688862310047
:201B8000200000F061F8002807D036342078042801D101200FE003200DE0EDB220688562AF
:201BA000330000224021200000F006F8002801D0032000E00020F2BDF2B5040017001D00B7
:201BC00000F033F90600FFB2002F1DD12068806900990140C803C00B0099C903C90B884231
:201BE00030D00020C0438542F0D0002D04D000F01CF9801B8542E9D20120352160540020CD
:201C00003434207003201EE02068806900990140C803C00B0099C903C90B884212D10020C4
:201C2000C0438542F0D0002D04D000F0FEF8801B8542E9D2012035216054002034342070D3
:201C4000032000E00020F2BD70B504000E0000F0ECF8050020688069800720D43100200065
:201C600000F049F8002801D0012019E00020C0438642EFD0002E04D000F0D7F8401B864292
:201C8000E8D23620205C2021014336202154012035216054002034342070032000E0002002
:201CA00070BD70B504000E00002500F0BEF805002068806980061CD43100200000F01BF8B5
:201CC000002801D0012015E0002E04D000F0ADF8401B8642ECD23620205C202101433620D0
:201CE0002154012035216054002034342070032000E0002070BD70B505000C00002600F090
:201D000094F8060028688069C00644D53520285C122807D03520285C522803D03520285CF0
:201D200062280AD128684068800106D4286840688021C90101432868416028688069800694
:201D400012D40020C0438442F7D0002C04D000F06CF8801B8442F0D2012035216854002023
:201D600034352870032017E010202968C86120202968C8612868406813490140286841605E
:201D8000042036216854012035216854002034352870012000E0002070BD30B400240468F6
:201DA00064682500094C2C40250089B28905890DD2B212040A431343029C1C432C430068DC
:201DC000446030BC7047000000E800FE009800FC80B51E480068402101431C4801601B4872
:201DE00000680221014319480160032000F005F800F002F8002002BD704710B5040000F009
:201E000069FFFA21890000F0BEFFFFF731FC002221000020C043FFF721FC002010BD0C482C
:201E20000068401C0A490860704709480068704711B581B00024FFF7F8FF0400FFF7F5FF06
:201E4000001B01998842F9D313BD0000002002409808002000B5C1B0FFF7BAFF00F0EAFF97
:201E6000002001F0C2F8002001F0E2F80121002001F0FBF801F021FA00F052FA00F074FAE0
:201E80001AE0002001F0D4F8A048007800280BD0684601F09EFA33200090684601F0EEF968
:201EA0009B480068FFF7C4FFC1480078002803D0FA204000FFF7BCFF684601F041F9002896
:201EC0000DD068460079322809D1684601F08EFA8E480078002802D00020B5490870684617
:201EE00000F041F8684600F065F9684600F0B0F9684600F084F8684600F00CF98348007876
:201F0000002803D1AA4800780028BAD0002001F09EF8B9E7F8B504000E0015001F0020004F
:201F2000FFF7EEF930603068FFF770F90100200001F098FC0400380001F0ECFC02000B0075
:201F40000020BD4901F040FF06000F00200002F053F932003B0002F068F902F028FA02F0F2
:201F60002FFA2860F1BD10B588B00400002067490978002903D18E490978002913D000222D
:201F800003A9AE4802F02DFB002202A9AB4802F0DBFB982040000499401A64214843FF21DE
:201FA000323100F0EDFE5949097800290AD06946097BE17103A94978217203A989786172B8
:201FC000A0721AE07A490978002916D0C0B2019003A88078009003A843786846027B9849FA
:201FE000984802F02FFC974802F048FC0200C94B92B29449C84802F084FC08B010BD10B5CC
:020000040800F2
:2020000088B0040003F0B8F8002877D08E4803F0B6F88E4803F0C0F83C480078002832D054
:20202000BE480068C00614D50422874801682000133003F071F90422834841682000173064
:2020400003F06AF904228048816820001B3003F063F9B2480068800656D504227B48016834
:2020600020001F3003F058F90422784841682000233003F051F90422744881682734200028
:2020800003F04AF940E04A48007800283CD06E48006801906C48406802906B4880680390E1
:2020A0006A480068049069484068059067488068069003980090029B019AA949614802F067
:2020C000C1FB604802F0DAFB924B020092B25D49914802F016FC06980090059B049AA149D9
:2020E000584802F0AFFB574802F0C8FB0200894B92B25449884802F004FC05E02C48007806
:20210000002801D002F05AFF08B010BDB8080020180200201FB5040003F059F9002840D087
:20212000AA4803F057F9AA480078002819D07B48006840063BD50422A448016820002B3078
:2021400003F0EAF80422A148416820002F3003F0E3F804229D4881683334200003F0DCF863
:2021600025E013480078002821D098480068019096484068029095488068039003980090FA
:20218000029B019A93492F4802F05CFB2D4802F075FB604B020092B22A495F4802F0B1FBEB
:2021A00005E003480078002801D003F0BFF81FBDB90800201CB5040003F0FBF9002833D030
:2021C000B14803F0F9F902236A4601A9AE480068FFF7A0FE7E480078002810D04F4800686B
:2021E000C00727D50222019920000B3003F07EF8022200990D34200003F078F81AE0A34834
:202200000078002816D0009B019AA1490D4802F019FB0C4802F032FB3E4B020092B2094929
:202220003D4802F06EFB05E098480078002801D003F0F6F813BD0000000024401808002033
:20224000348B0008380600203C0800204808002010B586B0040003F02AFA002851D08D4851
:2022600003F028FA8C4803F032FA022304AA05A988480068FFF74EFE022302AA03A9864810
:202280000068FFF747FE52480078002820D02348006880070BD50122039920000F3003F026
:2022A00025F8012202992000103003F01FF81B48006840072BD5012205992000113003F0B2
:2022C00015F8012204991234200003F00FF81EE06E48007800281AD002980190039800903D
:2022E000049B059A6D496E4802F0ACFA6C4802F0C5FA084B020092B26949074802F001FBAF
:2023000005E062480078002801D003F089F906B010BD000088130000380700208008002023
:2023200080B560486049086040205F4948607F205D498860982040005B49C86000205A494B
:20234000086100205849886100205749C861564802F05EF8002801D000F0AEF801BD00004E
:2023600044390008348A000800B587B014206946C870022069464870182069468870022081
:202380006946087001226946474802F059F9002801D000F091F8082069460871102001A9D5
:2023A0004870002001A98870002001A908720020049000200590012201A93B4802F081F83B
:2023C000002801D000F078F807B000BD54080020B8080020588A000810B580B280218901C8
:2023E000884233D1002431480068002809D130480068002805D100F061F82C4908600124DF
:2024000011E000F05BF82A4908602948006827490968401AFF212E31884204D324480068A5
:20242000224908600124002C10D022480078002803D000201549087008E0144800780028E1
:2024400001D0002000E001201049087010BD10B586B000236C4623726B46187068464170EF
:2024600068468270002001900020039000200490002269460C4802F024F8002801D000F088
:202480001BF806B010BD000084080020B90800204C8B0008880800208C080020A88A00089C
:2024A0003806002000280040180800209008002094080020B808002000B5FEE780B5FFF7FD
:2024C000B4FC02BD38B5040000252078C0075AD5A34800680C210140082909D0A0480068CE
:2024E0000C2101400C290ED19D480068C0030AD5BC480068800346D56068802149028842E3
:2025000041D0012030E2B7480068B7490140B5480160FFF78AFC0500B2480068800307D52F
:20252000FFF783FC401BB1498842F5D303201BE2AC480068AC49014060680843A949086020
:2025400060688021490288420ED1FFF76EFC0500A4480068800316D4FFF767FC401BA34958
:202560008842F5D30320FFE1FFF75FFC05009D480068800307D5FFF758FC401B9B49884271
:20258000F5D30320F0E12078800721D5744800680C210140042909D0714800680C21014043
:2025A0000C2927D16E480068C00323D48D480068400704D5E068012801D00120D4E1BC489D
:2025C0000068BC490140206900020843B84908602078C00658D5624800680C2101400029DA
:2025E0006CD18048006880053DD5E06901283AD00120B9E1E06800281FD07A4800680921ED
:202600008843E168014377480160FFF70EFC050074480068400706D4FFF707FC401B652817
:20262000F6D30320A0E1A2480068A24901402069000208439E490860CAE76A480068092195
:202640008843E168014367480160FFF7EEFB0500644800684007BBD5FFF7E7FB401B652883
:20266000F6D3032080E192480068C0490140606A08438F4908608E4800680002000A216A57
:20268000090601438A480160207800076AD56069002851D0B648006801210143B44801609B
:2026A000FFF7C3FB0500B248006880075AD4FFF7BCFB401B6528F6D3032055E1E069002822
:2026C00026D04848006880214900014345480160FFF7ABFB050043480068800506D4FFF707
:2026E000A4FB401B6528F6D303203DE1704800689E490140606A08436D4908606C480068B2
:202700000002000A216A0906014369480160BBE7344800689749014032480160FFF785FBC5
:202720000500304800688005AED5FFF77EFB401B6528F6D3032017E18D4800680121884347
:202740008B490860FFF771FB050089480068800708D5FFF76AFB401B6528F6D3032003E126
:202760000C1002402078800642D5A06900281FD081480068012101437F4801607F480068B8
:20278000012101437D4801607D4800687D4901437B480160FFF749FB050077480068800765
:2027A00026D4FFF742FB401B6528F6D30320DBE071480068012188436F490860704800680F
:2027C000714901406E480160FFF72FFB05006A48006880070CD5FFF728FB401B6528F6D376
:2027E0000320C1E000100240FFFFFAFF891300002078400760D565480068802149050143D4
:20280000624801606248006880214900014360480160FFF70AFB05005D480068C00506D4B8
:20282000FFF703FB401B6528F6D303209CE050480068584901404E480160FFF7F6FA050090
:202840004B480068800507D5FFF7EFFA401B52498842F5D3032087E0454800684D4901405F
:20286000A068084342490860A0688021490088420ED1FFF7DAFA05003D48006880051BD447
:20288000FFF7D3FA401B44498842F5D303206BE0FFF7CBFA05003648006880050CD5FFF78B
:2028A000C4FA401B3C498842F5D303205CE000BF04100240FFE0FFFFA06A002853D03748C3
:2028C00000680C2101400C294BD0A06A022834D1334800683349014031480160FFF7A5FA8A
:2028E00005002F480068800106D5FFF79EFA401B6528F6D3032037E0284800682A49014093
:20290000206B0843616B0143E06A0843234908602348006880214904014321480160FFF7A3
:2029200084FA05001E48006880011CD4FFF77DFA401B6528F6D3032016E019480068194973
:20294000014017480160FFF770FA050014480068800108D5FFF769FA401B6528F6D30320C2
:2029600002E0012000E0002032BD00BFFF1FFFFF50100240FFFEFFFF08100240341002400D
:202980002000014001200000FEDFFFFF3810024000700040FFFAFFFF891300000C100240AF
:2029A00000100240FFFFFFFEFFFF02FF70B505000C0000269F4800680100C907C90FA14294
:2029C00000D38FE09B48006801218843204399490860984800680100C907C90FA14201D02B
:2029E000012025E12878800707D593480068F0218843A9680143904801602878C00700D4C5
:202A0000FBE06868022805D18C480068800319D401200DE16868002805D1884800688005C5
:202A200010D4012004E16868032805D183480068800107D40120FBE080480068400701D404
:202A40000120F5E07C480068032188436968014379480160FFF7E9F90600686802280ED177
:202A6000754800680C210140082900D1C5E0FFF7DCF9801B72498842F2D30320D8E06868C1
:202A800003280ED16C4800680C2101400C2900D1B3E0FFF7CAF9801B69498842F2D3032051
:202AA000C6E0686800280ED1634800680C210140002900D1A1E0FFF7B8F9801B60498842E8
:202AC000F2D30320B4E05C4800680C210140042900D192E0FFF7A9F9801B59498842F2D32C
:202AE0000320A5E02878800707D553480068F0218843A9680143504801602878C0076CD556
:202B00006868022805D14D480068800319D401208EE06868002805D148480068800510D4BA
:202B2000012085E06868032805D144480068800107D401207CE041480068400701D4012043
:202B400076E03D48006803218843696801433A480160FFF76AF90600686802280DD1364896
:202B600000680C210140082937D0FFF75EF9801B33498842F3D303205AE0686803280DD11D
:202B80002D4800680C2101400C2926D0FFF74DF9801B2B498842F3D3032049E068680028A0
:202BA0000DD1254800680C210140002915D0FFF73CF9801B22498842F3D3032038E01E4884
:202BC00000680C210140042907D0FFF72EF9801B1B498842F3D303202AE01648006801215A
:202BE0008843204313490860124800680100C907C90FA14201D001201AE02878400707D5E6
:202C00000D48006847490140E86808430A4908602878000708D50848006843490140286936
:202C2000C0000843044908600320FFF7E6F8002070BD0000002002400C100240001002407E
:202C40008913000000B50020002100220020002038480068400B4007400F3749042250437E
:202C60000858324909680C220A40002A06D0042A05D0082A0BD00C2A0BD02AE029E02C48E8
:202C80000068C00601D52D4800E02D4821E02D481FE026480168F0208003084023490A6861
:202CA000C02109041140284A800C105C890D491C1E4A126880235B021A40002A04D1204ACB
:202CC000504300F060F803E01E4A504300F05BF8FFE700BD80B5FFF7B5FF144909681B4A43
:202CE00009090907090F515CC840194908601848006802BD80B5FFF7EDFF0C490968134A5A
:202D0000090A4907490F515CC84002BD80B5FFF7E1FF064909680D4AC90A4907490F515C3A
:202D2000C84002BDFFF8FFFFFFC7FFFF0C1002400010024004100240C88A000800093D006D
:202D40000024F40000127A00D8010020BC01002024020020F446002804D4494200F013F8F3
:202D6000404260474042002905D45FD000F00BF8404249426047494200F005F84942604726
:202D800003460B43E6D40022030A8B420BD203098B4219D243088B422ED2411A00D20146B9
:202DA000524110467047FF2209023FD012068B4205D3121209028B4201D312120902030970
:202DC0008B4219D300E0090AC3098B4201D3CB01C01A524183098B4201D38B01C01A52417B
:202DE00043098B4201D34B01C01A524103098B4201D30B01C01A5241C3088B4201D3CB00D0
:202E0000C01A524183088B4201D38B00C01A524143088B4201D34B00C01A5241884200D3E0
:202E2000401A5241CFD201461046704708B502F075FC08BD00B593B03F48006880214905F5
:202E400001433D4801603D4800683D4901408020000108433949086002200590012008904E
:202E60001020099002200F90002010908020C00211908020C003129005A8FFF723FB0F2010
:202E800000900320019000200290002003900020049001216846FFF789FD2A48006801218D
:202EA00001432848016013B000BD00B5264909680268264B9A4201D1082023E00268244B5B
:202EC0009A4201D180201DE00268224B9A4202D18020000116E002681F4B9A4202D1802067
:202EE00000020FE002681D4B9A4202D18020000308E000681A4A904202D18020000401E0DF
:202F000080200005084000BD00684068704713490160002181600021C1608021016100211B
:202F20004161002181612021C161C021890101620421416070470000381002400070004004
:202F4000FFE7FFFF3410024000000240080002401C0002403000024044000240580002408B
:202F60006C000240F0B540B2002821D56A4B40B20207120F083A920804246243664C40B2D0
:202F800005072D0F083DAD08042675436459FF258607B60F08277E43B540AC438901C9B201
:202FA0008007800F082568438140214399501BE05B4A40B203009B0804246343D258FF23C3
:202FC0008407A40F08256C43A3409A438901C9B283079B0F0824634399401143504A40B253
:202FE0008008042358431150F0BD00B585B0C0B2002806D149490A6801211143474A1160A2
:2030000000E000214749C0B202224243895A00910121019101210291022103916946424A35
:20302000C0B2042358431058FEF79CF905B000BD10B500223B49C0B202234343C95A3A4BC8
:20304000C0B2042460431858FEF774FA10BD80B53449C0B202224243895A334AC0B20423CD
:2030600058431058FEF770FA01BD30B585B004000D00E4B2002C06D1284801680420084324
:203080002649086000E00020284800680121014326480160EDB2002D13D12548E4B2022176
:2030A0006143405A009000200190002002900220039069461F48E4B2042262438058FEF7E6
:2030C00051F9EDB2012D24D11948E4B202216143405A0090002002900220039016480190A6
:2030E00069461448E4B2042262438058FEF73AF903211248E4B202226243805A40B2FFF7C5
:2031000031FF0E48E4B202214C43005B40B2FEF7AAFA05B030BD00001CED00E02C100240F2
:2031200000E400E03A1300081C020020341002406213000820020020000021100E44000868
:20314000F1B582B0002600278D48FFF7AEFE002800D091E08024A4008948FFF7D5FE201A4E
:20316000694608806846008886498988884207D3684669460988834A9288891A818009E0FC
:203180006846694609888022920089187D4A9288891A81807B48848800206946488004E09D
:2031A000684669464988491C41806846408869468988884256D27448A4B2005D641CA4B24E
:2031C000802189008C4200DB0024C0B2F028E7D16C48848800250AE0A4B2FFB2E019802146
:2031E0008900FFF7CDFD0C00761CFFB2ED1968464088ADB2854221D26F46A4B22000401C1B
:2032000080218900FFF7BCFDF9805F48A4B2005D5D496A46D288895C029AB6B29219121D8F
:20322000C9B2C0B202F024F80700FFB2002FD3D16846C0885349888000201EE0B6B202984E
:203240000660A4B2641C200080218900FFF798FD0C004C488480029802F032F800289FD06C
:2032600001200AE068468088FF21891C884203DB68460088434988800020FEBD10B50400B2
:20328000200002F00CF82100404801F0DCFF404B020092B23D493F4801F033FB10BD80B5A4
:2032A0003748FFF734FE364802F03AFA34483949486638483249886201BD00B585B036480C
:2032C0000068012101433448016033480068012101433148016031480068802189020143CF
:2032E0002E4801602E480068012101432C4801600420009002200190002002900220039010
:20330000042004906946A020C005FEF72BF808200090042004906946A020C005FEF722F8F6
:2033200020481C490860204800681A49486000201849886000201749C86000201549086185
:203340000020144988610C2012494861114801F09DFA002800D0FEE7FFF7A1FF0A480D49DB
:2033600048658020800011490880002010490870802292000449074801F034FB05B000BD4B
:20338000A407002060080020380200203804002088130000380700202C1002403810024022
:2033A00030100240004400401402002090070020A20700204179017132214171817980396D
:2033C0008171704741790171322141710321817170470549097801713221417108218171E5
:2033E00003210160704700003002002010B504002068022801D20020F2E12079322801D03A
:203400000020EDE1A079401E34D0401E4DD0801E63D0001F00D196E1401E00D1B8E1C01EEA
:2034200000D1C8E1801E34D052386BD0401E00D198E0401E00D1A7E0401E00D1C8E00D3832
:20344000012800D8D6E0C01E022800D8D2E0C01E00D1DCE0401E00D109E1401E00D118E177
:20346000401E00D127E1401E00D136E1401E00D157E1B4E12068032801D00020B0E120007E
:20348000FFF798FF032020602000FFF7F7FE0120A6E12068032801D00020A1E12000FFF70D
:2034A00089FF0320206001209AE12068032801D0002095E12000FFF77DFF002004E0B34999
:2034C000095C2218D171401C1028F8D3C01C20602000FFF7D3FE012082E12068032801D25F
:2034E00000207DE12000FFF765FF042200212000C01D01F011FF072020602000FFF7BEFE16
:2035000001206DE12068032801D2002068E1200002F004FA00281DD12000FFF74BFF02F0D5
:2035200058F8C0B2012802D0022809D011E0042201212000C01D01F0EFFE072020600CE024
:20354000042202212000C01D01F0E6FE0720206003E002E02000FFF735FF2000FFF78EFEF8
:2035600001203DE12068032801D2002038E12000FFF720FF200002F0E1F9002802D1200011
:20358000FFF77CFE01202BE12068032801D2002026E1200002F0FDF9002811D12000FFF7B9
:2035A00009FF02F0A1F8C0B2012808D1042201212000C01D01F0B0FE0720206003E002E0B4
:2035C0002000FFF7FFFE2000FFF758FE012007E12068032801D2002002E12000FFF7EAFEDC
:2035E000200002F0E6F9002802D12000FFF746FE0120F5E02068032801D20020F0E02000F9
:20360000FFF7D8FE2000FFF739FE0120E8E02068032801D20020E3E0200002F009FA002802
:203620001DD12000FFF7C6FE01F0D6FDC0B2012802D0022809D011E0042201212000C01D58
:2036400001F06AFE072020600CE0042202212000C01D01F061FE0720206003E002E020005C
:20366000FFF7B0FE2000FFF709FE0120B8E02068032801D20020B3E02000FFF79BFE2000C8
:2036800002F0E6F9002802D12000FFF7F7FD0120A6E02068032801D20020A1E02000FFF770
:2036A00089FE200002F0EFF9002802D12000FFF7E5FD012094E02068032801D200208FE0EC
:2036C0002000FFF777FE200002F0F8F9002802D12000FFF7D3FD012082E02068032801D272
:2036E00000207DE0200002F019FA002811D12000FFF760FE01F07BFEC0B2012808D10422A6
:2037000001212000C01D01F007FE0720206003E002E02000FFF756FE2000FFF7AFFD0120DB
:203720005EE02068032801D2002059E02000FFF741FE200002F002FA002802D12000FFF7F8
:203740009DFD01204CE02068032801D2002047E004212000C01D01F0D3FD224908600421DA
:2037600020000B3001F0CCFD1F49086001201F49087060791E4908702000FFF71BFE032059
:2037800020602000FFF77AFD012029E0940100202068032801D2002022E0002011490860B3
:2037A0000020124908702000FFF704FE2000FFF765FD012014E02068032801D200200FE0DC
:2037C0002000FFF7F7FD03202060627A217AE079FEF73DFE2000FFF751FD012000E00020B7
:2037E00010BD00008008002018020020B8080020300200200122D20703004B402ED4431AFF
:2038000001D2C01AC91830B44B180418240E1B0E22D0FF2C20D0E31A182B1DDC09021143B7
:20382000C40D641E0002104394461925ED1A0A00AA40D940451801D36D08A41CE405D2098A
:20384000280A2D062A436546AA41604103181B0EFF2B01D3C00DC00530BC7047514006E071
:203860005140CCE70122D20703004B40F8D4431A03D2C01AC9185040514030B44B1809024E
:2038800011430418240E1B0E40D0FF2C3AD025009D410BD31ED8C50D4002401A0BD3ED0503
:2038A0000100400AC90591416841D5E7C50D40024918401AD0D001214008491C0018FCD591
:2038C0008C4204D36D1A000AED054019C4E7E8051040C1E7182DBFDCAC1C0D00E140E541DB
:2038E0004D40012D4941C40D00021043451A01D46D199543641EE405280A2D069541604184
:2039000030BC7047FF2BA7D1D843A5E72442A3D10020A1E7010007D5F446404200F004F8B4
:203920000122D2071143604742221201D21E004207D002D4521E0018FCD5C10A40051205BA
:20394000891870474143435F583A2025642C204143435F593A2025642C204143435F5A3AFA
:203960002025640A00000000F8B50FB48AB00CA803C804AA03C20B984000400D784988423D
:203980000CD10020694608800B98000304D10A98002801D1012518E0022516E0012808DA96
:2039A0000AA802F0EDF8012803DB002569460D800BE00B99BE4A0A40C34911430B9169468A
:2039C000BC4A801A08800025ED43002104A802F0F9F804001498002802D0002014990880BB
:2039E000002C06D10CA80CC80020002102F030F915D0002D16D5009E36B2012E16D10AA895
:203A000003C80022B04B02F023F908D0012C0DD10AA80CC80020A84902F01AF92ED1002012
:203A2000A649B9E1022D03D10AA804E0012C5CDB022C02D10CA803C8AEE1012D1CD10B9833
:203A400000280D9802D400284CD535E0002809D4002C47D10021C94304A802F0B3F800287E
:203A600040D53CE0002C27D10021C94304A802F0A9F8002820D51BE0012C0AD1009E36B2DF
:203A80000D98002802D4012E2CDA15E0012E13DA28E00D98002812D4002C0DD10021C9434B
:203AA00004A802F08FF8002806D50B98002803D50020802109066FE1002000216CE102F09B
:203AC000D9F822210160002C0CD10021C94304A802F078F8002805D50B98002802D5002069
:203AE000AE4959E10020B74956E10B98002809D5002C07D502F0BEF8212101600020C0431F
:203B0000410849E10AA803C80022002302F0BAF802D269468A800DE00AA803C8802212061B
:203B200051400AAA03C20021C94304A802F04AF869468880012E15D10AA803C898A20CCA15
:203B400002F0B9F80ED2002400265C4F0AA80CC800208021C90500F068FB0AAA03C21CE010
:203B6000FF0700000AA80CC800208F4900F05DFB0022554B02F0B8F800F022FC0400203CA7
:203B80002000FFF7C7FE0022884B00F04EFB00224D4B02F0A9F806000F0000BF8EA061016B
:203BA000401806900AA803C832003B0002F0FFF804000D000AA803C832003B0002F094F8CB
:203BC00002000B002000290002F068F904AA03C204A803C804AA0CCA00F027FB08AA03C245
:203BE0000AA830C008A803C802F0BAF908AA0CCA00F01BFB0AAA0CCA02F0D9F804000D0017
:203C000000202E4932003B0002F0D1F800228023DB0500F00AFB22002B0002F065F804AA01
:203C20000CCA00F002FB02000B000AA803C802F05BF808AA03C208A803C85FA20CCA02F037
:203C40002DF904AA03C2009800B2FFF763FE06000F00069803C832003B0002F045F804AA62
:203C60000CCA02F041F804AA03C20CA80CC804A803C800F0DAFA02AA03C202A803C8002205
:203C80004B4B02F018F873D302A803C80122494B01F0F8FF6FD902A803C80022002302F03E
:203CA0000AF802A80CC80BD2002003490EE000BFFFFF0F80FE0300000000E0BF0000F03F32
:203CC0000020014902E000BF0000E03F02F00CF800F076FB040008A803C80CAA0CCA00F068
:203CE000A4FA02AA03C20698083003C8069A10320CCA01F0F9FF0CAA0CCA00F096FA2EA297
:203D00000CCA00F092FA02AA0CCA01F0EDFF02AA03C2069803C832003B0001F0E5FF0CAA20
:203D20000CCA00F082FA06000F002000FFF7F2FD02000B003000390002F039F81EA20CCAF8
:203D400000F073FA02AA0CCA01F0CEFF02AA03C21498002801D00480002400940022184BEF
:203D600002A802F04FF9002802D0012803D00AE00020002101E00020124902AA03C201F080
:203D800079FF22210160019800B2002802A803C802D08022120651400FB0F0BD0000F0FFA7
:203DA000CD3B7F669EA0E63F000050400000903F0000E0C00000E040EF39FAFE422EE63FDF
:203DC0000000F03F0000F07F10B582B000240094FFF7CAFD1CBD0000000000000000F0BF51
:203DE000000000000000008000000000000000800000000000000000000000C05294EEBF70
:203E000000000048204E51BE000000F86467BCBC0000000000000000000000208133EDBF22
:203E200000000080B3DB14BE000000506706A3BC0000000000000000000000D0E9DCEBBF47
:203E400000000008C39259BE00000080B0D3B8BC000000000000000000000070F98FEABFD6
:203E6000000000C0A51028BE000000E8BFC0B0BC000000000000000000000070284CE9BF88
:203E800000000060134B42BE000000C03D20B8BC000000000000000000000050FA10E8BFD2
:203EA000000000C05FF62BBE000000905C71A7BC000000000000000000000020FCDDE6BFA6
:203EC000000000C0F8F154BE00000018E9F6B9BC0000000000000000000000D0C3B2E5BFD2
:203EE00000000070E43254BE00000050DB06B4BC000000000000000000000010EF8EE4BF59
:203F000000000020F36252BE000000C02A879ABC0000000000000000000000B02272E3BF6F
:203F2000000000F0E8E056BE00000028352DBDBC0000000000000000000000000A5CE2BFAB
:203F4000000000B0FA8E41BE00000040AE6FBDBC000000000000000000000000564CE1BF12
:203F6000000000F015CD5FBE00000000141C90BC000000000000000000000040BD42E0BFF8
:203F800000000030F93457BE000000E06C1E93BC0000000000000000000000E0F57DDEBF07
:203FA000000000B08A535EBE00000080DA77AABC0000000000000000000000C09D81DCBFA8
:203FC00000000000FFA226BE0000006057E2B0BC000000000000000000000060F98FDABFD6
:203FE000000000580A8151BE000000F05F60B8BC00000000000000000000000098A8D8BFD5
:020000040800F2
:20400000000000607A7F45BE000000D05433A3BC0000000000000000000000600FCBD6BFBF
:20402000000000D091CB40BE000000406D1BA0BC0000000000000000000000A0FBF6D4BF0E
:2040400000000098C5CE52BE000000003A397EBC0000000000000000000000E0FE2BD3BFDD
:204060000000004073872BBE00000000926879BC000000000000000000000040C069D1BFF5
:2040800000000058F16353BE00000080438D7CBC000000000000000000000080D85FCFBF96
:2040A000000000181F8354BE000000B03F42A2BC00000000000000000000008067FCCBBF38
:2040C00000000060FAFF53BE00000050E00DB8BC00000000000000000000000098A8C8BFFE
:2040E000000000607A7F35BE000000C0543393BC000000000000000000000000DC63C5BF1B
:2041000000000058D6FF54BE00000000396490BC0000000000000000000000C0AD2DC2BF5C
:2041200000000080A45915BE000000E0484BABBC0000000000000000000000801A0BBEBF33
:2041400000000050BF3C5ABE000000A0B364B6BC00000000000000000000008004D6B7BF03
:2041600000000040BBCF36BE0000008076CEA8BC00000000000000000000008032BBB1BF7C
:20418000000000402A0043BE00000028C60CBDBC0000000000000000000000009473A7BFD4
:2041A000000000182B3B59BE000000C0E55DA5BC000000000000000000000000EE4397BF80
:2041C000000000A0E6C340BE00000020958DB5BC0000000000000000000000000000008065
:2041E000000000000000008000000000000000800000000000000000012212060118CA425F
:204200000AD28A420DD83822120609098918C20FD20711434007704700D049080909014379
:2042200001E0C10FC90700207047F0B50E005E400125ED072E40B446AE0ADF184C18F4420A
:2042400008D2F7420ED2640D01D07F0D12D100206146F0BD05D1F74201D87F0D05D10020DC
:20426000C143F0BDFBD1640DF9D00020C143490549088FE0E419C902DB0229432B43DB0AF1
:20428000460DC00231438E4630B487B295B27D432E0CADB2140C7C43A419260C24042543A6
:2042A0009CB27C43A419190C7943270CC919A4B20F043C43090C000C97B247432E0CBE1951
:2042C0003543ADB2170C4743360CBF19A6B2BF193E043543240C3E0C36199FB24743BF19DA
:2042E000BCB23E0C89191F0C47437F183E043443390C704680B297B247432E0CBE193543D6
:20430000ADB2170C4743360CBF19A6B2BF193E043543240C3E0C36199FB24743BF19BCB2A3
:204320003E0C89191F0C47437F183E043443390C77463F0C90B278432E0C80190604ADB206
:204340002E43050CA0B22D18120C7A435019020C80B2240CA4189AB27A4312191404204325
:20436000120C89181B0C7B43C91830BCEF0A394203D1B61940414941641E6F12BF0DE41BDC
:204380000BDBFF19BC4211DA240500274208AE417841614166463143F0BD641C05D1401CD3
:2043A0006141CF0201D34908F4E750E75DE783B50021684601F006FC684603C803B000BD2C
:2043C000F4464A1805D200F00DF801D580174008604700F007F80121C907884200D908008D
:2043E00040426047400DC90208430121C9070843520D40210901521A521C06D452421F3291
:2044000001D4D0407047C017704700207047070010B50400002C01D1012051E02120205CBE
:20442000002802D1200001F049FF022021216054CA2021684862532021684862200000F03D
:20444000CAF9002807D0FF2021684862042021342070012034E02068806878490140206810
:20446000816020688068616822690A43A1691143014320688160E068216808612068006914
:20448000A16809040143206801612068C068802188432168C8602068C06C032188432168DF
:2044A000C8642068C06CE16962690A4302432068C264FF202168486201202134207000204F
:2044C00010BDF8B504000D0000262020205C012801D1022084E00120202160540220212174
:2044E0006054002A1BD120688068400601D400202872287800F08CF90700687800F088F940
:204500000600A87800F084F9FFB23904F6B232020A43C0B21043297A0E04064314E02068B2
:204520008068400604D5287800F07EF9060001E00020287228780004697809020143A878D8
:204540000843297A0E040643CA2021684862532021684862200000F03EF900280AD0FF20E7
:2045600021684862042021216054002020342070012035E088483040216808602068806813
:20458000864901402068816020688068E9682A690A430243206882602068C0688021884336
:2045A0002168C8602068806880060FD4200000F0F9F800280AD0FF202168486204202121B6
:2045C0006054002020342070012009E0FF202168486201202121605400202034207000208C
:2045E000F2BD10B50C0000210168896A616000680068694901400800000C8006800E207082
:204600000800000A4006400E607008004006400EA0700800000C402108402072002A0BD123
:20462000207800F001F92070607800F0FDF86070A07800F0F9F8A070002010BDBFFF8FFF99
:20464000F8B504000D0000262020205C012801D1022077E001202021605402202121605418
:20466000002A07D16878C00604D56878EF2101400A316970002A15D1E87800F0C9F807004C
:20468000687800F0C5F80600A87800F0C1F8FFB23904F6B232020A43C0B2104329784E03F0
:2046A000064311E0687800F0BFF80600A87800F0BBF80600E8780004697809020143A878B6
:2046C000084329784E030643CA2021684862532021684862200000F07EF800280AD0FF20EA
:2046E00021684862042021216054002020342070012027E02A483040216848602068C0687E
:20470000802188432168C8602068806880060FD4200000F047F800280AD0FF202168486200
:20472000042021216054002020342070012009E0FF20216848620120212160540020203474
:2047400020700020F2BD000010B50C00002100684068134901400800000CE0700800000AE5
:20476000C006C00E607008008006800EA0700800400B4007400F2070002A0BD1E07800F0E2
:2047800053F8E070607800F04FF86070A07800F04BF8A070002010BD7F7F7F00FFFFFBFFE2
:2047A0003FFFFF0038B504002068C068A02188432168C860FDF739FB05002068C06880067B
:2047C00007D4FDF732FB401B10498842F5D3032000E0002032BD38B504002068C06840069E
:2047E00012D40020C0432168C860FDF71EFB05002068C068400607D4FDF717FB401B03496F
:204800008842F5D3032000E0002032BDE903000000B5002101E0491C0A38C0B20A28FADA32
:2048200009010843C0B200BD00210100C9B20909C9B20A225143C0B20007000F0818C0B2F0
:204840007047FEE70CB41CB5040004A80190009401AB0A006946084878441C3001F05EFD4D
:204860000021009A1170002801D40098001B02B0019910BC03B008477FCAFFFF010000E00A
:20488000491C0A78002AFBD1081A704710B50400002C01D1012030E0A0690028FFD16920E0
:2048A000205C002802D1200000F02AF8022069216054206800680121884321680860200001
:2048C00000F01DF9606A002802D0200000F076FA2068406809490140206841602068806832
:2048E0002A21884321688860206800680121014320680160200000F026FA10BDFFB7FFFF41
:20490000704770B505000C001E006920285C012803D06920285C222862D1002C02D092B2B7
:20492000002A01D101205CE06820285C012801D1022056E001206821685400206A216854F2
:204940006920285C222803D132206921685402E012206921685450202A5252202A5205E07B
:204960002088C005C00D29688862A41C5220285A00281BD05220285A401E52216852330009
:2049800000228021280000F08BFA002801D0032027E0A86880214901884202D12869002843
:2049A000DED0207829688862641CDFE7330000224021280000F074FA002801D0032010E0A8
:2049C0006920285C322803D122206921685402E0012069216854002068352870002000E076
:2049E000022070BD13B504006920205C012803D06920205C12283FD10198002802D092B275
:204A0000002A01D1012038E06820205C012801D1022032E0012068216054019860655820FA
:204A2000225200206A2160546920205C122803D132206921605402E0222069216054124844
:204A4000616EC8621148616E08630C48616E486301A892B21300026821682431606E00F0F6
:204A60001BFF206880684021014320688160002068342070002000E0022016BDD74A000834
:204A80007047704770470000914A0008CD4A000880B50100886A09680968890613D400214E
:204AA0005A2281520168896840229143026891606921415C322903D112216922815402E0F1
:204AC000012169228154FFF7DBFF01BD80B5806AFFF7D7FF01BD80B5806A00215A2281528E
:204AE0000021522281520121692281546A21415C10220A436A214254FFF7C4FF01BD38B5A0
:204B000004000021002000210025A16822690A4363691343E169194322681268A04B13401F
:204B2000194322681160216849689E4A0A40E168114322685160A269216A1143226892686C
:204B4000994B13401943226891602168974A914214D1974909688907890F002905D0022983
:204B600005D006D3032906D007E0012040E002203EE004203CE008203AE039E021688D4A22
:204B8000914215D18A4909680C220A40002A06D0042A08D0082A04D00C2A06D007E0002081
:204BA00026E0022024E0042022E0082020E01FE02168814A91421BD17D490968C02212013D
:204BC0000A40002A0CD08021C9008A420CD0802109018A4206D0C02109018A4206D007E0B2
:204BE000002005E0022003E0042001E00820FFE72168714A91422ED1002806D002280FD07B
:204C0000042814D008281DD024E0FEF773F88021490048436168FEF7B6F82168C86091E000
:204C20009E486168FEF7AFF82168C8608AE0FEF709F88021490048436168FEF7A4F82168C0
:204C4000C8607FE0802000046168FEF79CF82168C86077E076E0E1698022120291423FD196
:204C6000002808D001280FD0022816D004281AD0082822D028E0FEF73DF80221484361683B
:204C8000FEF781F805001FE0FEF740F8022148436168FEF778F8050016E0BA486168FEF7DE
:204CA00072F8050010E0FDF7CDFF022148436168FEF769F82168C86006E0802040026168C6
:204CC000FEF761F80500FFE7AF4929402807000FC0B24008C0B2014389B22068C16031E097
:204CE000002808D001280ED0022814D0042819D008281FD026E0FDF7FDFF6168FEF743F87C
:204D00002168C8601EE0FEF701F86168FEF73BF82168C86016E09D486168FEF734F8216806
:204D2000C8600FE0FDF78EFF6168FEF72CF82168C86007E0802000026168FEF724F821685C
:204D4000C860FFE731BD10B504002068006800070AD58F4B002280218903200000F0A0F8E7
:204D6000002801D0032018E02068006840070AD5874B00228021C903200000F091F80028E7
:204D800001D0032009E000206821605400206A216054012069342070002010BD000000003F
:204DA000F369FFEFFFCFFFFFFFF4FFFF003801404C100240004400400048004000B52421CF
:204DC000415CC90707D501684968724A0A40816A1143026851602421415C890707D5016859
:204DE00049686D4A0A40C16A1143026851602421415C490707D501684968684A0A40016BD7
:204E00001143026851602421415C090707D501684968634A0A40416B1143026851602421E4
:204E2000415CC90607D5016889685E4A0A40816B1143026891602421415C890607D501688D
:204E40008968594A0A40C16B1143026891602421415C490614D501684968544A0A40016C10
:204E6000114302685160016C80225203914207D1016849684E4A0A40416C1143026851609C
:204E80002421415C090607D501684968494A0A40816C11430068416000BD0000000024F42F
:204EA000F2B5040017001D000026FCF7BEFF0600FFB2002F31D12068C06900990140009832
:204EC00081425CD00020C0438542F4D0002D04D0FCF7ABFF801B8542EDD2206800688021E5
:204EE0008843216808602068006820218843216808602068006830490140206801602068EE
:204F000080680121884321688860032069216054002068342070032032E02068C06900991F
:204F20000140009881422AD10020C0438542F4D0002D04D0FCF779FF801B8542EDD2206817
:204F4000006880218843216808602068006820218843216808602068006817490140206886
:204F60000160206880680121884321688860032069216054002068342070032000E0002032
:204F8000F2BD00000048E801F0FF00000024F400F0550000FFFFFDFFFFFFFEFFFFFFFBFFF8
:204FA000FF7FFFFFFFEFFFFFFFDFFFFFFFFFEFFFFFFF9FFFFFFFF7FFFFFEFFFF10B588B039
:204FC00000206946087000247E480078002800D0CFE07948007801286FD176487A490860F6
:204FE0007648029076480190012001A90872012001A94872012001A988728020C005059089
:205000006F480490012001A90875012001A94875012001A988756C4800680068002808D128
:2050200000206949086064480078401E624908709CE001A86449096809688847002808D00E
:205040000020614908605C480078401E5A4908708CE05D4800684068002808D100205A49A4
:20506000086055480078401E534908707EE068465549096849688847002808D000205249EB
:2050800008604D480078401E4B4908706EE068460078692808D14D484B490968086401202C
:2050A00048490870012461E000204749086042480078401E4049087058E000203E490870B1
:2050C0004348414908603D48029042480190012001A90872012001A94872012001A9887292
:2050E0008020C00505903B480490012001A90875012001A94875012001A988753248006825
:205100000068002804D100202F490860012031E001A82D49096809688847002804D000200C
:2051200029490860012025E0274800684068002804D100202449086001201BE068462249C9
:20514000096849688847002804D000201E49086001200FE068460078682807D12A481A4900
:20516000096808640120174908700124002C00D12FE7002008B010BD12480078704780B5BE
:20518000224909688968002901D1012003E01F4909688968884702BD80B51C49096809696E
:2051A000002901D1012003E0184909680969884702BD0000B8000020330200200000FA44B3
:2051C0000000D042BB080020A00800200C020020740000200000EE4200B50C480068002887
:2051E00001D100200EE0094800680949884201D1012007E0054800680649884201D102205E
:2052000000E0002000BD000004020020A008002074000020B800002000B5C9B20A00F02A23
:2052200002D0F12A06D00BE0F1210170F2214170022007E0F1210170F1214170022001E027
:205240000170012000BDF8B506000F000024002506E0781901793019FFF7DEFF24186D1C22
:2052600038688542F5D3F0203055641C2000F2BD00B5C0B2F1280FD1C9B2F12903D1F12081
:20528000107002200AE0C9B2F22903D1F0201070022003E0002001E01070012000BD00B56F
:2052A0000021002203E083181B79C91A521C03689A42F8D3821811710168491C016000BD2E
:2052C00000B50021002203E083181B79C918521C03689A42F8D30268521E0260C9B2002983
:2052E00001D1012000E00020C0B200BD10B5002303E00C00C454090A5B1C9342F9D310BDA5
:2053000000B5491E425C03E01202491E435CD2180029F9D1100000BD10B5002303E00C0055
:20532000C45409125B1C9342F9D310BD00B583B000206946087136480078002845D1354874
:205340003549086000206946887000206946487040206946C8701C20694608702E48006891
:205360000068002804D100202B49086001202DE068462949096809688847002804D00020B1
:2053800025490860012021E0234800684068002804D1002020490860012017E001A81E4984
:2053A000096849688847002804D000201A49086001200BE0684600793D2806D117481649E8
:2053C0000968086101201249087000200EBD10480078704780B5104909688968002901D1A2
:2053E000012003E00C4909688968884702BD00B509480068002801D1002007E0064800683F
:205400000449884201D1012000E0002000BD0000BC080020A8010020A4080020EC0100203F
:2054200010B584B0002069460872002475480078002800D0BAE074480078012866D17348F0
:205440007349086010206946087000206946087108206946C8700120694648710120694621
:205460004870042069468870694800680068002808D100206649086063480078401E6249C4
:20548000087090E068466249096809688847002808D000205E4908605B480078401E5A49CF
:2054A000087080E05A4800688068002808D100205749086054480078401E5349087072E021
:2054C00002A85349096889688847002808D000204F4908604C480078401E4B49087062E07D
:2054E0006846007ABD2808D14A48494909680863012044490870012455E000204449086031
:2055000041480078401E404908704CE04248404908601020694608700020694608710820BD
:205520006946C870012069464871012069464870042069468870364800680068002804D15D
:20554000002033490860012031E068463049096809688847002804D000202D490860012022
:2055600025E02B4800688068002804D100202849086001201BE002A8254909688968884708
:20558000002804D000202249086001200FE06846007ABD2807D121481D490968086301205B
:2055A000184908700124002C00D144E7002004B010BD14480078704780B515490968496AE2
:2055C000002901D1012003E011490968496A884702BD00B50E480068002801D100200EE045
:2055E0000B4800680C49884201D1012007E0084800680649884201D1022000E0002000BD75
:2056000000000000BD0800203402002030010020A8080020FC010020FC000020F4010020E0
:20562000E0B50020694608703848007800283CD1374838490860032001A94871354800688E
:205640000068002804D100203249086001202DE001A83049096809688847002804D00020C5
:205660002C490860012021E02A4800688068002804D1002027490860012017E06846254940
:20568000096889688847002804D000202149086001200BE068460078BC2806D11E481D4932
:2056A0000968C86201201949087000200EBD17480078704780B517490968496A002901D127
:2056C000012003E013490968496A884702BD80B510490968896A002901D1012003E00D4971
:2056E0000968896A884702BD00B50A480068002801D1002007E0074800680549884201D1A7
:20570000012000E0002000BD00000000BA080020640100209C080020E40100207047FEE7DF
:2057200000B50022002801D1012098E002212522815401680A681100494A0A4011008268FC
:20574000C368134302691A434369134382691A43C3691343026A1A430A4301680A600168E2
:20576000404A91420CD1404909680F2291433E4A11603D49096842680A433B490A606AE0D1
:2057800001683A4A91420DD137490968F0229143354A116034490968426812010A43324931
:2057A0000A6058E00168324A91420DD12E490968304A0A402C490A602B4909684268120283
:2057C0000A4329490A6046E001682B4A91420DD125490968294A0A4023490A60224909689D
:2057E000426812030A4320490A6034E00168244A91420DD11C490968224A0A401A490A60D5
:2058000019490968426812040A4317490A6022E001681D4A91420DD1134909681B4A0A40DF
:2058200011490A6010490968426812050A430E490A6010E00168164A91420CD10A490968DE
:20584000144A0A4008490A6007490968426812060A4305490A60012125300170002000BD98
:205860000FC0FFFF08000240A80002401C00024030000240FFF0FFFF44000240FF0FFFFFD8
:2058800058000240FFFFF0FF6C000240FFFF0FFF80000240FFFFFFF038B504002420205C67
:2058A000012801D1022027E0012024256055022025256055206800680125A843256828606E
:2058C000200000F01AF820680068022101432068016020680068042101432068016020689C
:2058E00000680821014320680160206800680121014320680160002032BD10B504686360A8
:205900008368102B04D103689A600068C16003E0036899600068C26010BDFEE780B50120C5
:20592000FFF77EFDC0B2002801D1002005E0C0B2022801D1022000E0012002BD70B505000B
:205940003748006801F0FAF8060064204643344801683448FBF775FC04003000FBF762FC22
:2059600001002000FDF77EFF01F0E8F8040030006421FDF708FA0600022231002800C01DB5
:20598000FFF7B4FC6C720020E87208202860002070BD80B50120FFF743FEC0B2002801D113
:2059A000002005E0C0B2022801D1022000E0012002BD38B504001C480068FBF7A1FCE071F5
:2059C000194801681748FBF73CFC0500E07964214843FBF71BFC01002800FDF743FFFBF7AC
:2059E0008FFC207211480068FBF78AFC60720F4801680C48FBF725FC0500607A6421484369
:205A0000FBF704FC01002800FDF72CFFFBF778FCA0720020E07208202060002032BD0000AB
:205A2000840800200000C842880800208C08002080B50120FFF7C2FAC0B2002801D10020B8
:205A400005E0C0B2022801D1022000E0012002BD10B504000422474801682000C01DFFF737
:205A60005BFC04224348416820000B30FFF754FC04224048816820000F30FFF74DFC0F2070
:205A80002060002010BD10B5040004223A4801682000C01DFFF740FC042237484168200022
:205AA0000B30FFF739FC04223348816820000F30FFF732FC0F202060002010BD10B504000E
:205AC00004222C4801682000C01DFFF725FC04222848416820000B30FFF71EFC0422254872
:205AE000816820000F30FFF717FC04222248016820001330FFF710FC04221F4841682000A1
:205B00001730FFF709FC04221B48816820001B30FFF702FC1B202060002010BD80B5012074
:205B2000FFF704FCC0B2002801D1002005E0C0B2022801D1022000E0012002BD10B50400E5
:205B400004220E4801682000C01DFFF7E5FB04220A48416820000B30FFF7DEFB04220748CD
:205B6000816820000F30FFF7D7FB0F202060002010BD00003C080020480800205408002029
:205B800030B401004B68802212061A4001201B031B0B4B600BD10B68002B08D10DE00B6896
:205BA0006400DD0F25434D605B000B60401E4C68E302F4D523031B0B4B604B681A434A6049
:205BC00030BC704742685200520D1F4B9A4209D14168090304D10068002801D101207047E3
:205BE0000220704743685B0002D10368002B28D0164B9A1A521A012A23DB352A07DB4168D1
:205C000080221206114041600021016016E00121D306DB0E9940491E920608D542680A40D3
:205C200041685140416003681343002103E003680B40016859400160002B02D00020C0438B
:205C400070470020704700BFFF0700003304000090420ED1A4460C001C430128644107D00F
:205C6000994205D14C006415641C644000D30C036446704780B5024800F073FF02BD0000A7
:205C80002C02002030B4012464054D00EC420BD85D00EC4208D80C001C436400044314430E
:205CA00004D28B4200D1824230BC7047FCD09942FAD19042F8E730B4012464054D00EC42F9
:205CC0000BD85D00EC4208D80C001C4364000443144304D2994200D1904230BC7047FCD046
:205CE0008B42FAD18242F8E7F0B40125ED070F005F404FD48B4200D1824205D984461000C0
:205D000062468C4619006346DF184C18640D7F0D3AD0661C760537D0E61B352E34DCDB0290
:205D20002B43DB0A0C0DC9022943C912202E0DDB1700203E06D01F00F741F3405F40002615
:205D4000012A7741C01871410DD217E01700F741F2405740F3415A40B340F3405A40002634
:205D6000801859410AD3A21C52050FD0C207012F724117004008CB0718434908641C2405EE
:205D80004208AF4170416141F0BC7047641C21050020F9E76B4010E06B40ABE7F742F3D198
:205DA000E943F1E72442EFD100200021ECE7F0B40125ED070F005F40EED40C00871A9C41ED
:205DC00005D2C01BA141D219634169406B40AE0ADF184C18F442E1D2640D7F0DE2D0E61BA0
:205DE000362ED1DCDB022B43DB0AA4460C0DC9022943C90A012E28DC04D1D6075208DF0730
:205E00003A435B08EF0A76429041994114D039423BD1B61940414941761C394204D1761C8D
:205E2000001849413942FAD0B9436746B74208D9A41B24052143A7E70042EAD13642E8D1F0
:205E4000A2E7E40AE10700209EE7202E0BDD203E1F00F340F7415F40012A002257417E42DC
:205E6000984191410BE01700F741F2405740F3415A40B340F3405A407E42904199410A036E
:205E800003D2641EB619404149410027641E24054208AE4178416141F0BC7047F0B40E0056
:205EA0005E400125ED072E40B446AE0ADF184C18F4423BD2F74241D2640D43D07F0D38D008
:205EC000E41BC902DB0229432B43CF0ADB0A0600B61A9F4104D2641EB6197F41B6185F4178
:205EE0006812800D24180018844222DAE80C0021B6197F41B61A9F4102D2B6185F413F1C94
:205F000040414941F4D3241C21DD2405B6197F41B61A9F4105D33743C60737430026012F1A
:205F20007041614166463143F0BC7047FCD1F74205D20020C14349054908F3E704D000201D
:205F4000C143F1E77F0DFAD000206146ECE72442FAD1401C61410F03F6D30020E2E7FEE79D
:205F600038B504000D0019A003C822002B00FEF75CF918A20CCAFFF7B7FE22002B00FEF78B
:205F800054F916A20CCAFFF7AFFE22002B00FEF74CF914A20CCAFFF7A7FE22002B00FEF793
:205FA00044F912A20CCAFFF79FFE22002B00FEF73CF910A20CCAFFF797FE22002B00FEF7BB
:205FC00034F90EA20CCAFFF78FFE34BDF7DE29BFD8F8C23FF4B3FECC1A99C33F62CB68D978
:205FE0006F46C73FC6C912DAC471CC3F4AE98A942449D23FF75F97999999D93FBC555555D1
:020000040800F2
:206000005555E53FF1B586B014001D00C0C83000390000F0A7FD694608802000290000F0B0
:20602000A1FD009909B2002906D500284DD4022805D1069830C024E00229F8D121E0002872
:206040000AD10022894B30003900FFF701FE0FD0069830C00020FFE0012814D10022804BAA
:2060600030003900FFF7F4FD02D0069830C04DE0FFF700FE212101600020C0434108069AA0
:2060800003C20220E8E0009800B200280FD1069830C00C99069800F083FD040002D0012CBB
:2060A00000D0D8E0FFF7E6FD22210160D3E000226E4B30003900FFF7CBFD0DD120002900FF
:2060C000FEF7B3F8069A03C220E0300039000022644BFFF7F0FD08D2002320002900FEF763
:2060E000A4F8069A03C20020B6E001225E4BFFF7C9FD0DD800225D4B20002900FEF795F8E7
:20610000069A03C2FFF7B6FD222101600120A3E057A20CCAFEF789F800220023FFF7CBFDE1
:2061200001D2554B00E0644BFFF7DEFDFEF748F90290FDF7EFFB6A4603C2684603C84FA207
:206140000CCAFEF772F802000B0030003900FFF72EFE06000F00684603C84AA20CCAFEF72D
:2061600064F802000B0030003900FFF720FE06000F0046A20CCAFFF785FD07D80022454B5D
:20618000FFF799FD02D22000290054E032003B00FEF74BF86A4603C2684603C83EA20CCAD9
:2061A000FEF743F83EA20CCAFFF79EFD02000B00684603C8FEF739F804AA03C2684603C8D0
:2061C00039A20CCAFEF731F839A20CCAFFF78CFD02000B00684603C8FEF727F80022364B83
:2061E000FFF782FD02000B0030003900FEF71DF806000F0004A80CC83000FFF775FD00225B
:20620000164BFFF771FD0090019104A803C832003B00FFF7CCFD0022104BFFF765FD02001D
:206220000B0000980199FFF739FE02000B0020002900FDF7FAFF069A03C202980C994118B4
:20624000069800F0ADFC040001D0012C03D1FFF711FD22210160200007B0F0BD0000F03FD6
:206260000000F0FF00C89CC000C89C400000F07FFE822B654715F73F0000E0BF000000F8BF
:20628000422EE63FF2E4D5BCE7E84B3EFEFFFFFFFFFF8FBC0000903C112E5781A03F503F15
:2062A0005843128C8F71BC3F4BE8A541B752013F0BBDF3DAE8708C3F0000E03F00B597B075
:2062C0000C2008900020129001200D9000200A9008A8FCF7F7F8002801D0FCF7EDF820201D
:2062E0000090802080020590684600F0E7FC002801D0FCF7E1F8084800688021C9020143A9
:206300000548016000220F210220FBF7A7F90220FBF7A9F917B000BD50100240F9B595B0FA
:2063200014004A487844FF3025300CC813A80CC0099108AD0020E86101E00098241800208F
:206340006946C88013AB0022D243210001A8801C00F088FD0090012805DA2078411E89411D
:20636000C943C90F00916846C0882528009E00D1761E012E0EDB270039780998159A90474B
:206380000990002800D1EBE1E869401CE8617F1C761EF1D16846C088252804D100202861F7
:2063A0006861A86108E06846C0880028C5D1E869D8E1010001200843641C21782029F8D0CE
:2063C00023290ED02B2904D02D2907D030290BD00DE001000220084380B2EDE70100042084
:2063E000F9E701000820F6E701001020F3E72A2912D116990968169A11600A68091D169BEC
:2064000019606A62002A05D55142696201000420084380B2641C12E0002169620AE06A6A17
:206420000B4B9A4205D093009A185200511830396962641C21780A00303A0A2AEFD3217805
:206440002E2907D00021C943296225E02C270000FFFFFF7F641C21782A290AD1169909681B
:20646000169A11600A68091D169B19602A62641C12E0002129620AE02A6ABB4B9A4205D05A
:2064800093009A185200511830392962641C21780A00303A0A2AEFD328852678310000BF4A
:2064A000B2A000F0EDFC002801D0641C00E000262A202E54285C682806D12078682803D17F
:2064C00062202A216854641C02A8E8602678641C252E13D0582E49D0632E00D1A5E0642E55
:2064E0007DD0692E7BD06F2E40D0702E31D0732E0AD0752E3AD0782E38D0BEE00120286103
:20650000252069460872C4E02A20285C6C28169800681699086017D00668001D1699086051
:20652000AE602F6A002F03D53000FEF7A7F909E03A000021300000F0ADFC002801D0801B47
:2065400000E038006861A4E00268001D169908608CE016980068169908600168001D169A69
:206560001060089102A8A86078215AE02A202A5C6C2A01D1169810E0712A01D1169802E0BA
:206580006A2A169809D10368DB1D072083431698036003CB169F3B6005E001680160086841
:2065A000091D169B19600890682A01D180B202E0622A01D1C0B208902820285C00072BD540
:2065C0000898002828D020203043782824D13020694608720220286102A846701CE0169984
:2065E0002A20285C00F0C6F80890002804D52869411C29612D210DE0288D810704D528692C
:20660000411C29612B2105E0C00705D52869411C2961202102AA115402A829694018A8605B
:20662000310008A800F0F6F933E02A20285C6C280CD0012028611698006816990860016809
:20664000001D169A10606846017222E016980068169908600168001D169A106068460180D8
:20666000002069464880C04328626A4608A9159800F0A6F800280CD572E001202861252010
:2066800069460872002E04D02869411C296102A90E54686A2969401AA969401A6969401AF4
:2066A00000902820285C400710D4202069460871002608E0012301AA08A9159800F026FAA0
:2066C00000284DD1761C00988642F3DB2F6902AE0BE031780998159A9047099000283FD0E1
:2066E000E869401CE861761C7F1E002FF1D1302069460871AF69002608E0012301AA08A966
:20670000159800F003FA00282AD1761CBE42F4DB6F69AE680BE031780998159A9047099019
:2067200000281DD0E869401CE861761C7F1E002FF1D12820285C400700D400E62020694672
:206740000871002600E0761C0098864200DBF6E5012301AA08A9159800F0D8F90028F2D03A
:206760000020C04317B0F0BDFFFFFF7F686C747A4C000000622815D068280CD06C2818D0A1
:20678000742816D07A2814D10A680A601068121D0A60002170470A680A601068121D0A603E
:2067A00000B20BE00A680A601068121D0A6040B204E00A680A601068121D0A60C1177047FD
:2067C000F4B598B007000C00206A002800D58E48019000F06BFB616A081804908BA003C8FC
:2067E00006AA03C22820205C400702D40498412805D208A803904020049000260EE000F02C
:206800005BFB03900028F8D10020C043FAE01898801C189001980099401A019001980128CE
:2068200000DA93E006AA1898018802A8401C00F09FFB0090002800D596E01898008800282F
:2068400004D10098401E009000D58DE00198009988427BDB20690499009A8218914264D2E6
:20686000002161624142A069081A6169401A05902820205C400710D4202069460872002550
:2068800008E0012302AA2100380000F03FF900286AD16D1C05988542F3DB2669039D0AE088
:2068A00029786068B847606000285DD0E069401CE0616D1C761E002EF2D1302069460872EE
:2068C000A669002508E0012302AA2100380000F01DF9002848D16D1CB542F4DB6669A56801
:2068E0000AE029786068B847606000283CD0E069401CE0616D1C761E002EF2D12820205C9A
:20690000400710D5202069460872002508E0012302AA2100380000F0F9F8002824D16D1C25
