:020000040800F2
:20000000900C00202D910008A9900008AB900008499100084D910008519100080000000028
:2000200000000000000000000000000055910008AD9000080000000059910008AF90000854
:200040005D9100086191000865910008699100086D91000871910008759100087991000880
:200060007D9100088191000885910008899100088D91000891910008959100089991000860
:200080009D910008A1910008A591000800000000000000000000000000000000A991000870
:2000A000AD910008B1910008B5910008B9910008BD910008C1910008C5910008C9910008A0
:2000C000CD910008D1910008D5910008D9910008DD910008E1910008E59100080000000002
:2000E000B7900008E9910008ED91000800000000000000000000000000000000F19100081F
:2001000000000000F5910008F9910008FD9100080000000000000000000000000000000029
:200120000192000805920008099200080D9200081192000800000000000000000000000090
:2001400000000000000000000000000015920008199200081D92000821920008259200080C
:20016000299200082D920008000000000000000000000000000000000000000000000000F5
:20018000000000003192000800000000000000003592000810B5040000F061FF002801D0B3
:2001A00001203AE000F047F8002801D0012034E094ED000A00F03AFC002801D001202CE0D0
:2001C00094ED010A00F044FD002801D0012024E0A27A617A207A00F095F9002801D001201B
:2001E0001BE094ED030A00F087FA002801D0012013E094ED040A00F06DFB002801D00120F7
:200200000BE0A27D617D207D00F01FF9002801D0012002E000F027FF002010BD10B5040089
:20022000002C01D1012005E001230F22D421200000F094FF10BD80B500208DF80000012302
:200240001222D42100A800F089FF002801D001203EE09DF8000010F0FB008DF800009DF873
:20026000000050F004008DF8000001231222D42100A800F055FF002801D0012028E0012336
:200280000A22D42100A800F069FF002801D001201EE09DF8000010F087008DF800009DF8EF
:2002A00000008DF800009DF8000010F0F8008DF800009DF800008DF8000001230A22D42148
:2002C00000A800F02DFF002801D0012000E0002002BD10B582B004000020ADF8000002239C
:2002E0002822D42100A800F039FF002801D001202CE09DF8010000029DF8001050FA81F0D1
:20030000208002232A22D42100A800F027FF002801D001201AE09DF8010000029DF80010C8
:2003200050FA81F0608002232C22D42100A800F015FF002801D0012008E09DF80100000274
:200340009DF8001050FA81F0A080002016BD10B584B004000020009001A8FFF7BAFF0028FD
:2003600001D0012031E000A800F04DFA002801D001202AE0BDF9040000EE100AB8EEC00A45
:20038000DDED000A20EE200ABDEEC00A84ED000ABDF9060000EE100AB8EEC00ADDED000A59
:2003A00020EE200ABDEEC00A84ED010ABDF9080000EE100AB8EEC00ADDED000A20EE200AD2
:2003C000BDEEC00A84ED020A002004B010BD10B582B004000020ADF8000002232222D4216C
:2003E00000A800F0BBFE002801D001202CE09DF8010000029DF8001050FA81F020800223C9
:200400002422D42100A800F0A9FE002801D001201AE09DF8010000029DF8001050FA81F056
:20042000608002232622D42100A800F097FE002801D0012008E09DF8010000029DF800100E
:2004400050FA81F0A080002016BD2DE9F84304000D00160000208DF8000000275FF0000833
:200460005FF00009E4B2002C01D1002700E00827EDB2002D02D15FF0000801E05FF010081C
:20048000F6B2002E02D15FF0000901E05FF0200901231822D42100A800F060FE002801D0C0
:2004A00001202DE09DF8000010F0F7008DF800009DF8000038438DF800009DF8000010F0D3
:2004C000EF008DF800009DF8000058EA00008DF800009DF8000010F0DF008DF800009DF8BE
:2004E000000059EA00008DF8000001231822D42100A800F015FE002801D0012000E000201C
:20050000BDE8F2832DE9F84304000D00160000208DF8000000275FF000085FF00009E4B238
:20052000002C01D1002700E00827EDB2002D02D15FF0000801E05FF01008F6B2002E02D1A0
:200540005FF0000901E05FF0200901231922D42100A800F003FE002801D001202DE09DF841
:20056000000010F0F7008DF800009DF8000038438DF800009DF8000010F0EF008DF8000061
:200580009DF8000058EA00008DF800009DF8000010F0DF008DF800009DF8000059EA00002E
:2005A0008DF8000001231922D42100A800F0B8FD002801D0012000E00020BDE8F28310B51C
:2005C00084B004000020009001A8FFF700FF002801D0012031E000A800F09DFA002801D042
:2005E00001202AE0BDF9040000EE100AB8EEC00ADDED000A20EE200ABDEEC00A84ED000AA2
:20060000BDF9060000EE100AB8EEC00ADDED000A20EE200ABDEEC00A84ED010ABDF90800EB
:2006200000EE100AB8EEC00ADDED000A20EE200ABDEEC00A84ED020A002004B010BD10B5DE
:2006400082B0040000208DF8000001231022D42100A800F083FD002801D001204AE09DF883
:20066000000010F0F0008DF800009DF80000002814D0102815D0202817D0302819D040286F
:200680001BD050281DD060281FD0702821D0802823D0902825D0A02827D02AE00020206059
:2006A00027E0DFF8E406206023E0DFF8E00620601FE0DFF8DC0620601BE0DFF8D80620604A
:2006C00017E0DFF8D406206013E0DFF8D00620600FE0DFF8CC0620600BE0DFF8C8062060AA
:2006E00007E0DFF8C406206003E0DFF8C0062060FFE7002016BD000010B52DED028B82B07B
:20070000B0EE408A002400208DF80000B5EE408AF1EE10FA01D8002451E09FED930AB4EE59
:20072000408AF1EE10FA01D5102448E09FED8F0AB4EE408AF1EE10FA01D520243FE09FED95
:200740008C0AB4EE408AF1EE10FA01D5302436E09FEDB00AB4EE408AF1EE10FA01D5402499
:200760002DE09FEDAD0AB4EE408AF1EE10FA01D5502424E09FEDA90AB4EE408AF1EE10FAF2
:2007800001D560241BE09FEDA60AB4EE408AF1EE10FA01D5702412E09FEDA20AB4EE408A73
:2007A000F1EE10FA01D5802409E09FED9F0AB4EE408AF1EE10FA01D5902400E0A024012311
:2007C0001022D42100A800F0C9FC002801D0012015E09DF8000010F00F008DF800009DF8C8
:2007E000000020438DF8000001231022D42100A800F096FC002801D0012000E0002002B0D0
:20080000BDEC028B10BD10B582B0040000208DF8000001231022D42100A800F09FFC00288F
:2008200001D0012021E09DF8000010F00C008DF800009DF80000002806D0042810D00828D0
:2008400006D00C2808D00FE0DFF8640520600BE0DFF86005206007E0DFF85C05206003E0DE
:20086000DFF858052060FFE7002016BD10B582B0040000208DF8000001231022D42100A858
:2008800000F06CFC002801D0012021E09DF8000010F00C008DF800009DF80000002806D02C
:2008A000042810D0082806D00C2808D00FE05FF0804020600BE05FF08140206007E05FF0EB
:2008C0008240206003E05FF083402060FFE7002016BD000010B52DED028B82B0B0EE408A82
:2008E000002400208DF800009FEDAE0AB4EE408AF1EE10FA01D5002412E09FEDAB0AB4EEC7
:20090000408AF1EE10FA01D5082409E09FEDA70AB4EE408AF1EE10FA01D50C2400E0042499
:2009200001231022D42100A800F018FC002801D0012015E09DF8000010F0F3008DF80000A4
:200940009DF8000020438DF8000001231022D42100A800F0E5FB002801D0012000E000203D
:2009600002B0BDEC028B10BD010050410100D0410100504210B582B0040000208DF80000EB
:2009800001231122D42100A800F0E8FB002801D001203EE09DF8000010F0F0008DF800004E
:2009A0009DF80000002810D0102811D0202813D0302815D0402817D0502819D060281BD0F6
:2009C00070281DD080281FD022E0002020601FE0DFF8B40320601BE0DFF8B003206017E050
:2009E000DFF8AC03206013E0DFF8A80320600FE0DFF8A40320600BE0DFF8A003206007E043
:200A0000DFF89C03206003E0DFF898032060FFE7002016BD0100D042010050430100D04377
:200A2000014050440180CF440120504510B52DED028B82B0B0EE408A002400208DF80000C8
:200A4000B5EE408AF1EE10FA01D800243FE09FED7B0AB4EE408AF1EE10FA01D5102436E09E
:200A60009FED770AB4EE408AF1EE10FA01D520242DE09FED740AB4EE408AF1EE10FA01D5B8
:200A8000302424E09FED700AB4EE408AF1EE10FA01D540241BE09FED6D0AB4EE408AF1EE20
:200AA00010FA01D5502412E09FEDB10AB4EE408AF1EE10FA01D5602409E09FEDAE0AB4EE2B
:200AC000408AF1EE10FA01D5702400E0802401231122D42100A800F041FB002801D001203B
:200AE00015E09DF8000010F00F008DF800009DF8000020438DF8000001231122D42100A867
:200B000000F00EFB002801D0012000E0002002B0BDEC028B10BD10B582B0040000208DF86D
:200B2000000001231122D42100A800F017FB002801D0012034E09DF8000010F002008DF875
:200B400000009DF80000022802D19D48206026E001231122D42100A800F000FB002801D0C0
:200B600001201DE09DF8000010F00C008DF800009DF80000002806D0042807D0082808D093
:200B80000C2809D00BE08F48206008E08E48206005E08E48206002E08D482060FFE7002050
:200BA00016BD000001000040010080400100004110B582B0040000208DF800000123112227
:200BC000D42100A800F0CAFA002801D0012034E09DF8000010F002008DF800009DF80000E5
:200BE000022802D17B48206026E001231122D42100A800F0B3FA002801D001201DE09DF872
:200C0000000010F00C008DF800009DF80000002806D0042807D0082808D00C2809D00BE0AD
:200C20006D48206008E06D48206005E06C48206002E06C482060FFE7002016BD01005041C8
:200C40000100D041010050420100D0420100504310B52DED028B82B0B0EE408A00240020FE
:200C60008DF800009FED440AB4EE408AF1EE10FA20D50220040001231122D42100A800F0C1
:200C80006DFA002801D001206EE09DF8000010F0FD008DF800009DF8000020438DF80000F1
:200CA00001231122D42100A800F03AFA00285AD0012059E001231122D42100A800F04EFA44
:200CC000002801D001204FE09DF8000010F0FD008DF800009DF800008DF800000123112243
:200CE000D42100A800F01CFA002801D001203BE09FED220AB4EE408AF1EE10FA01D5002415
:200D000012E09FED1F0AB4EE408AF1EE10FA01D5042409E09FED1B0AB4EE408AF1EE10FAEA
:200D200001D5082400E00C2401231122D42100A800F014FA002801D0012015E09DF800000B
:200D400010F0F3008DF800009DF8000020438DF8000001231122D42100A800F0E1F90028B8
:200D600001D0012000E0002002B0BDEC028B10BD0100D043014050440100FA4201007543ED
:200D80000100FA4301007A44000050410000D041000050420000D042000050430000D0436A
:200DA000004050440080CF44002050450020D04523DB793D23DBF93D23DB793E23DBF93E10
:200DC00000008C4000000C4100008C4100000C4200008C420000FA42000075430000FA43E0
:200DE00000007A440000FA4480B500208DF8000001231022D42100A800F0B0F9002801D098
:200E00000120A8E09DF8000010F00F008DF800009DF8000050F060008DF800009DF80000B1
:200E200010F0F3008DF800009DF800008DF8000001231022D42100A800F072F9002801D0D9
:200E4000012088E001235C22D42100A800F086F9002801D001207EE09DF8000010F07F00CF
:200E60008DF800009DF800008DF800009DF8000010F09F008DF800009DF800008DF8000000
:200E80009DF8000010F0EF008DF800009DF800008DF800009DF8000010F0F0008DF8000025
:200EA0009DF800008DF8000001235C22D42100A800F036F9002801D001204CE001235D22D1
:200EC000D42100A800F04AF9002801D0012042E09DF8000010F007008DF800009DF8000050
:200EE00050F030008DF800009DF8000010F0F8008DF800009DF8000050F003008DF800008E
:200F000001235D22D42100A800F00AF9002801D0012020E001235E22D42100A800F01EF93C
:200F2000002801D0012016E09DF8000010F0EF008DF800009DF8000050F010008DF800002E
:200F400001235E22D42100A800F0EAF8002801D0012000E0002002BD80B500208DF80000CB
:200F600001235E22D42100A800F0F8F8002801D001203CE09DF8000010F0EF008DF8000011
:200F80009DF800008DF8000001235E22D42100A800F0C6F8002801D0012028E001235D2283
:200FA000D42100A800F0DAF8002801D001201EE09DF8000010F007008DF800009DF8000004
:200FC0008DF800009DF8000010F0F8008DF800009DF800008DF8000001235D22D42100A820
:200FE00000F09EF8002801D0012000E0002002BD10B582B0040000208DF8000001231B2291
:20100000D42100A800F0AAF8002801D001200FE09DF8000010F020008DF800009DF80000C9
:20102000202802D10120207001E000202070002016BD50F8041B61B150F8042BD30744BF93
:20104000A9F101039A180023091F42F8043BFAD1EFE7704780B500F01CF902BD704780B53F
:2010600000F017F902BD00B58BB0DFF88405006850F00100DFF878150860DFF87405006834
:2010800010F001000090009810200690DFF864050790022009900020089006A9DFF8580534
:2010A00000F0BAFA002200210A2000F03BFC0A2000F04BFCDFF83805006850F00200DFF802
:2010C00030150860DFF82805006810F002000090009801200190DFF81C05029002200490DB
:2010E0000020039001A9DFF8140500F095FA00220021062000F016FC062000F026FC0BB0C6
:2011000000BDF8B504000D0016001F003B009BB23200D2B22900C9B2200000F0C3F8F2BDC3
:20112000F8B504000D0016001F003B009BB23200D2B22900C9B2200000F0B4F8F2BDF8B5C2
:2011400004000D0016001F003B009BB23200D2B22900C9B2200000F0BEF8F2BDF8B5040041
:201160000D0016001F003B009BB23200D2B22900C9B2200000F0AFF8F2BD80B500F0C4F804
:2011800002BD7047F8B504000D0016001F003B009BB23200D2B22900C9B2200000F0BDF83F
:2011A000F2BDF8B504000D0016001F003B009BB23200D2B22900C9B2200000F0C7F8F2BD2D
:2011C00080B500F0DCF802BD704780B500F0D7F802BD7047F8B504000D0016001F003B0008
:2011E0009BB23200D2B22900C9B2200000F0D0F8F2BDF8B504000D0016001F003B009BB246
:201200003200D2B22900C9B2200000F0C1F8F2BDF8B504000D0016001F003B009BB232004F
:20122000D2B22900C9B2200000F0CBF8F2BDF8B504000D0016001F003B009BB23200D2B2D3
:201240002900C9B2200000F0BCF8F2BD80B500F0D1F802BD7047F8B504000D0016001F0020
:201260003B009BB23200D2B22900C9B2200000F0CAF8F2BDF8B504000D0016001F003B00DD
:201280009BB23200D2B22900C9B2200000F0D4F8F2BD80B500F0E9F8002801D0012000E01C
:2012A000002002BD2DE9F04104000D0016001F005FF000083B009BB23200D2B22900C9B289
:2012C000200000F0F2F8002801D0012080464046C0B2BDE8F0812DE9F04104000D001600B8
:2012E0001F005FF000083B009BB23200D2B22900C9B2200000F001F9002801D001208046AC
:201300004046C0B2BDE8F08180B500F0AEF8002801D0012000E0002002BD2DE9F0410400D0
:201320000D0016001F005FF000083B009BB23200D2B22900C9B2200000F0B7F8002801D07A
:20134000012080464046C0B2BDE8F0812DE9F04104000D0016001F005FF000083B009BB22C
:201360003200D2B22900C9B2200000F0C6F8002801D0012080464046C0B2BDE8F08180B522
:2013800000F073F8002801D0012000E0002002BD2DE9F04104000D0016001F005FF0000835
:2013A0003B009BB23200D2B22900C9B2200000F07CF8002801D0012080464046C0B2BDE84A
:2013C000F0812DE9F04104000D0016001F005FF000083B009BB23200D2B22900C9B22000B6
:2013E00000F08BF8002801D0012080464046C0B2BDE8F08180B500F038F8002801D001201D
:2014000000E0002002BD2DE9F04104000D0016001F005FF000083B009BB23200D2B22900C2
:20142000C9B2200000F041F8002801D0012080464046C0B2BDE8F0812DE9F04104000D00A2
:2014400016001F005FF000083B009BB23200D2B22900C9B2200000F050F8002801D00120AC
:2014600080464046C0B2BDE8F08110B50024644800F0FAFC002815D16248614948600020F3
:201480005F49886033205E49C8604FF480405C4908615D485A49086000F062F8584800F0FF
:2014A00071FA04002000C0B210BD2DE9F04184B004000D0016001F005FF000085348006843
:2014C0000290BFB2019700940123F6B2320092B2EDB2290089B24A4800F006FB80465FFAF6
:2014E00088F8B8F1000F03D02800C0B200F02DF84046C0B204B0BDE8F0812DE9F04184B0F5
:2015000004000D0016001F005FF000083F4800680290BFB2019700940123F6B2320092B2CE
:20152000EDB2290089B2364800F070FB80465FFA88F8B8F1000F03D02800C0B200F005F81E
:201540004046C0B204B0BDE8F08110B504002C4800F0A7FA012000F074FEFFF786FF10BD30
:2015600000B587B02248006850F00200204908601F48006810F00200009000984FF44070AE
:2015800001901220029002200490002003900420059001A9194800F03FF81D48006850F491
:2015A00000101B4908601A48006810F40010009000981848006850F4001016490860154809
:2015C000006830F4001013490860002200211F2000F0A8F91F2000F0B8F900220021202035
:2015E00000F0A0F9202000F0B0F907B000BD000030380240000011100000024000040240C2
:20160000AC070020801A0600005400400C0200204038024020380240F8B400230024002529
:2016200000263200102A80F0D6800126964033000E681E4034009C4240F0CB804E68022EDB
:2016400002D04E68122E16D1D60810EB8606366A35000F2612F00707FFB2BF00BE40B543F6
:201660000E6912F00707FFB2BF00BE403543D60810EB860635620668350003261700FFB26D
:201680007F00BE40B5430E7916F003061700FFB27F00BE40354305604E68012E08D04E68AA
:2016A000022E05D04E68112E02D04E68122E19D18668350003261700FFB27F00BE40B543F5
:2016C000CE681700FFB27F00BE40354385604668350001269640B5434E68C6F300169640FF
:2016E00035434560C668350003261700FFB27F00BE40B5438E681700FFB27F00BE40354351
:20170000C5604E68F60064D5434E366856F48046414F3E60404E366816F480460096009E22
:201720003E4E970856F8276035000F2612F00307FFB2BF00BE40B543394EB04201D100265C
:2017400014E0384EB04201D101260FE0364EB04201D102260AE0354EB04201D1032605E086
:20176000334EB04201D1042600E00526F6B212F00307FFB2BF00BE403543284E970846F802
:2017800027502C4E36683500A5434E68F60300D52543284E3560284E36683500A5434E68BF
:2017A000B60300D52543244E3560244E36683500A5434E68F60200D52543204E3560204EA3
:2017C00036683500A5434E68B60200D525431C4E3560521C26E7F1BC7047D2B2002A02D045
:2017E00089B2816102E089B20B0483617047426989B24A404261704710B5040011480068B1
:20180000A4B2204206D0A4B20E480460200080B201F014F810BD00004438024008380140CF
:20182000000002400004024000080240000C024000100240003C0140043C0140083C0140B3
:201840000C3C0140143C014010F00702454B1B6819004FF6FF031940434B53EA022319434D
:20186000404B196070473F480068C0F302207047012110F01F0291403C4A40B2430942F820
:201880002310704710B440B2002808D50A01384B40B210F00F04E31803F8042C03E00A01FC
:2018A000344B40B2C25410BC704770B4030013F00704D4F10706052E01D3042001E0D4F146
:2018C0000700261D072E01D2002500E0E51E012616FA00F0401E0840A8400121A940491E87
:2018E0001140084370BC704710B50400601EB0F1807F01D301200EE0601E1F4908600F2121
:201900005FF0FF30FFF7BEFF00201C49086007201B490860002010BD10B504002000FFF7EA
:2019200093FF10BDF8B504000D0016000027FFF79AFF0700320029003800FFF7B6FF010078
:20194000200040B2FFF79EFFF1BD10B50400200040B2FFF78DFF10BD10B504002000FFF72B
:20196000C3FF10BD0CED00E00000FA0500E100E018ED00E000E400E014E000E018E000E0EA
:2019800010E000E070B5040000250026002C01D1012085E094F83500002805D1002084F824
:2019A0003400200000F099F8022084F8350020680068400840002168086001F041FB0600E3
:2019C000DFF81C01B6FBF0F00500206845606068DFF81011884201D2681C08E04FF496703E
:2019E00000FB05F04FF47A71B0FBF1F0401C216808626068DFF8EC1088420ED260684000A1
:201A0000B6FBF0F00005000D042801D204202AE060684000B6FBF0F025E0A068002805D152
:201A2000606803214843B6FBF0F006E0606819214843B6FBF0F050F48040000501D101209E
:201A400011E0A068002805D1606803214843B6FBF0F006E0606819214843B6FBF0F050F43F
:201A6000804050F400402168C861E069216A0843216808602069E168084321688860606909
:201A8000A16908432168C8602068006850F00100216808600020A063012084F83500002009
:201AA00070BD10B50400002C01D1012014E0022084F83500206800684008400021680860E1
:201AC000200000F00BF80020A063002084F83500002084F83400002010BD704770470000D4
:201AE00040420F00A18601002DE9F04782B005000E0017009846DDF828900B9CDDF830A0CD
:201B000095F8350001287AD1B9F1000F02D0A4B2002C01D1012073E028688069800701D566
:201B200002206DE095F83400012801D1022067E0012085F83400322085F835000020A86310
:201B4000CDF800A043469BB23A0092B2310089B2280000F08FF900280CD0A86B042804D1A8
:201B6000002085F8340001204AE0002085F83400032045E0A4B2002C1FD05346002221499A
:201B8000280000F069FA002801D0032038E099F800002968086119F10109641E286840693C
:201BA0004007E7D5A4B2002CE4D099F800002968086119F10109641EDCE7534600221149F3
:201BC000280000F049FA002801D0032018E02868006850F4007029680860534601220A49E2
:201BE000280000F039FA002801D0032008E0012085F83500002085F83400002000E00220D0
:201C0000BDE8F68780000100020010002DE9F04782B005000E0017009846DDF828900B9C54
:201C2000DDF830A095F83500012840F01681B9F1000F02D0A4B2002C01D101200EE12868CE
:201C40008069800701D5022008E195F83400012801D1022002E1012085F83400422085F8C1
:201C600035000020A863CDF800A043469BB23A0092B2310089B2280000F05AF900280CD070
:201C8000A86B042804D1002085F834000120E5E0002085F834000320E0E0A4B2012C13D15E
:201CA0002868006830F480602968086028684069009028688069009000982868006850F489
:201CC0000070296808601DE0A4B2022C13D12868006830F48060296808602868006850F405
:201CE000006029680860286840690090286880690090009806E028684069009028688069F9
:201D000000900098A4B2002C00F08E80A4B2042C6CDAA4B2012C11D153460022504928006E
:201D200000F09AF9002801D0032097E02868006989F8000019F10109641EE3E7A4B2022C2F
:201D40001ED1534600224749280000F085F9002801D0032082E02868006850F400702968F8
:201D600008602868006989F8000019F10109641E2868006989F8000019F10109641EC1E733
:201D8000534600223749280000F066F9002801D0032063E02868006830F48060296808603D
:201DA0002868006989F8000019F10109641E534600222C49280000F04FF9002801D0032067
:201DC0004CE02868006850F40070296808602868006989F8000019F10109641E2868006929
:201DE00089F8000019F10109641E8BE7534600221B49280000F030F9002801D003202DE0D1
:201E00002868006989F8000019F10109641E2868406940077FF576AF2868006989F800001F
:201E200019F10109641E6DE72868006830F400602968086053460122DFF83410280000F054
:201E40000BF9002801D0032008E0012085F83500002085F83400002000E00220BDE8F68792
:201E6000400001000400010090F8350070470000020010002DE9F04182B004000D001600F6
:201E80001F00DDF820802068006850F4807021680860434600225FF00111200000F0DCF8A9
:201EA000002801D0032041E015F0FE00216808614246DFF89C11200000F03BF9002806D0A2
:201EC000A06B042801D1012030E003202EE020684069009020688069009000984346002292
:201EE000DFF87011200000F0B7F8002801D003201CE0BFB2012F04D13000C0B221680861A9
:201F000013E0B6B2300AC0B22168086143460022DFF84011200000F09FF8002801D0032032
:201F200004E03000C0B2216808610020BDE8F6812DE9F04182B004000D0016001F00DDF859
:201F400020802068006850F48060216808602068006850F4807021680860434600225FF0CD
:201F60000111200000F078F8002801D003206DE015F0FE00216808614246DFF8D41020000E
:201F800000F0D7F8002806D0A06B042801D101205CE003205AE0206840690090206880698F
:201FA00000900098434600222A49200000F054F8002801D0032049E0BFB2012F04D1300094
:201FC000C0B22168086112E0B6B2300AC0B221680861434600221F49200000F03DF8002825
:201FE00001D0032032E03000C0B221680861434600221849200000F02FF8002801D00320E8
:020000040800F2
:2020000024E02068006850F4807021680860434600225FF00111200000F01EF8002801D07C
:20202000032013E055F00100C0B22168086142460749200000F07DF8002806D0A06B04284E
:2020400001D1012002E0032000E00020BDE8F68102000100800001002DE9F04104000D0090
:2020600016001F005FF0000800F0E8F88046F6B2002E2DD1280CC0B201280AD1206840698F
:20208000284080B2A9B2884201D101200BE0002009E020688069284080B2A9B2884201D198
:2020A000012000E00020002840D117F1010FE1D0002F05D000F0C2F8B0EB08008742D9D238
:2020C000012084F83500002084F8340003202EE0280CC0B201280AD120684069284080B2B8
:2020E000A9B2884201D101200BE0002009E020688069284080B2A9B2884201D1012000E0D1
:202100000020002812D017F1010FE1D0002F05D000F094F8B0EB08008742D9D2012084F898
:202120003500002084F83400032000E00020BDE8F081F8B504000D001600002700F07EF800
:202140000700280CC0B201280AD120684069284080B2A9B2884201D101200BE0002009E0F7
:2021600020688069284080B2A9B2884201D1012000E00020002829D120684069400513D5BC
:202180002068006850F40070216808607FF48060216848610420A063012084F8350000200C
:2021A00084F83400012012E016F1010FC9D0002E04D000F043F8C01B8642C2D2012084F8AB
:2021C0003500002084F83400032000E00020F2BD80B52248006850F40070204908601F4835
:2021E000006850F480601D4908601C48006850F480701A4908600320FFF78EFB0F2000F0F9
:2022000005F800F002F8002002BD704710B5040000F002FF4FF47A71B0FBF1F0FFF79CFB40
:20222000002221005FF0FF30FFF77CFB002010BD0B480068401C0A49086070470848006842
:20224000704711B581B00024FFF7F8FF0400FFF7F5FF001B01998842F9D313BD003C024038
:202260006408002000B5C1B0FFF7B2FF00F02AFF002001F021F9002001F056F9012100201F
:2022800001F071F901F0A9FA00F087FA00F0A4FA00A801F0CBF900280FD09DF804003228F9
:2022A0000BD100A801F040FBDFF848060078002803D00020DFF84016087000A800F06DF814
:2022C00000A800F0C3F900A800F003FA00A800F0BCF800A800F060F9DFF818060078002843
:2022E00004D1DFF814060078002803D0002001F02BF902E0002001F017F9DFF8F805007821
:2023000000280CD000A801F004FB3320009000A801F042FADFF8E4050068FFF792FFDFF8E3
:20232000D80500780028B3D04FF4FA70FFF789FFAEE7000070B52DED048BB0EE408A0400A3
:202340000D001600BDEEC80A84ED000A94ED000AB8EEC00A38EE408A300001F0EFFC41EC3E
:20236000110B9FEDB80B01F078FFB0EE409AF0EE609A18EE100A02F08FF953EC192B02F02B
:20238000B3F941EC100B02F080FA51EC100B02F089FA2860BDEC048B70BD30B589B0040001
:2023A0000025DFF850050078002804D1DFF848050078002815D0002203A9DFF8440502F0CE
:2023C0007DFB002202A9DFF8380502F027FC0498D0F598706421484340F2311190FBF1F036
:2023E0000500DFF81005007800280AD09DF80C00E0719DF80D0020729DF80E006072A572C0
:2024000021E0DFF8F404007800281CD0EDB201959DF80E0000909DF80D309DF80C20DFF88E
:20242000E414DFF8E40402F075FCDFF8DC0402F08BFC41F28833020092B2DFF8CC14DFF890
:20244000CC0402F0D6FC09B030BD10B588B0040003F05BF8002800F09680DFF8B40403F04B
:2024600058F8DFF8B00403F063F8DFF88804007800283AD0DFF8A0040068C00617D504226B
:20248000DFF88C04016814F1130003F00FF90422DFF87C04416814F1170003F007F90422FE
:2024A000DFF86C04816814F11B0003F0FFF8DFF86804006880066DD50422DFF858040168AD
:2024C00014F11F0003F0F2F80422DFF84804416814F1230003F0EAF80422DFF838048168EA
:2024E00014F1270003F0E2F854E0DFF80C04007800284FD0DFF8180400680190DFF8100432
:2025000040680290DFF8080480680390DFF8040400680490DFF8FC0340680590DFF8F40367
:202520008068069003980090029B019ADFF8EC13DFF8D40302F0EEFBDFF8CC0302F004FCC3
:2025400041F28833020092B2DFF8BC13DFF8BC0302F04FFC06980090059B049ADFF8C013B8
:20256000DFF8A40302F0D6FBDFF89C0302F0ECFB020041F2883392B2DFF88C13DFF88C03BB
:2025800002F037FC06E0DFF870030078002801D002F0ACFE08B010BD1FB5040003F0E3F8AE
:2025A000002847D0DFF87C0303F0E0F8DFF84403007800281DD0DFF86003006840063FD514
:2025C0000422DFF86003016814F12B0003F06EF80422DFF85003416814F12F0003F066F82B
:2025E0000422DFF84003816814F1330003F05EF826E0C1480078002822D0CA480068019085
:20260000C84840680290C7488068039003980090029B019AC449BC4802F07CFBBA4802F015
:2026200093FB41F28833020092B2B749B74802F0E0FB05E0B0480078002801D003F042F891
:202640001FBD000000000000000024401CB5040003F07DF9002835D0B44803F07BF9022248
:2026600000A901A8B14B93ED000AFFF763FEA1480078002810D0A8480068C00728D5022282
:20268000019914F10B0002F0FAFF0222009914F10D0002F0F4FF1BE097480078002817D090
:2026A000009B019AA249984802F034FB964802F04BFB41F28833020092B29349934802F005
:2026C00098FB05E08C480078002801D003F074F813BD10B586B0040003F0B7F9002854D020
:2026E000944803F0B5F9944803F0C1F9022204A905A8904B93ED000AFFF71CFE022202A912
:2027000003A88D4B93ED000AFFF714FE79480078002820D08048006880070BD501220399FD
:2027200014F10F0002F0ABFF0122029914F1100002F0A5FF7848006840072CD5012205994F
:2027400014F1110002F09BFF0122049914F1120002F095FF1FE06848007800281BD00298A6
:20276000019003980090049B059A7449664802F0D1FA654802F0E8FA41F28833020092B282
:202780006149624802F035FB05E05B480078002801D003F013F906B010BD80B568485849C2
:2027A00008604020564948607F20554988604FF498705349C86000205149086100205049FA
:2027C000486100204E4988614D4802F091F8002801D000F0BBF801BD00B587B014208DF8A1
:2027E000030002208DF8010018208DF8020002208DF80000012200A9414802F08CF90028D4
:2028000001D000F0A3F808208DF8040010208DF8050000208DF8060000208DF80C00002075
:20282000049000200590012201A9354802F0B6F8002801D000F08AF807B000BD70B504005D
:20284000A4B2B4F5005F35D100253E48006800280AD13D480068002806D100F078F8394930
:2028600008600120050012E000F071F83649086035480068060033480068301AB0F5967FC6
:2028800005D9314800682F49086001200500002D10D018480078002803D00020164908709C
:2028A00008E015480078002801D0002000E001201149087070BD70B586B004000D001600C0
:2028C00000208DF808008DF800408DF801508DF8026000200190002003900020049000228F
:2028E00000A9074802F05AF8002801D000F02EF806B070BD8408002085080020FC01002034
:20290000E8070020F49000081C0600206C07002008080020140800204C080020CC8F000804
:20292000F08F00082008002014900008500800200C910008540800205808002088900008E3
:20294000002800405C08002060080020FEE780B5FFF774FC02BD0268531C03601170704750
:2029600070B582B0040000252078C0075AD5DFF81407006810F00C0004280BD0DFF80407FA
:20298000006810F00C0008280ED1DFF8FC060068400209D5DFF8E8060068800342D56068C4
:2029A00000283FD10120A2E10020DFF8E0160870FFF744FC0500DFF8C8060068800308D52E
:2029C000FFF73CFC401B41F289318842F3D303208DE16068DFF8B41608706068002810D0AF
:2029E000FFF72CFC0500DFF898060068800319D4FFF724FC401B41F289318842F3D3032056
:202A000075E1FFF71BFC0500DFF874060068800308D5FFF713FC401B41F289318842F3D358
:202A2000032064E12078800766D5DFF85806006810F00C0F0BD0DFF84C06006810F00C00A4
:202A400008281FD1DFF84006006840021AD4DFF830060068800704D5E068012801D0012069
:202A600045E1DFF81C0600685FF0F851B1FA81F130F0F800226912FA01F10843DFF8001641
:202A8000086039E0E068002823D00120DFF800160860FFF7D3FB0500DFF8E4050068800764
:202AA00006D4FFF7CBFB401B6528F5D303201EE1DFF8CC0500685FF0F851B1FA81F130F0C9
:202AC000F800226912FA01F10843DFF8B415086012E00020DFF8B8150860FFF7AFFB05005F
:202AE000DFF89C050068800706D5FFF7A7FB401B6528F5D30320FAE02078000728D56069EA
:202B0000002812D00120DFF88C150860FFF796FB0500DFF884050068800719D4FFF78EFB63
:202B2000401B6528F5D30320E1E00020DFF864150860FFF783FB0500DFF85C050068800789
:202B400006D5FFF77BFB401B6528F5D30320CEE02078400763D5DFF84405006850F08050FE
:202B6000DFF838150860DFF83405006810F0805000900098DFF82805006850F48070DFF8E2
:202B800020150860FFF75AFB0500DFF814050068C00506D4FFF752FB401B6528F5D303203B
:202BA000A5E00020DFF8FC140870FFF747FB0500DFF8F0040068800708D5FFF73FFB401BB2
:202BC00041F289318842F3D3032090E0A068DFF8D4140870A068002810D0FFF72FFB050071
:202BE000DFF8C0040068800719D4FFF727FB401B41F289318842F3D3032078E0FFF71EFBE4
:202C00000500DFF8A0040068800708D5FFF716FB401B41F289318842F3D3032067E0A06916
:202C2000002863D0DFF85C04006810F00C0008285AD0A069022844D10020DFF86C1408600D
:202C4000FFF7FCFA0500DFF838040068800106D5FFF7F4FA401B6528F5D3032047E0DFF8F7
:202C60004C04B0FA80F24FF44040B0FA80F0F021B1FA81F1E369266A3343666A16FA02F2B7
:202C80001A43A36A5B085B1E13FA00F01043E26A12FA01F10843DFF8F01308600120DFF8CF
:202CA00008140860FFF7CAFA0500DFF8D403006880011BD4FFF7C2FA401B6528F5D30320C6
:202CC00015E00020DFF8E0130860FFF7B7FA0500DFF8AC030068800108D5FFF7AFFA401BBB
:202CE0006528F5D3032002E0012000E0002076BD70B504000D000026DFF8B403006810F0D4
:202D00000F00A84280F08F80DFF8A4030570DFF8A003006810F00F00A84201D0012028E172
:202D20002078800709D5DFF85C03006830F0F000A1680843DFF84C1308602078C00740F166
:202D4000FD806068012806D1DFF834030068800315D401200DE16068022802D06068032886
:202D600006D1DFF81C030068800108D4012000E1DFF80C030068800701D40120F9E0DFF844
:202D8000040300688008800061680843DFF8F4120860FFF753FA06006068012810D1DFF871
:202DA000E402006810F00C00042800F0C780FFF745FA801B41F289318842F0D30320D8E031
:202DC0006068022810D1DFF8BC02006810F00C00082800F0B380FFF731FA801B41F289311B
:202DE0008842F0D30320C4E0606803280BD1DFF894020068FFF722FA801B41F28931884277
:202E0000F5D30320B5E0DFF87C02006810F00C0F00F09480FFF712FA801B41F28931884202
:202E2000F1D30320A5E02078800709D5DFF85402006830F0F000A1680843DFF84812086097
:202E40002078C0076ED56068012806D1DFF830020068800315D401208BE06068022802D0DB
:202E60006068032806D1DFF818020068800108D401207EE0DFF808020068800701D401208D
:202E800077E0DFF8000200688008800061680843DFF8F0110860FFF7D1F906006068012887
:202EA0000FD1DFF8E001006810F00C00042839D0FFF7C4F9801B41F289318842F1D30320E5
:202EC00057E0606802280FD1DFF8B801006810F00C00082826D0FFF7B1F9801B41F2893197
:202EE0008842F1D3032044E0606803280BD1DFF894010068FFF7A2F9801B41F28931884277
:202F0000F5D3032035E0DFF87C01006810F00C0F08D0FFF793F9801B41F289318842F2D369
:202F2000032026E0DFF888010570DFF88401006810F00F00A84201D001201AE0207840070B
:202F400007D55048006830F4E050E16808434D4908602078000708D54A48006830F4604075
:202F6000216950EAC100474908600F20FFF74EF9002070BD70B40021002200230020414CE4
:202F8000246814F00C04002C04D0042C05D0082C06D03DE0474C20003CE0474C200039E0CA
:202FA000394C246814F03F042100374C246864020FD5354C2468404DB5FBF1F547F6C0769C
:202FC00034403A4EB6FA86F6F44004FB05F422000EE02D4C2468374DB5FBF1F547F6C076FB
:202FE0003440324EB6FA86F6F44004FB05F42200254C246814F440344FF44045B5FA85F5F9
:20300000EC40641C64002300B2FBF3F4200001E0284C200070BC704780B5FFF7ABFF19493A
:2030200009685FF07062B2FA82F2244B11F0F001D140C95CC840224908602148006802BDDC
:2030400080B5FFF7E9FF0F4909685FF46012B2FA82F21A4B11F4E051D140C95CC84002BD17
:2030600080B5FFF7D9FF074909685FF4E022B2FA82F2124B11F46041D140C95CC84002BD17
:203080000038024008380240043802400238024000004742800E47427438024040380240F2
:2030A0000070004070380240600047420000FE03003C02400024F40000127A001C910008B5
:2030C0000802002000B593B0DFF89403006850F08050DFF88C130860DFF88403006810F044
:2030E000805000900098DFF87C03006830F4404050F40040DFF86C130860DFF8680300688A
:2031000010F4404000900098022006900120099010200A9002200C9000200D9010200E907E
:203120004FF4A8700F90042010900720119006A8FFF716FC0F20019002200290002003902C
:203140004FF48050049000200590022101A8FFF7CFFD13B000BD0168DFF80C2391425DD393
:20316000DFF8081309680268DFF804339A4202D1DFF8000350E00268DFF8FC329A4202D19D
:20318000DFF8F00248E00268DFF8F0329A4202D1DFF8E00240E00268DFF8E4329A4202D14D
:2031A000DFF8D00238E00268DFF8D8329A4201D1402031E00268DFF8D0329A4201D1402093
:2031C0002AE00268DFF8C4329A4201D1402023E00268AF4B9A4201D140201DE00268AD4BCC
:2031E0009A4202D15FF4803016E00268AA4B9A4202D15FF480300FE00268A84B9A4202D11B
:203200005FF4803008E00068A54A904202D15FF4803001E05FF480000840FCE00168A14A98
:20322000914251D3A04909680268914B9A4201D1904847E00268904B9A4201D18D4841E061
:2032400002688E4B9A4201D18A483BE002688C4B9A4201D1874835E002688A4B9A4201D1D0
:2032600040202FE00268884B9A4201D1402029E00268864B9A4201D1402023E00268844B06
:203280009A4201D140201DE00268824B9A4202D15FF4803016E002687F4B9A4202D15FF40E
:2032A00080300FE002687D4B9A4202D15FF4803008E000687A4A904202D15FF4803001E0EE
:2032C0005FF480000840A6E00168784A914251D3774909680268664B9A4201D1654847E05D
:2032E0000268654B9A4201D1624841E00268634B9A4201D15F483BE00268614B9A4201D1EF
:203300005C4835E002685F4B9A4201D140202FE002685D4B9A4201D1402029E002685B4B8A
:203320009A4201D1402023E00268594B9A4201D140201DE00268574B9A4202D15FF48030A5
:2033400016E00268544B9A4202D15FF480300FE00268524B9A4202D15FF4803008E00068C4
:203360004F4A904202D15FF4803001E05FF48000084050E04F49096802683D4B9A4201D137
:203380003C4847E002683C4B9A4201D1394841E002683A4B9A4201D136483BE00268384B1E
:2033A0009A4201D1334835E00268364B9A4201D140202FE00268344B9A4201D1402029E0C7
:2033C0000268324B9A4201D1402023E00268304B9A4201D140201DE002682E4B9A4202D173
:2033E0005FF4803016E002682B4B9A4202D15FF480300FE00268294B9A4202D15FF48030C3
:2034000008E00068264A904202D15FF4803001E05FF48000084070470068406870471B4966
:2034200001605FF000614160002181600021C1604FF48061016100214161002181614FF407
:203440008071C1615FF48031016200214162032181625FF40001C1625FF400010163704741
:2034600040380240007000405964024004640240106002400100800010640240706002403E
:2034800070640240286002402864024088600240886402404060024040640240A06002401C
:2034A000A0640240B96002400064024059600240046002400060024010B586B00400E4B2ED
:2034C000002C0ED1DFF84801006850F00100DFF840110860DFF83801006810F0010000907F
:2034E0000098DFF83001E4B230F81400019001200290012003900220049001A9DFF8180112
:20350000E4B250F82400FEF787F80022DFF80401E4B230F81410DFF80001E4B250F824007B
:20352000FEF75BF906B010BD10B504000022DFF8E400E4B230F81410DFF8DC00E4B250F8A6
:203540002400FEF74AF910BD10B50400DFF8C400E4B230F81410DFF8C000E4B250F8240063
:20356000FEF745F910BD30B587B004000D00E4B2002C0ED1DFF89800006850F00400DFF88B
:2035800090100860DFF88800006810F0040000900098EDB2002D13D1DFF88000E4B230F86B
:2035A0001400019000200290022003900220049001A9DFF86C00E4B250F82400FEF72CF841
:2035C000EDB2012D22D1DFF85400E4B230F81400019000200390DFF84C00029001A9DFF8B4
:2035E0004000E4B250F82400FEF716F800220F21DFF83400E4B2205640B2FEF793F9DFF8D3
:203600002800E4B2205640B2FEF79FF907B030BD30380240E646000800020020A248000861
:2036200004020020000021107E4D00082DE9F04F83B004005FF000085FF00009A348FFF744
:203640008AFD002840F0A580A048FFF7E5FED0F50070ADF80200BDF802009D498988884251
:2036600007D3BDF802009A498988401AADF8040008E0BDF8020010F5007095498988401A65
:20368000ADF8040092488088824600200600BDF80400B6B2864273D28E481FFA8AFA1AF8FE
:2036A00000008DF806001AF1010A1FFA8AFABAF5007F01DB002082469DF80600F0285DD1F9
:2036C00083488088824600200500ADB2B6B2B5423CD21FFA8AFA1AF101004FF4007190FB76
:2036E000F1F202FB110217007A481FFA8AFA1AF800008DF801007748BFB2385C8DF8000080
:203700001FFA88F818EB0400001D83465A469DF800109DF8010001F074FF81465FFA89F942
:20372000B9F1000F03D16A488780002032E05FFA89F919FA8AF04FF4007190FBF1FA0AFB7A
:20374000110A18F1010855FA89F5BEE71FFA88F8C4F800801FFA8AFA1AF101004FF4007198
:2037600090FBF1FA0AFB110A5948A0F804A0200001F06FFF002801D001200BE0761C86E753
:20378000BDF80400B0F5807F03DDBDF80200504988800020BDE8FE8F38B50400200001F040
:2037A00047FF21004C4801F014FF050041F288332A0092B24849494801F01BFB31BD80B55D
:2037C0004248FFF72CFE414802F078F93F484349486342483D49886301BD00B587B0404868
:2037E000006850F001003E4908603D48006810F00100009000983A48006850F0010038496F
:2038000008603748006810F00100009000983548006850F40030334908603248006810F40D
:203820000030009000982E48006850F400102C4908602B48006810F40010009000980420E6
:2038400001900220029000200390022004900720059001A92448FDF7DFFE08200190072037
:20386000059001A92048FDF7D7FE20481B4908601F48006819494860002018498860002042
:203880001649C8600020154908610020134988610C2012494861114801F072FA002800D077
:2038A000FEE7FFF78CFF0B480C4988624FF400700A49888500200949C8634FF4007205495D
:2038C000064801F014FB07B000BD00001C0700202C0800201C0200201C0400206C0700207E
:2038E00030380240403802400000024000440040F8010020417901713221417181798039A1
:20390000817170474179017132214171032181717047DFF8141409780171322141710821E0
:20392000817103210160704770B504002068022801D20020F6E12079322801D00020F1E1FE
:20394000A07901283BD0022854D004286BD0082800F09E81092800F0BD810C2800F0CD8155
:203960000E283BD0602872D0612800F0A080622800F0AF80632800F0D080702800F0DF8048
:20398000712800F0DC80732800F0D980742800F0D680752800F0D380762800F0DD80772812
:2039A00000F00A81782800F01981792800F028817A2800F037817B2800F05881B1E1206858
:2039C000032801D00020ADE12000FFF793FF032020602000FFF7E0FE0120A3E120680328A6
:2039E00001D000209EE12000FFF784FF03202060012097E12068032801D0002092E120004B
:203A0000FFF778FF00200500102D05D2C748285C2919C8716D1CF7E7E81C20602000FFF7F1
:203A2000BBFE01207EE12068032801D2002079E12000FFF75FFF04220021E01D01F036FE70
:203A4000072020602000FFF7A7FE01206AE12068032801D2002065E1200002F0C9F80028B1
:203A60001DD12000FFF746FF01F083FF0600F6B23000012802D0022808D00FE00422012178
:203A8000E01D01F013FE072020600BE004220221E01D01F00BFE0720206003E002E02000C9
:203AA000FFF730FF2000FFF777FE01203AE12068032801D2002035E12000FFF71BFF20000E
:203AC00002F0A8F8002802D12000FFF765FE012028E12068032801D2002023E1200002F0FA
:203AE000D0F8002811D12000FFF704FF01F0CEFF0600F6B2012E07D104220121E01D01F032
:203B0000D5FD0720206003E002E02000FFF7FAFE2000FFF741FE012004E12068032801D278
:203B20000020FFE02000FFF7E5FE200002F0BCF8002802D12000FFF72FFE0120F2E020680E
:203B4000032801D20020EDE02000FFF7D3FE2000FFF722FE0120E5E02068032801D20020D1
:203B6000E0E0200002F0EAF800281DD12000FFF7C1FE01F0ECFC0600F6B23000012802D0F4
:203B8000022808D00FE004220121E01D01F08EFD072020600BE004220221E01D01F086FD27
:203BA0000720206003E002E02000FFF7ABFE2000FFF7F2FD0120B5E02068032801D2002079
:203BC000B0E02000FFF796FE200002F0C9F8002802D12000FFF7E0FD0120A3E02068032893
:203BE00001D200209EE02000FFF784FE200002F0D1F8002802D12000FFF7CEFD012091E073
:203C00002068032801D200208CE02000FFF772FE200002F0D9F8002802D12000FFF7BCFD5F
:203C200001207FE02068032801D200207AE0200002F0F9F8002811D12000FFF75BFE01F097
:203C4000A4FD0600F6B2012E07D104220121E01D01F02CFD0720206003E002E02000FFF72D
:203C600051FE2000FFF798FD01205BE02068032801D2002056E02000FFF73CFE200002F0B0
:203C8000E4F8002802D12000FFF786FD012049E02068032801D2002044E00421E01D01F08D
:203CA000F9FC23490860042114F10B0001F0F2FC2049086001202049087060791A490870A0
:203CC0002000FFF717FE032020602000FFF764FD012027E02068032801D2002022E00020AF
:203CE000134908600020144908702000FFF702FE2000FFF751FD012014E02068032801D2F6
:203D000000200FE02000FFF7F5FD03202060627A217AE079FEF7CFFD2000FFF73DFD0120E7
:203D200000E0002070BD000014020020940100204C080020FC01002084080020010040F1FC
:203D40000780F446404200F003F851F00041604709D0B0FA80F18840C91CC1F584610905C2
:203D600001EBD021400570471248006850F47000104908601048006850F001000E49086073
:203D800000200E4908600C4800680D4908400A4908600C480C4908600748006830F48020A3
:203DA000054908600020094908605FF0006008490860704788ED00E0003802400838024003
:203DC000FFFFF6FE10300024043802400C38024008ED00E0000000002DE9F8452DED088BB4
:203DE0000FB486B040F2FF7107989DED080B8DED040BC0F30A50884208D1079800240003ED
:203E000005BF069800280225012512E0012807DA06A802F03BF8012802DB0024002508E0C5
:203E2000079A40F2FE3161F31E520792441A4FF0FF35002104A802F04AF81A9F06460FB18C
:203E40000020388036B9DDE908230020002102F07DF812D0002D13D524B2012C15D1DDE95C
:203E600006230020DFF88C1302F070F805D0012E0BD1DF4902F06AF83ED10AB0CD49E8E125
:203E8000022D04D1DDE90601E2E1012E6FDB022E08BFDDE9080100F0DB81012D2AD107983B
:203EA0000028099806D4002854BF9FEDD50B9FEDD60BCBE100280ED456B94FF0FF3104A86B
:203EC00002F005F8002848BF9FEDD10B00F1BE819FEDCB0BBAE156B94FF0FF3104A801F014
:203EE000F6FF002848BF9FEDB40B00F1AF819FEDC60BABE1012E11D10998002824B206D4BF
:203F0000012CACBF9FEDBE0B9FEDBF0B9EE1012CACBF9FEDBD0B9FEDBA0B97E10998002861
:203F200010D466B94FF0FF3104A801F0D0FF002842BF079800289FEDA00B00F187819FEDF7
:203F4000B20B83E102F012F82221016066B94FF0FF3104A801F0BBFF002842BF07980028CB
:203F60009FEDAB0B00F172819FEDA50B6EE10798002848BF002E0CD501F0F8FF2121016028
:203F80000AB04FF0FF30BDEC088B6FF00041BDE8F485DDE906010022002301F0EDFF38BF19
:203FA000002509D381F00041CDE906014FF0FF3104A801F08CFF0546012C13D1DDE90601D1
:203FC0007F4A804B01F0F0FF0CD2DDE9062300269FED7D8B00204FF0804100F085FBCDE9A0
:203FE00006011CE0DDE906239FED798B00207A4900F07AFB53EC182B01F0EEFF00F052FC59
:020000040800F2
:20400000A0F120063046FFF799FE0022734B00F06BFB53EC182B01F0DFFF41EC180B0FF20E
:20402000582000EB461ADDE9060153EC182B02F047F8DDE9062341EC190B51EC180B01F0AC
:20404000CBFF02460B4651EC190B02F0F9F841EC1A0B53EC1A2B00F047FB41EC1B0B8DEDE4
:20406000069B02F011FA53EC1B2B00F03DFBDDE9062302F025F80646884600204D4953ECE8
:20408000182B02F01DF800224FF0804300F02CFB3246434601F0A0FF53EC1A2B00F024FB77
:2040A000DDE9062301F098FF41EC180B4C4A4D4B02F0C6F8CDE904012046FFF73FFE41ECDA
:2040C000190BDAE9000153EC192B01F085FFDDE9042301F081FFCDE90401DDE9082300F006
:2040E00003FB0022404BCDE9020101F05DFFC0F0938001223D4B01F03FFF40F2918000220D
:20410000002301F051FFDDE9022339BF002038490020384901F060FF00F0C4FB0446DDE907
:20412000080153EC182B00F0DFFACDE90201DAE90223DAE904019FED308B01F04DFFDDE978
:20414000082300F0D1FA53EC182B00F0CDFADDE9022301F041FFCDE90201DAE9002351EC48
:20416000190B01F039FFDDE9082300F0BDFA064688462046FFF7E2FD02460B46304641466F
:2041800001F09EFF53EC182B00F0AEFADDE9022301F022FFCDE902010FB13C80002400948D
:2041A0000022044B02A802F0C7F9A8B3012837D042E000BF0000F03F000000000000008017
:2041C000CD3B7F669EA0E63F000000000000F03F000000000000E03F000050400000903FE2
:2041E000EF39FAFE422EE63F0000E0C00000E0400000E0BF0000E03FEF39FAFE422EE63FD7
:20420000000000000000F07F0000000000000000000000000000F0FF0020CDE9020007E081
:204220000020014902E000BF0000F07FCDE9020101F09CFE22210160002D1DBFDDE902014A
:2042400081F0004141EC100B9DED020B51EC100B0AB0BDEC088BBDE8F48580B5002000907C
:2042600053EC112B51EC100BFFF7B6FD41EC100B01BD000000000000000000000000F0BF0D
:20428000000000000000008000000000000000800000000000000000000000C05294EEBFCB
:2042A00000000048204E51BE000000F86467BCBC0000000000000000000000208133EDBF7E
:2042C00000000080B3DB14BE000000506706A3BC0000000000000000000000D0E9DCEBBFA3
:2042E00000000008C39259BE00000080B0D3B8BC000000000000000000000070F98FEABF32
:20430000000000C0A51028BE000000E8BFC0B0BC000000000000000000000070284CE9BFE3
:2043200000000060134B42BE000000C03D20B8BC000000000000000000000050FA10E8BF2D
:20434000000000C05FF62BBE000000905C71A7BC000000000000000000000020FCDDE6BF01
:20436000000000C0F8F154BE00000018E9F6B9BC0000000000000000000000D0C3B2E5BF2D
:2043800000000070E43254BE00000050DB06B4BC000000000000000000000010EF8EE4BFB4
:2043A00000000020F36252BE000000C02A879ABC0000000000000000000000B02272E3BFCB
:2043C000000000F0E8E056BE00000028352DBDBC0000000000000000000000000A5CE2BF07
:2043E000000000B0FA8E41BE00000040AE6FBDBC000000000000000000000000564CE1BF6E
:20440000000000F015CD5FBE00000000141C90BC000000000000000000000040BD42E0BF53
:2044200000000030F93457BE000000E06C1E93BC0000000000000000000000E0F57DDEBF62
:20444000000000B08A535EBE00000080DA77AABC0000000000000000000000C09D81DCBF03
:2044600000000000FFA226BE0000006057E2B0BC000000000000000000000060F98FDABF31
:20448000000000580A8151BE000000F05F60B8BC00000000000000000000000098A8D8BF30
:2044A000000000607A7F45BE000000D05433A3BC0000000000000000000000600FCBD6BF1B
:2044C000000000D091CB40BE000000406D1BA0BC0000000000000000000000A0FBF6D4BF6A
:2044E00000000098C5CE52BE000000003A397EBC0000000000000000000000E0FE2BD3BF39
:204500000000004073872BBE00000000926879BC000000000000000000000040C069D1BF50
:2045200000000058F16353BE00000080438D7CBC000000000000000000000080D85FCFBFF1
:20454000000000181F8354BE000000B03F42A2BC00000000000000000000008067FCCBBF93
:2045600000000060FAFF53BE00000050E00DB8BC00000000000000000000000098A8C8BF59
:20458000000000607A7F35BE000000C0543393BC000000000000000000000000DC63C5BF76
:2045A00000000058D6FF54BE00000000396490BC0000000000000000000000C0AD2DC2BFB8
:2045C00000000080A45915BE000000E0484BABBC0000000000000000000000801A0BBEBF8F
:2045E00000000050BF3C5ABE000000A0B364B6BC00000000000000000000008004D6B7BF5F
:2046000000000040BBCF36BE0000008076CEA8BC00000000000000000000008032BBB1BFD7
:20462000000000402A0043BE00000028C60CBDBC0000000000000000000000009473A7BF2F
:20464000000000182B3B59BE000000C0E55DA5BC000000000000000000000000EE4397BFDB
:20466000000000A0E6C340BE00000020958DB5BC00000000000000000000000000000080C0
:204680000000000000000080000000000000008000000000000000005FF0FF0C1CEAD05199
:2046A00014BF614506E0C110400721F0E04101F16051704779B900F0004100020AD0B0FA0E
:2046C00080FC00FA0CF001F16051A1EB0C5101EBD0214005704741020CBF40F4E0016FF081
:2046E0000001002070472000B0B581EA030C0CF0004C40F2FF7515EA11541DBF15EA13574C
:20470000AC42AF4239E0E41923EA455343F48013C90241F0004141EA505EC7021100A7FBA3
:20472000020200284FF00000EEFB01204FF00001E3FB072118BF42F00102401800214941AF
:20474000E3FB0E01A4F580640F0302D252004041494154F101046CDD470872F1004250F1E4
:20476000000051EB0451A1F580115CBF41EA0C01B0BD4CEA05510020B0BD05EA1357AC4261
:2047800014BFAF4241E050EA410E1CBF52EA430E02E061460020B0BD24423C441BD15FEA12
:2047A000070EF6D0090302BF01460020AEF1140EB1FA81F7AEEB070401FA07FE0C37C7F167
:2047C000200100FA07F7C8404EEA000E23EA455343F48013A2E733F00043B3FA83F704BF2A
:2047E000B2FA82FE77440B3FE41BB7F1200E2FBF02FA0EF3BB40C7F1200E22FA0EFE38BFC8
:2048000043EA0E03BA40641C82E750EA410E14BF52EA430E6FF000014FF4001717EB430F80
:204820008ABF194617EB410FB5E74CEA05510020B0BDD4F10104B4F120070FDAC4F120076E
:20484000520828BF42F0010210FA07F501FA07F7E1BF2A43E0403843E1400FE0352C98DC56
:20486000C7F1200452EA400220FA07F218BF42F0010231FA07F0A1400A43002172F10042A9
:2048800050F1000051EB0C01B0BD00B583B000218DED000B00A801F01AFB9DED000B03B09D
:2048A00000BD0020F446400D40EAC120490006D200F00EF8004248BF6FF00040604700F0F3
:2048C00007F84FF0004188428CBF08464042604740F00040490DA1F58061491C05D4D1F190
:2048E0001F0154BFC840C01770474FF00000704710B50400002C01D101204EE0607F0028DC
:2049000004D100202077200001F07AFF02206077CA2021684862532021684862200000F0B5
:20492000C5F9002806D0FF202168486204206077012032E020688068DFF8301308402168E0
:2049400088602068806861682269114362691143084321688860E068216808612068006951
:20496000A16850EA0140216808612068C06830F080002168C8602068006C30F4802021687F
:2049800008642068006CA169084321680864FF202168486201206077002010BD2DE9F843E5
:2049A00004000D0016000027207F012801D1022082E00120207702206077002E1FD1206834
:2049C0008068400601D400202872287800F08AF98046687800F086F98146A87800F082F9A0
:2049E0005FFA88F85FFA89F95FEA092151EA0841C0B20843297A50EA0140070015E02068AD
:204A00008068400604D5287800F077F9070001E00020287228786978090251EA0040A978C5
:204A20000843297A50EA01400700CA2021684862532021684862200000F038F9002808D002
:204A4000FF20216848620420607700202077012032E0DFF81C023840216808602068806851
:204A600030F480202168886020688068E9682A6911430843216888602068C06830F080004D
:204A80002168C8602068806880060DD4200000F0F3F8002808D0FF20216848620420607746
:204AA00000202077012007E0FF202168486201206077002020770020BDE8F283F8B504004B
:204AC0000D00160000272068806A686020680068DFF89C1108400700380C10F03F00287074
:204AE000380A10F07F00687017F07F00A870380C10F040002872002E0BD1287800F0FDF8D2
:204B00002870687800F0F9F86870A87800F0F5F8A8700020F2BD2DE9F84304000D00160008
:204B20000027207F012801D1022075E00120207702206077002E07D16878C00604D5687827
:204B400010F0EF000A306870002E19D1E87800F0C9F88046687800F0C5F88146A87800F001
:204B6000C1F85FFA88F85FFA89F95FEA092151EA0841C0B20843297850EA4130070012E0CF
:204B8000687800F0BAF80700A87800F0B6F80700E8786978090251EA0040A97808432978F3
:204BA00050EA41300700CA2021684862532021684862200000F07AF8002808D0FF20216856
:204BC00048620420607700202077012024E0DFF8A4003840216848602068C06830F08000E0
:204BE0002168C8602068806880060DD4200000F043F8002808D0FF20216848620420607795
:204C000000202077012007E0FF202168486201206077002020770020BDE8F283F8B50400E9
:204C20000D001600002720684068DFF8481008400700380CE870380A10F01F00687017F0A0
:204C40003F00A870780B10F007002870002E0BD1E87800F052F8E870687800F04EF86870F1
:204C6000A87800F04AF8A8700020F2BDBFFF8FFF7F7F7F003FFFFF0038B504000025206857
:204C8000C06830F0A0002168C860FDF7D7FA05002068C068800607D4FDF7D0FA401BB0F5E2
:204CA0007A7FF5D9032000E0002032BD38B5040000252068C068400612D45FF0FF30216822
:204CC000C860FDF7BBFA05002068C068400607D4FDF7B4FA401BB0F57A7FF5D9032000E0C1
:204CE000002032BD0021C0B20A2802DB491C0A38F9E750EA0110C0B270470021C0B202096A
:204D0000D2B20A235A431100C0B210F00F004018C0B270470CB41CB5044604A801900A46CA
:204D2000009401AB00A907487844183001F096FD009A0021117000285CBF0098001B16BCAF
:204D40005DF80CFB13DCFFFF00F10103810704D010F8011B89B18107FAD10268B2F10131C9
:204D6000914311F0803F04BF50F8042FF6E710F8011B11B110F8011BFBE7C01A70472800DF
:204D800010B50400002C01D1012030E0A0690028FFD194F83900002805D1002084F8380083
:204DA000200000F025F8022084F839002068C06830F400502168C860200000F094F92068F5
:204DC000006930F49040216808612068406930F02A00216848612068C06850F4005021680A
:204DE000C8600020E063012084F83900002010BD70472DE9F84304000D0016001F005FF0C8
:204E0000000994F839008146B9F1010F02D0B9F1220F69D1002D02D0B6B2002E01D10120D4
:204E200063E094F83800012801D102205DE0012084F838000020E06394F83900222803D1F6
:204E4000322084F8390002E0122084F83900A684E684E08C00282DD0E08C401EE084A06827
:204E6000B0F5805F17D13B0000228021200000F0C9F8002801D0032037E0A846B8F8000026
:204E8000C005C00D216848602069002801D1AD1CDFE76D1CDDE73B0000228021200000F0E2
:204EA000B1F8002801D003201FE02878216848606D1CCEE73B0000224021200000F0A2F8B7
:204EC000002801D0032010E094F83900322803D1222084F8390002E0012084F83900002004
:204EE00084F83800002000E00220BDE8F283F2B504001500002794F839000700012F01D00E
:204F0000122F41D10098002802D0ADB2002D01D101203AE094F83800012801D1022034E01E
:204F2000012084F838000098A062A5850020E06394F83900122803D1322084F8390002E0B9
:204F4000222084F839000FF24D00616BC8630FF28100616B08640FF28900616B886400A871
:204F60000600ADB22B0032682068011D606B00F0E5FD2068406950F04000216848610020C1
:204F800084F83800002000E00220F2BD704770477047000038B50400A56B20680068C005B1
:204FA00012D40020E8852868406930F040002968486195F83900322803D1122085F83900CF
:204FC00002E0012085F839002800FFF7DFFF31BD38B50400A56B2800FFF7D9FF31BD000049
:204FE00038B50400A56B0020E8850020E884012085F83900E86B50F01000E8632800FFF7B4
:20500000C7FF31BD2DE9F04104000D0016001F005FF00008FDF712F98046F6B2002E2FD15D
:20502000206800682840A8425AD017F1010FF7D0002F05D0FDF702F9B0EB08008742EFD205
:205040002068C06830F080002168C8602068C06830F020002168C8602068C06830F48070EA
:205060002168C860206840694008400021684861012084F83900002084F83800032030E0B7
:20508000206800682840A8422AD117F1010FF7D0002F05D0FDF7D2F8B0EB08008742EFD205
:2050A0002068C06830F080002168C8602068C06830F020002168C8602068C06830F480708A
:2050C0002168C860206840694008400021684861012084F83900002084F83800032000E087
:2050E0000020BDE8F081F8B50400002520680069050035F44055E0680543206805612068EA
:20510000C068050076480540A0682169084361690843E169084305432068C56020684069B2
:20512000050035F44075A069054320684561E069B0F5004F69D120686A49884203D0206836
:205140006949884230D1FDF78BFF0700FDF788FF0600FDF785FF192101FB07F1626852000A
:20516000B1FBF2F16422B1FBF2F1192202FB06F263685B00B2FBF3F21923584363685B00A6
:20518000B0FBF3F06423B0FBF3F0642303FB1020000132306422B0FBF2F010F00F0050EAF8
:2051A00001102168886099E0FDF74AFF0700FDF747FF0600FDF744FF192101FB07F1626841
:2051C0005200B1FBF2F16422B1FBF2F1192202FB06F263685B00B2FBF3F21923584363684F
:2051E0005B00B0FBF3F06423B0FBF3F0642303FB1020000132306422B0FBF2F010F00F0077
:2052000050EA01102168886068E020683549884203D020683449884230D1FDF721FF0700FC
:20522000FDF71EFF0600FDF71BFF192101FB07F162689200B1FBF2F16422B1FBF2F11922E0
:2052400002FB06F263689B00B2FBF3F21923584363689B00B0FBF3F06423B0FBF3F06423FA
:2052600003FB1020000132306422B0FBF2F010F00F0050EA0110216888602FE0FDF7E0FEDE
:205280000700FDF7DDFE0600FDF7DAFE192101FB07F162689200B1FBF2F16422B1FBF2F138
:2052A000192202FB06F263689B00B2FBF3F21923584363689B00B0FBF3F06423B0FBF3F0E6
:2052C000642303FB1020000132306422B0FBF2F010F00F0050EA011021688860F1BD00002A
:2052E000F369FFFF001001400014014010B588B000208DF800000024DFF8800200780028EF
:2053000040F00081DFF878020078012840F08C80DFF87002DFF870120860DFF870020290C9
:20532000DFF86C02019001208DF80C0001208DF80D0001208DF80E005FF080400590DFF803
:205340005002049001208DF8180001208DF8190001208DF81A00DFF8300200680068002829
:205360000BD10020DFF820120860DFF814020078401EDFF80C120870C1E001A8DFF8081255
:2053800009680968884700280BD00020DFF8F8110860DFF8EC010078401EDFF8E411087013
:2053A000ADE0DFF8E4010068406800280BD10020DFF8D4110860DFF8C8010078401EDFF8FF
:2053C000C01108709BE000A8DFF8BC1109684968884700280BD00020DFF8AC110860DFF8D6
:2053E000A0010078401EDFF89811087087E09DF8000069280CD1DFF89C01DFF88C1109687B
:2054000008640120DFF8741108700120040076E00020DFF874110860DFF864010078401EBA
:20542000DFF85C1108706AE00020DFF854110870DFF86401DFF850110860DFF850010290FC
:20544000DFF85801019001208DF80C0001208DF80D0001208DF80E005FF080400590DFF8F7
:205460003C01049001208DF8180001208DF8190001208DF81A00DFF810010068006800283E
:2054800005D10020DFF80011086001203BE001A8DFF8F410096809688847002805D0002038
:2054A000DFF8E410086001202DE0DFF8DC0000684068002805D10020DFF8CC10086001206E
:2054C00021E000A8DFF8C010096849688847002805D00020DFF8B0100860012013E09DF8C6
:2054E000000068280BD1DFF8B800DFF89C10096808640120DFF88410087001200400002CFC
:205500003FF400AF002008B010BDDFF870000078704710B504001C4800688068002801D117
:20552000012004E02000184909688968884710BD10B50400144800680069002801D10120D6
:2055400004E02000104909680969884710BD0E480068002801D100200EE00B4800680E4997
:20556000884201D1012007E0074800680549884201D1022000E0002070470000870800205E
:2055800017020020B80000206C0800200000FA440000D042F0010020740000200000EE4241
:2055A000E80100200200C9B20800F02802D0F12806D00BE0F1201070F2205070022007E02D
:2055C000F1201070F1205070022001E0117001207047F8B504000D00002007000020060002
:2055E0002868864208D2701901793819FFF7DAFFC0190700761CF3E7F02038557F1C38009A
:20560000F2BD0300DBB2F12B0FD1C9B2F12903D1F120107002200AE0C9B2F22903D1F020CF
:205620001070022003E0002001E0137001207047002100231A0003689A4204D213181B794F
:20564000C91A521CF7E71318197103685B1C03607047002100231A0003689A4204D21318C4
:205660001B795918521CF7E703685B1E0360C9B2002901D1012000E00020C0B2704710B40E
:2056800000242300934203D21954090A5B1CF9E710BC70470200491E8B5C1800002904D05A
:2056A0000002491E8B5CC018F8E7704710B400242300934203D2195409125B1CF9E710BCCC
:2056C0007047000000B583B000208DF8040036480078002845D135483549086000208DF846
:2056E000020000208DF8010040208DF803001C208DF800002E4800680068002804D10020F6
:205700002B49086001202DE000A82949096809688847002804D0002025490860012021E0A0
:20572000234800684068002804D1002020490860012017E001A81E490968496888470028BF
:2057400004D000201A49086001200BE09DF804003D2806D117481649096808610120124995
:20576000087000200EBD10480078704710B504000F4800688068002801D1012004E02000B0
:205780000B4909688968884710BD09480068002801D1002007E0064800680449884201D15E
:2057A000012000E00020704788080020A801002070080020D001002010B584B000208DF871
:2057C0000800002476480078002840F0BD8075480078012867D174487449086010208DF8A6
:2057E000000000208DF8040008208DF8030001208DF8050001208DF8010004208DF8020053
:205800006A4800680068002808D100206749086064480078401E6349087092E000A8634961
:20582000096809688847002808D000205F4908605C480078401E5B49087082E05B48006884
:205840008068002808D100205849086055480078401E5449087074E002A8544909688968B1
:205860008847002808D00020504908604D480078401E4C49087064E09DF80800BD2809D120
:205880004B484A49096808630120454908700120040056E000204549086042480078401E0E
:2058A000404908704DE043484049086010208DF8000000208DF8040008208DF8030001200F
:2058C0008DF8050001208DF8010004208DF80200364800680068002804D10020334908609D
:2058E000012032E000A83149096809688847002804D000202D490860012026E02B480068A6
:205900008068002804D100202849086001201CE002A82649096889688847002804D0002026
:2059200022490860012010E09DF80800BD2808D121481E4909680863012019490870012060
:205940000400002C3FF443AF002004B010BD14480078704710B5040014480068406A002867
:2059600001D1012004E0200010490968496A884710BD0E480068002801D100200EE00B48FE
:2059800000680C49884201D1012007E0074800680549884201D1022000E00020704700002C
:2059A00089080020180200203001002074080020E0010020FC000020D8010020E0B5002044
:2059C0008DF800003948007800283CD138483949086003208DF80900364800680068002883
:2059E00004D100203349086001202DE001A83149096809688847002804D000202D490860D2
:205A0000012021E02B4800688068002804D1002028490860012017E000A82649096889681A
:205A20008847002804D000202249086001200BE09DF80000BC2806D11F481E490968C862E3
:205A400001201A49087000200EBD18480078704710B5040017480068406A002801D101207B
:205A600004E0200013490968496A884710BD10B5040010480068806A002801D1012004E094
:205A800020000C490968896A884710BD09480068002801D1002007E006480068044988420A
:205AA00001D1012000E0002070470000860800206401002068080020C8010020010000226D
:205AC000002901D1012036E0486A0028022081F835000868006802001748024048688B68CC
:205AE0001843CB6818430B6918434B6918438B691843CB6918430B6A18430243486A04280E
:205B000003D1C86A0B6B1843024308680260086840690200D208D200486A0243486A0428FB
:205B200001D1886A0243086842610020C864012081F83500002070473F8010F0F8B50400E7
:205B40000D0016001F0094F83400012801D1022036E0012084F83400022084F835002068E4
:205B6000006840084000216808603B0032002900200000F026F82068006850F010002168B7
:205B800008602068006850F00800216808602068006850F00400216808602068406950F0DE
:205BA0008000216848612068006850F00200216808602068006850F00100216808600020CE
:205BC000F2BD30B40468246834F4802405682C60046863608468402C04D10468A26004683F
:205BE000E16003E00468A1600468E26030BC704738B504000125FFF7DFFD0500EDB2002D09
:205C000001D1002005E0EDB2022D01D1022000E0012032BD38B52DED028B0400444890ED5A
:205C2000000ABCEEC00A10EE100A6421484300EE100AB0EE408A3E4890ED000ADFED3B0A30
:205C400020EE200AF8EE480A30EE600ABCEEC00A10EE100A050018EE100A6421B0FBF1F08A
:205C600008EE100A022218EE101AE01DFFF707FD65720020E072082020600020BDEC028B82
:205C800032BD38B504000125FFF798FE0500EDB2002D01D1002005E0EDB2022D01D1022008
:205CA00000E0012032BD00000100224890ED000ABDEEC00A10EE100AC8711E4890ED000A4F
:205CC000DFED1A0A20EE200AC8796422504300EE900AF8EEE00A30EE600ABDEEC00A10EEEF
:205CE000100A0872144890ED000ABDEEC00A10EE100A4872104890ED000ADFED0C0A20EE17
:205D0000200A487A6422504300EE900AF8EEE00A30EE600ABDEEC00A10EE100A88720020F7
:205D2000C872082008600020704700000000C84250080020540800205808002038B5040053
:205D40000125FFF7D3FA0500EDB2002D01D1002005E0EDB2022D01D1022000E0012032BD00
:205D600010B50400042246480168E01DFFF79EFC04224348416814F10B00FFF797FC042297
:205D80003F48816814F10F00FFF790FC0F202060002010BD10B5040004223A480168E01D8A
:205DA000FFF784FC04223748416814F10B00FFF77DFC04223348816814F10F00FFF776FC9A
:205DC0000F202060002010BD10B5040004222C480168E01DFFF76AFC04222948416814F1BD
:205DE0000B00FFF763FC04222548816814F10F00FFF75CFC04222348016814F11300FFF75D
:205E000055FC04221F48416814F11700FFF74EFC04221C48816814F11B00FFF747FC1B2098
:205E20002060002010BD38B504000125FFF74AFC0500EDB2002D01D1002005E0EDB2022D2C
:205E400001D1022000E0012032BD10B5040004220D480168E01DFFF729FC04220A48416878
:205E600014F10B00FFF722FC04220748816814F10F00FFF71BFC0F202060002010BD0000E3
:205E800008080020140800202008002030B4436803F0004201211B031B0B436004BF036853
:205EA000002B08D10DE00368DD0F45EA440444605B000360491E4468E302F4D523031B0BB4
:205EC000436043681A434260084630BC70474268C2F30A5240F2FF739A4209D141680903BA
:205EE00004BF0068002801D1012070470220704743685B0004BF0368002B25D040F23343D0
:205F00009A1A521A012A1FDB352A06DB416801F0004141600021016013E0012102F01F03D5
:205F20009940491E920607D5426811404A40426002681143002202E0026811404A4002601D
:205F400011B14FF0FF3070470020704790420CD141EA030C50EA4C0C07D0994205D14FF43D
:205F6000001C1CEB410F38BF89427047014801F047B80000100200204FF4001C1CEB410F14
:205F800094BF1CEB430F09E041EA030C50EA4C0C52EA0C0C03D28B4208BF8242704714BF95
:205FA00099429042704700004FF4001C1CEB410F94BF1CEB430F09E041EA030C50EA4C0C66
:205FC00052EA0C0C03D2994208BF9042704714BF8B4282427047000070B44FF0004591EA2F
:205FE000030C44BF6B4000F075B800BF841A71EB030603D2001BB141121973414FF4001CE5
:020000040800F2
:206000001CEB410F34BF7CEB430443E00C0DA4EB1356352E50DC45EAC323DB0A45EAC121BA
:20602000C912B6F120050DDD63FA05F6EB4086EA0305124218BF45F00105C01851F1000153
:206040000CD213E062FA06F5F2405540F3415A40B340F3405A408018594107D349085FEA1D
:2060600030005FEA350528BF45F0010501F58011420875F1004250F1000041EB045170BCE4
:206080004FF4001C1CEB410F38BF70470020090D090570471CEB410F10D252EA43060BD008
:2060A000BCEB410F05D80C0DAB43661E342EB5DD02E0AB438018594170BC704770BC7047C5
:2060C00070B44FF0004591EA030F44BF6B40FFF78DBF00BF841A71EB030604D26E40001B3A
:2060E000B141121973414FF4001C1CEB410F34BF7CEB430684E00C0DA4EB1356362E7DDC44
:20610000012E43DC45EAC32343EA525312BFD20292025B08240545EAC12141EA5051D2EBEB
:20612000C020994125D407D1B0FA80F610FA06F164D00020203608E0B1FA81F6B140C6F157
:20614000200220FA02F21143B0404FEAF474B4EB465434F001064FEA74040AD8D6F5001652
:20616000760D04F00044F04061FA06F25040F1404840C00A40EA415021F0004128BF5FEA91
:20618000500550F1000044EBD12137E045EAC323DB0A45EAC121C90AB6F120050EDD42EA70
:2061A0000242120CC5F1200603FA06F6EB4042EA06056D42984161F100010DE062FA06F527
:2061C000F240554063FA06FC82EA0C02F3405A406D42904161EB030111F4801F05D1641E86
:2061E000620502D06D004041494121F48011430875F1004350F1000041EB045170BC7047AF
:206200001CEB410F15D223F0004352EA43060BD04FEA4C0CBCEB410F04D80C0D661E342E27
:20622000B7DDEBE7801A994150EA410608BF0021E4E708BF1CEB430F28BF6FF00001DDE725
:20624000F0B540F2FF7581EA030C0CF0004C15EA11541DBF15EA1357AC42AF42E5E0BC41E7
:20626000C1F31301C3F31303801A994143F4801304D2641E4000494180185941C90241EA02
:206280005051B1FBF3F603FB1611A2FB0675D7EBC020A94102D2761E80185941C90241EA6F
:2062A0005051B1FBF3FE03FB1E11A2FB0E75D7EBC020A94103D2AEF1010E80185941890287
:2062C00041EA9051760546EA8E2EB1FBF3F603FB1611A2FB0675D7EB8020A94102D2761EC5
:2062E00080185941C90241EA50514EEA060EB1FBF3F603FB1611A2FB0675D7EBC020A9412B
:2063000002D2761E80185941C90241EA5051B1FBF3F703FB1711A2FB0735D3EBC020A9412F
:2063200067F100070CBF004247F0010766F3D5274FEA1E31B80814F5806412DDBD0775F10F
:20634000004250EB0E5051EB045111F5801F5CBF41EA0C01F0BD4CF07F6141F0E04100209E
:20636000F0BDBD076D0840EA0E5041F48011D4F10104B4F120060ADAC4F120060200E04073
:2063800001FA06F3E1401843B24015430EE0342C13DCC6F1200445EA40056D0820FA06F230
:2063A000154321FA06F0A1400D43002175F1004250F1000051EB0C01F0BD00205FEA0C01CD
:2063C000F0BDCFB992185B41B3FA83F704BFB2FA82F6BF190B3FB7F120062FBF02FA06F361
:2063E000BB40C7F1200622FA06F638BF3343BA401CB1E419641E33E77F4231F00041B1FA11
:2064000081F404BFB0FA80F6A4190B3CB4F120062FBF00FA06F1A140C4F1200620FA06F6A4
:2064200038BF3143A0403C1B1AE7AC421ABF05EA1357AF4212E050EA41061CBF52EA4306D5
:20644000BFE750EA4107304661461CBF41EA0551F0BD52EA430C08BFC143F0BD00204FF488
:20646000001616EB410F98BF16EB430F08BF16EB410F24BFC14305E016EB430F0CBF614662
:206480004CEA0551F0BD000080B52DED028B41EC180B53EC182B1A481A49FEF725F91A4AD9
:2064A0001A4BFFF799FD53EC182BFEF71DF9184A184BFFF791FD53EC182BFEF715F9164A30
:2064C000164BFFF789FD53EC182BFEF70DF9144A144BFFF781FD53EC182BFEF705F9124A60
:2064E000124BFFF779FD53EC182BFEF7FDF8104A104BBDEC028BBDE80050FFF76DBD000067
:20650000F7DE29BFD8F8C23FF4B3FECC1A99C33F62CB68D96F46C73FC6C912DAC471CC3FE3
:206520004AE98A942449D23FF75F97999999D93FBC5555555555E53F2DE9704C04462DEDFD
:20654000088B94ED009B43EC182B51EC190B00F058FD064651EC180B00F053FD31000E9DAC
:2065600006D500284DD4022805D184ED008B42E1022EF8D121E050B951EC190B0022344BD3
:20658000FFF7E4FC0FD084ED008B002033E1012818D151EC190B00222E4BFFF7D7FC18BF68
:2065A00084ED008B51D1FFF7E1FC212101604FF0FF306FF00041C4E90001BDEC088B02202D
:2065C000BDE8708C7EB984ED008B2946204600F039FD040018BF012C40F00C81FFF7C6FC6F
:2065E0002221016006E151EC190B0022184BFFF7ADFC0DD151EC180BFEF776F8C4E900013C
:2066000023E051EC190B0022134BFFF7CDFC0BD251EC180B0023FEF767F8C4E90001BDECCC
:20662000088B0020BDE8708C01220C4BFFF7A4FC16D851EC180B0022054BFEF755F8C4E947
:206640000001FFF793FC222101600120D3E000BF0000F07F0000F0FF00C89CC000C89C4057
:20666000384A394BFEF740F800220023FFF79CFC34BF9FED360B9FED370B53EC102BFFF716
:20668000ABFCFEF70FF90646FDF758FB41EC1A0B4FF07842314BFEF727F802460B4651EC12
:2066A000190BFFF70DFD82468B4653EC1A2B2C482C49FEF719F802460B4650465946FFF7E6
:2066C000FFFC6FF00102284BFFF756FC41EC190B05D80022254BFFF767FCC0F07D8053EC9D
:2066E000192BFEF701F841EC1A0B214A214BFDF7FBFF214A214BFFF76FFC53EC1A2BFDF7A1
:20670000F3FF1F4A1F4B41EC1B0B51EC1A0BFDF7EBFF1D4A1D4BFFF75FFC53EC1A2BFDF789
:20672000E3FF1B4B0022FFF757FC53EC192BFDF7DBFF41EC190B9FED01AB2BE000000000C1
:206740000000F03FFE822B654715F73F000000000000E0BF000000000000E03F422EE63F15
:20676000F2E4D5BCE7E84B3EFFFF8FBC0000903C112E5781A03F503F5843128C8F71BC3F8C
:206780004BE8A541B752013F0BBDF3DAE8708C3F0000E03F51EC1B0B53EC192BFFF71CFCCC
:2067A00053EC1A2BFFF718FC82468B4651EC1B0B53EC192BFFF784FC53EC1A2BFFF70CFCD4
:2067C00002460B4650465946FFF73AFD53EC182BFDF78AFF41EC180B84ED008BA91920464B
:2067E00000F030FC040018BF012C03D1FFF7BEFB222101602046BDEC088BBDE8708C00000B
:2068000010B590B004000C20049000200A90012009900020069004A8FCF7A2F8002801D053
:20682000FCF794F8022000904FF40070039000A800F092FC002801D0FCF788F801200649DF
:20684000086000220F210220FBF76CF80220FBF77CF810B010BD00003C0E47422DE9F04FC9
:2068600080460FF28C7095B092461D46D0E90023CDE9132303AE00200391B0610DF134095C
:2068800000E0A2440020ADF8020013AB4FF0FF3251460DF1020000F01BFD0446012C05DA48
:2068A0009AF80000441EA441E043C40FBDF8020025280CBFA4F1010BA346BBF1010F0EDB0B
:2068C000574617F8011B0398C0470390002800F0CF81B069401CBBF1010BB061F1D1BDF89E
:2068E0000200252804D10020F0603061706105E00028C6D1B069BDE140F001001AF8011FE4
:206900002029F9D023290DD02B2904D02D2906D030290AD00CE040F0020080B2EEE740F060
