:020000040800F2
:20000000780C002059970008D5960008D796000885970008899700088D97000800000000E4
:2000200000000000000000000000000091970008D99600080000000095970008DB9600086C
:20004000999700089D970008A1970008A5970008A9970008AD970008B1970008B597000870
:20006000B9970008BD970008C1970008C5970008C9970008CD970008D1970008D597000850
:20008000D9970008DD970008E1970008E5970008E9970008ED970008F1970008F597000830
:2000A00000000000F9970008FD9700080198000805980008099800080D98000811980008BF
:2000C00015980008199800081D9800082198000825980008299800082D9800083198000808
:2000E000E396000835980008399800083D9800084198000800000000459800084998000845
:200100004D9800085198000855980008599800085D98000861980008659800080000000010
:200120006998000838B5040000252078C00740F1EA80DFF8F00C006810F00C0008280BD054
:20014000DFF8E00C006810F00C000C2827D1DFF8D40C0068C00322D54FF48040B0FA80F046
:2001600050F02000C0B24009C0B2012803D1DFF8B00C006802E0DFF8B40C00684FF4804115
:20018000B1FA81F111F01F01C840C00740F1BB806068002840F0B780012000F01EBCDFF8CD
:2001A000800C006830F48030DFF8741C0860DFF8700C006830F48020DFF8641C086000F07A
:2001C00055FF05004FF48040B0FA80F050F02000C0B24009C0B2012803D1DFF8440C006890
:2001E00002E0DFF8480C00684FF48041B1FA81F111F01F01C840C00708D500F037FF401B1B
:2002000041F289318842DDD30320E6E3DFF8100C006830F48030DFF8081C08606068012808
:2002200010D1DFF8FC0B006830F48020DFF8F01B0860DFF8EC0B006850F48030DFF8E01B8D
:2002400008600FE06068052804D16068DFF8881C087007E0DFF8C80B006830F48020DFF82E
:20026000C01B08606068002826D000F0FFFE05004FF48040B0FA80F050F02000C0B240092B
:20028000C0B2012803D1DFF8980B006802E0DFF89C0B00684FF48041B1FA81F111F01F0103
:2002A000C840C0072FD400F0E1FE401B41F289318842DDD3032090E300F0D8FE05004FF437
:2002C0008040B0FA80F050F02000C0B24009C0B2012803D1DFF8480B006802E0DFF84C0B18
:2002E00000684FF48041B1FA81F111F01F01C840C00708D500F0BAFE401B41F289318842EE
:20030000DDD3032069E32078800740F1B480DFF8140B006810F00C0004280BD0DFF8040BE3
:20032000006810F00C000C2835D1DFF8F80A0068C00330D45FF08040B0FA80F050F020007E
:20034000C0B24009C0B2012803D1DFF8D40A006802E0DFF8D80A00685FF08041B1FA81F126
:2003600011F01F01C840C00704D5E068012801D0012032E3DFF8B00A00685FF47801B1FACC
:2003800081F130F4F850226912FA01F10843DFF8981A08606FE0E06800283ED001205FF07D
:2003A0000041B1FA81F1DFF89C2B42F8210000F05DFE05005FF08040B0FA80F050F020000D
:2003C000C0B24009C0B2012803D1DFF8540A006802E0DFF8580A00685FF08041B1FA81F1A6
:2003E00011F01F01C840C00706D400F03FFE401B6528DFD30320F0E2DFF82C0A00685FF4AF
:200400007801B1FA81F130F4F850226912FA01F10843DFF8141A08602DE000205FF00041DC
:20042000B1FA81F1DFF81C2B42F8210000F01EFE05005FF08040B0FA80F050F02000C0B21A
:200440004009C0B2012803D1DFF8D409006802E0DFF8D80900685FF08041B1FA81F111F098
:200460001F01C840C00706D500F000FE401B6528DFD30320B1E22078C00640F1EC80DFF8A2
:20048000A409006810F00C0F6CD15FF48000B0FA80F050F02000C0B24009C0B2012803D178
:2004A000DFF87C09006802E0DFF8800900685FF48001B1FA81F111F01F01C840C00704D514
:2004C000A069002801D1012087E2DFF85C09006810F46040216A884220D2206A00F034FD55
:2004E000002801D0012078E2DFF83C09006830F46040216A0843DFF830190860DFF82809DA
:200500000068FF21B1FA81F10002000AE26912FA01F10843DFF8101908601FE0DFF8080947
:20052000006830F46040216A0843DFF8FC180860DFF8F4080068FF21B1FA81F10002000AE2
:20054000E26912FA01F10843DFF8DC180860206A00F0FAFC002801D001203EE20F2000F00B
:200560006DFD78E0A069002847D001205FF40001B1FA81F1DFF8CC2942F8210000F076FD55
:2005800005005FF48000B0FA80F050F02000C0B24009C0B2012803D1DFF88408006802E032
:2005A000DFF8880800685FF48001B1FA81F111F01F01C840C00706D400F058FD401B652884
:2005C000DFD3032009E2DFF86008006830F46040216A0843DFF850180860DFF84C080068E0
:2005E000FF21B1FA81F10002000AE26912FA01F10843DFF8341808602DE000205FF4000112
:20060000B1FA81F1DFF83C2942F8210000F02EFD05005FF48000B0FA80F050F02000C0B247
:200620004009C0B2012803D1DFF8F407006802E0DFF8F80700685FF48001B1FA81F111F0B6
:200640001F01C840C00706D500F010FD401B6528DFD30320C1E12078000748D560690028C7
:2006600022D001205FF00041B1FA81F1DFF86C2942F8210000F0FAFC05005FF08040B0FA4F
:2006800080F0DFF8A80700685FF08041B1FA81F111F01F01C840C00729D400F0E7FC401BB4
:2006A0006528EAD3032098E100205FF00041B1FA81F1DFF8282942F8210000F0D7FC05003C
:2006C0005FF08040B0FA80F0DFF8600700685FF08041B1FA81F111F01F01C840C00706D553
:2006E00000F0C4FC401B6528EAD3032075E12078400740F1D180DFF8E808006850F080508C
:20070000DFF8DC180860DFF8D808006810F0805000900098DFF8CC08006850F48070DFF871
:20072000C418086000F0A2FC0500DFF8B8080068C00506D400F09AFC401B6528F5D30320EB
:200740004BE1DFF8E806006830F48070DFF8DC160860DFF8D806006830F48060DFF8CC1621
:20076000086000F083FC05005FF48000B0FA80F0DFF8B80600685FF48001B1FA81F111F0C1
:200780001F01C840C00708D500F070FC401B41F289318842E8D303201FE1A068012808D137
:2007A000DFF88806006850F48070DFF88016086037E0A068002810D1DFF87006006830F462
:2007C0008070DFF868160860DFF86006006830F48060DFF85816086023E0A068052810D1FD
:2007E000DFF84806006850F48060DFF840160860DFF83806006850F48070DFF8301608607D
:200800000FE0DFF82806006830F48070DFF81C160860DFF81806006830F48060DFF80C169D
:200820000860A06800281BD000F020FC05005FF48000B0FA80F0DFF8F40500685FF480012B
:20084000B1FA81F111F01F01C840C00724D400F00DFC401B41F289318842E8D30320BCE00E
:2008600000F004FC05005FF48000B0FA80F0DFF8BC0500685FF48001B1FA81F111F01F0184
:20088000C840C00708D500F0F1FB401B41F289318842E8D30320A0E0606A002800F09C8062
:2008A000DFF88005006810F00C000C2800F09280606A022863D100208021B1FA81F1DFF855
:2008C000842642F8210000F0D1FB05004020B0FA80F050F02000C0B24009C0B2012803D14E
:2008E000DFF83C05006802E0DFF8400500684021B1FA81F111F01F01C840C00706D500F0D9
:20090000B5FB401B6528E1D3032066E0DFF81405006830F47D00A16A0843E16A0843216BB1
:200920000843DFF80015086001208021B1FA81F1DFF8102642F8210000F098FB05004020E9
:20094000B0FA80F050F02000C0B24009C0B2012803D1DFF8CC04006802E0DFF8D0040068EF
:200960004021B1FA81F111F01F01C840C00733D400F07CFB401B6528E1D303202DE00020AF
:200980008021B1FA81F1DFF8BC2542F8210000F06DFB05004020B0FA80F050F02000C0B2DD
:2009A0004009C0B2012803D1DFF87404006802E0DFF8780400684021B1FA81F111F01F018C
:2009C000C840C00708D500F051FB401B6528E1D3032002E0012000E0002032BD70B5040055
:2009E0000D000026DFF80006006810F00100A84280F0FF80012D07D1DFF8EC05006850F02F
:200A00000400DFF8E4150860DFF8DC050068400840002843DFF8D0150860DFF8CC05006853
:200A200010F00100A84201D00120F6E12078800709D5DFF8B805006830F0F000A1680843A5
:200A4000DFF8A81508602078C00740F1C781606802281CD14FF48040B0FA80F050F0200066
:200A6000C0B24009C0B2012803D1DFF8B403006802E0DFF8B80300684FF48041B1FA81F159
:200A800011F01F01C840C0075AD40120C5E1606803281AD14020B0FA80F050F02000C0B247
:200AA0004009C0B2012803D1DFF87403006802E0DFF8780300684021B1FA81F111F01F018D
:200AC000C840C0073CD40120A7E1606801281BD15FF08040B0FA80F050F02000C0B240096D
:200AE000C0B2012802D1CE48006802E0DFF83C0300685FF08041B1FA81F111F01F01C84054
:200B0000C0071DD4012088E15FF48000B0FA80F050F02000C0B24009C0B2012802D1C04815
:200B2000006802E0DFF8040300685FF48001B1FA81F111F01F01C840C00701D401206CE101
:200B4000DFF8A80400688008800061680843DFF89C14086000F08AFA06006068022810D152
:200B6000DFF88804006810F00C00082800F0368100F07CFA801B41F289318842F0D3032029
:200B80004BE16068032810D1DFF86004006810F00C000C2800F0228100F068FA801B41F2BF
:200BA00089318842F0D3032037E16068012810D1DFF83804006810F00C00042800F00E81AF
:200BC00000F054FA801B41F289318842F0D3032023E1DFF81804006810F00C0F00F0FE80B7
:200BE00000F044FA801B41F289318842F1D3032013E12078800709D5DFF8F003006830F04B
:200C0000F000A1680843DFF8E41308602078C00740F1C880606802281AD14FF48040B0FAF8
:200C200080F050F02000C0B24009C0B2012802D17B48006801E07D4800684FF48041B1FAD3
:200C400081F111F01F01C840C00756D40120E4E06068032818D14020B0FA80F050F020006D
:200C6000C0B24009C0B2012802D16D48006801E06E4800684021B1FA81F111F01F01C84088
:200C8000C0073AD40120C8E0606801281AD15FF08040B0FA80F050F02000C0B24009C0B224
:200CA000012802D15E48006801E0604800685FF08041B1FA81F111F01F01C840C0071CD42C
:200CC0000120AAE05FF48000B0FA80F050F02000C0B24009C0B2012802D15148006801E011
:200CE000524800685FF48001B1FA81F111F01F01C840C00701D401208FE0DFF8F00200687B
:200D00008008800061680843DFF8E012086000F0ADF90600606802280FD1DFF8D002006807
:200D200010F00C0008283DD000F0A0F9801B41F289318842F1D303206FE0606803280FD186
:200D4000DFF8A802006810F00C000C282AD000F08DF9801B41F289318842F1D303205CE085
:200D6000606801280FD1DFF88402006810F00C00042817D000F07AF9801B41F28931884209
:200D8000F1D3032049E0DFF86402006810F00C0F08D000F06BF9801B41F289318842F2D340
:200DA00003203AE0012D07D1DFF83C02006850F00400DFF834120860DFF82C0200684008F5
:200DC00040002843DFF820120860DFF81C02006810F00100A84201D001201EE020784007E0
:200DE00009D5DFF80802006830F4E060E1680843DFF8F8110860207800070AD5DFF8EC014A
:200E0000006830F46050216950EAC100DFF8DC1108600F2000F012F9002070BD000000006E
:200E200000380240083802400438024034380240F0B40021002200230024002500206B4E5E
:200E40003668310011F00C06042E04D0082E05D00C2E06D02CE0664E30003AE0654E3000A2
:200E600037E04FF47056B6FA86F6634F11F4701C3CFA06F6F65D32004FF44076B6FA86F607
:200E80005E4F11F4400C3CFA06F6F65D3300574E3668F60305D5B2FBF3F6564F7E43340056
:200EA00004E0B2FBF3F6524F7E433400200010E0534E366816F460465FF4E027B7FA87F79A
:200EC000FE40350001266F1CBE404FF400477E433000F0BC704700000238024080B5FFF76A
:200EE000A7FF424909685FF07062B2FA82F2454B11F0F001D140C95CC840434908604248D1
:200F0000006802BD80B5FFF7E9FF384909685FF46002B2FA82F23B4B11F4E061D140C95CCE
:200F2000C84002BD80B5FFF7D9FF304909685FF4E012B2FA82F2334B11F46051D140C95C2E
:200F4000C84002BD0000474270B582B00400002500262648006810F0F00F24D12048006801
:200F6000C00003D500F096F8050014E01C48006850F080501A4908601948006810F0805022
:200F80000090009800F086F805001548006830F0805013490860B5F5C05F04D1B4F5404F67
:200FA00001D101200600012E05D10F48006850F004000D4908600C480068400840003043BB
:200FC000094908600848006810F00100B04201D0012000E0002076BD000000008006474278
:200FE0002438024000700040003C0240083802400024F40000127A006897000880970008D9
:2010000004380240489700080802002080B51F48006850F004001D4908601C48006850F01F
:2010200002001A490860032000F0A4F80F2000F005F800F002F8002002BD704710B50400CF
:20104000FFF74CFF4FF47A71B0FBF1F000F0B2F8002221005FF0FF3000F092F8002010BDD3
:201060000B480068401C0A490860704708480068704711B581B00024FFF7F8FF0400FFF776
:20108000F5FF001B01998842F9D313BD003C02404C0800200248006810F4C05070470000D2
:2010A0000070004010F00702454B1B6819004FF6FF031940434B53EA02231943404B19605B
:2010C00070473F480068C0F302207047012110F01F0291403C4A40B2430942F823107047E2
:2010E00010B440B2002808D50A01384B40B210F00F04E31803F8042C03E00A01344B40B21D
:20110000C25410BC704770B4030013F00704D4F10706052E01D3042001E0D4F10700261D14
:20112000072E01D2002500E0E51E012616FA00F0401E0840A8400121A940491E11400843DC
:2011400070BC704710B50400601EB0F1807F01D301200EE0601E1F4908600F215FF0FF30E6
:20116000FFF7BEFF00201C49086007201B490860002010BD10B504002000FFF793FF10BDB1
:20118000F8B504000D0016000027FFF79AFF0700320029003800FFF7B6FF0100200040B26D
:2011A000FFF79EFFF1BD10B50400200040B2FFF78DFF10BD10B504002000FFF7C3FF10BD56
:2011C0000CED00E00000FA0500E100E018ED00E000E400E014E000E018E000E010E000E051
:2011E00010B5040000F0E9FE002801D0012036E000F043F8002801D0012030E0206800F052
:20120000E3FB002801D0012029E0606800F0C8FC002801D0012022E0A27A617A207A00F0B4
:2012200081F9002801D0012019E0E06800F067FA002801D0012012E0206900F03DFB0028A3
:2012400001D001200BE0A27D617D207D00F00DF9002801D0012002E000F0B3FE002010BD97
:2012600010B50400002C01D1012005E001230F22D421200000F020FF10BD80B500208DF881
:20128000000001231222D42100A800F015FF002801D001203EE09DF8000010F0FB008DF808
:2012A00000009DF8000050F004008DF8000001231222D42100A800F0E1FE002801D00120F2
:2012C00028E001230A22D42100A800F0F5FE002801D001201EE09DF8000010F087008DF87D
:2012E00000009DF800008DF800009DF8000010F0F8008DF800009DF800008DF80000012384
:201300000A22D42100A800F0B9FE002801D0012000E0002002BD10B582B004000020ADF8C4
:20132000000002232822D42100A800F0C5FE002801D0012029E09DF801009DF8001011EB94
:201340000020208002232A22D42100A800F0B4FE002801D0012018E09DF801009DF80010D0
:2013600011EB0020608002232C22D42100A800F0A3FE002801D0012007E09DF801009DF8A4
:20138000001011EB0020A080002016BD10B584B004000020009001A8FFF7BDFF002801D00D
:2013A000012025E000A800F021FA002801D001201EE0BDF9040001F0DDF8009901F0F8F842
:2013C00001F062F92060BDF9060001F0D3F8009901F0EEF801F058F96060BDF9080001F0A8
:2013E000C9F8009901F0E4F801F04EF9A060002004B010BD10B582B004000020ADF800002D
:2014000002232222D42100A800F056FE002801D0012029E09DF801009DF8001011EB002008
:20142000208002232422D42100A800F045FE002801D0012018E09DF801009DF8001011EB88
:201440000020608002232622D42100A800F034FE002801D0012007E09DF801009DF8001024
:2014600011EB0020A080002016BD2DE9F84304000D00160000208DF8000000275FF00008A2
:201480005FF00009E4B2002C01D1002700E00827EDB2002D02D15FF0000801E05FF01008EC
:2014A000F6B2002E02D15FF0000901E05FF0200901231822D42100A800F0FEFD002801D0F3
:2014C00001202DE09DF8000010F0F7008DF800009DF8000038438DF800009DF8000010F0A3
:2014E000EF008DF800009DF8000058EA00008DF800009DF8000010F0DF008DF800009DF88E
:20150000000059EA00008DF8000001231822D42100A800F0B3FD002801D0012000E000204E
:20152000BDE8F2832DE9F84304000D00160000208DF8000000275FF000085FF00009E4B208
:20154000002C01D1002700E00827EDB2002D02D15FF0000801E05FF01008F6B2002E02D170
:201560005FF0000901E05FF0200901231922D42100A800F0A1FD002801D001202DE09DF874
:20158000000010F0F7008DF800009DF8000038438DF800009DF8000010F0EF008DF8000031
:2015A0009DF8000058EA00008DF800009DF8000010F0DF008DF800009DF8000059EA0000FE
:2015C0008DF8000001231922D42100A800F056FD002801D0012000E00020BDE8F28310B54E
:2015E00084B004000020009001A8FFF703FF002801D0012025E000A800F046FA002801D072
:2016000001201EE0BDF9040000F0B4FF009900F0CFFF01F039F82060BDF9060000F0AAFF00
:20162000009900F0C5FF01F02FF86060BDF9080000F0A0FF009900F0BBFF01F025F8A060E7
:20164000002004B010BD10B582B0040000208DF8000001231022D42100A800F02DFD002814
:2016600001D001204AE09DF8000010F0F0008DF800009DF80000002814D0102815D020283E
:2016800017D0302819D040281BD050281DD060281FD0702821D0802823D0902825D0A0285A
:2016A00027D02AE00020206027E0DFF8F805206023E0DFF8F40520601FE0DFF8F005206090
:2016C0001BE0DFF8EC05206017E0DFF8E805206013E0DFF8E40520600FE0DFF8E00520602E
:2016E0000BE0DFF8DC05206007E0DFF8D805206003E0DFF8D4052060FFE7002016BD38B5D3
:201700000400002500208DF800002000002100F0DDFF01D8002548E02000DFF8B01500F01C
:20172000D5FF01D2102540E02000DFF8A41500F0CDFF01D2202538E02000DFF8981500F07D
:20174000C5FF01D2302530E02000DFF88C1500F0BDFF01D2402528E02000DFF8801500F08D
:20176000B5FF01D2502520E02000DFF8741500F0ADFF01D2602518E02000DFF8681500F09D
:20178000A5FF01D2702510E02000DFF85C1500F09DFF01D2802508E02000DFF8501500F0AD
:2017A00095FF01D2902500E0A02501231022D42100A800F081FC002801D0012015E09DF864
:2017C000000010F00F008DF800009DF8000028438DF8000001231022D42100A800F04EFCC3
:2017E000002801D0012000E0002032BD10B582B0040000208DF8000001231022D42100A84D
:2018000000F05AFC002801D0012021E09DF8000010F00C008DF800009DF80000002806D0AE
:20182000042810D0082806D00C2808D00FE0DFF8C00420600BE0DFF8BC04206007E0DFF8C0
:20184000B804206003E0DFF8B4042060FFE7002016BD10B582B0040000208DF800000123BD
:201860001022D42100A800F027FC002801D0012021E09DF8000010F00C008DF800009DF8B0
:201880000000002806D0042810D0082806D00C2808D00FE05FF0804020600BE05FF08140B3
:2018A000206007E05FF08240206003E05FF083402060FFE7002016BD38B5040000250020AC
:2018C0008DF800002000DFF8381400F0FFFE01D2002510E02000DFF82C1400F0F7FE01D27C
:2018E000082508E02000DFF8201400F0EFFE01D20C2500E0042501231022D42100A800F0DB
:20190000DBFB002801D0012015E09DF8000010F0F3008DF800009DF8000028438DF8000050
:2019200001231022D42100A800F0A8FB002801D0012000E0002032BD10B582B004000020FD
:201940008DF8000001231122D42100A800F0B4FB002801D0012036E09DF8000010F0F000BA
:201960008DF800009DF80000002810D0102811D0202812D0302813D0402814D0502815D01E
:20198000602816D0702817D0802818D01AE00020206017E0C348206014E0C348206011E03E
:2019A000C24820600EE0C24820600BE0C148206008E0C148206005E0C048206002E0C048E9
:2019C0002060FFE7002016BD38B50400002500208DF800002000002100F078FE01D800254E
:2019E00031E02000B94900F071FE01D210252AE02000B74900F06AFE01D2202523E0200090
:201A0000B44900F063FE01D230251CE02000B24900F05CFE01D2402515E02000AF4900F0BA
:201A200055FE01D250250EE02000AD4900F04EFE01D2602507E02000AA4900F047FE01D271
:201A4000702500E0802501231122D42100A800F033FB002801D0012015E09DF8000010F0B6
:201A60000F008DF800009DF8000028438DF8000001231122D42100A800F000FB002801D075
:201A8000012000E0002032BD10B582B0040000208DF8000001231122D42100A800F00CFBAB
:201AA000002801D0012034E09DF8000010F002008DF800009DF80000022802D193482060EF
:201AC00026E001231122D42100A800F0F5FA002801D001201DE09DF8000010F00C008DF8F0
:201AE00000009DF80000002806D0042807D0082808D00C2809D00BE08548206008E085484E
:201B0000206005E08448206002E084482060FFE7002016BD10B582B0040000208DF800006D
:201B200001231122D42100A800F0C6FA002801D0012034E09DF8000010F002008DF80000B7
:201B40009DF80000022802D17548206026E001231122D42100A800F0AFFA002801D0012009
:201B60001DE09DF8000010F00C008DF800009DF80000002806D0042807D0082808D00C2870
:201B800009D00BE06748206008E06748206005E06648206002E066482060FFE7002016BD3F
:201BA00038B50400002500208DF800002000614900F08CFD20D20220050001231122D421C2
:201BC00000A800F079FA002801D0012068E09DF8000010F0FD008DF800009DF80000284381
:201BE0008DF8000001231122D42100A800F046FA002854D0012053E001231122D42100A8A8
:201C000000F05AFA002801D0012049E09DF8000010F0FD008DF800009DF800008DF800000C
:201C200001231122D42100A800F028FA002801D0012035E02000404900F048FD01D2002599
:201C40000EE020003D4900F041FD01D2042507E020003B4900F03AFD01D2082500E00C2503
:201C600001231122D42100A800F026FA002801D0012015E09DF8000010F0F3008DF8000044
:201C80009DF8000028438DF8000001231122D42100A800F0F3F9002801D0012000E00020D5
:201CA00032BD0000000050410000D041000050420000D042000050430000D0430040504475
:201CC0000080CF44002050450020D045010050410100D041010050420100D04201005043A9
:201CE0000100D043014050440180CF440120504523DB793D23DBF93D23DB793E23DBF93EDF
:201D000001000040010080400100004100008C4000000C4100008C4100000C4200008C427D
:201D20000000FA42000075430000FA4300007A440000FA440100FA42010075430100FA4342
:201D400001007A4480B500208DF8000001231022D42100A800F0B0F9002801D00120A8E0BC
:201D60009DF8000010F00F008DF800009DF8000050F060008DF800009DF8000010F0F300F8
:201D80008DF800009DF800008DF8000001231022D42100A800F072F9002801D0012088E0D4
:201DA00001235C22D42100A800F086F9002801D001207EE09DF8000010F07F008DF8000064
:201DC0009DF800008DF800009DF8000010F09F008DF800009DF800008DF800009DF8000081
:201DE00010F0EF008DF800009DF800008DF800009DF8000010F0F0008DF800009DF80000B6
:201E00008DF8000001235C22D42100A800F036F9002801D001204CE001235D22D42100A859
:201E200000F04AF9002801D0012042E09DF8000010F007008DF800009DF8000050F030000D
:201E40008DF800009DF8000010F0F8008DF800009DF8000050F003008DF8000001235D22EB
:201E6000D42100A800F00AF9002801D0012020E001235E22D42100A800F01EF9002801D077
:201E8000012016E09DF8000010F0EF008DF800009DF8000050F010008DF8000001235E2214
:201EA000D42100A800F0EAF8002801D0012000E0002002BD80B500208DF8000001235E225C
:201EC000D42100A800F0F8F8002801D001203CE09DF8000010F0EF008DF800009DF80000B1
:201EE0008DF8000001235E22D42100A800F0C6F8002801D0012028E001235D22D42100A80C
:201F000000F0DAF8002801D001201EE09DF8000010F007008DF800009DF800008DF80000AC
:201F20009DF8000010F0F8008DF800009DF800008DF8000001235D22D42100A800F09EF8AF
:201F4000002801D0012000E0002002BD10B582B0040000208DF8000001231B22D42100A80A
:201F600000F0AAF8002801D001200FE09DF8000010F020008DF800009DF80000202802D1DC
:201F80000120207001E000202070002016BD50F8041B61B150F8042BD30744BFA9F10103A1
:201FA0009A180023091F42F8043BFAD1EFE7704780B500F01CF902BD704780B500F017F96E
:201FC00002BD00B58BB0DFF88405006850F00100DFF878150860DFF87405006810F00100C4
:201FE0000090009810200690DFF864050790022009900020089006A9DFF8580500F078FB63
:020000040800F2
:20200000002200210A20FFF7BBF80A20FFF7CBF8DFF83805006850F00200DFF83015086085
:20202000DFF82805006810F002000090009801200190DFF81C050290022004900020039065
:2020400001A9DFF8140500F053FB002200210620FFF796F80620FFF7A6F80BB000BDF8B5DC
:2020600004000D0016001F003B009BB23200D2B22900C9B2200000F0C3F8F2BDF8B504000D
:202080000D0016001F003B009BB23200D2B22900C9B2200000F0B4F8F2BDF8B504000D00F3
:2020A00016001F003B009BB23200D2B22900C9B2200000F0BEF8F2BDF8B504000D001600C0
:2020C0001F003B009BB23200D2B22900C9B2200000F0AFF8F2BD80B500F0C4F802BD704742
:2020E000F8B504000D0016001F003B009BB23200D2B22900C9B2200000F0BDF8F2BDF8B5EA
:2021000004000D0016001F003B009BB23200D2B22900C9B2200000F0C7F8F2BD80B500F0F4
:20212000DCF802BD704780B500F0D7F802BD7047F8B504000D0016001F003B009BB232003E
:20214000D2B22900C9B2200000F0D0F8F2BDF8B504000D0016001F003B009BB23200D2B29F
:202160002900C9B2200000F0C1F8F2BDF8B504000D0016001F003B009BB23200D2B22900E9
:20218000C9B2200000F0CBF8F2BDF8B504000D0016001F003B009BB23200D2B22900C9B26D
:2021A000200000F0BCF8F2BD80B500F0D1F802BD7047F8B504000D0016001F003B009BB2CD
:2021C0003200D2B22900C9B2200000F0CAF8F2BDF8B504000D0016001F003B009BB2320077
:2021E000D2B22900C9B2200000F0D4F8F2BD80B500F0E9F8002801D0012000E0002002BD4D
:202200002DE9F04104000D0016001F005FF000083B009BB23200D2B22900C9B2200000F0E8
:20222000F2F8002801D0012080464046C0B2BDE8F0812DE9F04104000D0016001F005FF0EA
:2022400000083B009BB23200D2B22900C9B2200000F001F9002801D0012080464046C0B2B2
:20226000BDE8F08180B500F0AEF8002801D0012000E0002002BD2DE9F04104000D00160036
:202280001F005FF000083B009BB23200D2B22900C9B2200000F0B7F8002801D00120804647
:2022A0004046C0B2BDE8F0812DE9F04104000D0016001F005FF000083B009BB23200D2B2EE
:2022C0002900C9B2200000F0C6F8002801D0012080464046C0B2BDE8F08180B500F073F80E
:2022E000002801D0012000E0002002BD2DE9F04104000D0016001F005FF000083B009BB299
:202300003200D2B22900C9B2200000F07CF8002801D0012080464046C0B2BDE8F0812DE9DB
:20232000F04104000D0016001F005FF000083B009BB23200D2B22900C9B2200000F08BF85A
:20234000002801D0012080464046C0B2BDE8F08180B500F038F8002801D0012000E0002020
:2023600002BD2DE9F04104000D0016001F005FF000083B009BB23200D2B22900C9B22000B8
:2023800000F041F8002801D0012080464046C0B2BDE8F0812DE9F04104000D0016001F0099
:2023A0005FF000083B009BB23200D2B22900C9B2200000F050F8002801D001208046404626
:2023C000C0B2BDE8F08110B50024644800F04EFD002815D162486149486000205F498860EB
:2023E00033205E49C8604FF480405C4908615D485A49086000F062F8584800F0A3FA04007F
:202400002000C0B210BD2DE9F04184B004000D0016001F005FF00008534800680290BFB23F
:20242000019700940123F6B2320092B2EDB2290089B24A4800F060FB80465FFA88F8B8F106
:20244000000F03D02800C0B200F02DF84046C0B204B0BDE8F0812DE9F04184B004000D009D
:2024600016001F005FF000083F4800680290BFB2019700940123F6B2320092B2EDB22900A8
:2024800089B2364800F0C8FB80465FFA88F8B8F1000F03D02800C0B200F005F84046C0B227
:2024A00004B0BDE8F08110B504002C4800F0FFFA0120FEF7DEFDFFF786FF10BD00B587B007
:2024C0002248006850F00200204908601F48006810F00200009000984FF440700190122068
:2024E000029002200490002003900420059001A9194800F0FDF81D48006850F400101B49B3
:2025000008601A48006810F40010009000981848006850F40010164908601548006830F481
:20252000001013490860002200211F20FEF728FE1F20FEF738FE002200212020FEF720FE2A
:202540002020FEF730FE07B000BD00001C3802400000111000000240000402405C070020E2
:20256000A0860100005400400C0200202438024018380240002840F10980F446404200F0B4
:2025800005F850F000406047002800BF0AD0B0FA80F18840D1F19D01C905020672F1004298
:2025A00041EB102070470268531C036011707047FF2212EAD05C1DBF12EAD15394459342A1
:2025C0002BE09C44D30780EA01021A4043EA002043EA0121A1FB0030410038BF40007CF122
:2025E0007F010BDBFE294ADA5B0842EAC15153EA006373F1004C51EB10207047D1F1080C40
:20260000DCF120012FDB5B0810FA01F10B4373F1004120FA0CF05041704794451CBF02EA72
:20262000D153934280EA010202F000421DD0400019D0490017D05BB9634514D00902B1FA64
:2026400081F39940BCEB030CC00140F00040C1E70002B0FA80FC10FA0CF0B3EB0C0CC901F0
:2026600041F00041B6E71000704740000AD0490008D010F1807F94BF11F1807F02E042F0E1
:20268000FF407047D04370474100090E7F3915D4D1F11F0114D4400007D2C00140F000406D
:2026A000C84048BF6FF000407047C00140F00040C8404CBF4FF000404042704700207047E2
:2026C00000424FF0004058BFC04370474FF0807C1CEB400F94BF1CEB410F05E040EA010C11
:2026E0005FEA4C0C01D28842704718BF8142704778B40022002300240D68D540002D00F058
:20270000E3800D680126964035402B00002B00F0D9804D68022D02D04D68122D16D1D50862
:2027200010EB85052D6A2C000F2512F00706F6B2B600B540AC430D6912F00706F6B2B600E9
:20274000B5402C43D50810EB85052C6205682C0003251600F6B27600B540AC430D7915F0C1
:2027600003051600F6B27600B5402C4304604D68012D08D04D68022D05D04D68112D02D01C
:202780004D68122D19D185682C0003251600F6B27600B540AC43CD681600F6B27600B540A4
:2027A0002C43846045682C0001259540AC434D68C5F3001595402C434460C5682C00032518
:2027C0001600F6B27600B540AC438D681600F6B27600B5402C43C4604D68ED0072D54A4DB0
:2027E0002D6855F00105484E3560474D2D6815F001050095009D454D960855F826502C0049
:202800000F2512F00306F6B2B600B540AC43404DA84201D1002523E03E4DA84201D1012559
:202820001EE03D4DA84201D1022519E03B4DA84201D1032514E03A4DA84201D104250FE079
:20284000384DA84201D105250AE0374DA84201D1062505E0354DA84201D1072500E008255C
:2028600012F00306F6B2B600B5402C43274D960845F826402E4D2D682C009C434D68ED0316
:2028800000D51C432A4D2C602A4D2D682C009C434D68AD0300D51C43264D2C60264D2D684A
:2028A0002C009C434D68ED0200D51C43224D2C60224D2D682C009C434D68AD0200D51C4393
:2028C0001E4D2C60521C17E771BC7047D2B2002A02D089B2816102E089B20B04836170474D
:2028E000426989B24A404261704710B5040014480068A4B2204206D0A4B2114804602000C0
:2029000080B200F040FF10BD2038024008000140000002400004024000080240000C024086
:202920000010024000180240001C0240001402400004014004040140080401400C0401400B
:202940001404014070B5040000250026002C01D10120ABE094F83500002805D1002084F8A5
:202960003400200000F0BFF8FEF7CCFA0600DFF87C01864201D2012098E0022084F8350040
:20298000206800684008400021680860DFF86001B6FBF0F00500206840688009800128435B
:2029A000216848602068006A6168DFF84821914201D2691C08E04FF4967101FB05F14FF459
:2029C0007A72B1FBF2F1491C800980010843216808622068C0696168DFF8182191420ED292
:2029E00061684900B6FBF1F10905090D042901D204212AE061684900B6FBF1F125E0A1682C
:202A0000002905D1616803225143B6FBF1F106E0616819225143B6FBF1F151F4804109057D
:202A200001D1012111E0A168002905D1616803225143B6FBF1F106E0616819225143B6FB65
:202A4000F1F151F4804151F40041DFF8C021104008432168C8612068006830F0C000E169E9
:202A60000843216A08432168086020688068DFF8A011084021690843E1680843216888602A
:202A80002068C068000A0002A1696269114308432168C8602068006850F001002168086033
:202AA0000020A063012084F83500002070BD10B50400002C01D1012014E0022084F8350025
:202AC000206800684008400021680860200000F00BF80020A063002084F83500002084F8EA
:202AE0003400002010BD70477047000080841E0040420F00A18601002DE9F04782B00500E8
:202B00000E0017009846DDF828900B9CDDF830A095F83500012875D1B9F1000F02D0A4B2C7
:202B2000002C01D101206EE028688069800701D5022068E095F83400012801D1022062E0C8
:202B4000012085F83400322085F835000020A863CDF800A043469BB23A0092B2310089B24F
:202B6000280000F086F9002806D0A86B042801D1012048E0032046E0A4B2002C1FD0534613
:202B800000222449280000F065FA002801D0032039E099F800002968086119F10109641ED9
:202BA000286840694007E7D5A4B2002CE4D099F800002968086119F10109641EDCE7534626
:202BC00000221449280000F045FA002801D0032019E02868006850F40070296808605346CC
:202BE00001225FF00211280000F034FA002801D0032008E0012085F83500002085F8340062
:202C0000002000E00220BDE8F68700000030FFFF007CFFFF800001002DE9F04782B00500C3
:202C20000E0017009846DDF828900B9CDDF830A095F83500012840F01281B9F1000F02D07F
:202C4000A4B2002C01D101200AE128688069800701D5022004E195F83400012801D1022059
:202C6000FEE0012085F83400422085F835000020A863CDF800A043469BB23A0092B231007B
:202C800089B2280000F053F9002806D0A86B042801D10120E4E00320E2E0A4B2012C13D155
:202CA0002868006830F480602968086028684069009028688069009000982868006850F479
:202CC0000070296808601DE0A4B2022C13D12868006830F48060296808602868006850F4F5
:202CE000006029680860286840690090286880690090009806E028684069009028688069E9
:202D000000900098A4B2002C00F09080A4B2042C6DDAA4B2012C12D153460022DFF84811EB
:202D2000280000F097F9002801D0032098E02868006989F8000019F10109641EE2E7A4B228
:202D4000022C1ED1534600224649280000F082F9002801D0032083E02868006850F400704E
:202D6000296808602868006989F8000019F10109641E2868006989F8000019F10109641E3A
:202D8000C0E7534600223749280000F063F9002801D0032064E02868006830F480602968F0
:202DA00008602868006989F8000019F10109641E534600222B49280000F04CF9002801D016
:202DC00003204DE02868006850F40070296808602868006989F8000019F10109641E28685E
:202DE000006989F8000019F10109641E8AE753460022DFF87410280000F02CF9002801D096
:202E000003202DE02868006989F8000019F10109641E2868406940077FF574AF2868006962
:202E200089F8000019F10109641E6BE72868006830F4006029680860534601225FF0021196
:202E4000280000F007F9002801D0032008E0012085F83500002085F83400002000E0022090
:202E6000BDE8F687040001004000010090F8350070472DE9F04182B004000D0016001F00B7
:202E8000DDF820802068006850F4807021680860434600225FF00111200000F0DBF8002891
:202EA00001D0032041E015F0FE00216808614246DFF89811200000F03AF9002806D0A06BB4
:202EC000042801D1012030E003202EE0206840690090206880690090009843460022DFF8B6
:202EE0007011200000F0B6F8002801D003201CE0BFB2012F04D13000C0B22168086113E07E
:202F0000B6B2300AC0B22168086143460022DFF84011200000F09EF8002801D0032004E032
:202F20003000C0B2216808610020BDE8F6812DE9F04182B004000D0016001F00DDF820808D
:202F40002068006850F48060216808602068006850F4807021680860434600225FF001114B
:202F6000200000F077F8002801D003206CE015F0FE002168086142463449200000F0D7F891
:202F8000002806D0A06B042801D101205CE003205AE0206840690090206880690090009816
:202FA000434600222A49200000F054F8002801D0032049E0BFB2012F04D13000C0B22168B1
:202FC000086112E0B6B2300AC0B221680861434600221F49200000F03DF8002801D003201C
:202FE00032E03000C0B221680861434600221849200000F02FF8002801D0032024E0206840
:20300000006850F4807021680860434600225FF00111200000F01EF8002801D0032013E0E2
:2030200055F00100C0B22168086142460749200000F07DF8002806D0A06B042801D1012061
:2030400002E0032000E00020BDE8F68102000100800001002DE9F04104000D0016001F003E
:203060005FF00008FEF702F88046F6B2002E2DD1280CC0B201280AD120684069284080B2FB
:20308000A9B2884201D101200BE0002009E020688069284080B2A9B2884201D1012000E021
:2030A0000020002840D117F1010FE1D0002F05D0FDF7DCFFB0EB08008742D9D2012084F867
:2030C0003500002084F8340003202EE0280CC0B201280AD120684069284080B2A9B2884220
:2030E00001D101200BE0002009E020688069284080B2A9B2884201D1012000E0002000289E
:2031000012D017F1010FE1D0002F05D0FDF7AEFFB0EB08008742D9D2012084F83500002056
:2031200084F83400032000E00020BDE8F081F8B504000D0016000027FDF798FF0700280CE5
:20314000C0B201280AD120684069284080B2A9B2884201D101200BE0002009E020688069B1
:20316000284080B2A9B2884201D1012000E00020002829D120684069400513D5206800682D
:2031800050F40070216808607FF48060216848610420A063012084F83500002084F834003C
:2031A000012012E016F1010FC9D0002E04D0FDF75DFFC01B8642C2D2012084F835000020D1
:2031C00084F83400032000E00020F2BD00B5C1B0FDF71CFF00F068FB002000F08BFC00202E
:2031E00000F0C1FC0121002000F0DCFC00F01DFE00F078FA00F095FA00A800F03BFD002834
:203200000FD09DF8040032280BD100A800F0B4FEDFF82C060078002803D00020DFF8241609
:20322000087000A800F066F800A800F0B7F900A800F0F6F900A800F0B5F800A800F059F922
:20324000DFF8FC050078002804D1DFF8F8050078002803D0002000F096FC02E0002000F046
:2032600082FCDFF8DC05007800280CD000A800F078FE3320009000A800F0B6FDDFF8C805BC
:203280000068FDF7F6FEDFF8BC0500780028B3D04FF4FA70FDF7EDFEAEE72DE9F8430600AB
:2032A0000F00914698463000FFF7EEF938603868FFF760F90100300001F068F806004046A8
:2032C00001F0D8F802000B000020DFF8801501F02AFB04000D00300001F03EFD22002B00C4
:2032E00001F062FD01F031FE01F038FEC9F80000BDE8F18330B589B004000025DFF84005FA
:203300000078002804D1DFF83C050078002815D0002203A9DFF8380501F046FE002202A9B7
:20332000DFF82C0501F0EDFF0498D0F598706421484340F2311190FBF1F00500DFF800056E
:20334000007800280AD09DF80C00E0719DF80D0020729DF80E006072A57221E0DFF8E40481
:20336000007800281CD0EDB201959DF80E0000909DF80D309DF80C20DFF8D814DFF8D80450
:2033800002F020F8DFF8D00402F036F841F28833020092B2DFF8C014DFF8C00402F081F873
:2033A00009B030BD10B588B0040002F0FAFB002800F09680DFF8A80402F0F7FBDFF8A4046B
:2033C00002F002FCDFF87804007800283AD0DFF898040068C00617D50422DFF88404016885
:2033E00014F1130002F0AEFC0422DFF87404416814F1170002F0A6FC0422DFF864048168FD
:2034000014F11B0002F09EFCDFF85C04006880066DD50422DFF84C04016814F11F0002F0CD
:2034200091FC0422DFF83C04416814F1230002F089FC0422DFF82C04816814F1270002F046
:2034400081FC54E0DFF8FC03007800284FD0DFF8100400680190DFF8080440680290DFF84E
:20346000000480680390DFF8FC0300680490DFF8F40340680590DFF8EC0380680690039811
:203480000090029B019ADFF8E413DFF8CC0301F099FFDFF8C40301F0AFFF41F2883302003A
:2034A00092B2DFF8B413DFF8B40301F0FAFF06980090059B049ADFF8B813DFF89C0301F03D
:2034C00081FFDFF8940301F097FF020041F2883392B2DFF88413DFF8840301F0E2FF06E0BF
:2034E000DFF860030078002801D002F04BFA08B010BD1FB5040002F082FC002847D0DFF807
:20350000740302F07FFCDFF83803007800281DD0DFF85403006840063FD50422DFF85403E4
:20352000016814F12B0002F00DFC0422DFF84403416814F12F0002F005FC0422DFF83403AF
:20354000816814F1330002F0FDFB26E0BD480078002822D0C74800680190C6484068029073
:20356000C4488068039003980090029B019AC249B94801F027FFB84801F03EFF41F2883322
:20358000020092B2B449B54801F08BFF05E0AD480078002801D002F0E1FB1FBD1CB50400A6
:2035A00002F021FD002834D0B44802F01FFD022300AA01A9B1480068FFF76FFEA048007828
:2035C000002810D0A8480068C00728D50222019914F10B0002F09FFB0222009914F10D009E
:2035E00002F099FB1BE097480078002817D0009B019AA349984801F0E5FE974801F0FCFE44
:2036000041F28833020092B29349944801F049FF05E08C480078002801D002F019FC13BD84
:2036200010B586B0040002F05CFD002852D0954802F05AFD944802F066FD022304AA05A91E
:2036400090480068FFF729FE022302AA03A98E480068FFF722FE7A480078002820D0824820
:20366000006880070BD50122039914F10F0002F052FB0122029914F1100002F04CFB7A489B
:20368000006840072CD50122059914F1110002F042FB0122049914F1120002F03CFB1FE075
:2036A0006848007800281BD00298019003980090049B059A7549684801F084FE664801F0BB
:2036C0009BFE41F28833020092B26349634801F0E8FE05E05B480078002801D002F0BAFC4E
:2036E00006B010BD80B56A48594908604020584948607F20564988604FF498705449C86077
:203700000020534908610020514948610020504988614F4801F096FC002801D000F0BEF8C6
:2037200001BD00B587B014208DF8030002208DF8010018208DF8020002208DF800000122F2
:2037400000A9434801F05FFD002801D000F0A6F808208DF8040010208DF8050000208DF851
:20376000060000208DF80C000020049000200590012201A9364801F0BBFC002801D000F04D
:203780008DF807B000BD70B50400A4B2B4F5005F35D100253F48006800280AD13E4800689E
:2037A000002806D100F07BF83A4908600120050012E000F074F83849086037480068060072
:2037C00034480068301AB0F5967F05D9324800683049086001200500002D10D01848007855
:2037E000002803D000201749087008E015480078002801D0002000E001201249087070BDFF
:2038000070B586B004000D00160000208DF808008DF800408DF801508DF802600020019046
:203820000020039000200490002200A9084801F05FFC002801D000F031F806B070BD0000C5
:203840006C0800206D080020FC01002000002440D0070020209700081C0600201C07002083
:20386000F0070020FC070020340800201C9600084096000808080020649600083808002088
:20388000389700083C08002040080020B4960008002800404408002048080020FEE780B5D5
:2038A000FDF7E4FB02BD200000B593B001A8142102F050FC06A8342102F04CFC022006904D
:2038C0000120099010200A9002200F90002010905FF4002011905FF40000129006A8FCF739
:2038E00021FC002801D0FFF7D9FF7148006850F080506F4908606E48006810F08050009015
:2039000000986C48006830F4C05050F400606949086069480068C006FBD40F200190032070
:203920000290002003900020049000200590012101A8FDF753F8002801D0FFF7AFFF13B06F
:2039400000BD01685D4A91424ED35D49096802685C4B9A4201D1082044E002685A4B9A4299
:2039600001D180203EE00268584B9A4202D14FF4006037E00268564B9A4202D14FF4004004
:2039800030E00268534B9A4202D15FF4002029E00268514B9A4202D15FF4000022E0026870
:2039A0004E4B9A4202D15FF000601BE002684C4B9A4201D1082015E002684A4B9A4201D19C
:2039C00080200FE00268484B9A4202D14FF4006008E00068454A904202D14FF4004001E021
:2039E0005FF4002008404DE0414909680268354B9A4201D1082044E00268334B9A4201D16A
:203A000080203EE00268314B9A4202D14FF4006037E002682E4B9A4202D14FF4004030E074
:203A200002682C4B9A4202D15FF4002029E00268294B9A4202D15FF4000022E00268274BBC
:203A40009A4202D15FF000601BE00268244B9A4201D1082015E00268224B9A4201D1802044
:203A60000FE00268204B9A4202D14FF4006008E000681E4A904202D14FF4004001E05FF41C
:203A80000020084070470068406870471249016000214160002181608021C160002101617B
:203AA00000214161202181614FF48051C1617047243802400070004004700040816002400E
:203AC00000640240086002401C6002403060024044600240586002406C60024080600240F6
:203AE000086402401C64024030640240446402400060024010B586B0040001A8142102F025
:203B000029FBDFF85401006850F00100DFF848110860DFF84401006810F001000090009867
:203B2000DFF83801E4B230F81400019001200290012003900320049001A9DFF82401E4B2B8
:203B400050F82400FEF7D4FD0022DFF81001E4B230F81410DFF80801E4B250F82400FEF770
:203B6000B5FE06B010BD10B504000022DFF8EC00E4B230F81410DFF8E800E4B250F82400BE
:203B8000FEF7A4FE10BD10B50400DFF8D000E4B230F81410DFF8C800E4B250F82400FEF7D9
:203BA0009FFE10BD30B587B004000D0001A8142102F0D0FADFF8A000006850F00400DFF8DA
:203BC00098100860DFF89000006810F0040000900098EDB2002D13D1DFF88800E4B230F80D
:203BE0001400019000200290002003900220049001A9DFF87400E4B250F82400FEF778FDA4
:203C0000EDB2012D26D1DFF85C00E4B230F8140001900020039002200490DFF85000029028
:203C200001A9DFF84400E4B250F82400FEF760FD00220F21DFF83800E4B230F8140040B246
:203C4000FDF79EFADFF82800E4B230F8140040B2FDF7A9FA07B030BD1C380240A63800085E
:203C600000020020724400080402002000002110A64D00082DE9F04F83B004005FF000082F
:203C80005FF00009A548FFF75CFE002840F0A980A248FFF7F8FED0F50070ADF80200BDF8A7
:203CA00002009F498988884207D3BDF802009C498988401AADF8040008E0BDF8020010F511
:203CC000007097498988401AADF8040094488088824600200600BDF80400B6B2864277D27C
:203CE00090481FFA8AFA1AF800008DF806001AF1010A1FFA8AFABAF5007F01DB002082460D
:203D00009DF80600F02861D185488088824600200500ADB2B6B2B54240D21FFA8AFA1AF184
:203D200001004FF4007190FBF1F202FB110217007C481FFA8AFA1AF800008DF8010079487F
:203D4000BFB2385C8DF800001FFA88F818EB0400001D83465A469DF800109DF8010001F087
:203D60009CFF81465FFA89F9B9F1000F03D16C488780002036E01FFA8AFA5FFA89F919EB0C
:203D80000A004FF4007190FBF1FA0AFB110A18F101085FFA89F919EB0505BAE71FFA88F89A
:203DA000C4F800801FFA8AFA1AF101004FF4007190FBF1FA0AFB110A5948A0F804A02000D7
:203DC00001F093FF002801D001200BE0761C82E7BDF80400B0F5807F03DDBDF802005049D3
:203DE00088800020BDE8FE8F38B50400200001F06BFF21004C4801F038FF050041F288332D
:203E00002A0092B24849494801F04BFB31BD80B54248FFF73BFE414802F0A0F93F484349D8
:203E2000486342483D49486201BD00B587B04048006850F001003E4908603D48006810F066
:203E40000100009000983A48006850F00100384908603748006810F0010000900098354898
:203E6000006850F40030334908603248006810F40030009000982E48006850F080702C49C1
:203E800008602B48006810F0807000900098042001900220029000200390022004900720CE
:203EA000059001A92448FEF723FC082001900720059001A92048FEF71BFC20481B4908607C
:203EC0001F4800681949486000201849886000201649C860002015490861002013498861AD
:203EE0000C2012494861114801F0A2FA002800D0FEE7FFF78CFF0B480C4988624FF4007009
:203F00000A49888500200949C8634FF400720549064801F044FB07B000BD000098070020F0
:203F2000140800201C0200201C0400201C0700201C3802402438024000000240004400408A
:203F4000F80100204179017132214171817980398171704741790171322141710321817174
:203F60007047DFF8141409780171322141710821817103210160704770B504002068022861
:203F800001D20020F6E12079322801D00020F1E1A07901283BD0022854D004286BD008286F
:203FA00000F09E81092800F0BD810C2800F0CD810E283BD0602872D0612800F0A0806228F3
:203FC00000F0AF80632800F0D080702800F0DF80712800F0DC80732800F0D980742800F0BB
:203FE000D680752800F0D380762800F0DD80772800F00A81782800F01981792800F0288122
:020000040800F2
:204000007A2800F037817B2800F05881B1E12068032801D00020ADE12000FFF793FF03205B
:2040200020602000FFF7E0FE0120A3E12068032801D000209EE12000FFF784FF0320206008
:20404000012097E12068032801D0002092E12000FFF778FF00200500102D05D2C748285C57
:204060002919C8716D1CF7E7E81C20602000FFF7BBFE01207EE12068032801D2002079E18B
:204080002000FFF75FFF04220021E01D01F05AFE072020602000FFF7A7FE01206AE12068C9
:2040A000032801D2002065E1200002F0CBF800281DD12000FFF746FF01F0A7FF0600F6B211
:2040C0003000012802D0022808D00FE004220121E01D01F037FE072020600BE0042202217E
:2040E000E01D01F02FFE0720206003E002E02000FFF730FF2000FFF777FE01203AE12068A5
:20410000032801D2002035E12000FFF71BFF200002F0AAF8002802D12000FFF765FE0120F2
:2041200028E12068032801D2002023E1200002F0C3F8002811D12000FFF704FF01F0F2FFFA
:204140000600F6B2012E07D104220121E01D01F0F9FD0720206003E002E02000FFF7FAFE04
:204160002000FFF741FE012004E12068032801D20020FFE02000FFF7E5FE200002F0AEF8AE
:20418000002802D12000FFF72FFE0120F2E02068032801D20020EDE02000FFF7D3FE200074
:2041A000FFF722FE0120E5E02068032801D20020E0E0200002F0D0F800281DD12000FFF797
:2041C000C1FE01F010FD0600F6B23000012802D0022808D00FE004220121E01D01F0B2FD73
:2041E000072020600BE004220221E01D01F0AAFD0720206003E002E02000FFF7ABFE200004
:20420000FFF7F2FD0120B5E02068032801D20020B0E02000FFF796FE200002F0AFF8002842
:2042200002D12000FFF7E0FD0120A3E02068032801D200209EE02000FFF784FE200002F046
:20424000B7F8002802D12000FFF7CEFD012091E02068032801D200208CE02000FFF772FEA9
:20426000200002F0BFF8002802D12000FFF7BCFD01207FE02068032801D200207AE020000B
:2042800002F0DFF8002811D12000FFF75BFE01F0C8FD0600F6B2012E07D104220121E01D2C
:2042A00001F050FD0720206003E002E02000FFF751FE2000FFF798FD01205BE02068032835
:2042C00001D2002056E02000FFF73CFE200002F0CAF8002802D12000FFF786FD012049E0B3
:2042E0002068032801D2002044E00421E01D01F01DFD23490860042114F10B0001F016FDBA
:204300002049086001202049087060791A4908702000FFF717FE032020602000FFF764FDD1
:20432000012027E02068032801D2002022E00020134908600020144908702000FFF702FEBE
:204340002000FFF751FD012014E02068032801D200200FE02000FFF7F5FD03202060627AC8
:20436000217AE079FFF74CFA2000FFF73DFD012000E0002070BD0000140200209401002084
:2043800034080020FC0100206C08002090EA010F44BF81F0004102F08FB800BF431A4FF03D
:2043A00000423EBF5340C01AC91800BFD3095FEAD05C13EB400F34BFB3EB410F40E07CEBAB
:2043C000D1530CD342EA012122D8D1EB402009D3400A28BF5FEA500140EBCC507047401A77
:2043E00015D04002B0FA80F2521C9040400A4FEA3C23B3EB026384BF00EB730007E040F49B
:2044000000001A16DB07C2F10102D04018437047182BFCDC31FA03F202FA03F3591A38BF1B
:2044200042F00102D2EB40203CBF4000ACF1010C5FEACC5CC20572F100414CEB502070470B
:2044400013EB400F0FD24B0009D0ACEBD153022B03DB4902172BDDDD70479143401A4300D5
:20446000D5D10020704713EB410FD0D36FF0000070470020010040F10780F446404200F033
:2044800003F851F00041604709D0B0FA80F18840C91CC1F58461090501EBD02140057047D5
:2044A0001248006850F480701049086010480068104908400E4908600C4800680E490840CA
:2044C0000A4908600948006830F48020074908600748006830F47D0005490860002007496E
:2044E00008605FF0006006490860704700380240083802400CC0FF88FEFFFEEE0C38024079
:2045000008ED00E0000000002DE9FF4D86B0DDE90801CDE904010798C0F30A5040F2FF7156
:20452000884208D107980027000305BF069800280224012412E0012807DA06A801F0F6FFAA
:20454000012802DB0027002408E0079A40F2FE3161F31E520792471A4FF0FF34002104A823
:2045600002F005F80546129810B112990020088035B9DDE908230020002102F037F811D021
:20458000002C11D53FB2012F13D1DDE906230020CA4902F02BF805D0012D0AD1C84902F0EC
:2045A00025F82ED1C749BBE1022C04D1DDE90601B6E1012D59DB022D08BFDDE9080100F0B5
:2045C000AF81012C1BD107980028099802D4002848D532E0002809D4002D43D14FF0FF3148
:2045E00004A801F0C4FF00283CD538E02DBB4FF0FF3104A801F0BBFF00281ED519E0012D1A
:2046000009D10998002839B202D401292ADA14E0012912DA26E00998002811D46DB94FF0E5
:20462000FF3104A801F0A3FF002844BF0798002803D500204FF0004172E1002000216FE1BD
:2046400001F0E4FF2221016065B94FF0FF3104A801F08DFF002844BF0798002802D5002043
:2046600099495DE1002099495AE10798002848BF002D08D501F0CAFF212101604FF0FF303A
:204680006FF000414CE1DDE906010022002301F0C3FF38BFADF804200AD381F00041CDE983
:2046A00006014FF0FF3104A801F061FFADF80400012F13D1DDE90601854A864B01F0C4FFA9
:2046C0000CD2DDE90623002400267E4D20464FF0804100F069FBCDE906011BE0DDE9062397
:2046E000764D7D49002000F05FFB00222B4601F0C3FF00F033FCA0F120063046FFF7BAFE87
:204700000022764B00F050FB00222B4601F0B4FF04460D460FF2202000EB4610009022462D
:20472000DDE906012B4602F01BF882468B46DDE9060122462B4601F09FFF02460B46504639
:20474000594602F0CDF8CDE90401DDE9042300F02BFBCDE906AB0646884602F0E5F932467C
:20476000434600F021FBDDE9062301F0F9FF064688460020534922462B4601F0F1FF00221A
:204780004FF0804300F010FB3246434601F074FFDDE9042300F008FB02460B46DDE9060171
:2047A00001F06AFF04460D464D4A4E4B02F098F8CDE904013846FFF75DFE009A07468B460E
:2047C000D2E900013A465B4601F056FFDDE9042301F052FFCDE90401DDE9082300F0E4FA0D
:2047E0000022414BCDE9020101F02EFFC0F0808001223E4B01F010FF40F27E800022002363
:2048000001F022FFDDE9022339BF00202C4900202A4901F031FF00F0A1FB0646DDE90801B3
:2048200022462B4600F0C0FACDE90201009A2C4C2C4DD2E902019046D8E9042301F01CFF29
:20484000DDE9082300F0B0FA22462B4600F0ACFADDE9022301F010FFCDE90201DDF8008065
:204860003A46D8E900015B4601F006FFDDE9082300F09AFA07468B463046FFF7FBFD024620
:204880000B463846594601F06BFF22462B4600F08BFADDE9022301F0EFFECDE902011298D5
:2048A00008B10680002600960022064B02A802F091F9E8B101281FD02AE000BF0000E03FCB
:2048C0000000E0BF0000F03F0000F0FF0000F07FCD3B7F669EA0E63F000050400000903FFD
:2048E000EF39FAFE422EE63F0000E0C00000E0400020CDE9020007E00020014902E000BF79
:204900000000F07FCDE9020101F080FE22210160BDF904000028DDE9020118BF81F0004128
:204920000AB0BDE8F08D10B582B000240094FFF7EBFD1CBD00000000000000000000F0BF86
:20494000000000000000008000000000000000800000000000000000000000C05294EEBF04
:2049600000000048204E51BE000000F86467BCBC0000000000000000000000208133EDBFB7
:2049800000000080B3DB14BE000000506706A3BC0000000000000000000000D0E9DCEBBFDC
:2049A00000000008C39259BE00000080B0D3B8BC000000000000000000000070F98FEABF6B
:2049C000000000C0A51028BE000000E8BFC0B0BC000000000000000000000070284CE9BF1D
:2049E00000000060134B42BE000000C03D20B8BC000000000000000000000050FA10E8BF67
:204A0000000000C05FF62BBE000000905C71A7BC000000000000000000000020FCDDE6BF3A
:204A2000000000C0F8F154BE00000018E9F6B9BC0000000000000000000000D0C3B2E5BF66
:204A400000000070E43254BE00000050DB06B4BC000000000000000000000010EF8EE4BFED
:204A600000000020F36252BE000000C02A879ABC0000000000000000000000B02272E3BF04
:204A8000000000F0E8E056BE00000028352DBDBC0000000000000000000000000A5CE2BF40
:204AA000000000B0FA8E41BE00000040AE6FBDBC000000000000000000000000564CE1BFA7
:204AC000000000F015CD5FBE00000000141C90BC000000000000000000000040BD42E0BF8D
:204AE00000000030F93457BE000000E06C1E93BC0000000000000000000000E0F57DDEBF9C
:204B0000000000B08A535EBE00000080DA77AABC0000000000000000000000C09D81DCBF3C
:204B200000000000FFA226BE0000006057E2B0BC000000000000000000000060F98FDABF6A
:204B4000000000580A8151BE000000F05F60B8BC00000000000000000000000098A8D8BF69
:204B6000000000607A7F45BE000000D05433A3BC0000000000000000000000600FCBD6BF54
:204B8000000000D091CB40BE000000406D1BA0BC0000000000000000000000A0FBF6D4BFA3
:204BA00000000098C5CE52BE000000003A397EBC0000000000000000000000E0FE2BD3BF72
:204BC0000000004073872BBE00000000926879BC000000000000000000000040C069D1BF8A
:204BE00000000058F16353BE00000080438D7CBC000000000000000000000080D85FCFBF2B
:204C0000000000181F8354BE000000B03F42A2BC00000000000000000000008067FCCBBFCC
:204C200000000060FAFF53BE00000050E00DB8BC00000000000000000000000098A8C8BF92
:204C4000000000607A7F35BE000000C0543393BC000000000000000000000000DC63C5BFAF
:204C600000000058D6FF54BE00000000396490BC0000000000000000000000C0AD2DC2BFF1
:204C800000000080A45915BE000000E0484BABBC0000000000000000000000801A0BBEBFC8
:204CA00000000050BF3C5ABE000000A0B364B6BC00000000000000000000008004D6B7BF98
:204CC00000000040BBCF36BE0000008076CEA8BC00000000000000000000008032BBB1BF11
:204CE000000000402A0043BE00000028C60CBDBC0000000000000000000000009473A7BF69
:204D0000000000182B3B59BE000000C0E55DA5BC000000000000000000000000EE4397BF14
:204D2000000000A0E6C340BE00000020958DB5BC00000000000000000000000000000080F9
:204D40000000000000000080000000000000008000000000000000005FF0FF0C1CEAD051D2
:204D600014BF614506E0C110400721F0E04101F16051704779B900F0004100020AD0B0FA47
:204D800080FC00FA0CF001F16051A1EB0C5101EBD0214005704741020CBF40F4E0016FF0BA
:204DA0000001002070472800B0B581EA030C0CF0004C40F2FF7515EA11541DBF15EA13577D
:204DC000AC42AF4239E0E41923EA455343F48013C90241F0004141EA505EC7021100A7FBDD
:204DE000020200284FF00000EEFB01204FF00001E3FB072118BF42F00102401800214941E9
:204E0000E3FB0E01A4F580640F0302D252004041494154F101046CDD470872F1004250F11D
:204E2000000051EB0451A1F580115CBF41EA0C01B0BD4CEA05510020B0BD05EA1357AC429A
:204E400014BFAF4241E050EA410E1CBF52EA430E02E061460020B0BD24423C441BD15FEA4B
:204E6000070EF6D0090302BF01460020AEF1140EB1FA81F7AEEB070401FA07FE0C37C7F1A0
:204E8000200100FA07F7C8404EEA000E23EA455343F48013A2E733F00043B3FA83F704BF63
:204EA000B2FA82FE77440B3FE41BB7F1200E2FBF02FA0EF3BB40C7F1200E22FA0EFE38BF01
:204EC00043EA0E03BA40641C82E750EA410E14BF52EA430E6FF000014FF4001717EB430FBA
:204EE0008ABF194617EB410FB5E74CEA05510020B0BDD4F10104B4F120070FDAC4F12007A8
:204F0000520828BF42F0010210FA07F501FA07F7E1BF2A43E0403843E1400FE0352C98DC8F
:204F2000C7F1200452EA400220FA07F218BF42F0010231FA07F0A1400A43002172F10042E2
:204F400050F1000051EB0C01B0BD83B5002100A801F00DFBDDE9000103B000BDF446400DA2
:204F600040EAC120490006D200F00EF8004248BF6FF00040604700F007F84FF00041884247
:204F80008CBF08464042604740F00040490DA1F58061491C05D4D1F11F0154BFC840C01700
:204FA00070474FF000007047F8B504000D00160000272068806A80B2686020680068DFF816
:204FC000801008400700380C10F03F002870380A10F07F00687017F07F00A870380C10F05C
:204FE00040002872002E0BD1287800F0DEF92870687800F0DAF96870A87800F0D6F9A8705C
:205000000020F2BD38B50400002520688068800614D42068C06830F0A0002168C860FCF7B9
:2050200025F805002068C068800607D4FCF71EF8401BB0F57A7FF5D9032000E0002032BD5B
:205040007F7F7F0010B50400002C01D101204EE0607F002804D100202077200001F018FF02
:2050600002206077CA2021684862532021684862200000F073F9002806D0FF2021684862A8
:2050800004206077012032E020688068DFF8C01208402168886020688068616822691143F8
:2050A00062691143084321688860E0682168086120680069A16850EA0140216808612068EC
:2050C000C06830F080002168C8602068006C30F48020216808642068006CA16908432168D8
:2050E0000864FF202168486201206077002010BD2DE9F84304000D0016000027207F0128A6
:2051000001D102207DE00120207702206077002E1FD120688068400601D40020287228788A
:2051200000F038F98046687800F034F98146A87800F030F95FFA88F85FFA89F95FEA092164
:2051400051EA0841C0B20843297A50EA0140070015E020688068400604D5287800F025F9B7
:20516000070001E00020287228786978090251EA0040A9780843297A50EA01400700CA200B
:2051800021684862532021684862200000F0E6F8002808D0FF2021684862042060770020DB
:2051A000207701202DE06B483840216808602068806830F480202168886020688068E968A8
:2051C0002A6911430843216888602068C06830F080002168C8602000FFF714FF002808D002
:2051E000FF20216848620420607700202077012007E0FF20216848620120607700202077A2
:205200000020BDE8F2832DE9F84304000D0016000027207F012801D1022070E001202077F1
:2052200002206077002E07D16878C00604D5687810F0EF000A306870002E19D1E87800F0A7
:20524000A9F88046687800F0A5F88146A87800F0A1F85FFA88F85FFA89F95FEA092151EAA8
:205260000841C0B20843297850EA4130070012E0687800F09AF80700A87800F096F80700D5
:20528000E8786978090251EA0040A9780843297850EA41300700CA2021684862532021686F
:2052A0004862200000F05AF8002808D0FF2021684862042060770020207701201FE0264850
:2052C0003840216848602068C06830F080002168C8602000FFF796FE002808D0FF202168D2
:2052E00048620420607700202077012007E0FF202168486201206077002020770020BDE884
:20530000F283F8B504000D001600002720684068114908400700380CE870380A10F01F0047
:20532000687017F03F00A870780B10F007002870002E0BD1E87800F038F8E870687800F063
:2053400034F86870A87800F030F8A8700020F2BDBFFF8FFF7F7F7F003FFFFF0038B5040033
:2053600000252068C068400612D45FF0FF302168C860FBF77BFE05002068C068400607D4BC
:20538000FBF774FE401BB0F57A7FF5D9032000E0002032BD0021C0B20A2802DB491C0A3887
:2053A000F9E750EA0110C0B270470021C0B20209D2B20A235A431100C0B210F00F004018C3
:2053C000C0B270470CB41CB5044604A801900A46009401AB00A907487844183001F08AFD88
:2053E000009A0021117000285CBF0098001B16BC5DF80CFBB3D1FFFF00F10103810704D07A
:2054000010F8011B89B18107FAD10268B2F10131914311F0803F04BF50F8042FF6E710F8E5
:20542000011B11B110F8011BFBE7C01A7047000010B50400002C01D1012030E0A0690028CE
:20544000FFD194F83900002805D1002084F83800200000F025F8022084F839002068C06831
:2054600030F400502168C860200000F094F92068006930F49040216808612068406930F042
:205480002A00216848612068C06850F400502168C8600020E063012084F83900002010BD95
:2054A00070472DE9F84304000D0016001F005FF0000994F839008146B9F1010F02D0B9F184
:2054C000220F69D1002D02D0B6B2002E01D1012063E094F83800012801D102205DE0012057
:2054E00084F838000020E06394F83900222803D1322084F8390002E0122084F83900A684B8
:20550000E684E08C00282DD0E08C401EE084A068B0F5805F17D13B0000228021200000F0E0
:20552000C9F8002801D0032037E0A846B8F80000C005C00D216848602069002801D1AD1CCA
:20554000DFE76D1CDDE73B0000228021200000F0B1F8002801D003201FE028782168486095
:205560006D1CCEE73B0000224021200000F0A2F8002801D0032010E094F83900322803D186
:20558000222084F8390002E0012084F83900002084F83800002000E00220BDE8F283F2B5A5
:2055A00004001500002794F839000700012F01D0122F41D10098002802D0ADB2002D01D19B
:2055C00001203AE094F83800012801D1022034E0012084F838000098A062A5850020E0639F
:2055E00094F83900122803D1322084F8390002E0222084F839000FF24D00616B88620FF2F3
:205600008100616BC8620FF28900616B086300A80600ADB22B0032682068011D606B00F01F
:20562000C9FD2068406950F0400021684861002084F83800002000E00220F2BD70477047AE
:205640007047000038B50400656A20680068800612D40020E8852868406930F040002968C0
:20566000486195F83900322803D1122085F8390002E0012085F839002800FFF7DFFF31BD02
:2056800038B50400656A2800FFF7D9FF31BD000038B50400656A0020E8850020E88401206C
:2056A00085F83900E86B50F01000E8632800FFF7C7FF31BD2DE9F04104000D0016001F00E7
:2056C0005FF00008FBF7D2FC8046F6B2002E2FD1206800682840A8425AD017F1010FF7D0CC
:2056E000002F05D0FBF7C2FCB0EB08008742EFD22068C06830F080002168C8602068C06818
:2057000030F020002168C8602068C06830F480702168C86020684069400840002168486138
:20572000012084F83900002084F83800032030E0206800682840A8422AD117F1010FF7D070
:20574000002F05D0FBF792FCB0EB08008742EFD22068C06830F080002168C8602068C068E7
:2057600030F020002168C8602068C06830F480702168C860206840694008400021684861D8
:20578000012084F83900002084F83800032000E00020BDE8F081F8B504000025206800695F
:2057A00030F44050E168084321680861A0682169084361690843E169084305002068C06873
:2057C0006E49084028432168C8602068406930F44070A169084321684861E069B0F5004FE5
:2057E00065D120686649884230D1FBF79BFB0700FBF798FB0600FBF795FB192101FB07F1A7
:2058000062685200B1FBF2F16422B1FBF2F1192202FB06F263685B00B2FBF3F21923584309
:2058200063685B00B0FBF3F06423B0FBF3F0642303FB1020000132306422B0FBF2F010F074
:205840000F0050EA01102168886095E0FBF75AFB0700FBF757FB0600FBF754FB192101FBF9
:2058600007F162685200B1FBF2F16422B1FBF2F1192202FB06F263685B00B2FBF3F219234C
:20588000584363685B00B0FBF3F06423B0FBF3F0642303FB1020000132306422B0FBF2F079
:2058A00010F00F0050EA01102168886064E020683349884230D1FBF735FB0700FBF732FBC2
:2058C0000600FBF72FFB192101FB07F162689200B1FBF2F16422B1FBF2F1192202FB06F248
:2058E00063689B00B2FBF3F21923584363689B00B0FBF3F06423B0FBF3F0642303FB10201B
:20590000000132306422B0FBF2F010F00F0050EA0110216888602FE0FBF7F4FA0700FBF75E
:20592000F1FA0600FBF7EEFA192101FB07F162689200B1FBF2F16422B1FBF2F1192202FB36
:2059400006F263689B00B2FBF3F21923584363689B00B0FBF3F06423B0FBF3F0642303FBF2
:205960001020000132306422B0FBF2F010F00F0050EA011021688860F1BD0000F369FFFFAE
:205980000038014010B588B000208DF800000024DFF880020078002840F00081DFF87802CD
:2059A0000078012840F08C80DFF87002DFF870120860DFF870020290DFF86C02019001202E
:2059C0008DF80C0001208DF80D0001208DF80E005FF080400590DFF85002049001208DF8C8
:2059E000180001208DF8190001208DF81A00DFF830020068006800280BD10020DFF820120A
:205A00000860DFF814020078401EDFF80C120870C1E001A8DFF808120968096888470028DA
:205A20000BD00020DFF8F8110860DFF8EC010078401EDFF8E4110870ADE0DFF8E401006894
:205A4000406800280BD10020DFF8D4110860DFF8C8010078401EDFF8C01108709BE000A89D
:205A6000DFF8BC1109684968884700280BD00020DFF8AC110860DFF8A0010078401EDFF84D
:205A80009811087087E09DF8000069280CD1DFF89C01DFF88C11096808640120DFF8741139
:205AA00008700120040076E00020DFF874110860DFF864010078401EDFF85C1108706AE0F7
:205AC0000020DFF854110870DFF86401DFF850110860DFF850010290DFF85801019001207A
:205AE0008DF80C0001208DF80D0001208DF80E005FF080400590DFF83C01049001208DF8BC
:205B0000180001208DF8190001208DF81A00DFF8100100680068002805D10020DFF8001130
:205B2000086001203BE001A8DFF8F410096809688847002805D00020DFF8E410086001201B
:205B40002DE0DFF8DC0000684068002805D10020DFF8CC100860012021E000A8DFF8C010CB
:205B6000096849688847002805D00020DFF8B0100860012013E09DF8000068280BD1DFF82C
:205B8000B800DFF89C10096808640120DFF88410087001200400002C3FF400AF002008B0DE
:205BA00010BDDFF870000078704710B504001C4800688068002801D1012004E020001849A5
:205BC00009688968884710BD10B50400144800680069002801D1012004E0200010490968E8
:205BE0000969884710BD0E480068002801D100200EE00B4800680E49884201D1012007E01B
:205C0000074800680549884201D1022000E00020704700006F08002017020020B800002062
:205C2000540800200000FA440000D042F0010020740000200000EE42E80100200200C9B23D
:205C40000800F02802D0F12806D00BE0F1201070F2205070022007E0F1201070F1205070AA
:205C6000022001E0117001207047F8B504000D0000200700002006002868864208D2701902
:205C800001793819FFF7DAFFC0190700761CF3E7F02038557F1C3800F2BD0300DBB2F12B53
:205CA0000FD1C9B2F12903D1F120107002200AE0C9B2F22903D1F0201070022003E00020DF
:205CC00001E0137001207047002100231A0003689A4204D213181B79C91A521CF7E71318F4
:205CE000197103685B1C03607047002100231A0003689A4204D213181B795918521CF7E727
:205D000003685B1E0360C9B2002901D1012000E00020C0B2704710B400242300934203D2C7
:205D20001954090A5B1CF9E710BC70470200491E8B5C1800002904D00002491E8B5C181824
:205D4000F8E7704710B400242300934203D2195409125B1CF9E710BC7047000000B583B0AE
:205D600000208DF8040036480078002845D135483549086000208DF8020000208DF8010096
:205D800040208DF803001C208DF800002E4800680068002804D100202B49086001202DE0ED
:205DA00000A82949096809688847002804D0002025490860012021E0234800684068002861
:205DC00004D1002020490860012017E001A81E49096849688847002804D000201A490860FD
:205DE00001200BE09DF804003D2806D1174816490968086101201249087000200EBD1048F3
:205E00000078704710B504000F4800688068002801D1012004E020000B490968896888473F
:205E200010BD09480068002801D1002007E0064800680449884201D1012000E00020704764
:205E400070080020A801002058080020D001002010B584B000208DF8080000247648007870
:205E6000002840F0BD8075480078012867D174487449086010208DF8000000208DF80400B8
:205E800008208DF8030001208DF8050001208DF8010004208DF802006A48006800680028AB
:205EA00008D100206749086064480078401E6349087092E000A8634909680968884700288C
:205EC00008D000205F4908605C480078401E5B49087082E05B4800688068002808D10020AE
:205EE0005849086055480078401E5449087074E002A85449096889688847002808D0002025
:205F0000504908604D480078401E4C49087064E09DF80800BD2809D14B484A490968086366
:205F20000120454908700120040056E000204549086042480078401E404908704DE04348B0
:205F40004049086010208DF8000000208DF8040008208DF8030001208DF8050001208DF8F1
:205F6000010004208DF80200364800680068002804D1002033490860012032E000A83149D1
:205F8000096809688847002804D000202D490860012026E02B4800688068002804D100204F
:205FA0002849086001201CE002A82649096889688847002804D0002022490860012010E0A1
:205FC0009DF80800BD2808D121481E490968086301201949087001200400002C3FF443AF49
:205FE000002004B010BD14480078704710B5040014480068406A002801D1012004E020001F
:020000040800F2
:2060000010490968496A884710BD0E480068002801D100200EE00B4800680C49884201D1F5
:20602000012007E0074800680549884201D1022000E000207047000071080020180200200B
:20604000300100205C080020E0010020FC000020D8010020E0B500208DF800003948007822
:2060600000283CD138483949086003208DF80900364800680068002804D100203349086081
:2060800001202DE001A83149096809688847002804D000202D490860012021E02B48006807
:2060A0008068002804D1002028490860012017E000A82649096889688847002804D0002086
:2060C0002249086001200BE09DF80000BC2806D11F481E490968C86201201A49087000200C
:2060E0000EBD18480078704710B5040017480068406A002801D1012004E020001349096820
:20610000496A884710BD10B5040010480068806A002801D1012004E020000C490968896AE5
:20612000884710BD09480068002801D1002007E0064800680449884201D1012000E0002049
:20614000704700006E0800206401002050080020C8010020002201F09FBA0000010000227D
:20616000002901D1012024E091F82100002802D1002081F82000022081F82100086800680D
:2061800002006FF30D1248688B681843CB6818430B6918434B6918438B691843CB69184334
:2061A00002430868026000204863012081F8210000207047F8B504000D0016001F0094F8EC
:2061C0002000012801D102202AE0012084F82000022084F8210020680068400840002168FB
:2061E00008603B0032002900200000F01AF82068006850F00200216808602068006850F02C
:206200000400216808602068006850F00800216808602068006850F001002168086000201E
:20622000F2BD10B4046863604468102C04D10468A2600468E16003E00468A1600468E260E6
:2062400010BC704738B504000125FFF701FE0500EDB2002D01D1002005E0EDB2022D01D167
:20626000022000E0012032BDF8B504003648006801F02CFA642148430600334801683348E9
:20628000FCF796F907003000FCF77EF901003800FEF77CF801F01AFA05006420B6FBF0F614
:2062A00002223100E01DFFF736FD65720020E072082020600020F2BD38B504000125FFF796
:2062C000C9FE0500EDB2002D01D1002005E0EDB2022D01D1022000E0012032BD38B50400AC
:2062E0001B480068FCF7D0F9E071194801681748FCF75EF90500E07964214843FCF73AF9BF
:2063000001002800FEF742F8FCF7BEF9207211480068FCF7B9F960720E4801680B48FCF7AC
:2063200047F90500607A64214843FCF723F901002800FEF72BF8FCF7A7F9A0720020E072C7
:2063400008202060002032BD380800200000C8423C0800204008002038B504000125FFF743
:2063600011FB0500EDB2002D01D1002005E0EDB2022D01D1022000E0012032BD10B50400EE
:20638000042246480168E01DFFF7DCFC04224348416814F10B00FFF7D5FC04223F4881684E
:2063A00014F10F00FFF7CEFC0F202060002010BD10B5040004223A480168E01DFFF7C2FCE2
:2063C00004223748416814F10B00FFF7BBFC04223348816814F10F00FFF7B4FC0F202060BF
:2063E000002010BD10B5040004222C480168E01DFFF7A8FC04222948416814F10B00FFF707
:20640000A1FC04222548816814F10F00FFF79AFC04222348016814F11300FFF793FC042206
:206420001F48416814F11700FFF78CFC04221C48816814F11B00FFF785FC1B2020600020CD
:2064400010BD38B504000125FFF788FC0500EDB2002D01D1002005E0EDB2022D01D1022074
:2064600000E0012032BD10B5040004220D480168E01DFFF767FC04220A48416814F10B00F8
:20648000FFF760FC04220748816814F10F00FFF759FC0F202060002010BD0000F00700203A
:2064A000FC0700200808002090EA010F44BF81F00041FDF773BF00BF421A3CBF801A8918D3
:2064C0004FF0004CC0F3C752FF2A24D0C1F3C75313B3D21AD2F1190327DD4CEA01214CFA47
:2064E00003F321EA0303D140C20D4CEA0020401834BF20EA0C004CEA5000D20553EA006301
:2065000073EB0C0C52EB1020420012F1807F38BF7047C00DC0057047490212BF9A4200EB7A
:206520005120F8E7D2F11703D9D5704730B4436803F0004201211B031B0B436004BF0368CE
:20654000002B08D10DE00368DD0F45EA440444605B000360491E4468E302F4D523031B0B0D
:20656000436043681A434260084630BC70474268C2F30A5240F2FF739A4209D14168090313
:2065800004BF0068002801D1012070470220704743685B0004BF0368002B25D040F2334329
:2065A0009A1A521A012A1FDB352A06DB416801F0004141600021016013E0012102F01F032F
:2065C0009940491E920607D5426811404A40426002681143002202E0026811404A40026077
:2065E00011B14FF0FF3070470020704790420CD141EA030C50EA4C0C07D0994205D14FF497
:20660000001C1CEB410F38BF89427047014801F06FB80000100200204FF4001C1CEB410F45
:2066200094BF1CEB430F09E041EA030C50EA4C0C52EA0C0C03D28B4208BF8242704714BFEE
:2066400099429042704700004FF4001C1CEB410F94BF1CEB430F09E041EA030C50EA4C0CBF
:2066600052EA0C0C03D2994208BF9042704714BF8B4282427047000070B44FF0004591EA88
:20668000030C44BF6B4000F075B800BF841A71EB030603D2001BB141121973414FF4001C3E
:2066A0001CEB410F34BF7CEB430443E00C0DA4EB1356352E50DC45EAC323DB0A45EAC12114
:2066C000C912B6F120050DDD63FA05F6EB4086EA0305124218BF45F00105C01851F10001AD
:2066E0000CD213E062FA06F5F2405540F3415A40B340F3405A408018594107D349085FEA77
:2067000030005FEA350528BF45F0010501F58011420875F1004250F1000041EB045170BC3D
:206720004FF4001C1CEB410F38BF70470020090D090570471CEB410F10D252EA43060BD061
:20674000BCEB410F05D80C0DAB43661E342EB5DD02E0AB438018594170BC704770BC70471E
:2067600070B44FF0004591EA030F44BF6B40FFF78DBF00BF841A71EB030604D26E40001B93
:20678000B141121973414FF4001C1CEB410F34BF7CEB430684E00C0DA4EB1356362E7DDC9D
:2067A000012E43DC45EAC32343EA525312BFD20292025B08240545EAC12141EA5051D2EB45
:2067C000C020994125D407D1B0FA80F610FA06F164D00020203608E0B1FA81F6B140C6F1B1
:2067E000200220FA02F21143B0404FEAF474B4EB465434F001064FEA74040AD8D6F50016AC
:20680000760D04F00044F04061FA06F25040F1404840C00A40EA415021F0004128BF5FEAEA
:20682000500550F1000044EBD12137E045EAC323DB0A45EAC121C90AB6F120050EDD42EAC9
:206840000242120CC5F1200603FA06F6EB4042EA06056D42984161F100010DE062FA06F580
:20686000F240554063FA06FC82EA0C02F3405A406D42904161EB030111F4801F05D1641EDF
:20688000620502D06D004041494121F48011430875F1004350F1000041EB045170BC704708
:2068A0001CEB410F15D223F0004352EA43060BD04FEA4C0CBCEB410F04D80C0D661E342E81
:2068C000B7DDEBE7801A994150EA410608BF0021E4E708BF1CEB430F28BF6FF00001DDE77F
:2068E000F0B540F2FF7581EA030C0CF0004C15EA11541DBF15EA1357AC42AF42E5E0BC4141
:20690000C1F31301C3F31303801A994143F4801304D2641E4000494180185941C90241EA5B
