:020000040002F8
:100100006D01020049010200750102007701020041
:10011000790102003B010200210102007F0102007F
:1001200010B51078002806D0012803D101211C2029
:1001300000F002F910BD0021F9E710B5C82000F069
:1001400045F800F04FF810BD10B506A000F044F8D7
:10015000C82000F03BF800F045F801211C2000F019
:10016000D9F810BD4E6F766146616E000449086093
:1001700070477047704770477047704770477047C7
:1001800000300020014B1B68DB6A1847003000205C
:1001900001480068406D004700300020014A1268A5
:1001A000D26B10470030002001480068806B004788
:1001B0000030002001490968096C08470030002020
:1001C000014B1B689B6D18470030002001490968EE
:1001D000896C08470030002001490968496C0847CC
:1001E0000030002001480068C06C0047003000204B
:1001F00001480068006D0047003000200148006899
:10020000806800470030002001480068406B0047CC
:100210000030002001480068C06F00470030002017
:1002200030B4034C24688034E469A44630BC604791
:100230000030002030B4034C246880342469A44684
:1002400030BC6047003000207CB5069C0094079DC0
:10025000034C019524688034646AA0477CBD00008B
:100260000030002038B5049C0094034C246880348E
:100270006468A04738BD000000300020024B1B68B6
:1002800080331B68184700000030002038B5049CFC
:100290000094034C24688034A468A04738BD000053
:1002A0000030002030B4034C24688034246AA44613
:1002B00030BC60470030002030B4034C24688034E8
:1002C0006469A44630BC60470030002038B5049C07
:1002D0000094034C24688034E468A04738BD0000D3
:1002E0000030002030B4034C2468A46FA44630BC16
:1002F00060470000003000200249096880318969A8
:10030000084700000030002001490968096A0847D1
:1003100000300020014A1268926910470030002026
:1003200001490968896A084700300020014A1268BB
:10033000526A104700300020014A1268D269104703
:100340000030002001480068006F004700300020A6
:1003500001480068C06E004700300020014909686C
:10036000496F084700300020014A1268926E10471A
:100370000030002001490968496E0847003000201C
:10038000014B1B685B68184700300020014A126867
:100390001268104700300020014A1268D26D1047E1
:1003A00000300020014A1268126E10470030002011
:1003B00001490968C96808470030002001490968F7
:1003C000096908470030002001480068406900477B
:1003D0000030002001490968096B084700300020FF
:0403E0000000000019
:0400000500000000F7
:00000001FF
