:020000040800F2
:200000002005002005360008A1350008A3350008000000000000000000000000000000009A
:20002000000000000000000000000000AF260008A735000800000000FF2B0008A9350008E7
:20004000BB350008E3350008EF35000821360008233600082536000827360008B1350008E6
:20006000293600082B3600082D3600082F3600083136000833360008000000003536000885
:200080000000000037360008000000000000000039360008000000003B3600083D36000880
:2000A0003F36000841360008433600084536000847360008493600084B3600084D36000820
:2000C00010B5040000F0C5FE002801D0012036E000F041F8002801D0012030E0206800F0A9
:2000E000CDFB002801D0012029E0606800F0D0FC002801D0012022E0A27A617A207A00F0F4
:2001000075F9002801D0012019E0E06800F047FA002801D0012012E0206900F006FB002837
:2001200001D001200BE0A27D617D207D00F00DF9002801D0012002E000F08FFE002010BDEC
:2001400080B5002801D1012004E001230F22D42100F0D1FE02BD80B5002069460870012303
:200160001222D421684600F0C6FE002801D001203EE068460078FB2101406846017068466C
:200180000078042101436846017001231222D421684600F0A2FE002801D0012028E001238E
:2001A0000A22D421684600F0A6FE002801D001201EE06846007887210140684601706846E8
:2001C00000786946087068460078F821014068460170684600786946087001230A22D4214F
:2001E000684600F07AFE002801D0012000E0002002BD10B582B004006846002101800223A0
:200200002822D421684600F076FE002801D0012029E06846407800026946097840182080DA
:2002200002232A22D421684600F065FE002801D0012018E068464078000269460978401855
:20024000608002232C22D421684600F054FE002801D0012007E068464078000269460978CD
:200260004018A080002016BD10B584B004000020009001A8FFF7BDFF002801D0012027E0EA
:20028000684600F0F0F9002801D0012020E0019800B200F007FF009900F01DFF00F076FF72
:2002A000206001A80221405E00F0FCFE009900F012FF00F06BFF606001A80421405E00F05A
:2002C000F1FE009900F007FF00F060FFA060002004B010BD10B582B0040068460021018065
:2002E00002232222D421684600F005FE002801D0012029E0684640780002694609784018EC
:20030000208002232422D421684600F0F4FD002801D0012018E068464078000269460978A4
:200320004018608002232622D421684600F0E3FD002801D0012007E068464078000269468D
:2003400009784018A080002016BD70B582B000236C462370002600250024C0B2002801D117
:20036000002600E00826C9B2002901D1002500E01025D2B2002A01D1002400E020240123AD
:200380001822D421684600F0B6FD002801D001202BE068460078F72101406846017068466C
:2003A000007806436846067068460078EF2101406846017068460078054368460570684683
:2003C0000078DF210140684601706846007804436846047001231822D421684600F07DFD4B
:2003E000002801D0012000E0002076BD70B582B000236C462370002600250024C0B20028E8
:2004000001D1002600E00826C9B2002901D1002500E01025D2B2002A01D1002400E020245E
:2004200001231922D421684600F065FD002801D001202BE068460078F721014068460170A5
:200440006846007806436846067068460078EF2101406846017068460078054368460570E2
:2004600068460078DF210140684601706846007804436846047001231922D421684600F075
:200480002CFD002801D0012000E0002076BD10B584B004000020009001A8FFF71BFF002858
:2004A00001D0012027E0684600F048FA002801D0012020E0019800B200F0F4FD009900F094
:2004C0000AFE00F063FE206001A80221405E00F0E9FD009900F0FFFD00F058FE606001A8CF
:2004E0000421405E00F0DEFD009900F0F4FD00F04DFEA060002004B010BD10B582B004001D
:2005000000206946087001231022D421684600F0F2FC002801D0012040E068460078F0214C
:2005200001406846017068460078002814D0102815D0202816D0302817D0402818D05028D7
:2005400019D060281AD070281BD080281CD090281DD0A0281ED020E0002020601DE0904859
:2005600020601AE08F48206017E08F48206014E08E48206011E08E4820600EE08D48206088
:200580000BE08D48206008E08C48206005E08C48206002E08B482060FFE7002016BD10B5D3
:2005A00082B0002400216A461170002100F00CFE01D8002436E0844900F006FE01D210249D
:2005C00030E0824900F000FE01D220242AE0804900F0FAFD01D2302424E0A24900F0F4FD8A
:2005E00001D240241EE0A04900F0EEFD01D2502418E09E4900F0E8FD01D2602412E09C49D9
:2006000000F0E2FD01D270240CE09A4900F0DCFD01D2802406E0984900F0D6FD01D2902484
:2006200000E0A02401231022D421684600F063FC002801D0012015E0684600780007000F83
:20064000694608706846007804436846047001231022D421684600F040FC002801D00120A5
:2006600000E0002016BD10B582B0040000206946087001231022D421684600F03CFC00281C
:2006800001D001201DE0684600780C2101406846017068460078002806D004280DD008285B
:2006A00005D00C2806D00BE0A048206008E0A048206005E09F48206002E09F482060FFE73D
:2006C000002016BD10B582B0040000206946087001231022D421684600F00DFC002801D0FA
:2006E000012021E0684600780C2101406846017068460078002806D0042810D0082806D0EF
:200700000C2808D00FE08020C00520600BE08120C005206007E08220C005206003E08320D4
:20072000C0052060FFE7002016BD10B582B0002400216A461170A44900F046FD01D2002417
:200740000CE0A24900F040FD01D2082406E0A04900F03AFD01D20C2400E00424012310223F
:20076000D421684600F0C7FB002801D0012015E068460078F3210140684601706846007855
:2007800004436846047001231022D421684600F0A4FB002801D0012000E0002016BD00007B
:2007A000000050410000D041000050420000D042000050430000D043004050440080CF44E6
:2007C000002050450020D045010050410100D0410100504210B582B00400002069460870B6
:2007E00001231122D421684600F085FB002801D0012036E068460078F021014068460170C8
:2008000068460078002810D0102811D0202812D0302813D0402814D0502815D0602816D015
:20082000702817D0802818D01AE00020206017E08B48206014E08B48206011E08A4820603B
:200840000EE08A4820600BE08948206008E08948206005E08848206002E088482060FFE796
:20086000002016BD0100D042010050430100D043014050440180CF440120504510B582B0B4
:20088000002400216A461170002100F09DFC01D800242AE07A4900F097FC01D2102424E0E0
:2008A000784900F091FC01D220241EE0764900F08BFC01D2302418E0744900F085FC01D28F
:2008C000402412E0B24900F07FFC01D250240CE0B04900F079FC01D2602406E0AE4900F0A7
:2008E00073FC01D2702400E0802401231122D421684600F000FB002801D0012015E06846FC
:2009000000780007000F694608706846007804436846047001231122D421684600F0DDFAD2
:20092000002801D0012000E0002016BD23DB793D23DBF93D23DB793E23DBF93E10B582B001
:20094000040000206946087001231122D421684600F0D1FA002801D0012034E06846007843
:20096000022108406946087068460078022802D18A48206026E001231122D421684600F080
:20098000BAFA002801D001201DE0684600780C2101406846017068460078002806D0042889
:2009A00007D0082808D00C2809D00BE07C48206008E07C48206005E07B48206002E07B4823
:2009C0002060FFE7002016BD01000040010080400100004110B582B0040000206946087038
:2009E00001231122D421684600F085FA002801D0012034E0684600780221084069460870A8
:200A000068460078022802D16948206026E001231122D421684600F06EFA002801D0012010
:200A20001DE0684600780C2101406846017068460078002806D0042807D0082808D00C28A3
:200A400009D00BE05B48206008E05B48206005E05A48206002E05A482060FFE7002016BDC0
:200A6000000050410000D041000050420000D042000050430000D043004050440080CF4423
:200A8000010050410100D041010050420100D04238B50500002400206946087028004949F5
:200AA00000F092FB1FD2022401231122D421684600F021FA002801D0012068E06846007815
:200AC000FD210140684601706846007804436846047001231122D421684600F0FEF9002800
:200AE00054D0012053E001231122D421684600F002FA002801D0012049E068460078FD2111
:200B0000014068460170684600786946087001231122D421684600F0E0F9002801D001204B
:200B200035E02800284900F04FFB01D200240EE02800264900F048FB01D2042407E0280014
:200B4000234900F041FB01D2082400E00C2401231122D421684600F0CEF9002801D0012023
:200B600015E068460078F3210140684601706846007804436846047001231122D42168465D
:200B800000F0ABF9002801D0012000E0002032BD010050430100D0430140504400008C406F
:200BA00000000C4100008C4100000C4200008C420000FA42000075430000FA4300007A4410
:200BC0000000FA440100FA42010075430100FA4301007A4480B50020694608700123102212
:200BE000D421684600F087F9002801D00120A8E0684600780007000F6946087068460078B7
:200C0000602101436846017068460078F321014068460170684600786946087001231022B3
:200C2000D421684600F059F9002801D0012088E001235C22D421684600F05DF9002801D0C9
:200C400001207EE0684600784006400E694608706846007869460870684600789F210140C0
:200C600068460170684600786946087068460078EF21014068460170684600786946087025
:200C800068460078F021014068460170684600786946087001235C22D421684600F01DF925
:200CA000002801D001204CE001235D22D421684600F021F9002801D0012042E0684600783C
:200CC0004007400F6946087068460078302101436846017068460078F821014068460170DE
:200CE00068460078032101436846017001235D22D421684600F0F1F8002801D0012020E00E
:200D000001235E22D421684600F0F5F8002801D0012016E068460078EF2101406846017009
:200D200068460078102101436846017001235E22D421684600F0D1F8002801D0012000E0FF
:200D4000002002BD80B500206946087001235E22D421684600F0CFF8002801D001203CE004
:200D600068460078EF21014068460170684600786946087001235E22D421684600F0ADF8B4
:200D8000002801D0012028E001235D22D421684600F0B1F8002801D001201EE06846007814
:200DA0004007400F69460870684600786946087068460078F8210140684601706846007864
:200DC0006946087001235D22D421684600F085F8002801D0012000E0002002BD10B582B069
:200DE000040000206946087001231B22D421684600F081F8002801D001200FE0684600780C
:200E0000202108406946087068460078202802D10120207001E000202070002016BD30B4C8
:200E2000012100220368001D002B0BD00468001D0C4202D04D466D1E64192260241D1B1F9F
:200E4000F0D0FAE730BC704780B500F05BF802BD704780B500F056F802BD00B58BB0664890
:200E6000006801210143644801601020059068480690022008900020079005A9A020C005E8
:200E800000F0B6F900220021072000F033FB072000F035FB58480068022101435648016076
:200EA000012000905A48019002200390002002906946734800F09CF900220021052000F0A0
:200EC00019FB052000F01BFB0BB000BD80B59BB2D2B2C9B200F01FF802BD80B59BB2D2B20E
:200EE000C9B200F018F802BD80B59BB2D2B2C9B200F01EF802BD80B59BB2D2B2C9B200F001
:200F000017F802BD80B500F020F8002801D0012000E0002002BD10B500249BB2D2B2C9B2B8
:200F200000F02FF8002800D001242000C0B210BD10B500249BB2D2B2C9B200F03FF800289A
:200F400000D001242000C0B210BD10B500244D4800F0ECFC002811D14B484A4948603320BC
:200F60004849886001204749C86048484549086000F050F8434800F0D7FA04002000C0B27F
:200F800010BD3EB50C0000254149096802919BB2019300900123D2B292B2E4B2210089B283
:200FA000384800F043FB0500EDB2002D03D02000C0B200F023F82800C0B23EBD3EB50C00AE
:200FC00000253349096802919BB2019300900123D2B292B2E4B2210089B22A4800F0E6FBDA
:200FE0000500EDB2002D03D02000C0B200F006F82800C0B23EBD00002C10024080B521481C
:2010000000F0EEFA012000F05FFEFFF79EFF01BD0000111000B585B01E48006802210143F9
:201020001C480160C02080000090122001900220039000200290042004906946104800F022
:20104000D7F8154800688021890301431248016012480068802189030143104801600F488D
:2010600000680F4901400D48016000220021172000F040FA172000F042FA05B000BD000040
:2010800000040050D40000202E11B10000540040CC0000202C100240381002402810024016
:2010A000FFFFDFFF9D21020008D5F446524200F005F80122D2071043604700000AD002D456
:2010C000491E9218FCD5C905100A1206524100D3012A4841704730B405004D400122D207EB
:2010E00015404B180418240E30D01B0E34D0FF2C36D0FF2B3CD0E4180002090210431143A6
:20110000000A090A9446C2B24A43000AC3B24B43000A4843110A5B18190A12061B0C1A43E8
:20112000120A091801D44918641E080A7F3C23DBFE2C08DAE4050906114363469941604173
:20114000284330BC7047FF20C005F9E728001B0EFF2BF6D1D043F4E72800FF2CF1D1F9E798
:201160004002F7D1FF2B01D14902F3D1E005E7E7D8054902E4D0EDE743020020641CDFD162
:201180005B129B1CDCD9D805DAE720000122D2070118090E7F3910D449421F310FD400181A
:2011A00005D2C0011043C84000D5D0437047C0011043C84005D44042704700207047004256
:2011C000F3D51000704700200CB4012212060318DA4207D84B18DA4204D802000A439218FB
:2011E00002D288420CBC7047FCD08142FAE70700F0B50200002000240026002334E00520EE
:201200001D00AD07AD0F04277D43A840304306007D481D00AD0804277D43465167480668BF
:20122000A6434868C00300D526436448066077480668A6434868800300D52643734806605A
:2012400073480668A6434868C00200D526437048066070480668A6434868800201D5344320
:2012600026006C4806605B1C102B00D3A5E0012098400C6804408442F5D14868022802D03B
:20128000486812281CD11800C008042568431018066A0F201D006D076D0F04277D43A8401C
:2012A000864308691D006D076D0F04277D43A840304306001800C008042568431018066257
:2012C0004868012808D04868022805D04868112802D0486812281AD1966803201D000227B7
:2012E0007D43A8408643C8681D0002277D43A840304306009660566801209840864335003B
:2013000048680600F606F60F9E402E435660166803201D0002277D43A840864308798007B1
:20132000800F1D0002277D43A840304306001660D66803201D0002277D43A84086433500F4
:2013400088681E0002277E43B0402E0030430600D6604868C00086D52F48006801250543B0
:201360002D48056028481D00AD0804267543465930000F26F6431D00AF07BF0F04256F43B6
:20138000BE400640A020C005824201D1002037E72248824201D1012032E72148824201D177
:2013A00002202DE71F48824201D1032028E71E48824200D023E7042022E7F0BD00040140A5
:2013C00000B5006989B20840002801D0012000E00020C0B200BD00B5D2B2002A02D089B2B3
:2013E000816101E089B2816200BD80B50F49096880B20140002905D080B20C49086080B2BF
:2014000000F0B8FC01BD00000800014004040140080401400C040140341002400004005060
:2014200000080050000C0050001C0050140401400121C006C00E8140354801607047F0B582
:2014400040B2002821D5334B40B20207120F083A9208042462432F4C40B205072D0F083D3F
:20146000AD08042675436459FF258607B60F08277E43B540AC438901C9B28007800F082586
:2014800068438140214399501BE0234A40B203009B0804246343D258FF238407A40F08250E
:2014A0006C43A3409A438901C9B283079B0F0824634399401143184A40B2800804235843E7
:2014C0001150F0BD80B5411E80225204914201D301200EE0401E1149086003210020C04355
:2014E000FFF7ADFF00200E49086007200D490860002002BD80B540B2FFF7A1FF01BD80B5F7
:2015000040B2FFF795FF01BD80B5FFF7DBFF02BD00E100E01CED00E000E400E014E000E08B
:2015200018E000E010E000E010B50400002C01D1012054E03520205C002802D1200000F00B
:201540006CF802203521605420680068012188432168086060683249014020680161206837
:2015600080683049014020688160A06800280FD0E068012806D1A068802109020143206889
:20158000816005E0A06884210902014320688160E068022803D18020000121684860206880
:2015A00040682149014320684160206961690143A069000208432168C860E069216A0143F6
:2015C00020680160206800680121014320680160002036216054012035342070002010BDB1
:2015E00010B50400002C01D1012015E00220352160542068006801218843216808602000F4
:2016000000F00CF8002036216054002035216054002034342070002010BD7047704700000E
:20162000FFFFFFF0FF7FFFFF00800002F2B582B0040000253520205C012800D0B3E0089FB9
:20164000002F03D0099EB6B2002E01D10120ABE020688069000401D50220A5E03420205C0B
:20166000012801D102209FE00120342160545220352160540020362160540A9800909BB27E
:2016800092B268460189200000F053F900280DD03620205C042804D1002034342070012061
:2016A00082E000203434207003207DE0B6B2FF2E0BDD0020009080235B04FF2268460189A8
:2016C000200000F0B6FAFF250CE00020009080239B043200D2B268460189200000F0A9FAA7
:2016E000B6B235000A99200000F0FAF9002807D036342078042801D1012055E0032053E0FC
:201700003878216888627F1C6D1E761E002D28D1B6B2002E25D00A9B00228021200000F0C3
:2017200097F9002801D003203EE0B6B2FF2E0BDD0020009080235B04FF2268460189200037
:2017400000F077FAFF250CE00020009080239B043200D2B268460189200000F06AFAB6B25C
:201760003500B6B2002EBDD11921200000F0E5F9002807D036342078042801D1012013E0D5
:20178000032011E020202168C8612068406866490140206841600120352160540020343447
:2017A0002070002000E00220FEBD0000F2B582B0040000253520205C012800D0B1E0089FB8
:2017C000002F03D0099EB6B2002E01D10120A9E020688069000401D50220A3E03420205C8E
:2017E000012801D102209DE00120342160546220352160540020362160540A9800909BB2EF
:2018000092B268460189200000F0DBF800280DD03620205C042804D1002034342070012058
:2018200080E000203434207003207BE0B6B2FF2E0CDD90208001009080235B04FF226846A2
:201840000189200000F0F5F9FF250DE090208001009080239B043200D2B2684601892000DE
:2018600000F0E7F9B6B235000A9B00220421200000F0EEF8002801D0032053E02068406A98
:2018800038707F1C6D1E761E002D28D1B6B2002E25D00A9B00228021200000F0D9F80028C4
:2018A00001D003203EE0B6B2FF2E0BDD0020009080235B04FF2268460189200000F0B9F9CC
:2018C000FF250CE00020009080239B043200D2B268460189200000F0ACF9B6B23500B6B25E
:2018E000002EC1D11921200000F027F9002807D036342078042801D1012013E0032011E097
:2019000020202168C861206840680749014020684160012035216054002034342070002088
:2019200000E00220FEBD000000E800FE353000787047F8B5040015001F00802080010090DA
:2019400080235B043A00D2B289B2200000F071F9069E3100200000F0C3F8002807D0363409
:201960002078042801D101202AE0032028E0BFB2012F03D1EDB22068856216E0280080B2A8
:20198000000AC0B2216888623100200000F0A8F8002807D036342078042801D101200FE068
:2019A00003200DE0EDB220688562330000228021200000F04DF8002801D0032000E00020A2
:2019C000F2BDF8B5040015001F0080208001009000233A00D2B289B2200000F02AF9069ECF
:2019E0003100200000F07CF8002807D036342078042801D101202AE0032028E0BFB2012F3C
:201A000003D1EDB22068856216E0280080B2000AC0B2216888623100200000F061F80028E3
:201A200007D036342078042801D101200FE003200DE0EDB2206885623300002240212000CB
:201A400000F006F8002801D0032000E00020F2BDF2B5040017001D0000F033F90600FFB21B
:201A6000002F1DD12068806900990140C803C00B0099C903C90B884230D00020C04385427B
:201A8000F0D0002D04D000F01CF9801B8542E9D201203521605400203434207003201EE0FF
:201AA0002068806900990140C803C00B0099C903C90B884212D10020C0438542F0D0002D88
:201AC00004D000F0FEF8801B8542E9D2012035216054002034342070032000E00020F2BD1A
:201AE00070B504000E0000F0ECF8050020688069800720D43100200000F049F8002801D06F
:201B0000012019E00020C0438642EFD0002E04D000F0D7F8401B8642E8D23620205C202150
:201B2000014336202154012035216054002034342070032000E0002070BD70B504000E00CC
:201B4000002500F0BEF805002068806980061CD43100200000F01BF8002801D0012015E06B
:201B6000002E04D000F0ADF8401B8642ECD23620205C2021014336202154012035216054A0
:201B8000002034342070032000E0002070BD70B505000C00002600F094F806002868806986
:201BA000C00644D53520285C122807D03520285C522803D03520285C62280AD128684068C0
:201BC000800106D4286840688021C90101432868416028688069800612D40020C0438442C4
:201BE000F7D0002C04D000F06CF8801B8442F0D2012035216854002034352870032017E039
:201C000010202968C86120202968C861286840681349014028684160042036216854012082
:201C200035216854002034352870012000E0002070BD30B40024046864682500094C2C40FD
:201C4000250089B28905890DD2B212040A431343029C1C432C430068446030BC70470000A8
:201C600000E800FE009800FC80B51E480068402101431C4801601B480068022101431948EA
:201C80000160032000F005F800F002F8002002BD704710B5040000F08BFCFA21890000F07F
:201CA000AFFCFFF731FC002221000020C043FFF721FC002010BD0C480068401C0A4908601D
:201CC000704709480068704711B581B00024FFF7F8FF0400FFF7F5FF001B01998842F9D39C
:201CE00013BD0000002002401401002080B5FFF7BBFF00F0DDFC002000F061FD002000F051
:201D000090FD0021002000F09BFD00F011FE00F0FFFE01202049086007E000F021FF002078
:201D20001D4908600A20FFF7CFFF1C48006800280CD0002000F066FDFA204000FFF7C4FF91
:201D4000002000F06EFD002014490860002000F0CDFD0028E6D1002000F0C8FD0028FAD0A3
:201D60000D4800680028D8D100F0D2FE01200A490860D7E780B580B210280CD10020694630
:201D80000870684600F010FF68460078002802D001200249086001BD100100200C0100200E
:201DA00038B5040000252078C0075AD5A34800680C210140082909D0A04800680C210140F6
:201DC0000C290ED19D480068C0030AD5BC480068800346D5606880214902884241D0012046
:201DE00030E2B7480068B7490140B5480160FFF768FF0500B2480068800307D5FFF761FF52
:201E0000401BB1498842F5D303201BE2AC480068AC49014060680843A94908606068802153
:201E2000490288420ED1FFF74CFF0500A4480068800316D4FFF745FF401BA3498842F5D394
:201E40000320FFE1FFF73DFF05009D480068800307D5FFF736FF401B9B498842F5D303207D
:201E6000F0E12078800721D5744800680C210140042909D0714800680C2101400C2927D128
:201E80006E480068C00323D48D480068400704D5E068012801D00120D4E1BC480068BC4984
:201EA0000140206900020843B84908602078C00658D5624800680C21014000296CD1804869
:201EC000006880053DD5E06901283AD00120B9E1E06800281FD07A48006809218843E16805
:201EE000014377480160FFF7ECFE050074480068400706D4FFF7E5FE401B6528F6D30320A7
:201F0000A0E1A2480068A24901402069000208439E490860CAE76A48006809218843E16894
:201F2000014367480160FFF7CCFE0500644800684007BBD5FFF7C5FE401B6528F6D3032010
:201F400080E192480068C0490140606A08438F4908608E4800680002000A216A0906014317
:201F60008A480160207800076AD56069002851D0B648006801210143B4480160FFF7A1FE80
:201F80000500B248006880075AD4FFF79AFE401B6528F6D3032055E1E069002826D0484896
:201FA000006880214900014345480160FFF789FE050043480068800506D4FFF782FE401BF8
:201FC0006528F6D303203DE1704800689E490140606A08436D4908606C4800680002000AC7
:201FE000216A0906014369480160BBE7344800689749014032480160FFF763FE050030489B
:020000040800F2
:2020000000688005AED5FFF75CFE401B6528F6D3032017E18D480068012188438B490860CE
:20202000FFF74FFE050089480068800708D5FFF748FE401B6528F6D3032003E10C10024069
:202040002078800642D5A06900281FD081480068012101437F4801607F48006801210143D7
:202060007D4801607D4800687D4901437B480160FFF727FE050077480068800726D4FFF721
:2020800020FE401B6528F6D30320DBE071480068012188436F49086070480068714901404A
:2020A0006E480160FFF70DFE05006A48006880070CD5FFF706FE401B6528F6D30320C1E012
:2020C00000100240FFFFFAFF891300002078400760D56548006880214905014362480160B4
:2020E0006248006880214900014360480160FFF7E8FD05005D480068C00506D4FFF7E1FD37
:20210000401B6528F6D303209CE050480068584901404E480160FFF7D4FD05004B480068CF
:20212000800507D5FFF7CDFD401B52498842F5D3032087E0454800684D490140A06808434D
:2021400042490860A0688021490088420ED1FFF7B8FD05003D48006880051BD4FFF7B1FD3C
:20216000401B44498842F5D303206BE0FFF7A9FD05003648006880050CD5FFF7A2FD401B9A
:202180003C498842F5D303205CE000BF04100240FFE0FFFFA06A002853D0374800680C216E
:2021A00001400C294BD0A06A022834D1334800683349014031480160FFF783FD05002F48E9
:2021C0000068800106D5FFF77CFD401B6528F6D3032037E0284800682A490140206B08437F
:2021E000616B0143E06A0843234908602348006880214904014321480160FFF762FD05003D
:202200001E48006880011CD4FFF75BFD401B6528F6D3032016E0194800681949014017489C
:202220000160FFF74EFD050014480068800108D5FFF747FD401B6528F6D3032002E00120C4
:2022400000E0002032BD00BFFF1FFFFF50100240FFFEFFFF081002403410024020000140D6
:2022600001200000FEDFFFFF3810024000700040FFFAFFFF891300000C10024000100240E5
:20228000FFFFFFFEFFFF02FF70B505000C0000269F4800680100C907C90FA14200D38FE0CB
:2022A0009B48006801218843204399490860984800680100C907C90FA14201D0012025E16D
:2022C0002878800707D593480068F0218843A9680143904801602878C00700D4FBE0686868
:2022E000022805D18C480068800319D401200DE16868002805D188480068800510D4012093
:2023000004E16868032805D183480068800107D40120FBE080480068400701D40120F5E03A
:202320007C480068032188436968014379480160FFF7C7FC0600686802280ED1754800688E
:202340000C210140082900D1C5E0FFF7BAFC801B72498842F2D30320D8E0686803280ED122
:202360006C4800680C2101400C2900D1B3E0FFF7A8FC801B69498842F2D30320C6E068682B
:2023800000280ED1634800680C210140002900D1A1E0FFF796FC801B60498842F2D30320BC
:2023A000B4E05C4800680C210140042900D192E0FFF787FC801B59498842F2D30320A5E0B2
:2023C0002878800707D553480068F0218843A9680143504801602878C0076CD5686802282B
:2023E00005D14D480068800319D401208EE06868002805D148480068800510D4012085E056
:202400006868032805D144480068800107D401207CE041480068400701D4012076E03D4815
:20242000006803218843696801433A480160FFF748FC0600686802280DD1364800680C2122
:202440000140082937D0FFF73CFC801B33498842F3D303205AE0686803280DD12D4800681B
:202460000C2101400C2926D0FFF72BFC801B2B498842F3D3032049E0686800280DD1254878
:2024800000680C210140002915D0FFF71AFC801B22498842F3D3032038E01E4800680C2180
:2024A0000140042907D0FFF70CFC801B1B498842F3D303202AE01648006801218843204307
:2024C00013490860124800680100C907C90FA14201D001201AE02878400707D50D4800687E
:2024E0003B490140E86808430A4908602878000708D508480068374901402869C000084328
:20250000044908600320FFF7C4FB002070BD0000002002400C100240001002408913000033
:2025200000B5002000210022002000202C480068400B4007400F2B4904225043085826498A
:2025400009680C220A40002A06D0042A05D0082A0BD00C2A0BD02AE029E020480068C006C8
:2025600001D5214800E0214821E021481FE01A480168F0208003084017490A68C021090404
:2025800011401C4A800C105C890D491C124A126880235B021A40002A04D1144A504300F081
:2025A0002FF803E0124A504300F02AF8FFE700BD80B5FFF7B5FF084909680F4A0909090751
:2025C000090F515CC8400D4908600C48006802BDFFF8FFFFFFC7FFFF0C100240001002408C
:2025E000041002408435000800093D000024F40000127A00A400002088000020C800002086
:202600000022030A8B420BD203098B4219D243088B422ED2411A00D20146524110467047F1
:20262000FF2209023FD012068B4205D3121209028B4201D31212090203098B4219D300E0FE
:20264000090AC3098B4201D3CB01C01A524183098B4201D38B01C01A524143098B4201D3AE
:202660004B01C01A524103098B4201D30B01C01A5241C3088B4201D3CB00C01A524183084C
:202680008B4201D38B00C01A524143088B4201D34B00C01A5241884200D3401A5241CFD2D2
:2026A00001461046704708B500F0A8FA08BDFEE700B593B01C4800688021490501431A4874
:2026C00001601A4800681A490140802000010843164908600220059001200890102009903F
:2026E00002200F90002010908020C00211908020C003129005A8FFF753FB0F20009003207E
:20270000019000200290002003900020049001216846FFF7B9FD0748006801210143054829
:20272000016013B000BD00BF3810024000700040FFE7FFFF34100240F0B540B2002821D5A0
:20274000714B40B20207120F083A9208042462436D4C40B205072D0F083DAD080426754329
:202760006459FF258607B60F08277E43B540AC438901C9B28007800F08256843814021433A
:2027800099501BE0624A40B203009B0804246343D258FF238407A40F08256C43A3409A431D
:2027A0008901C9B283079B0F0824634399401143574A40B28008042358431150F0BD00B541
:2027C00085B0C0B2002806D150490A68012111434E4A116000E000214E49C0B20222424316
:2027E000895A00910121019101210291022103916946494AC0B2042358431058FEF7F8FC7E
:2028000005B000BD10B501224249C0B202234343C95A414BC0B2042460431858FEF7DBFD8D
:2028200010BD10B500223B49C0B202234343C95A394BC0B2042460431858FEF7CCFD10BD64
:2028400030B585B004000D00E4B2002C06D12F480168042008432D49086000E000202F4810
:202860000068012101432D480160EDB2002D13D12B48E4B202216143405A00900020019059
:20288000002002900220039069462648E4B2042262438058FEF7ACFCEDB2012D24D12048B4
:2028A000E4B202216143405A009000200290022003901D48019069461A48E4B204226243C2
:2028C0008058FEF795FC03211848E4B202226243805A40B2FFF730FF1448E4B202214C4322
:2028E000005B40B2FEF70BFE05B030BD80B50C49C0B202224243895A0A4AC0B204235843DB
:202900001058FEF75DFD02BD1CED00E02C10024000E400E08A110008C0000020341002400D
:20292000C6110008C400002000002110EE11000810B588B000206946087000246F48007805
:20294000002800D0CFE06A48007801286FD167486B4908606748029067480190012001A926
:202960000872012001A94872012001A988728020C005059060480490012001A908750120F4
:2029800001A94875012001A988755D4800680068002808D100205A49086055480078401EF4
:2029A000534908709CE001A85549096809688847002808D00020524908604D480078401E01
:2029C0004B4908708CE04E4800684068002808D100204B49086046480078401E4449087053
:2029E0007EE068464649096849688847002808D00020434908603E480078401E3C490870DE
:202A00006EE068460078692808D13E483C4909680864012039490870012461E000203849CE
:202A2000086033480078401E3149087058E000202F4908703448324908602E4802903348C1
:202A40000190012001A90872012001A94872012001A988728020C00505902C480490012033
:202A600001A90875012001A94875012001A98875234800680068002804D1002020490860B6
:202A8000012031E001A81E49096809688847002804D000201A490860012025E0184800686E
:202AA0004068002804D100201549086001201BE068461349096849688847002804D0002058
:202AC0000F49086001200FE068460078682807D122480B49096808640120084908700124EE
:202AE000002C00D12FE7002008B010BD44000020D00000200000FA440000D0421C0100203D
:202B000018010020B8000020000000200000EE4280B539480068006C00280BD036480068E1
:202B2000006C0078022805D133480068006C4068002801D103200EE02F480068006C4068BC
:202B40000068002801D1032005E02B480068006C40680068804702BD00000000B00000205E
:202B600080B525480068006C00280BD022480068006C0078022805D11F480068006C406843
:202B8000002801D103200EE01B480068006C40684068002801D1032005E017480068006C6E
:202BA00040684068804702BD80B513490968096C00290BD010490968096C0978022905D103
:202BC0000D490968096C4968002901D1032012E009490968096C49688968002901D1032000
:202BE00009E0002801D1012005E003490968096C49688968884702BD180100207047FEE7B5
:202C000010B50400FEF720F9002801D0012030E0206800F033FB002801D0012029E0606822
:202C200000F0DCFB002801D0012022E0A27A617A207A00F027F9002801D0012019E0E068B5
:202C400000F0EEF9002801D0012012E0206900F095FA002801D001200BE0A27D617D207DEA
:202C600000F0BFF8002801D0012002E0FEF7F0F8002010BD80B5002801D1012004E001238F
:202C80000F22D621FEF730F902BD10B582B004006846002101800223A822D6216846FEF75B
:202CA00023F9002801D0012029E068464078000269460978401820800223AA22D6216846AF
:202CC000FEF712F9002801D0012018E068464078000269460978401860800223AC22D62128
:202CE0006846FEF701F9002801D0012007E0684640780002694609784018A080002016BD33
:202D000010B584B004000020009001A8FFF7BDFF002801D0012027E0684600F0CDF90028FE
:202D200001D0012020E0019800B2FEF7BBF90099FEF7D1F9FEF72AFA206001A80221405E52
:202D4000FEF7B0F90099FEF7C6F9FEF71FFA606001A80421405EFEF7A5F90099FEF7BBF979
:202D6000FEF714FAA060002004B010BD10B582B0040068460021018002239822D6216846E0
:202D8000FEF7B2F8002801D0012029E0684640780002694609784018208002239A22D62109
:202DA0006846FEF7A1F8002801D0012018E0684640780002694609784018608002239C2212
:202DC000D6216846FEF790F8002801D0012007E0684640780002694609784018A0800020A0
:202DE00016BD70B582B000236C462370002600250024C0B2002801D1002600E00826C9B2B7
:202E0000002901D1002500E01025D2B2002A01D1002400E0202401231F22D6216846FEF7B6
:202E200063F8002801D001202BE068460078F72101406846017068460078064368460670E1
:202E400068460078EF210140684601706846007805436846057068460078DF210140684636
:202E600001706846007804436846047001231F22D6216846FEF72AF8002801D0012000E037
:202E8000002076BD70B582B000236C462370002600250024C0B2002801D1002600E0082611
:202EA000C9B2002901D1002500E01025D2B2002A01D1002400E0202401231E22D621684691
:202EC000FEF712F8002801D001202BE068460078F721014068460170684600780643684613
:202EE000067068460078EF210140684601706846007805436846057068460078DF210140CE
:202F0000684601706846007804436846047001231E22D6216846FDF7D9FF002801D0012014
:202F200000E0002076BD10B584B004000020009001A8FFF71BFF002801D0012027E0684629
:202F400000F0EEF9002801D0012020E0019800B2FEF7A8F80099FEF7BEF8FEF717F92060D7
:202F600001A80221405EFEF79DF80099FEF7B3F8FEF70CF9606001A80421405EFEF792F87F
:202F80000099FEF7A8F8FEF701F9A060002004B010BD10B582B0040000206946087001230D
:202FA0002022D6216846FDF79FFF002801D001202CE068460078E02101406846017068463D
:202FC000007800280CD020280DD040280ED060280FD0802810D0A02811D0C02812D014E0B4
:202FE0000020206011E0A14820600EE0084820600BE00848206008E00748206005E0074873
:20300000206002E09A482060FFE7002016BD0000000048420000EE4200006E430000EE4377
:2030200010B582B0002400216A4611700021FEF7CBF801D800241EE08E49FEF7C5F801D2F3
:20304000202418E08C49FEF7BFF801D2402412E0B049FEF7B9F801D260240CE0AE49FEF7BC
:20306000B3F801D2802406E0AC49FEF7ADF801D2A02400E0C02401232022D6216846FDF75F
:2030800033FF002801D0012015E068460078C006C00E69460870684600780443684604707F
:2030A00001232022D6216846FDF710FF002801D0012000E0002016BD10B582B004000020FA
:2030C0006946087001232022D6216846FDF70CFF002801D001201DE0684600781821014008
:2030E0006846017068460078002806D008280DD0102805D0182806D00BE09E48206008E024
:203100009D48206005E09D48206002E09C482060FFE7002016BD10B582B004000020694617
:20312000087001232022D6216846FDF7DDFE002801D0012021E068460078182101406846D4
:20314000017068460078002806D0082810D0102806D0182808D00FE08020C00520600BE0E5
:203160008120C005206007E08220C005206003E08320C0052060FFE7002016BD10B582B000
:20318000002400216A4611709349FEF71DF801D200240CE0AB49FEF717F801D2102406E00B
:2031A000A949FEF711F801D2182400E0082401232022D6216846FDF797FE002801D0012056
:2031C00015E068460078E7210140684601706846007804436846047001232022D6216846D2
:2031E000FDF774FE002801D0012000E0002016BD10B582B0040000206946087001231022E4
:20320000D6216846FDF770FE002801D001202CE068460078E02101406846017068460078D4
:2032200000280CD020280DD040280ED060280FD0802810D0A02811D0C02812D014E00020A9
:20324000206011E0814820600EE0814820600BE08048206008E08048206005E07F482060EE
:2032600002E003482060FFE7002016BD0000204100006E44010020410100484210B582B0D1
:20328000002400216A4611700021FDF79DFF01D800241EE07249FDF797FF01D2202418E0B8
:2032A0007049FDF791FF01D2402412E01949FDF78BFF01D260240CE01749FDF785FF01D2DA
:2032C000802406E01549FDF77FFF01D2A02400E0C02401231022D6216846FDF705FE00281F
:2032E00001D0012015E068460078C006C00E69460870684600780443684604700123102221
:20330000D6216846FDF7E2FD002801D0012000E0002016BD0100EE4201006E430100EE4333
:2033200010B582B0040000206946087001231022D6216846FDF7D8FD002801D0012018E075
:2033400068460078182101406846017068460078002804D0082805D0182806D008E04248FF
:20336000206005E04148206002E041482060FFE7002016BD23DB793D23DBF93D23DB793E7E
:203380005A643B3F10B582B0040000206946087001231022D6216846FDF7A6FD002801D028
:2033A000012018E068460078182101406846017068460078002804D0082805D0182806D0F8
:2033C00008E02C48206005E02B48206002E02B482060FFE7002016BD0100004010B582B053
:2033E000002400216A4611702549FDF7EDFE01D2002406E02349FDF7E7FE01D2082400E009
:20340000182401231022D6216846FDF76DFD002801D0012015E068460078E72101406846EB
:2034200001706846007804436846047001231022D6216846FDF74AFD002801D0012000E05C
:20344000002016BD010080400100004166666E4100006E420000EE4200006E430000EE4339
:2034600067666E4101006E4200000C4100008C4100008C42000075430000FA430000FA4404
:20348000010075430100FA43164800688021490001431448016014480068144901401248C8
:2034A000016010480068124901400E48016011480068012188430F4908600A4800680E4919
:2034C000014008480160084800680C4901400648016000200A4908608020000509490860C3
:2034E00070470000001002400C1002400C40FF88F6FFF6FE08100240FFFFFBFFFFFF02FF58
:203500001010024008ED00E030B401210268001D002A0FD00368C318446808300C4202D094
:203520004D466D1E64191D6825601B1D241D121FECD0F8E730BC704710B5074979441831E3
:20354000064C7C44163404E0081D0A68891888470100A142F8D110BD08000000280000007A
:20356000BFD8FFFF4C000000D40000200000000099FFFFFFD4000000D80000000000002014
:203580000000000000FA000000F4010000E8030000D0070040420F0080841E0000093D0081
:2035A000704700B5FEE7704780B5FEF784FB01BD80B51020FDF719FF01BDFEE700F00BF895
:2035C000002801D0FFF7B8FF0020C046C046FEF78DFB00F002F80120704780B500F002F8BB
:2035E00001BDFEE70746384600F002F8FBE7FEE780B5C046C046024A11001820ABBEFBE78B
:203600002600020001488047014800478934000815360008C046C046C046C046FFF7CEFFEF
:20362000FEE7FEE7FEE7FEE7FEE7FEE7FEE7FEE7FEE7FEE7FEE7FEE7FEE7FEE7FEE7FEE73A
:20364000FEE7FEE7FEE7FEE7FEE7FEE7FEE70000012C0008752C0008012D00088B2C000854
:20366000272F00086D2D0008932F000821300008B9300008173100087D310008F131000806
:203680007D3200082133000885330008DD33000800000000C10000084101000869020008B9
:2036A000F30100088F040008D5020008FB0400089F05000867060008C50600082B0700085F
:2036C000D50700087D0800083D090008D5090008910A000800000000000000000102030498
:2036E0000102030406070809D50B0008450D0008DD0D0008030406080C10182030000000D5
:2037000001000000000000000200000098000020000000500008005080841E000010000014
:0437200001000000A4
:00000001FF
