:020000040800F2
:200000000805002015360008ED350008EF35000831360008353600083936000800000000B1
:200020000000000000000000000000003D360008F13500080000000041360008F335000868
:2000400045360008493600084D3600085136000855360008593600085D3600086136000818
:200060006536000869360008FB3500086D3600087136000875360008793600087D3600087F
:20008000813600088536000889360008000000000000000000000000000000008D3600084C
:2000A0009136000895360008993600089D360008A1360008A5360008A9360008AD36000858
:2000C000B1360008B5360008B9360008BD360008C1360008C5360008C93600080000000043
:2000E000CD360008D1360008D536000800000000000000000000000000000000D9360008BC
:2001000000000000DD360008E1360008E53600080000000000000000000000000000000082
:20012000E9360008ED360008F1360008F5360008F9360008000000000000000000000000D4
:20014000000000000000000000000000FD3600080137000805370008093700080D3700084C
:200160001137000815370008000000000000000000000000000000000000000000000000DB
:20018000000000001937000800000000000000001D37000810B5040000F037FF002801D0C3
:2001A00001203AE000F045F8002801D0012034E094ED000A00F012FC002801D001202CE0FA
:2001C00094ED010A00F014FD002801D0012024E0A27A617A207A00F087F9002801D0012059
:2001E0001BE094ED030A00F06DFA002801D0012013E094ED040A00F04BFB002801D0012033
:200200000BE0A27D617D207D00F01DF9002801D0012002E000F0FDFE002010BD80B5002822
:2002200001D1012004E001230F22D42100F053FF02BD80B500208DF8000001231222D42175
:2002400000A800F048FF002801D001203EE09DF8000010F0FB008DF800009DF8000050F09D
:2002600004008DF8000001231222D42100A800F024FF002801D0012028E001230A22D42186
:2002800000A800F028FF002801D001201EE09DF8000010F087008DF800009DF800008DF8CC
:2002A00000009DF8000010F0F8008DF800009DF800008DF8000001230A22D42100A800F035
:2002C000FCFE002801D0012000E0002002BD10B582B004000020ADF8000002232822D42127
:2002E00000A800F0F8FE002801D001202CE09DF8010000029DF8001050FA81F0208002238D
:200300002A22D42100A800F0E6FE002801D001201AE09DF8010000029DF8001050FA81F014
:20032000608002232C22D42100A800F0D4FE002801D0012008E09DF8010000029DF80010CC
:2003400050FA81F0A080002016BD10B584B004000020009001A8FFF7BAFF002801D00120B0
:2003600031E000A800F02EFA002801D001202AE0BDF9040000EE100AB8EEC00ADDED000A82
:2003800020EE200ABDEEC00A84ED000ABDF9060000EE100AB8EEC00ADDED000A20EE200AF5
:2003A000BDEEC00A84ED010ABDF9080000EE100AB8EEC00ADDED000A20EE200ABDEEC00A95
:2003C00084ED020A002004B010BD10B582B004000020ADF8000002232222D42100A800F049
:2003E0007AFE002801D001202CE09DF8010000029DF8001050FA81F0208002232422D42167
:2004000000A800F068FE002801D001201AE09DF8010000029DF8001050FA81F060800223CD
:200420002622D42100A800F056FE002801D0012008E09DF8010000029DF8001050FA81F099
:20044000A080002016BD70B582B000238DF80030002600250024C0B2002801D1002600E079
:200460000826C9B2002901D1002500E01025D2B2002A01D1002400E0202401231822D42183
:2004800000A800F028FE002801D001202BE09DF8000010F0F7008DF800009DF80000304360
:2004A0008DF800009DF8000010F0EF008DF800009DF8000028438DF800009DF8000010F094
:2004C000DF008DF800009DF8000020438DF8000001231822D42100A800F0EFFD002801D06B
:2004E000012000E0002076BD70B582B000238DF80030002600250024C0B2002801D1002678
:2005000000E00826C9B2002901D1002500E01025D2B2002A01D1002400E0202401231922F6
:20052000D42100A800F0D7FD002801D001202BE09DF8000010F0F7008DF800009DF800008F
:2005400030438DF800009DF8000010F0EF008DF800009DF8000028438DF800009DF8000080
:2005600010F0DF008DF800009DF8000020438DF8000001231922D42100A800F09EFD0028EB
:2005800001D0012000E0002076BD10B584B004000020009001A8FFF718FF002801D00120B9
:2005A00031E000A800F088FA002801D001202AE0BDF9040000EE100AB8EEC00ADDED000AE6
:2005C00020EE200ABDEEC00A84ED000ABDF9060000EE100AB8EEC00ADDED000A20EE200AB3
:2005E000BDEEC00A84ED010ABDF9080000EE100AB8EEC00ADDED000A20EE200ABDEEC00A53
:2006000084ED020A002004B010BD10B582B0040000208DF8000001231022D42100A800F039
:200620005AFD002801D001204AE09DF8000010F0F0008DF800009DF80000002814D010283C
:2006400015D0202817D0302819D040281BD050281DD060281FD0702821D0802823D090283A
:2006600025D0A02827D02AE00020206027E0DFF8B806206023E0DFF8B40620601FE0DFF816
:20068000B00620601BE0DFF8AC06206017E0DFF8A806206013E0DFF8A40620600FE0DFF86A
:2006A000A00620600BE0DFF89C06206007E0DFF89806206003E0DFF894062060FFE700207A
:2006C00016BD000010B582B0002400208DF80000B5EE400AF1EE10FA01D8002451E0DFEDB7
:2006E0008E0AB4EE600AF1EE10FA01D5102448E0DFED8A0AB4EE600AF1EE10FA01D52024CC
:200700003FE0DFEDAF0AB4EE600AF1EE10FA01D5302436E0DFEDAB0AB4EE600AF1EE10FA8A
:2007200001D540242DE0DFEDA80AB4EE600AF1EE10FA01D5502424E0DFEDA40AB4EE600A2B
:20074000F1EE10FA01D560241BE0DFEDA10AB4EE600AF1EE10FA01D5702412E0DFED9D0A20
:20076000B4EE600AF1EE10FA01D5802409E0DFED9A0AB4EE600AF1EE10FA01D5902400E052
:20078000A02401231022D42100A800F0A4FC002801D0012015E09DF8000010F00F008DF8DA
:2007A00000009DF8000020438DF8000001231022D42100A800F081FC002801D0012000E062
:2007C000002016BD10B582B0040000208DF8000001231022D42100A800F07DFC002801D031
:2007E000012021E09DF8000010F00C008DF800009DF80000002806D0042810D0082806D00C
:200800000C2808D00FE0DFF8480520600BE0DFF84405206007E0DFF84005206003E0DFF871
:200820003C052060FFE7002016BD10B582B0040000208DF8000001231022D42100A800F09B
:200840004AFC002801D0012021E09DF8000010F00C008DF800009DF80000002806D0042852
:2008600010D0082806D00C2808D00FE05FF0804020600BE05FF08140206007E05FF0824095
:20088000206003E05FF083402060FFE7002016BD10B582B0002400208DF80000DFEDA90A4B
:2008A000B4EE600AF1EE10FA01D5002412E0DFEDA60AB4EE600AF1EE10FA01D5082409E0FB
:2008C000DFEDA20AB4EE600AF1EE10FA01D50C2400E0042401231022D42100A800F0FBFBC4
:2008E000002801D0012015E09DF8000010F0F3008DF800009DF8000020438DF8000001233B
:200900001022D42100A800F0D8FB002801D0012000E0002016BD0000010050410100D041B4
:2009200010B582B0040000208DF8000001231122D42100A800F0CFFB002801D001203EE031
:200940009DF8000010F0F0008DF800009DF80000002810D0102811D0202813D0302815D06F
:20096000402817D0502819D060281BD070281DD080281FD022E0002020601FE0DFF8A80315
:2009800020601BE0DFF8A403206017E0DFF8A003206013E0DFF89C0320600FE0DFF89803A3
:2009A00020600BE0DFF89403206007E0DFF89003206003E0DFF88C032060FFE7002016BD6B
:2009C000010050420100D042010050430100D043014050440180CF440120504510B582B0B3
:2009E000002400208DF80000B5EE400AF1EE10FA01D800243FE0DFED790AB4EE600AF1EE02
:200A000010FA01D5102436E0DFED750AB4EE600AF1EE10FA01D520242DE0DFED720AB4EE5B
:200A2000600AF1EE10FA01D5302424E0DFED6E0AB4EE600AF1EE10FA01D540241BE0DFEDFB
:200A40006B0AB4EE600AF1EE10FA01D5502412E0DFEDAF0AB4EE600AF1EE10FA01D560241C
:200A600009E0DFEDAC0AB4EE600AF1EE10FA01D5702400E0802401231122D42100A800F044
:200A80002AFB002801D0012015E09DF8000010F00F008DF800009DF8000020438DF800007C
:200AA00001231122D42100A800F007FB002801D0012000E0002016BD10B582B00400002048
:200AC0008DF8000001231122D42100A800F003FB002801D0012034E09DF8000010F00200EA
:200AE0008DF800009DF80000022802D19C48206026E001231122D42100A800F0ECFA002883
:200B000001D001201DE09DF8000010F00C008DF800009DF80000002806D0042807D00828FA
:200B200008D00C2809D00BE08E48206008E08E48206005E08D48206002E08D482060FFE7FA
:200B4000002016BD01000040010080400100004110B582B0040000208DF800000123112267
:200B6000D42100A800F0B7FA002801D0012034E09DF8000010F002008DF800009DF8000058
:200B8000022802D17B48206026E001231122D42100A800F0A0FA002801D001201DE09DF8E5
:200BA000000010F00C008DF800009DF80000002806D0042807D0082808D00C2809D00BE00E
:200BC0006D48206008E06D48206005E06C48206002E06C482060FFE7002016BD0100504129
:200BE0000100D041010050420100D0420100504310B52DED028B82B0B0EE408A002400205F
:200C00008DF800009FED440AB4EE408AF1EE10FA1FD5022401231122D42100A800F05BFACD
:200C2000002801D001206EE09DF8000010F0FD008DF800009DF8000020438DF80000012394
:200C40001122D42100A800F038FA00285AD0012059E001231122D42100A800F03CFA0028B4
:200C600001D001204FE09DF8000010F0FD008DF800009DF800008DF8000001231122D421D6
:200C800000A800F01AFA002801D001203BE09FED230AB4EE408AF1EE10FA01D5002412E079
:200CA0009FED1F0AB4EE408AF1EE10FA01D5042409E09FED1C0AB4EE408AF1EE10FA01D566
:200CC000082400E00C2401231122D42100A800F002FA002801D0012015E09DF8000010F054
:200CE000F3008DF800009DF8000020438DF8000001231122D42100A800F0DFF9002801D04A
:200D0000012000E0002002B0BDEC028B10BD00000100D043014050440100FA42010075431E
:200D20000100FA4301007A44000050410000D041000050420000D042000050430000D043CA
:200D4000004050440080CF44002050450020D04523DB793D23DBF93D23DB793E23DBF93E70
:200D600000008C4000000C4100008C4100000C4200008C420000FA42000075430000FA4340
:200D800000007A440000FA4480B500208DF8000001231022D42100A800F09DF9002801D00B
:200DA0000120A8E09DF8000010F00F008DF800009DF8000050F060008DF800009DF8000012
:200DC00010F0F3008DF800009DF800008DF8000001231022D42100A800F06FF9002801D03D
:200DE000012088E001235C22D42100A800F073F9002801D001207EE09DF8000010F07F0043
:200E00008DF800009DF800008DF800009DF8000010F09F008DF800009DF800008DF8000060
:200E20009DF8000010F0EF008DF800009DF800008DF800009DF8000010F0F0008DF8000085
:200E40009DF800008DF8000001235C22D42100A800F033F9002801D001204CE001235D2234
:200E6000D42100A800F037F9002801D0012042E09DF8000010F007008DF800009DF80000C3
:200E800050F030008DF800009DF8000010F0F8008DF800009DF8000050F003008DF80000EE
:200EA00001235D22D42100A800F007F9002801D0012020E001235E22D42100A800F00BF9B3
:200EC000002801D0012016E09DF8000010F0EF008DF800009DF8000050F010008DF800008F
:200EE00001235E22D42100A800F0E7F8002801D0012000E0002002BD80B500208DF800002F
:200F000001235E22D42100A800F0E5F8002801D001203CE09DF8000010F0EF008DF8000084
:200F20009DF800008DF8000001235E22D42100A800F0C3F8002801D0012028E001235D22E6
:200F4000D42100A800F0C7F8002801D001201EE09DF8000010F007008DF800009DF8000077
:200F60008DF800009DF8000010F0F8008DF800009DF800008DF8000001235D22D42100A880
:200F800000F09BF8002801D0012000E0002002BD10B582B0040000208DF8000001231B22F4
:200FA000D42100A800F097F8002801D001200FE09DF8000010F020008DF800009DF800003D
:200FC000202802D10120207001E000202070002016BD10B450F8041B81B102681218001DB3
:200FE00050F8043BDC0744BFA9F10104E31852F8044B43F8044B091FF9D1EBE710BC704780
:2010000080B500F06FF802BD704780B500F06AF802BD00B58BB0DFF86C02006850F00100AA
:20102000DFF860120860DFF85C02006810F001000090009810200690DFF84C020790022095
:2010400009900020089006A9DFF8400200F02EF9002200210A2000F09FFA0A2000F0ADFAA9
:20106000DFF82002006850F00200DFF818120860DFF81002006810F00200009000980120C8
:201080000190DFF804020290022004900020039001A97F4800F00AF900220021062000F02A
:2010A0007BFA062000F089FA0BB000BD80B59BB2D2B2C9B200F01FF802BD80B59BB2D2B25D
:2010C000C9B200F018F802BD80B59BB2D2B2C9B200F01EF802BD80B59BB2D2B2C9B200F01F
:2010E00017F802BD80B500F020F8002801D0012000E0002002BD10B500249BB2D2B2C9B2D7
:2011000000F033F8002800D001242000C0B210BD10B500249BB2D2B2C9B200F043F80028B0
:2011200000D001242000C0B210BD10B50024594800F09AFC002815D1574856494860002037
:201140005449886033205349C8604FF480405149086152484F49086000F04BF84D4800F09B
:2011600045FA04002000C0B210BD3EB50C0000254B49096802919BB2019300900123D2B2F8
:2011800092B2E4B2210089B2424800F0DBFA0500EDB2002D03D02000C0B200F020F8280064
:2011A000C0B23EBD3EB50C0000253D49096802919BB2019300900123D2B292B2E4B2210000
:2011C00089B2344800F040FB0500EDB2002D03D02000C0B200F003F82800C0B23EBD80B542
:2011E0002C4800F08FFA012000F037FEFFF79DFF01BD00B587B02348006850F00200214901
:2012000008602048006810F00200009000984FF440700190122002900220049000200390BB
:201220000420059001A91A4800F040F81D48006850F400101B4908601A48006810F40010F6
:20124000009000981848006850F40010164908601548006830F40010134908600022002183
:201260001F2000F099F91F2000F0A7F900220021202000F091F9202000F09FF907B000BDA5
:201280000000000030380240000011100000024000040240B8000020801A060000540040EF
:2012A000B0000020403802402038024078B4002400230024002230E00525EDB212F003066D
:2012C000F6B2B600B5402C43734D960845F82640724C24689C434D68ED0300D51C436F4D8D
:2012E0002C606F4C24689C434D68AD0300D51C436B4D2C606B4C24689C434D68ED0200D5C4
:201300001C43684D2C60684C24689C434D68AD0200D51C43644B1C60521C102A80F099801A
:20132000012313FA02F40B682340A342F4D14C68022C02D04C68122C15D1D40810EB84041B
:20134000246A0F2512F00706F6B2B600B540AC430D6912F00706F6B2B600B5402C43D50856
:2013600010EB85052C62046803251600F6B27600B540AC430D7915F003051600F6B27600E7
:20138000B5402C4304604C68012C08D04C68022C05D04C68112C02D04C68122C17D184688C
:2013A00003251600F6B27600B540AC43CD681600F6B27600B5402C43846044680125954095
:2013C000AC434D68C5F3001595402C434460C46803251600F6B27600B540AC438D6816003D
:2013E000F6B27600B5402C43C4604C68E40093D52E4C246854F480442C4D2C602B4C24682D
:2014000014F480440094009C234C950854F825400F2512F00306F6B2B600B540AC43244D21
:20142000A84201D1002548E7224DA84201D1012543E7214DA84201D102253EE71F4DA84255
:2014400001D1032539E71E4DA8427FF435AF042533E771BC7047006989B2084201D00120BF
:2014600000E00020C0B27047D2B2002A02D089B2816102E089B209048161704780B5114954
:20148000096880B2014205D080B20E49086080B200F038FD01BD000008380140003C01408D
:2014A000043C0140083C01400C3C014044380240000002400004024000080240000C0240BF
:2014C00000100240143C014010F007013F4800684FF6FF0210403E4A52EA012108433B49E7
:2014E0000860704739480068C0F302207047012110F01F029140374A40B2400942F820101E
:20150000704740B2002808D50901334A40B210F00F00801800F8041C03E009012F4A40B28D
:201520008154704710B410F00700D0F10703052B01D3042301E0D0F10703041D072C01D28B
:20154000002000E0C01E012414FA03F35B1E19408140012313FA00F0401E1040084310BC0B
:20156000704780B5411EB1F1807F01D301200EE0401E1B4908600F215FF0FF30FFF7C1FF0E
:20158000002018490860072017490860002002BD80B5FFF799FF01BD70B504000D001600C7
:2015A0000020FFF79FFF32002900FFF7BBFF0100200040B2FFF7A5FF70BD80B540B2FFF775
:2015C00096FF01BD80B5FFF7CCFF02BD0CED00E00000FA0500E100E018ED00E000E400E0C1
:2015E00014E000E018E000E010E000E010B5040000210020002C01D1012082E094F8350023
:20160000002805D1002084F83400200000F096F8022084F83500206800684008400021688A
:20162000086000F0E7FFDFF81811B0FBF1F1226851606268DFF804329A4201D2491C07E0D2
:201640004FF4967251434FF47A72B1FBF2F1491C226811626168DFF8E42191420ED261686A
:201660004900B0FBF1F10905090D042901D204202AE061684900B0FBF1F025E0A16800296D
:2016800005D1616803225143B0FBF1F106E0616819225143B0FBF1F151F48041090501D174
:2016A000012011E0A168002905D1616803225143B0FBF1F006E0616819225143B0FBF1F0F8
:2016C00050F4804050F400402168C861E069216A0843216808602069E16808432168886032
:2016E0006069A16908432168C8602068006850F00100216808600020A063012084F8350004
:20170000002010BD10B50400002C01D1012014E0022084F83500206800684008400021682C
:201720000860200000F00BF80020A063002084F83500002084F83400002010BD704770470F
:2017400040420F00F8B5050095F83500012873D1069E002E03D0079CA4B2002C01D101205A
:201760006BE028688069800701D5022065E095F83400012801D102205FE0012085F83400F2
:20178000322085F835000020A863089F00979BB292B289B2280000F06AF900281DD0A86B6D
:2017A000042804D1002085F83400012045E0002085F83400032040E0307829680861761CC9
:2017C000641E28684069400707D5A4B2002C04D0307829680861761C641EA4B2002C09D0C4
:2017E0003B0000221649280000F032FA0028E3D0032022E03B0000221149280000F028FAF8
:20180000002801D0032018E02868006850F40070296808603B0001220A49280000F018FA34
:20182000002801D0032008E0012085F83500002085F83400002000E00220F2BDA186010007
:201840008000010002001000F8B5050095F83500012840F00281069E002E03D0079CA4B207
:20186000002C01D10120F9E028688069800701D50220F3E095F83400012801D10220EDE0FA
:20188000012085F83400422085F835000020A863089F00979BB292B289B2280000F046F9D6
:2018A00000280CD0A86B042804D1002085F834000120D3E0002085F834000320CEE0A4B273
:2018C000012C13D12868006830F48060296808602868406900902868806900900098286808
:2018E000006850F400702968086023E0A4B2022C13D12868006830F48060296808602868E3
:20190000006850F400602968086028684069009028688069009000980CE0286840690090A3
:20192000286880690090009804E0286800693070761C641EA4B2002C76D0A4B2042C5ADAF3
:20194000A4B2012C09D13B0000224549280000F07FF90028E9D0032080E0A4B2022C1AD1DC
:201960003B0000223F49280000F072F9002801D0032073E02868006850F4007029680860EB
:20198000286800693070761C641E286800693070761C641ECEE73B0000223249280000F048
:2019A00057F9002801D0032058E02868006830F4806029680860286800693070761C641EE1
:2019C0003B0000222749280000F042F9002801D0032043E02868006850F400702968086003
:2019E000286800693070761C641E286800693070761C641E9EE73B0000221949280000F031
:201A000027F9002801D0032028E0286800693070761C641E2868406940078BD528680069FC
:201A20003070761C641E85E72868006830F40060296808603B000122DFF8EC10280000F0C8
:201A400007F9002801D0032008E0012085F83500002085F83400002000E00220F2BD00000D
:201A6000400001000400010090F8350070472DE9F04182B004000F0015001E0020680068FD
:201A800050F4807021680860DDF82080434600225FF00111200000F0DBF8002801D00320A1
:201AA0003FE017F0FE00216808614246DFF89811200000F039F9002806D0A06B042801D1BF
:201AC00001202EE003202CE0206840690090206880690090009843460022DFF8701120002B
:201AE00000F0B6F8002801D003201AE0B6B2012E03D1EDB22068056112E0ADB2280AC0B245
:201B00002168086143460022DFF84011200000F09FF8002801D0032003E0EDB220680561CD
:201B20000020BDE8F6810000020010002DE9F04182B004000D0016001F002068006850F464
:201B40008060216808602068006850F4807021680860DDF82080434600225FF001112000FE
:201B600000F076F8002801D003206BE015F0FE00216808614246DFF8D010200000F0D4F890
:201B8000002806D0A06B042801D101205AE0032058E020684069009020688069009000982E
:201BA000434600222949200000F052F8002801D0032047E0BFB2012F03D1F6B2206806615F
:201BC00011E0B6B2300AC0B221680861434600221E49200000F03CF8002801D0032031E08B
:201BE000F6B220680661434600221849200000F02FF8002801D0032024E02068006850F4B7
:201C0000807021680860434600225FF00111200000F01EF8002801D0032013E055F001005C
:201C2000C0B22168086142460749200000F07CF8002806D0A06B042801D1012002E00320B7
:201C400000E00020BDE8F68102000100800001002DE9F04104000D0090461E00002700F081
:201C6000F9F807005FFA88F8B8F1000F2CD1280CC0B201280AD120684069284080B2A9B20E
:201C8000884201D101200BE0002009E020688069284080B2A9B2884201D1012000E0002070
:201CA00000283ED116F1010FE1D0002E04D000F0D1F8C01B8642DAD2012084F83500002029
:201CC00084F8340003202DE0280CC0B201280AD120684069284080B2A9B2884201D1012097
:201CE0000BE0002009E020688069284080B2A9B2884201D1012000E00020002811D016F1BD
:201D0000010FE1D0002E04D000F0A4F8C01B8642DAD2012084F83500002084F83400032060
:201D200000E00020BDE8F081F8B504000D001600002700F08FF80700280CC0B201280AD16A
:201D400020684069284080B2A9B2884201D101200BE0002009E020688069284080B2A9B246
:201D6000884201D1012000E00020002829D120684069400513D52068006850F400702168F9
:201D800008607FF48060216848610420A063012084F83500002084F83400012012E016F173
:201DA000010FC9D0002E04D000F054F8C01B8642C2D2012084F83500002084F83400032040
:201DC00000E00020F2BD50F8041B61B150F8042BD30744BFA9F101039A180023091F42F8B2
:201DE000043BFAD1EFE7704780B52248006850F40070204908601F48006850F480601D4967
:201E000008601C48006850F480701A4908600320FFF7BEFB0F2000F005F800F002F8002097
:201E200002BD704710B5040000F0D0FB4FF47A71B0FBF1F0FFF7C6FB002221005FF0FF3076
:201E4000FFF7AAFB002010BD0B480068401C0A490860704708480068704711B581B00024E7
:201E6000FFF7F8FF0400FFF7F5FF001B01998842F9D313BD003C0240FC00002080B5FFF7A7
:201E8000B3FF00F0E9FB002000F02EFC002000F072FC0021002000F07DFC00F0EDFC00F091
:201EA000F8FD01202049086007E000F016FE00201D4908600A20FFF7D0FF1C48006800287F
:201EC0000CD0002000F048FC4FF4FA70FFF7C5FF002000F050FC002014490860002000F01A
:201EE000AEFC0028E6D1002000F0A9FC0028FAD00D4800680028D8D100F0CBFD01200A49F8
:201F00000860D7E780B580B210280CD100208DF8000000A800F005FE9DF80000002802D050
:201F200001200249086001BDF8000020F400002038B5040000252078C0075AD5DFF8D8068A
:201F4000006810F00C0004280BD0DFF8CC06006810F00C0008280ED1DFF8C0060068400293
:201F600009D5DFF8B0060068800342D5606800283FD10120A1E10020DFF8A4160870FFF732
:201F800069FF0500DFF88C060068800308D5FFF761FF401B41F289318842F3D303208CE1E5
:201FA0006068DFF87C1608706068002810D0FFF751FF0500DFF85C060068800319D4FFF756
:201FC00049FF401B41F289318842F3D3032074E1FFF740FF0500DFF83C060068800308D54E
:201FE000FFF738FF401B41F289318842F3D3032063E1207880072BD5DFF81C06006810F0F5
:020000040800F2
:202000000C0F0BD0DFF81006006810F00C00082837D1DFF808060068400232D4DFF8F405CC
:202020000068800704D5E068012801D0012044E1DFF8E00500685FF0F851B1FA81F130F057
:20204000F800226912FA01F10843DFF8C81508602078000762D5606900284CD00120DFF8BD
:20206000C4150860FFF7F6FE0500DFF8BC050068800753D4FFF7EEFE401B6528F5D30320CD
:202080001BE1E068002823D00120DFF8A0150860FFF7E0FE0500DFF87C050068800706D4D2
:2020A000FFF7D8FE401B6528F5D3032005E1DFF8640500685FF0F851B1FA81F130F0F80026
:2020C000226912FA01F10843DFF848150860BFE70020DFF858150860FFF7BCFE0500DFF892
:2020E000340500688007B3D5FFF7B4FE401B6528F5D30320E1E00020DFF828150860FFF762
:20210000A9FE0500DFF820050068800706D5FFF7A1FE401B6528F5D30320CEE02078400758
:2021200063D5DFF80C05006850F08050DFF800150860DFF8FC04006810F08050009000987C
:20214000DFF8F004006850F48070DFF8E8140860FFF780FE0500DFF8DC040068C00506D4A6
:20216000FFF778FE401B6528F5D30320A5E00020DFF8C4140870FFF76DFE0500DFF8B8045B
:202180000068800708D5FFF765FE401B41F289318842F3D3032090E0A068DFF89C140870A8
:2021A000A068002810D0FFF755FE0500DFF888040068800719D4FFF74DFE401B41F28931F9
:2021C0008842F3D3032078E0FFF744FE0500DFF868040068800708D5FFF73CFE401B41F2EA
:2021E00089318842F3D3032067E0A069002863D0DFF82404006810F00C0008285AD0A069F1
:20220000022844D10020DFF834140860FFF722FE0500DFF800040068800106D5FFF71AFE10
:20222000401B6528F5D3032047E0DFF81404B0FA80F14FF44040B0FA80F2F020B0FA80F091
:20224000E369256A2B43656A15FA01F11943A36A5B085B1E13FA02F21143E26A12FA00F083
:202260000843DFF8B81308600120DFF8D0130860FFF7F0FD0500DFF89C03006880011BD490
:20228000FFF7E8FD401B6528F5D3032015E00020DFF8A8130860FFF7DDFD0500DFF874035E
:2022A0000068800108D5FFF7D5FD401B6528F5D3032002E0012000E0002032BD70B50400A2
:2022C0000D000026DFF87C03006810F00F00A84280F08F80DFF86C030570DFF86803006830
:2022E00010F00F00A84201D0012028E12078800709D5DFF82403006830F0F000A168084323
:20230000DFF8141308602078C00740F1FD806068012806D1DFF8FC020068800315D40120B8
:202320000DE16068022802D06068032806D1DFF8E4020068800108D4012000E1DFF8D402F0
:202340000068800701D40120F9E0DFF8CC0200688008800061680843DFF8BC120860FFF793
:2023600079FD06006068012810D1DFF8AC02006810F00C00042800F0C780FFF76BFD801BBA
:2023800041F289318842F0D30320D8E06068022810D1DFF88402006810F00C00082800F024
:2023A000B380FFF757FD801B41F289318842F0D30320C4E0606803280BD1DFF85C02006858
:2023C000FFF748FD801B41F289318842F5D30320B5E0DFF84402006810F00C0F00F094804C
:2023E000FFF738FD801B41F289318842F1D30320A5E02078800709D5DFF81C02006830F07A
:20240000F000A1680843DFF8101208602078C0076ED56068012806D1DFF8F80100688003F2
:2024200015D401208BE06068022802D06068032806D1DFF8E0010068800108D401207EE09D
:20244000DFF8D0010068800701D4012077E0DFF8C80100688008800061680843DFF8B811D4
:202460000860FFF7F7FC0600606801280FD1DFF8A801006810F00C00042839D0FFF7EAFC2F
:20248000801B41F289318842F1D3032057E0606802280FD1DFF88001006810F00C000828FE
:2024A00026D0FFF7D7FC801B41F289318842F1D3032044E0606803280BD1DFF85C01006895
:2024C000FFF7C8FC801B41F289318842F5D3032035E0DFF84401006810F00C0F08D0FFF783
:2024E000B9FC801B41F289318842F2D3032026E0DFF850010570DFF84C01006810F00F00AF
:20250000A84201D001201AE02078400707D54248006830F4E050E16808433F4908602078C8
:20252000000708D53C48006830F46040216950EAC100394908600F20FFF774FC002070BDB6
:2025400000200020002100203348006810F00C00002804D0042804D0082804D034E03A4875
:2025600033E03A4831E02D48006810F03F002B49096849020DD529490968344AB2FBF0F099
:2025800047F6C07211402E4AB2FA82F2D14048430CE0224909682C4AB2FBF0F047F6C0720D
:2025A0001140274AB2FA82F2D14048431B49096811F440314FF44042B2FA82F2D140491CF7
:2025C0004900B0FBF1F000E01F48704780B5FFF7B7FF114909685FF07062B2FA82F21C4BD4
:2025E00011F0F001D140C95CC8401A4908601948006802BD80B5FFF7E9FF074909685FF431
:202600006012B2FA82F2124B11F4E051D140C95CC84002BD0038024008380240043802401E
:2026200002380240800E474274380240000047424038024000700040703802406000474253
:202640000000FE03003C02400024F40000127A0004360008AC00002000B593B02048006881
:2026600050F080501E4908601D48006810F08050009000981B48006830F4404050F40040C3
:20268000184908601748006810F4404000900098022006900120099010200A9002200C9004
:2026A00000200D9010200E904FF4A8700F90042010900720119006A8FFF73AFC0F2001906F
:2026C00002200290002003904FF48050049000200590022101A8FFF7F1FD13B000BD00BF48
:2026E000403802400070004010B586B00400E4B2002C0ED1DFF86401006850F00100DFF814
:202700005C110860DFF85401006810F0010000900098DFF84C01E4B230F81400019001207F
:202720000290012003900220049001A9DFF83401E4B250F82400FEF7B9FD0022DFF8200120
:20274000E4B230F81410DFF81C01E4B250F82400FEF78AFE06B010BD80B50122DFF8001161
:20276000C0B231F81010DFF8FC30C0B253F82000FEF77AFE01BD80B50022DFF8E410C0B2FF
:2027800031F81010DFF8DC30C0B253F82000FEF76BFE01BD30B587B004000D00E4B2002C25
:2027A0000ED1DFF8B800006850F00400DFF8AC100860DFF8A800006810F0040000900098F1
:2027C000EDB2002D13D1DFF8A000E4B230F81400019000200290022003900220049001A9A8
:2027E000DFF88800E4B250F82400FEF75FFDEDB2012D22D1DFF87000E4B230F814000190BD
:2028000000200390DFF86800029001A9DFF85C00E4B250F82400FEF749FD00220F21DFF8F1
:202820005400E4B2205640B2FEF7B6FEDFF84400E4B2205640B2FEF7C0FE07B030BD80B5F8
:20284000DFF82410C0B231F81010DFF82020C0B252F82000FEF7FFFD02BD00003038024065
:20286000A4350008A4000020CA350008A800002000002110D635000810B588B000208DF8FE
:2028800000000024DFF8EC020078002840F0FE80DFF8E4020078012840F08B80DFF8DC02B3
:2028A000DFF8DC120860DFF8DC020290DFF8D802019001208DF80C0001208DF80D000120DC
:2028C0008DF80E005FF080400590DFF8BC02049001208DF8180001208DF8190001208DF875
:2028E0001A00DFF89C020068006800280BD10020DFF88C120860DFF880020078401EDFF872
:2029000078120870BFE001A8DFF8741209680968884700280BD00020DFF864120860DFF8B0
:2029200058020078401EDFF850120870ABE0DFF850020068406800280BD10020DFF84012A5
:202940000860DFF834020078401EDFF82C12087099E000A8DFF82812096849688847002854
:202960000BD00020DFF818120860DFF80C020078401EDFF80412087085E09DF80000692848
:202980000BD1DFF80802DFF8F811096808640120DFF8E0110870012475E00020DFF8E011FA
:2029A0000860DFF8D4010078401EDFF8CC11087069E00020DFF8C0110870DFF8D401DFF8F5
:2029C000C0110860DFF8BC010290DFF8C801019001208DF80C0001208DF80D0001208DF85C
:2029E0000E005FF080400590DFF8A801049001208DF8180001208DF8190001208DF81A00D4
:202A0000DFF87C0100680068002805D10020DFF87011086001203AE001A8DFF86411096813
:202A200009688847002805D00020DFF85411086001202CE0DFF8480100684068002805D13A
:202A40000020DFF83C110860012020E000A8DFF83011096849688847002805D00020DFF804
:202A600020110860012012E09DF8000068280AD1DFF82401DFF80811096808640120DFF8E9
:202A8000F41008700124002C3FF402AF002008B010BD80B53A480068006C00280BD03848D2
:202AA0000068006C0078022805D135480068006C4068002801D103200EE031480068006C79
:202AC00040680068002801D1032005E02C480068006C40680068804702BD80B528480068F9
:202AE000006C00280BD026480068006C0078022805D123480068006C4068002801D10320A9
:202B00000EE01F480068006C40684068002801D1032005E01A480068006C406840688047ED
:202B200002BD80B516490968096C00290BD014490968096C0978022905D111490968096C53
:202B40004968002901D1032012E00D490968096C49688968002901D1032009E0002801D1D5
:202B6000012005E006490968096C49688968884702BD000004010020B4000020440000208D
:202B8000000100200000FA440000D0429C000020000000200000EE429400002010B504003B
:202BA000FEF72EFA002801D0012034E094ED000A00F068FB002801D001202CE094ED010A3A
:202BC00000F01CFC002801D0012024E0A27A617A207A00F039F9002801D001201BE094ED86
:202BE000030A00F007FA002801D0012013E094ED040A00F0C1FA002801D001200BE0A27D6C
:202C0000617D207D00F0CFF8002801D0012002E0FEF7FAF9002010BD80B5002801D1012061
:202C200004E001230F22D621FEF74EFA02BD10B582B004000020ADF800000223A822D621C2
:202C400000A8FEF741FA002801D001202CE09DF8010000029DF8001050FA81F020800223B9
:202C6000AA22D62100A8FEF72FFA002801D001201AE09DF8010000029DF8001050FA81F0BF
:202C800060800223AC22D62100A8FEF71DFA002801D0012008E09DF8010000029DF8001077
:202CA00050FA81F0A080002016BD10B584B004000020009001A8FFF7BAFF002801D0012027
:202CC00031E000A800F0F2F9002801D001202AE0BDF9040000EE100AB8EEC00ADDED000A36
:202CE00020EE200ABDEEC00A84ED000ABDF9060000EE100AB8EEC00ADDED000A20EE200A6C
:202D0000BDEEC00A84ED010ABDF9080000EE100AB8EEC00ADDED000A20EE200ABDEEC00A0B
:202D200084ED020A002004B010BD10B582B004000020ADF8000002239822D62100A8FEF742
:202D4000C3F9002801D001202CE09DF8010000029DF8001050FA81F0208002239A22D62121
:202D600000A8FEF7B1F9002801D001201AE09DF8010000029DF8001050FA81F060800223FB
:202D80009C22D62100A8FEF79FF9002801D0012008E09DF8010000029DF8001050FA81F04F
:202DA000A080002016BD70B582B000238DF80030002600250024C0B2002801D1002600E0F0
:202DC0000826C9B2002901D1002500E01025D2B2002A01D1002400E0202401231F22D621F1
:202DE00000A8FEF771F9002801D001202BE09DF8000010F0F7008DF800009DF8000030438E
:202E00008DF800009DF8000010F0EF008DF800009DF8000028438DF800009DF8000010F00A
:202E2000DF008DF800009DF8000020438DF8000001231F22D62100A8FEF738F9002801D08E
:202E4000012000E0002076BD70B582B000238DF80030002600250024C0B2002801D10026EE
:202E600000E00826C9B2002901D1002500E01025D2B2002A01D1002400E0202401231E2268
:202E8000D62100A8FEF720F9002801D001202BE09DF8000010F0F7008DF800009DF80000BA
:202EA00030438DF800009DF8000010F0EF008DF800009DF8000028438DF800009DF80000F7
:202EC00010F0DF008DF800009DF8000020438DF8000001231E22D62100A8FEF7E7F8002812
:202EE00001D0012000E0002076BD10B584B004000020009001A8FFF718FF002801D0012030
:202F000031E000A800F020FA002801D001202AE0BDF9040000EE100AB8EEC00ADDED000AC4
:202F200020EE200ABDEEC00A84ED000ABDF9060000EE100AB8EEC00ADDED000A20EE200A29
:202F4000BDEEC00A84ED010ABDF9080000EE100AB8EEC00ADDED000A20EE200ABDEEC00AC9
:202F600084ED020A002004B010BD10B582B0040000208DF8000001232022D62100A8FEF799
:202F8000A3F8002801D0012032E09DF8000010F0E0008DF800009DF8000000280CD020288F
:202FA0000DD040280FD0602811D0802813D0A02815D0C02817D01AE00020206017E0DFF815
:202FC000C004206013E0DFF8BC0420600FE0DFF8B80420600BE0DFF8B404206007E0DFF8E9
:202FE000B004206003E0DFF8AC042060FFE7002016BD000010B582B0002400208DF800001A
:20300000B5EE400AF1EE10FA01D800242DE0DFED9B0AB4EE600AF1EE10FA01D5202424E04C
:20302000DFED970AB4EE600AF1EE10FA01D540241BE0DFEDC20AB4EE600AF1EE10FA01D596
:20304000602412E0DFEDBE0AB4EE600AF1EE10FA01D5802409E0DFEDBB0AB4EE600AF1EE92
:2030600010FA01D5A02400E0C02401232022D62100A8FEF729F8002801D0012015E09DF829
:20308000000010F01F008DF800009DF8000020438DF8000001232022D62100A8FEF706F817
:2030A000002801D0012000E0002016BD10B582B0040000208DF8000001232022D62100A87E
:2030C000FEF702F8002801D0012021E09DF8000010F018008DF800009DF80000002806D021
:2030E000082810D0102806D0182808D00FE0DFF8A80320600BE0DFF8A403206007E0DFF802
:20310000A003206003E0DFF89C032060FFE7002016BD10B582B0040000208DF80000012316
:203120002022D62100A8FDF7CFFF002801D0012021E09DF8000010F018008DF800009DF80A
:203140000000002806D0082810D0102806D0182808D00FE05FF0804020600BE05FF08140C2
:20316000206007E05FF08240206003E05FF083402060FFE7002016BD10B582B000240020CE
:203180008DF80000DFED9A0AB4EE600AF1EE10FA01D5002412E0DFED970AB4EE600AF1EE01
:2031A00010FA01D5102409E0DFED930AB4EE600AF1EE10FA01D5182400E008240123202230
:2031C000D62100A8FDF780FF002801D0012015E09DF8000010F0E7008DF800009DF8000038
:2031E00020438DF8000001232022D62100A8FDF75DFF002801D0012000E0002016BD10B5E0
:2032000082B0040000208DF8000001231022D62100A8FDF759FF002801D001202CE09DF8D7
:20322000000010F0E0008DF800009DF8000000280CD020280DD040280ED060280FD0802816
:2032400010D0A02811D0C02812D014E00020206011E0954820600EE0944820600BE08A4832
:20326000206008E08948206005E08948206002E088482060FFE7002016BD000001002041F2
:203280000100484210B582B0002400208DF80000B5EE400AF1EE10FA01D800242DE0DFED37
:2032A000740AB4EE600AF1EE10FA01D5202424E0DFED700AB4EE600AF1EE10FA01D5402408
:2032C0001BE0DFED1E0AB4EE600AF1EE10FA01D5602412E0DFED1A0AB4EE600AF1EE10FAD9
:2032E00001D5802409E0DFED170AB4EE600AF1EE10FA01D5A02400E0C02401231022D621DE
:2033000000A8FDF7E1FE002801D0012015E09DF8000010F01F008DF800009DF800002043F2
:203320008DF8000001231022D62100A8FDF7BEFE002801D0012000E0002016BD0100EE4245
:2033400001006E430100EE4310B582B0040000208DF8000001231022D62100A8FDF7B4FE4E
:20336000002801D0012018E09DF8000010F018008DF800009DF80000002804D0082805D073
:20338000182806D008E04A48206005E04948206002E049482060FFE7002016BD10B582B064
:2033A000040000208DF8000001231022D62100A8FDF78AFE002801D0012018E09DF800004C
:2033C00010F018008DF800009DF80000002804D0082805D0182806D008E03848206005E0D7
:2033E0003748206002E037482060FFE7002016BD01000040010080400100004110B582B0D9
:20340000002400208DF80000DFED1B0AB4EE600AF1EE10FA01D5002409E0DFED180AB4EE8A
:20342000600AF1EE10FA01D5082400E0182401231022D62100A8FDF747FE002801D00120D3
:2034400015E09DF8000010F0E7008DF800009DF8000020438DF8000001231022D62100A804
:20346000FDF724FE002801D0012000E0002016BD67666E4101006E42010075430100FA4325
:2034800000002041000048420000EE4200006E430000EE4300006E4423DB793D23DBF93D95
:2034A00023DB793E5A643B3F66666E4100006E4200000C4100008C4100008C420000754354
:2034C0000000FA430000FA441248006850F47000104908601048006850F001000E4908607A
:2034E00000200E4908600C4800680D4908400A4908600C480C4908600748006830F480204C
:20350000054908600020094908605FF0006008490860704788ED00E00038024008380240AB
:20352000FFFFF6FE10300024043802400C38024008ED00E010B5074979441831064C7C442F
:20354000163404E00A68081D511888470146A142F8D110BD2C0000004C0000004EF6885119
:20356000CEF20001086840F470000860BFF34F8FBFF36F8F4FF00070E1EE100A704700007F
:2035800047E8FFFF50000000B80000200000000043DAFFFFB800000088010000000000205A
:2035A000000000002000000000F00BF8002801D0FFF7C0FF0020C046C046FEF75FFC00F0DE
:2035C00002F80120704700F001B800200746384600F002F8FBE7280080B5C046C046024A04
:2035E00011001820ABBEFBE7260002007047FEE7704780B5FEF728FC01BD80B51020FDF757
:203600003DFF01BD000000000102030401020304060708090148804701480047C9340008D9
:2036200025360008C046C046FFF798FFFFF7BCFFFFF7FEBFFFF7FEBFFFF7FEBFFFF7FEBF11
:20364000FFF7FEBFFFF7FEBFFFF7FEBFFFF7FEBFFFF7FEBFFFF7FEBFFFF7FEBFFFF7FEBFD2
:20366000FFF7FEBFFFF7FEBFFFF7FEBFFFF7FEBFFFF7FEBFFFF7FEBFFFF7FEBFFFF7FEBFB2
:20368000FFF7FEBFFFF7FEBFFFF7FEBFFFF7FEBFFFF7FEBFFFF7FEBFFFF7FEBFFFF7FEBF92
:2036A000FFF7FEBFFFF7FEBFFFF7FEBFFFF7FEBFFFF7FEBFFFF7FEBFFFF7FEBFFFF7FEBF72
:2036C000FFF7FEBFFFF7FEBFFFF7FEBFFFF7FEBFFFF7FEBFFFF7FEBFFFF7FEBFFFF7FEBF52
:2036E000FFF7FEBFFFF7FEBFFFF7FEBFFFF7FEBFFFF7FEBFFFF7FEBFFFF7FEBFFFF7FEBF32
:20370000FFF7FEBFFFF7FEBFFFF7FEBFFFF7FEBFFFF7FEBFFFF7FEBFFFF7FEBFFFF7FEBF11
:203720009D2B0008192C0008AB2C00082F2C0008EB2E00082B2D00086B2F0008F52F0008DB
:20374000AD3000081331000879310008FF31000885320008493300089D330008FD330008FB
:2037600000000000950100081D0200084B030008CF0200088B050008CB0300080B060008CE
:20378000C5060008C50700082B0800089108000821090008DD090008B90A0008510B000857
:2037A000F10B000800000000890D0008F90E0008910F0008010000000000000002000000AD
:1837C0008800002000000240000802400024F400001000000100000094
:00000001FF
