:020000040002F8
:1001000085050200910202008D0502008F050200A4
:10011000E9020200EB020200F3020200970502006E
:10012000990502009B05020040BA704740BA70472B
:10013000C0BA7047C0BA704710B5002401212046EC
:1001400000F04CFB0021204600F05AFB641CE4B296
:10015000052CF3D36F490878401CC0B20870052104
:1001600000F01EFA0846012100F04AFB00F09AFA5E
:10017000024664320021684800F066FB10BD10B5ED
:10018000644C6078401CC0B26070062801D3002027
:1001900060700121052000F021FB0121062000F004
:1001A0001DFB0121072000F019FB0121052000F0B3
:1001B00027FB0121062000F023FB0121072000F08E
:1001C0001FFB6078002803D10021052000F018FBF8
:1001D0006078022803D10021062000F011FB60782E
:1001E000042803D10021072000F00AFB00F05AFA8E
:1001F000024664320021494800F026FB10BD10B5CC
:1002000044488178002909D0C078002806D000F041
:1002100049FA024664320021404805E000F042FA03
:100220000246643200213E4800F00EFB10BD10B5BE
:10023000002000F051F9374904228A5E801A5028C4
:1002400001DD0120887010BD10B5002000F044F9D8
:1002500030498880012000F058F900F023FA024666
:10026000643200212F4800F0EFFA10BD10B50F20C6
:1002700000F0B3F833280AD1002000F046F900F06E
:1002800011FA024664320021274800F0DDFA10BD61
:1002900000B5204987B000208870C8701C2223490F
:1002A000684600F093F9684600F065F8022000F017
:1002B000D0F87D20000100F0BFF91DA000F0C2F9C8
:1002C00000F0CCF900F0EEF9024664320021144847
:1002D00000F0BAFA00F0E6F90246C83200210E48F2
:1002E00000F0B2FA07B000BD704710B500F0B6F9E3
:1002F00010BD10B510785A280AD106490120C870DF
:1003000000F0D0F90246643200210C4800F09CFA5B
:1003100010BD000000300020390102007F01020002
:10032000FF0102002F020200490202000809020038
:100330004A554D415F416363000000006D020200B9
:1003400010B58B4C8B4AA068032180008018016097
:1003500000F0F9F88848216801616168C160E168CE
:100360008160A1694162844A0021403251610121CA
:100370000160002010BD10B501461C227C4800F031
:1003800025F9FFF7DDFF002010BD70B515000E4602
:1003900004460DD079490020886000F0CDF8C020D7
:1003A00004437548C461552000F0DEF8012409E0DB
:1003B000022070BD552000F0D7F831192039641C97
:1003C000C877E4B2AC42F5D300F0C4F83119203953
:1003D000C87700F0B8F8002070BD10B50446674932
:1003E0000020886000F0A8F880200443BF2004406B
:1003F0006148C461552000F0B7F800F0ABF804463E
:1004000000F0A1F8204610BD70B50D4604465B49CA
:100410000020886000F090F860065749400EC861DF
:10042000284600F0A1F800F095F800F08CF80020C4
:1004300070BD704710B52020FFF7CFFF2320FFF7D6
:10044000CCFF10BD704710B52020FFF7C6FF000994
:1004500010BD10B504462020FFF7BFFF0007000FB6
:1004600021010143C9B22020FFF7CEFF002010BDBB
:1004700070470F20B1E710B504462020FFF7ADFF0D
:100480000146002C04D0012C04D0022C04D108E039
:10049000012000E0022001432020FFF7B5FF0020EB
:1004A00010BD0420F7E710B504462020FFF795FFA4
:1004B0000146002C04D0012C05D0022C07D104E009
:1004C0004108490003E0FD2000E0FB20014020201E
:1004D000FFF79AFF002010BD08B5002803D00128BF
:1004E00003D0022803D0282002E02A2000E02C209C
:1004F00002226946FFF749FF68464078000201B2D0
:10050000684600780843801108BD10B504462320D2
:10051000FFF763FFF9210140002C08D0012C02D025
:10052000022C04D101E0022000E006200143232038
:10053000FFF76AFF002010BD0D480121007A8140BD
:100540000F48C16070470A480121007A81400C4879
:1005500081607047094881680029FCD000218160D2
:1005600005488069C0B270470349C861F2E70000DE
:1005700008300020000700500045004000410040C6
:100580000005005005490860704770477047704784
:10059000704770477047704770477047243000209D
:1005A00030B50B46014600202022012409E00D460B
:1005B000D5409D4205D31D469540491B2546954093
:1005C00040191546521E002DF1DC30BD03460B4389
:1005D0009B0703D009E008C9121F08C0042AFAD2F9
:1005E00003E00B780370401C491C521EF9D270477F
:1005F000014B1B68DB6A1847243000200148006863
:10060000806D004724300020014A1268D26B1047E9
:100610002430002001480068806B0047243000200F
:1006200001490968096C084724300020014B1B6808
:10063000DB6D18472430002001490968896C0847A0
:100640002430002001490968496C08472430002003
:1006500001490968C96C0847243000200148006836
:10066000006D00472430002001480068406D0047BD
:100670002430002002490968803149680847000099
:1006800024300020024800688030C0680047000025
:1006900024300020024A126880329268104700001D
:1006A0002430002001480068806800472430002082
:1006B000024B1B6880331B68184700002430002061
:1006C000014B1B68DB6F184724300020014800688D
:1006D000406B0047243000200248006880304069A9
:1006E000004700002430002030B4034C24688034DC
:1006F000646BA44630BC60472430002030B4034C07
:1007000024688034A46AA44630BC604724300020AA
:100710007CB5069C0094079D034C019524688034A9
:10072000E46BA0477CBD00002430002038B5049C59
:100730000094034C24688034E469A04738BD00006D
:1007400024300020024B1B6880339B69184700004F
:100750002430002038B5049C0094034C2468803475
:10076000246AA04738BD00002430002030B4034C78
:1007700024688034A46BA44630BC60472430002039
:1007800030B4034C24688034E46AA44630BC60472B
:100790002430002038B5049C0094034C2468803435
:1007A000646AA04738BD00002430002030B4034CF8
:1007B000246880342469A44630BC6047243000207B
:1007C000024909688031096B084700002430002085
:1007D00001490968096A084724300020014A126863
:1007E000926910472430002001490968896A084746
:1007F00024300020014A1268526A10472430002039
:10080000014A1268D269104724300020014800686C
:10081000406F00472430002001480068006F004707
:100820002430002001490968896F084724300020DE
:10083000014A1268D26E104724300020014909682D
:10084000896E084724300020014B1B685B681847FD
:1008500024300020014A126812681047243000201A
:10086000014A1268126E104724300020014B1B68A9
:100870005B6E184724300020014A1268D268104786
:100880002430002001490968096908472430002004
:100890000148006840690047243000200149096888
:1008A000096B084724300020024909688031096C2F
:1008B0000847000024300020024909688031496C53
:1008C0000847000024300020024800688030806C17
:1008D0000047000024300020024800688030C06CCF
:1008E0000047000024300020024800688030006D7E
:1008F0000047000024300020024800688030406D2E
:1009000000470000243000200A0000000900000019
:100910000B0000000C0000000D0000000E000000A5
:10092000000000400000000000000000FFFFFFFF8B
:10093000FFFFFFFFFFFFFFFFFFFFFFFFFFFFFFFFC7
:0C094000FFFFFFFF00000040000000006F
:0400000500000000F7
:00000001FF
