:020000040800F2
:10000000E80A002035020008592F0008552800088A
:1000100041020008430200084502000800000000F9
:10002000000000000000000000000000470200087F
:10003000FD090008000000004B0200086D310008B7
:100040004F0200084F0200084F0200084F0200084C
:100050004F0200084F0200084F0200084F0200083C
:100060004F0200084F020008090A00084F0200086A
:100070004F0200084F0200084F0200084F0200081C
:100080004F0200084F0200084F0200080000000065
:100090000000000000000000000000004F02000807
:1000A0004F0200084F0200084F0200084F020008EC
:1000B0004F020008813200084F0200084F0200087A
:1000C0004F0200084F0200084F0200084F020008CC
:1000D0004F0200084F0200084F0200080000000015
:1000E0004F0200084F0200084F0200080000000005
:1000F0000000000000000000000000004F020008A7
:10010000000000004F0200084F0200084F020008E4
:1001100000000000000000000000000000000000DF
:100120004F0200084F0200084F0200084F0200086B
:100130004F02000800000000000000000000000066
:100140000000000000000000000000004F02000856
:100150004F0200084F0200084F0200084F0200083B
:100160004F0200084F0200080000000000000000DD
:10017000000000000000000000000000000000007F
:10018000000000004F020008000000000000000016
:100190004F02000800F002F800F03CF80AA090E8D6
:1001A000000C82448344AAF10107DA4501D100F032
:1001B00031F8AFF2090EBAE80F0013F0010F18BFC3
:1001C000FB1A43F001031847205A0000405A000070
:1001D000103A24BF78C878C1FAD8520724BF30C873
:1001E00030C144BF04680C60704700000023002445
:1001F00000250026103A28BF78C1FBD8520728BF37
:1002000030C148BF0B6070471FB505F012FC1FBD21
:1002100010B510BD00F032F91146FFF7F5FF04F0FC
:10022000D9FC00F050F903B4FFF7F2FF03BC00F073
:1002300053F900000948804709480047FEE7FEE7F8
:10024000FEE7FEE7FEE7FEE7FEE7FEE7FEE7FEE786
:1002500004480549054A064B704700001D32000856
:1002600095010008E8040020E80A0020E8060020C4
:10027000E806002010B5431C02E010F8011B71B124
:100280008107FAD14FF0013202C88C1A8C4314EA6C
:10029000C211F9D0C01A0A0603D0C01E10BDC01A80
:1002A00010BD0A0401D0801E10BD0902FCD0401E02
:1002B00010BD032A40F2308010F0030C00F01580CE
:1002C00011F8013BBCF1020F624498BF11F801CB59
:1002D00000F8013B38BF11F8013BA2F1040298BFBE
:1002E00000F801CB38BF00F8013B11F0030300F028
:1002F0006980083AC0F0088051F8043B083A51F888
:1003000004CBA0E80810F5E7121D5CBF51F8043BD0
:1003100040F8043BAFF30080D20724BF11F8013B43
:1003200011F801CB48BF11F8012B24BF00F8013BA5
:1003300000F801CB48BF00F8012B704701B5FFF76B
:10034000B8FF01BD01F0FF03114601B543EA0322E6
:1003500042EA024200F06AF801BD4FF0000200B527
:10036000134694469646203922BFA0E80C50A0E8D8
:100370000C50B1F12001BFF4F7AF090728BFA0E886
:100380000C5048BF0CC05DF804EB890028BF40F852
:10039000042B08BF704748BF20F8022B11F0804F94
:1003A00018BF00F8012B704770477047704710B5B1
:1003B00000F05CF8006810BD10B5044600F056F877
:1003C000046010BD10B5203AC0F00B80B1E81850A1
:1003D000203AA0E81850B1E81850A0E81850BFF42F
:1003E000F5AF5FEA027C24BFB1E81850A0E81850CE
:1003F00044BF18C918C0BDE810405FEA827C24BF22
:1004000051F8043B40F8043B08BF7047D20728BFAF
:1004100031F8023B48BF11F8012B28BF20F8023BFE
:1004200048BF00F8012B70474FF000020429C0F0CC
:10043000128010F0030C3FF492AFCCF1040CBCF12D
:10044000020F18BF00F8012BA8BF20F8022BA1EB68
:100450000C01FFF784BF5FEAC17C24BF00F8012BC9
:1004600000F8012B48BF00F8012B70470048704787
:100470008804002000487047880400207546FFF774
:10048000F9FFAE4605006946534620F00700854651
:1004900018B020B5FFF7DCFEBDE820404FF00006A5
:1004A0004FF000074FF000084FF0000B21F007015C
:1004B000AC46ACE8C009ACE8C009ACE8C009ACE89F
:1004C000C0098D46704710B50446AFF30080204642
:1004D000BDE81040FFF7A7BE01491820ABBEFEE7FC
:1004E000260002007047000010B59AB041A30FCB60
:1004F00016AC0FC443A090E80E00C06812AC0EC446
:10050000159044A30FCB0EAC0FC446A3D3E9012131
:100510001868DB68CDE90C13CDE90A0245A3D3E9DD
:1005200001021968DB6807AC0DC4069145480B232E
:10053000012216A90090022003F05CFF044604B1DA
:1005400055E0414801211022CDE90212CDE9041005
:1005500000200821142312AACDE9001002213948F5
:10056000008803F0D7FE044604B140E0374801217B
:1005700010220023CDE90232CDE904100421CDE997
:10058000001314230AAA02212E48008803F0C2FE99
:10059000044604B12BE02E48012110220023CDE9AE
:1005A0000232CDE904101221CDE9001314230EAA62
:1005B00002212448008803F0ADFE044604B116E091
:1005C0002448012110220023CDE90232CDE9002385
:1005D000CDE90410142306AA02211A48008803F06A
:1005E00099FE044604B102E000201AB010BD472075
:1005F000FBE700008CF997A6EE94E3BCF821B2600B
:10060000008000008CF997A6EE94E3BCF821B2605C
:10061000018000008CF997A6EE94E3BCF821B2604B
:10062000028000008CF997A6EE94E3BCF821B2603A
:10063000038000008CF997A6EE94E3BCF821B26029
:100640000480000040000020420000204400002000
:10065000460000204800002070B5044622460621CE
:10066000002003F0DAFF05460DB1672070BD00BF22
:10067000FCE7000010B50D480D4908604FF482708A
:10068000486000210A488160C160016141614FF406
:10069000007181610021016241620721C162002174
:1006A000C161816202F03CFB10BD000000300140DE
:1006B000F403002010B5044605480068406A08B9F4
:1006C000012010BD02480068416A20468847F8E7CB
:1006D000C800002010B5044605480068806A08B9C3
:1006E000012010BD02480068816A20468847F8E76B
:1006F000C80000200EB5002002901F480078002896
:1007000037D11E481E49086003208DF805000846B1
:100710000068006818B90020086001200EBD184864
:10072000006801686846884720B1002014490860C5
:100730000120F3E712480068806820B900201049C2
:1007400008600120EAE70E480068816802A888472F
:1007500020B100200A4908600120DFE79DF8080069
:10076000BC2806D1074806490968C8620120024929
:1007700008700020D2E70000CC00002068000020B4
:10078000C800002098000020014800787047000051
:10079000CC00002010B586B0044600BF6CB900BF85
:1007A0001348006840F004001149086008460068DA
:1007B00000F00400009000BF00BF00BF0D4830F8FB
:1007C00014000190012002900390022004900A4935
:1007D00051F8240001A900F041F9064A32F814103A
:1007E000054A52F82400002200F028FA06B010BD95
:1007F000303802403C5B0008B800002010B50446C9
:10080000044A32F81410044A52F82400002200F07E
:1008100015FA10BD3C5B0008B800002010B5044676
:10082000044A32F81410044A52F82400012200F05D
:1008300005FA10BD3C5B0008B800002010B510217F
:10084000034800F0F3F9012800D110BD0020FCE7B7
:100850000008024010B500220221074800F0EEF91E
:10086000052000F0DBF801220221034800F0E6F940
:10087000052000F0D3F810BD000402402DE9F0413E
:1008800088B080460F4616460025FF20079022A11B
:1008900003C9CDE9040100221021214800F0CEF95E
:1008A0000F20052302AA04A90090404601F0B6F8E3
:1008B0009DF8080002281BD19DF80B009DF80C1034
:1008C00040EA0124002C13DDB44200DD344600254B
:1008D0000CE00F20012306AA07A90090404601F072
:1008E0009DF89DF818007855681CC5B2A542F0DB4C
:1008F000012210210A4800F0A1F90020019003E034
:1009000000BF0198401C019001980228F8DB28469E
:1009100008B0BDE8F08100000B00000000000000FE
:10092000000002402DE9F047C6B0804689461646D1
:100930001C464E9D4FF0000A002726A103C9459191
:10094000449026A103C94391429000F058F81FB18A
:1009500004F0A0F904F0EDF900221021214800F084
:100960006DF90F20052342AA44A90090404601F0EA
:1009700055F80FB104F072F99DF8080102281CD156
:100980009DF809016119884214DB002C07DD0F2056
:10099000234602AA49460090404601F03FF8002D48
:1009A0000DDD0F202B4602AA31460090404601F093
:1009B00035F804E06FF0010A01E04FF0FF3A012240
:1009C0001021084800F03AF900F023F8504646B0EC
:1009D000BDE8F0870A00000000000000AA00000047
:1009E000000000000000024010200149086070472C
:1009F000143C014010B500F027F910BD704710B548
:100A00000A2000F0B7FB10BD10B5102000F018F858
:100A100010BD10B50A2000F0BBFB10BD31B500249D
:100A200000F012F9044600BF00F00EF9001B009917
:100A30008842F9D338BD10B5044601F0F1FA10BD73
:100A400010B5044604480068204020B10248046004
:100A50002046FFF7F0FF10BD143C0140F8B50346F7
:100A60000A460025002400200021CBE0012606FADA
:100A700001F5166806EA0504AC4271D15668022EEB
:100A800002D05668122E13D1CF0803F1200656F873
:100A900027004E07F70E0F26BE40B0434F07FF0E4C
:100AA0001669BE403043CF0803F1200646F8270000
:100AB00018684F000326BE40B043167906F00306BF
:100AC0004F00BE40304318605668012E08D056686B
:100AD000022E05D05668112E02D05668122E13D160
:100AE00098684F000326BE40B0434F00D668BE4012
:100AF00030439860586801268E40B0431679C6F39B
:100B000000168E4030435860D8684F000326BE4020
:100B1000B0434F009668BE403043D860566806F038
:100B20008056B6F1805F6CD100BF384E366846F40F
:100B30008046364F3E603E46366806F48046009654
:100B400000BF00BF324E8F0856F827008E07370FC0
:100B50000F26BE40B0432F4EB34202D1002615E00F
:100B60004FE02D4EB34201D101260FE02B4EB34290
:100B700001D102260AE02A4EB34201D1032605E044
:100B8000284EB34201D1042600E005268F073F0F0F
:100B9000BE4030431E4E8F0846F82700224E306874
:100BA000A043566806F48036B6F5803F00D1204356
:100BB0001D4E3060361D3068A043566806F400367E
:100BC000B6F5003F00D12043174E361D3060361D6C
:100BD0003068A043566806F48016B6F5801F00D131
:100BE0002043114E08363060361D3068A0435668E9
:100BF00006F40016B6F5001F00D120430A4E0C364D
:100C00003060491C1029FFF431AFF8BD4438024070
:100C10000838014000000240000402400008024081
:100C2000000C024000100240003C014002461369E3
:100C30000B400BB1012000E0002070470AB1816138
:100C400001E00B04836170470148006870470000B1
:100C5000E400002010B504460CB9012010BD0220AC
:100C600084F835002068006820F0010021680860E1
:100C7000204600F043FA0020A06384F8350000BF4E
:100C800084F8340000BF00BFE8E7014691F8350062
:100C90007047000070B50446002600250CB90120FD
:100CA00070BD94F8350028B9002084F8340020463F
:100CB00000F025FA022084F835002068006820F052
:100CC00001002168086000F037FC05463748B5FB95
:100CD000F0F62068466036496068884201D8701C8A
:100CE00007E04FF4967070434FF47A71B0FBF1F067
:100CF000401C216808622E49606888420ED86068EE
:100D00004000B5FBF0F0C0F30B00042801D2042032
:100D10002DE060684000B5FBF0F028E0A06828B93D
:100D2000606800EB4000B5FBF0F008E0606800EBA5
:100D3000C00101EB0010B5FBF0F040F48040C0F3BF
:100D40000B0008B9012012E0A06828B9606800EB28
:100D50004000B5FBF0F008E0606800EBC00101EB7B
:100D60000010B5FBF0F040F4804040F400402168F2
:100D7000C861D4E90701084321680860D4E9031079
:100D8000084321688860D4E9050108432168C860E8
:100D90002068006840F00100216808600020A0631E
:100DA000012084F8350000207AE7000040420F005F
:100DB000A08601002DE9F84F0446884691469A46E0
:100DC0000AADE0CD94F8350001287AD105B116B905
:100DD0000120BDE8F88F20688069C0F3400008B1A9
:100DE0000220F6E700BF94F83400012801D1022068
:100DF000EFE7012084F8340000BF422084F835007A
:100E00000020A06353464A4641462046009701F021
:100E1000E1FD80B1A06B042806D100BF002084F85A
:100E2000340000BF0120D4E700BF002084F8340064
:100E300000BF0320CDE7012E15D12068006820F403
:100E400080602168086000BF2068406900902068C9
:100E50008069009000BF00BF2068006840F4007007
:100E6000216808601FE0022E14D12068006820F479
:100E70008060216808602068006840F40060216894
:100E8000086000BF20684069009020688069009079
:100E900000BF08E000BF20684069009020688069BA
:100EA000009000BF00BF80E0032E64DC012E10D153
:100EB0003B4600224B49204601F06EFE10B1032054
:100EC00087E78DE02068006905F8010B701E86B287
:100ED0006BE0022E1CD13B46002242493C392046A1
:100EE00001F05AFE08B1032073E72068006840F45F
:100EF0000070216808602068006905F8010B701E09
:100F000086B22068006905F8010B701E86B24CE0BD
:100F10003B46002233493C39204601F03DFE08B1F2
:100F2000032056E72068006820F48060216808608C
:100F30002068006905F8010B701E86B23B4600224E
:100F400028493C39204601F027FE08B1032040E73C
:100F50002068006840F4007021680860206800691B
:100F600005F8010B701E86B22068006905F8010BB8
:100F7000701E86B219E03B4600221A49204601F055
:100F80000BFE08B1032024E72068006905F8010B77
:100F9000701E86B220684069C0F3800028B12068C6
:100FA000006905F8010B701E86B2002E3FF77CAF7A
:100FB0002068006820F40060216808603B46012238
:100FC0000949204601F0E8FD08B1032001E70120AE
:100FD00084F8350000BF002084F8340000BFF8E634
:100FE0000220F6E640000100020010002DE9F84F53
:100FF0000446884691469A460AADE0CD94F83500FD
:10100000012874D105B116B90120BDE8F88F206818
:101010008069C0F3400008B10220F6E700BF94F8F1
:101020003400012801D10220EFE7012084F83400C8
:1010300000BF322084F835000020A06353464A46A2
:1010400041462046009701F04FFD80B1A06B042877
:1010500006D100BF002084F8340000BF0120D4E78F
:1010600000BF002084F8340000BF0320CDE71AE061
:101070003B4600221F49204601F08EFD08B10320A7
:10108000C3E715F8010B21680861701E86B220685D
:101090004069C0F3800030B12EB115F8010B216812
:1010A0000861701E86B2002EE2DC3B460022114928
:1010B000204601F071FD08B10320A6E72068006812
:1010C00040F40070216808603B4601220A4920462E
:1010D00001F062FD08B1032097E7012084F8350094
:1010E00000BF002084F8340000BF8EE7FFE7022035
:1010F0008BE700008000010002001000704770477D
:1011000002480068401C014908607047E400002064
:1011100010B50D48006840F400700B49086008469F
:10112000006840F4806008600846006840F4807001
:101130000860032000F078F80F2000F007F800F0B6
:1011400017F8002010BD0000003C024070B50446B6
:1011500000F0D6F94FF47A71B0FBF1F5284600F0B3
:1011600006FE00222146501E00F01FF8002070BD30
:101170007047000000BF00F01F0201219140034AA8
:10118000430942F8231000BF7047000080E100E0EF
:1011900000BF00F01F02012191404209920002F1BC
:1011A000E022C2F8001100BF70472DE9F05F8046D1
:1011B0000D461646002701F0D1FE074639462A465D
:1011C000334601F00700C0F1070ABAF1040F02D953
:1011D0004FF0040A01E0C0F1070AD14600F1040A09
:1011E000BAF1070F02D24FF0000A01E0A0F1030AA2
:1011F000D4464FF0010A0AFA09FAAAF1010A0AEAEA
:10120000020A0AFA0CFA4FF0010B0BFA0CFBABF1D5
:10121000010B0BEA030B4AEA0B042146404601F09E
:10122000A5FEBDE8F09F000000BF00F00702064BDE
:1012300019684FF6FF031940044B0B4343EA0221A0
:10124000014B196000BF70470CED00E00000FA058B
:1012500070B504460E460025A748006800F00F0050
:10126000B0426FD2A4490E700846006800F00F002B
:10127000B04201D0012070BD207800F002000228A9
:1012800007D19E48006820F0F000A16808439B4900
:101290000860207800F0010000283ED06068012836
:1012A00007D1964808380068C0F34040B8B901201B
:1012B000E1E76068022802D06068032807D18F4800
:1012C00008380068C0F3406048B90120D3E78B4874
:1012D00008380068C0F3400008B90120CBE7874810
:1012E000006820F003006168084384490860FFF744
:1012F000ABFC05466068012810D108E0FFF7A4FCAC
:10130000401B41F28831884201D90320B3E77B4872
:10131000006800F00C000428F0D1CDE060680228DD
:1013200011D108E0FFF790FC401B41F28831884260
:1013300001D903209FE77148006800F00C000828DD
:10134000F0D1B9E024E06068032810D108E0FFF78D
:101350007BFC401B41F28831884201D903208AE797
:101360006648006800F00C000328F0D1A4E008E013
:10137000FFF76AFC401B41F28831884201D9032003
:1013800079E75E48006800F00C000028F0D193E097
:10139000207800F00200022807D15848006820F0A9
:1013A000F000A168084355490860207800F001006A
:1013B000002877D06068012807D1504808380068B5
:1013C000C0F34040B8B9012055E76068022802D058
:1013D0006068032807D1494808380068C0F34060B6
:1013E00048B9012047E7454808380068C0F3400085
:1013F00008B901203FE74148006820F00300616818
:1014000008433E490860FFF71FFC05466068012855
:1014100010D108E0FFF718FC401B41F288318842E8
:1014200001D9032027E73548006800F00C000428A4
:10143000F0D137E06068022810D108E0FFF704FC23
:10144000401B41F28831884201D9032013E72B4821
:10145000006800F00C000828F0D123E06068032841
:1014600010D108E0FFF7F0FB401B41F288318842C1
:1014700001D90320FFE62148006800F00C00032892
:10148000F0D10FE008E0FFF7DFFB401B41F28831AD
:10149000884201D90320EEE61848006800F00C00ED
:1014A0000028F0D114490E700846006800F00F00C3
:1014B000B04201D00120DEE6207800F004000428CC
:1014C00007D10E48006820F4E050E16808430B495A
:1014D0000860207800F00800082808D10748006854
:1014E00020F46040216940EAC100044908600F20EF
:1014F000FFF72CFE0020BEE6003C02400838024008
:1015000010B500F02FF80949096801F0F001F02248
:1015100092FAA2F2B2FA82F2D140054A515CC84076
:10152000044908600846006810BD00000838024001
:10153000415B0008D000002010B5FFF7E1FF07492C
:10154000096801F4E0514FF4E05292FAA2F2B2FAC3
:1015500082F2D140024A515CC84010BD08380240B6
:10156000415B000870B50021002200230020274CB9
:10157000246804F00C0424B1042C04D0082C41D1BC
:1015800003E0234840E023483EE0204C241F246829
:1015900004F03F011D4C241F246804F4800484B12E
:1015A0001C4CB4FBF1F5194C241F246847F6C07697
:1015B000344096FAA6F6B6FA86F6F44005FB04F235
:1015C0000FE0134CB4FBF1F5104C241F246847F6D0
:1015D000C076344096FAA6F6B6FA86F6F44005FBD5
:1015E00004F20A4C241F246804F440344FF44035BC
:1015F00095FAA5F5B5FA85F5EC40641C6300B2FBDD
:10160000F3F001E0024800BF00BF70BD083802409F
:101610000024F40000127A0038B504460025207832
:1016200000F00100002866D0F648006800F00C00C9
:1016300004280DD0F348006800F00C00082813D1EE
:10164000F048001F006800F48000B0F5800F0BD157
:10165000EC4808380068C0F3404000284BD0606870
:10166000002848D1012038BD0020E649891F0870B4
:10167000FFF7EAFA054608E0FFF7E6FA401B41F2F9
:101680008831884201D90320EDE7DE480838006838
:10169000C0F340400028EFD12079DA49891F087053
:1016A0006068A0B1FFF7D0FA054608E0FFF7CCFA72
:1016B000401B41F28831884201D90320D3E7D14849
:1016C00008380068C0F340400028EFD013E0FFF76F
:1016D000BBFA054608E0FFF7B7FA401B41F2883134
:1016E000884201D90320BEE7C64808380068C0F325
:1016F00040400028EFD1207800F00200022869D194
:10170000C048006800F00C0058B1BE48006800F006
:101710000C00082821D1BB48001F006800F480009D
:10172000D8B9B84808380068C0F3400020B1E06874
:10173000012801D0012096E7B2480838006820F05F
:10174000F800F82292FAA2F2B2FA82F221699140EC
:101750000843AC49083908603CE0E06828B3012040
:10176000A9490860FFF770FA054606E0FFF76CFA32
:10177000401B642801D9032075E7A2480838006897
:10178000C0F340000028F1D09E480838006820F0DF
:10179000F800F82292FAA2F2B2FA82F2216991409C
:1017A000084398490839086014E000209649086009
:1017B000FFF74AFA054606E0FFF746FA401B6428A1
:1017C00001D903204FE78F4808380068C0F3400074
:1017D0000028F1D1207800F0080008282CD1606999
:1017E000A8B1012089490860FFF72EFA054606E0F6
:1017F000FFF72AFA401B642801D9032033E7814808
:101800006C300068C0F340000028F1D014E00020E4
:101810007E490860FFF718FA054606E0FFF714FA5C
:10182000401B642801D903201DE776486C3000680E
:10183000C0F340000028F1D1207800F00400042813
:101840006DD100BF6F483830006840F080506D495E
:10185000383108600846006800F08050009000BFF2
:1018600000BF6B48006840F4807069490860FFF76A
:10187000EBF9054606E0FFF7E7F9401B642801D9BC
:101880000320F0E66248006800F480700028F2D07F
:1018900000205C4968310870FFF7D6F9054608E07A
:1018A000FFF7D2F9401B41F28831884201D9032069
:1018B000D9E6544868300068C0F340000028EFD1F2
:1018C000207A504968310870A068A0B1FFF7BCF9D0
:1018D000054608E0FFF7B8F9401B41F2883188421D
:1018E00001D90320BFE6474868300068C0F34000D4
:1018F0000028EFD013E0FFF7A7F9054608E0FFF74F
:10190000A3F9401B41F28831884201D90320AAE69D
:101910003C4868300068C0F340000028EFD1A0695F
:10192000F0B33848006800F00C00082872D0A069B5
:10193000022850D1002034490866FFF785F9054692
:1019400006E0FFF781F9401B642801D903208AE6ED
:101950002C4808380068C0F340600028F1D1D4E971
:101960000701084347F6C07292FAA2F2B2FA82F275
:10197000616A914008430122A16AC2EB51014FF410
:10198000403292FAA2F2B2FA82F2914008434FF04A
:10199000706292FAA2F2B2FA82F2E16A914000E039
:1019A0003AE008431749091F0860012016490866F4
:1019B000FFF74AF9054606E0FFF746F9401B6428A1
:1019C00001D903204FE60F4808380068C0F3406093
:1019D0000028F1D020E000200B490866FFF734F919
:1019E000054606E0FFF730F9401B642801D90320C3
:1019F00039E6044808380068C0F340600028F1D197
:101A00000AE007E00838024000004742800E4742E3
:101A100000700040012026E6002024E62DE9F84F62
:101A200004460E4617461D46DDF828904FF0000884
:101A3000C24694F85180B8F1010F02D0B8F1220FDC
:101A400076D10EB107B115B90120BDE8F88F00BFFE
:101A500094F85000012801D10220F6E7012084F813
:101A6000500000BF94F85100012802D1322084F8C0
:101A7000510000206065A763A587E5872663A586DA
:101A8000E586A064E064A06AB0F5005F0DD100BFF8
:101A90002068006820F40050216808602068006811
:101AA00040F400502168086000BF2068006800F022
:101AB0004000402805D02068006840F040002168C0
:101AC0000860E068B0F5006F75D1606830B160689B
:101AD000B0F5827F0CD1E08E012809D1206B0088FF
:101AE0002168C860206B801C2063E08E401EE08669
:101AF000E08EF0B9A06AB0F5005F05D120680068FB
:101B000040F48050216808604B46002201212046A5
:101B100001F0A2FA08B1032097E72068C068A16B22
:101B20000880A06B801CA063E08F401EE087C7E0A8
:101B30001BE131E04B4600220221204601F08CFAE5
:101B400008B1032081E7206B00882168C860206B02
:101B5000801C2063E08E401EE086E08E48B9A06ABB
:101B6000B0F5005F05D12068006840F4805021681E
:101B700008604B4600220121204601F06DFA08B1B1
:101B8000032062E72068C068A16B0880A06B801CFE
:101B9000A063E08F401EE087E08E0028CADC60680A
:101BA0000028C4D14B4600220121204601F054FAFE
:101BB00010B1032049E70AE02068C068A16B0880E3
:101BC000A06B801CA063E08F401EE08778E0606817
:101BD00030B16068B0F5827F0BD1E08E012808D16A
:101BE000216B481C206308782168C860E08E401E85
:101BF000E086E08ED0B9A06AB0F5005F05D120681C
:101C0000006840F48050216808604B4600220121A2
:101C1000204601F021FA08B1032016E72068C068C9
:101C2000A16B0870E08F401EE08749E030E04B4632
:101C300000220221204601F00FFA08B1032004E738
:101C4000216B481C206308782168C860E08E401E24
:101C5000E086E08E48B9A06AB0F5005F05D1206843
:101C6000006840F48050216808604B460022012142
:101C7000204601F0F1F908B10320E6E62068C068CB
:101C8000C1B2A26B501CA0631170E08F401EE087B0
:101C9000E08E0028CBDC606890B94B460022012121
:101CA000204601F0D9F908B10320CEE62068C068CB
:101CB000C1B2A26B501CA0631170E08F401EE08780
:101CC000A06AB0F5005F12D14B46002201212046E8
:101CD00001F0C2F928B1606D40F002006065032098
:101CE000B3E62068C06880B20090BDF800004B46A3
:101CF00001228021204601F0AFF928B1606D40F04B
:101D0000100060650320A0E6012084F851002068DF
:101D10008068C0F3001AA06AB0F5005F1FD1BAF165
:101D2000000F1CD0606D40F002006065A06AB0F545
:101D3000005F0DD100BF2068006820F400502168CA
:101D400008602068006840F400502168086000BF07
:101D500000BF002084F8500000BF012075E600BFDE
:101D6000002084F8500000BF6FE602206DE670B5D9
:101D700004462546681EB0F1807F01D301200FE0A4
:101D8000681E4FF0E02148610F214FF0FF3001F055
:101D9000EDF800204FF0E021886107200861002065
:101DA00070BD70477047704710B5044620680069E1
:101DB000C0F34000D8B12068C068C0F34000B0B1A3
:101DC0006FF0020021680861012020762068806998
:101DD00000F0030018B12046FFF7E5FF05E02046BC
:101DE00000F0ADF8204600F0ABF800202076206827
:101DF0000069C0F38000D8B12068C068C0F38000DB
:101E0000B0B16FF0040021680861022020762068DC
:101E1000806900F4407018B12046FFF7C4FF05E068
:101E2000204600F08CF8204600F08AF8002020764A
:101E300020680069C0F3C000D8B12068C068C0F352
:101E4000C000B0B16FF0080021680861042020765E
:101E50002068C06900F0030018B12046FFF7A3FF17
:101E600005E0204600F06BF8204600F069F80020FD
:101E7000207620680069C0F30010D8B12068C068DF
:101E8000C0F30010B0B16FF01000216808610820A5
:101E900020762068C06900F4407018B12046FFF732
:101EA00082FF05E0204600F04AF8204600F048F89E
:101EB000002020762068006900F0010058B12068F9
:101EC000C06800F0010030B16FF0010021680861C6
:101ED000204600F036F820680069C0F3C01058B101
:101EE0002068C068C0F3C01030B16FF08000216876
:101EF00008612046FFF755FF20680069C0F3801095
:101F000058B12068C068C0F3801030B16FF0400055
:101F100021680861204600F015F820680069C0F3C8
:101F2000401058B12068C068C0F3401030B16FF065
:101F30002000216808612046FFF734FF10BD70477C
:101F400070477047704700002DE9F0410546A846EC
:101F500008F1010698F80000042801D0BDE8F081DE
:101F60003078052804D03E2809D0FF2835D114E068
:101F700000201B490880707902F090FB2DE0B41C12
:101F80002078012807D102F086FB671CB7F8010012
:101F900002F096FC00BF00BF1FE0B71C3888A0F617
:101FA000014010B1132816D110E0BC1C207A002883
:101FB00006DD217AE07904F1090202F075FB04E004
:101FC000E079012801D10649088004E0BC1C608842
:101FD00000F0F4FF00BF00BF00BF00BF00BFBDE7BF
:101FE0003E00002010B50B4802F0C6FD0A4802F082
:101FF000C3FD00240BE0C4EBC40000EB8000074AE3
:1020000002EB8001034802F0C1FD601CC4B2052C44
:10201000F1DB10BD2000002028000020240100205A
:1020200038B500200090FEF7DFFC2EE01A4802F0E1
:10203000B4FD10BB6946184802F0B7FD8022009934
:1020400008311648FEF71AFCC4B2002C10DD0098C7
:1020500080F88840009800F071F820B91048009985
:1020600002F094FD0FE00C48009902F088FD0AE0B0
:102070000948009902F083FD05E001200949087034
:10208000FEF7B2FC38BDFEF7AFFCFEF7D7FB002829
:10209000CCD100BFF6E7000020000020F4030020B0
:1020A000280000203000002030B5A1B000200090B2
:1020B000FEF7A5FC194802F070FD054613E06946DD
:1020C000164802F072FDFEF7A4FC00980830FFF7F6
:1020D0003BFFFEF794FC1248009902F057FD0F48B1
:1020E00002F05BFD0546002DE9D00E48007888B16E
:1020F0000AE0802201A90C48FEF7C0FBC4B2002C04
:1021000002DD01A8FFF720FFFEF798FB0028F0D1C1
:1021100004490870FEF77DFC21B030BD2800002086
:102120002000002030000020F403002010B50248F9
:1021300002F033FD10BD000028000020014601F12F
:1021400008021078042801D001207047937891F894
:102150008800C01E834201D00220F6E70020F4E789
:10216000FEB50020009001233222BE21684600F017
:1021700070FA08B10120FEBD9DF800400123352210
:10218000BE21684600F065FA08B10120F3E79DF82A
:10219000000000F0030744EA072000EE100AB8EE42
:1021A000C00AF2EE000A80EE201A4F4880ED001AB5
:1021B00001233322BE21684600F04BFA08B101200A
:1021C000D9E79DF8005001233522BE21684600F072
:1021D00040FA08B10120CEE79DF8000000F00C069F
:1021E000B61045EA062000EE100AB8EEC00AF2EE7C
:1021F000000A80EE201A3D4880ED001A0223BC221E
:10220000BE21684600F025FA08B10120B3E79DF829
:1022100000009DF8011000EB012000B23449088055
:102220000223BE221146684600F013FA08B10120CD
:10223000A1E79DF800009DF8011000EB012000B21D
:102240002C49088001233022BE2102A800F001FAA7
:1022500008B101208FE701233122BE2101A800F03F
:10226000F8F908B1012086E70223B622BE216846AC
:1022700000F0EFF908B101207DE79DF800009DF81E
:10228000011000EB012000B21B4908800223BA2292
:10229000BE21684600F0DDF908B101206BE79DF82A
:1022A00000009DF8011000EB012000B213490880E6
:1022B0009DF8080000EE100AB8EE400AF0EE000AA1
:1022C00080EE201A0E4880ED001A9DF8040000EE02
:1022D000100AB8EE400AF0EE000A80EE201A094813
:1022E00080ED001A002046E7A0000020A400002096
:1022F000A8000020AA000020B4000020B6000020A2
:10230000AC000020B000002070B52DED088B82B02D
:10231000044600200190009001232022BE2168463F
:1023200000F097F920B1012002B0BDEC088B70BD20
:102330009DF8000000F0030000909DF8000048BBED
:1023400001232122BE21684600F083F908B1012053
:10235000EAE79DF8000020F0010000909DF80000E1
:1023600040F00100009001232122BE21684600F0C8
:102370007EF908B10120D7E700BF01232722BE2143
:10238000684600F066F908B10120CDE79DF800002D
:102390000028F2D00223A822BE2101A800F059F99A
:1023A00008B10120C0E79DF804009DF8051000EB7E
:1023B000012006B23948B0F90000301A00EE100AC8
:1023C000B8EEC00A3648D0ED000A364890ED001A43
:1023D00070EEC10A60EE200A3348B0F900002F49C0
:1023E000B1F90010401A00EE100AB8EEC01A80EEE3
:1023F000810A2C48D0ED000A30EE208A9FED2B1B7D
:102400009FED2C0B00F080FFB0EE40AAF0EE60AA2A
:1024100018EE100A03F09CFA41EC1B0B53EC1A2B3C
:1024200002F0A0FF41EC190B02F01CFF05B29FED7A
:102430001F1B9FED200B00F067FFB0EE40AAF0EEEF
:1024400060AA00EE105AB8EEC00A10EE100A03F0AF
:102450007FFA41EC1B0B53EC1A2B02F07BFD41EC95
:10246000190B02F089FC206094ED000AB5EEC00A59
:10247000F1EE10FA03D29FED110A84ED000A94EDFB
:10248000000ADFED0F0AB4EEE00AF1EE10FA03DD08
:102490009FED0B0A84ED000A002045E7B400002000
:1024A000B0000020AC000020B600002000000000BA
:1024B0000000004000000000000024400000000078
:1024C0000000C84270B52DED088B82B00546002093
:1024D0000190009001232022BE21684600F0B9F847
:1024E00020B1012002B0BDEC088B70BD9DF800004A
:1024F00000F0030000909DF8000048BB012321225A
:10250000BE21684600F0A5F808B10120EAE79DF871
:10251000000020F0010000909DF8000040F0010054
:10252000009001232122BE21684600F0A0F808B1E6
:102530000120D7E700BF01232722BE21684600F013
:1025400088F808B10120CDE79DF800000028F2D0FE
:102550000223AA22BE2101A800F07BF808B10120C5
:10256000C0E79DF804009DF8051000EB012006B2BD
:102570002D48B0F90000301A00EE100AB8EEC01A6B
:102580002A48B0F900002849B1F90010401A00EEBD
:10259000100AB8EEC00AC1EE000A254890ED000A04
:1025A000244890ED001A30EE411A90ED000AB0EE8A
:1025B000408A00EE818A9FED201B9FED210B00F0E9
:1025C000A3FEB0EE40AAF0EE60AA18EE100A03F0E7
:1025D000BFF941EC1B0B53EC1A2B02F0C3FE41EC8C
:1025E000190B02F00FFE04B29FED131B9FED140BAD
:1025F00000F08AFEB0EE40AAF0EE60AA00EE104AAB
:10260000B8EEC00A10EE100A03F0A2F941EC1B0B61
:1026100053EC1A2B02F09EFC41EC190B02F0ACFBC0
:10262000286000205EE70000A8000020AA0000202B
:10263000A4000020A00000200000000000000040D6
:102640000000000000002440704710B500F0AAF818
:1026500010BD2DE9F04104460D4616461F463B4687
:1026600032462946204600F0A5F8BDE8F0812DE964
:10267000F04104460D4616461F463B463246294663
:10268000204600F0ABF8BDE8F08138B504460020E4
:102690000090FFF7DAFF08B1012038BD00F042F8E2
:1026A00008B10120F9E7FFF75BFD08B10120F4E76D
:1026B00001232022BE216846FFF7CBFF08B101208D
:1026C000EBE79DF8000020F00300009060799DF892
:1026D00000100843009001232022BE216846FFF726
:1026E000C6FF08B10120D8E7FFF7AEFF0020D4E70E
:1026F00008B501232022BE216846FFF7AAFF08B1D2
:10270000012008BD9DF8000020F08000009001230A
:102710002022BE216846FFF7AAFF08B10120F0E79A
:102720000020EEE708B501232022BE216846FFF70E
:1027300090FF08B1012008BD9DF8000040F0800026
:10274000009001232022BE216846FFF790FF08B1C8
:102750000120F0E70020EEE710B504460CB9012097
:1027600010BD01230F22BE212046FFF772FFF7E7BD
:1027700008B501232122BE216846FFF76AFF08B190
:10278000012008BD9DF8000040F08000009001236A
:102790002122BE216846FFF76AFF08B10120F0E759
:1027A0000020EEE710B500F065F808B1012010BD7B
:1027B0000020FCE72DE9F04104460D4616461F4671
:1027C0004FF000083B4632462946204600F0C6F846
:1027D00008B14FF001084046BDE8F0812DE9F04115
:1027E00004460D4616461F464FF000083B4632464B
:1027F0002946204600F0D0F808B14FF001084046C5
:10280000BDE8F0812DE9FE4304460D4616461F46FD
:102810000E4800680A21B0FBF1F8414601A800F01B
:1028200045FD0EE0F8B2F3B22A4621460090084872
:10283000FEF778F800B905E001A800F029FD00B125
:1028400000E0EFE700BFBDE8FE830000385B000852
:10285000F403002000BFFEE710B504460448FEF76D
:10286000F9F90120FEF7DAF800F004F810BD0000D5
:102870004C04002010B500240C48FEF706FA98B965
:102880000B480A4948600021084881603321C16033
:102890004FF48041016107480449086000F00CF8DA
:1028A0000248FEF7F7F90446204610BD4C0400200C
:1028B000801A06000054004000B587B000BF2548CC
:1028C000006840F00200234908600846006800F0F4
:1028D0000200019000BF00BFC020029012200390B0
:1028E00002200590002004900420069002A91A48B6
:1028F000FEF7B4F800BF17481030006840F400102D
:102900001449103108600846006800F40010019076
:1029100000BF00BF0F481038006840F400100D4998
:10292000103908600846006820F400100860002292
:1029300011461F20FEF739FC1F20FEF729FC00225C
:1029400011462020FEF731FC2020FEF721FC07B0C5
:1029500000BD000030380240000402402DE9FE4373
:1029600004460D4690461E4600270948006801238C
:1029700042462946CDE9004602900648FEF71AFA7B
:10298000074617B12846FFF767FF3846BDE8FE83C4
:10299000C40000204C0400202DE9FE4304460D46EF
:1029A00090461E46002709480068012342462946F2
:1029B000CDE9004602900648FEF718FB074617B11E
:1029C0002846FFF749FF3846BDE8FE83C4000020D3
:1029D0004C0400202DE9F84304460E4615461F46D8
:1029E000DDF820802068006840F48060216808607D
:1029F0002068006840F48070216808604346002227
:102A00004FF00111204600F0C7F810B10320BDE8D7
:102A1000F88306F0FE0021680861424631492046ED
:102A200000F029F930B1A06B042801D10120EEE7B4
:102A30000320ECE700BF20684069009020688069AF
:102A4000009000BF00BF4346002226497E31204649
:102A500000F0A2F808B10320D9E7012F03D1E8B2B2
:102A60002168086110E0C5F307202168086143462A
:102A700000221C497E31204600F08EF808B1032068
:102A8000C5E7E8B2216808614346002215497E3156
:102A9000204600F081F808B10320B8E720680068FC
:102AA00040F4807021680860434600224FF0011115
:102AB000204600F071F808B10320A8E7F0B240F01A
:102AC00001002168086142460649204600F0D3F81B
:102AD00030B1A06B042801D1012098E7032096E7CC
:102AE000002094E7020001002DE9F84304460E4659
:102AF00015461F46DDF820802068006840F480708D
:102B000021680860434600224FF00111204600F082
:102B100043F810B10320BDE8F88306F0FE002168F9
:102B2000086142461B49204600F0A5F830B1A06B71
:102B3000042801D10120EEE70320ECE700BF206864
:102B40004069009020688069009000BF00BF434644
:102B5000002210497E31204600F01EF808B1032003
:102B6000D9E7012F03D1E8B22168086110E0C5F36D
:102B70000720216808614346002206497E3120462D
:102B800000F00AF808B10320C5E7E8B2216808613F
:102B90000020C0E7020001002DE9F04105460C4687
:102BA00017461E464FF00008FEF74EF8804687BBDA
:102BB00013E0701C88B12EB1FEF746F8A0EB0800B8
:102BC000B0420AD9012085F8350000BF002085F801
:102BD000340000BF0320BDE8F081C4F307400128A2
:102BE0000AD128684069A1B20840A1B2884201D147
:102BF00001200BE0002009E028688069A1B20840AC
:102C0000A1B2884201D1012000E000200028D0D0EC
:102C10002FE0FFE712E0701C80B12EB1FEF714F830
:102C2000A0EB0800B04209D9012085F8350000BFAB
:102C3000002085F8340000BF0320CCE7C4F3074030
:102C400001280AD128684069A1B20840A1B288428F
:102C500001D101200BE0002009E028688069A1B2C1
:102C60000840A1B2884201D1012000E000200028E4
:102C7000D1D10020AFE72DE9F04104460D461646BC
:102C80000027FDF7E1FF07462DE020684069C0F30B
:102C90008020B0B12068006840F4007021680860AE
:102CA0006FF48060216848610420A063012084F8EB
:102CB000350000BF002084F8340000BF0120BDE8CB
:102CC000F081701C78B126B1FDF7BEFFC01BB04289
:102CD00009D9012084F8350000BF002084F83400B1
:102CE00000BF0320EBE7C5F3074001280AD12068A5
:102CF0004069A9B20840A9B2884201D101200BE085
:102D0000002009E020688069A9B20840A9B2884281
:102D100001D1012000E000200028B6D00020CEE73D
:102D200010B504460CB9012010BD94F8510028B923
:102D3000002084F85000204600F036F8022084F885
:102D400051002068006820F0400021680860D4E944
:102D500001010843E16808432169084361690843A8
:102D6000218B01F400710843E1690843216A08439B
:102D7000A16A0843216808600421A06901EA1040A3
:102D8000616A0843216848602168E06A0861206838
:102D9000C06920F400602168C861002060650120DE
:102DA00084F851000020BFE710B586B0044664499E
:102DB000206888427ED100BF6248006840F002006F
:102DC000604908600846006800F00200009000BFFB
:102DD00000BF00BF0846006840F0010008600846D8
:102DE000006800F00100009000BF00BF00BF08466F
:102DF000006840F0010008600846006800F001002B
:102E0000009000BF00BF00BF0846006840F001000E
:102E100008600846006800F00100009000BF00BF95
:102E200000BF0846006840F00100086008460068DE
:102E300000F00100009000BF00BF00BF084600681E
:102E400040F0040008600846006800F004000090AC
:102E500000BF00BF00BF3B481430006840F4805002
:102E60003849143108600846006800F4805000902A
:102E700000BF00BF022001900120029003900020BB
:102E80000490059001A93048FDF7E8FD00220221D9
:102E90002D48FDF7D3FE20200190022002900390E0
:102EA000032004900520059001A92848FDF7D6FDD0
:102EB000402000E042E001900220029000200390B8
:102EC000032004900520059001A92048FDF7C6FDC8
:102ED00080200190022002900020039003200490A3
:102EE0000520059001A91948FDF7B8FD10200190B3
:102EF000012002900390032004900020059001A976
:102F00001248FDF7ABFD012210211048FDF796FE97
:102F1000102001900E48029000200390032004909E
:102F20000020059001A90B48FDF798FD0022032120
:102F30000A20FEF73AF90A20FEF72AF906B010BD7A
:102F400000300140303802400004024000000240DE
:102F5000000011100008024070470000024800689D
:102F6000C0F30220704700000CED00E010B500280F
:102F700007DA0A07140E054A00F00F031B1FD4548A
:102F800003E00A07130E024A135410BD18ED00E0C7
:102F900000E400E070B504460D4616463246294668
:102FA0002046FDF7CBF970BD70B504460D461646B8
:102FB000324629462046FDF7C5F970BD10B50446D6
:102FC0000348008818B10248008801F063FA10BD78
:102FD0003C00002038B50020009000241B48FDF77D
:102FE00069FB1A4890ED000ADFED190A20EE200A6D
:102FF000BCEEC00A10EE100A84B220128DF8000058
:10300000E0B28DF801006946012001F0A0FE1148F0
:10301000FDF760FB0F4890ED000ADFED0D0A20EE92
:10302000200ABCEEC00A10EE100A84B220128DF8FD
:103030000000E0B28DF801006946002001F087FE33
:103040004FF47A70FDF7EAFC38BD00001400002050
:103050000000C842180000202DE9F04104460E4649
:1030600017461D464FF00008FDF7EEFD8046002F85
:103070003ED132E0681C78B32DB1FDF7E5FDA0EB41
:103080000800A84229D92068406820F0E0002168A3
:1030900048602068006820F0400021680860A06A4D
:1030A000B0F5005F0DD100BF2068006820F400502B
:1030B000216808602068006840F4005021680860BA
:1030C00000BF012084F8510000BF002084F85000A8
:1030D00000BF0320BDE8F081FFE720688068304032
:1030E000B04201D1012000E000200028C2D03BE026
:1030F00030E0681C70B32DB1FDF7A6FDA0EB080011
:10310000A84227D92068406820F0E0002168486084
:103110002068006820F0400021680860A06AB0F5CF
:10312000005F0DD100BF2068006820F400502168C6
:1031300008602068006840F400502168086000BF03
:10314000012084F8510000BF002084F8500000BF27
:103150000320BFE7206880683040B04201D10120E1
:1031600000E000200028C4D10020B3E710B5FDF72F
:10317000C7FF03480068401C0149086010BD0000FB
:103180001C00002000B593B000BF2248006840F04A
:103190008050204908600846006800F08050019087
:1031A00000BF00BF00BF1C48006820F4404040F44E
:1031B0000040194908600846006800F4404001904A
:1031C00000BF00BF02200290012005901020069051
:1031D000022008900021099110210A914FF4A87152
:1031E0000B9104210C9107210D9102A8FEF714FA0E
:1031F0000F200E9002200F90002010904FF480506E
:1032000011900020129002210EA8FEF721F813B0B1
:1032100000BD0000403802400070004014480068C3
:1032200040F47000124908601248006840F0010044
:103230001049086000200F49083108600D480068F7
:103240000D4908400B4908600C48091D0860081F1B
:10325000006820F48020091F0860002005490C3117
:1032600008604FF000600249803908607047000034
:1032700088ED00E000380240FFFFF6FE1030002429
:1032800010B50248FEF790FD10BD0000E8000020D8
:1032900070B50446FDF7AEFB2168401A451C606816
:1032A000A84201D2012070BD0020FCE770B50446A1
:1032B0000D466560FDF79EFB206070BD10B50548AA
:1032C000007820B101F062FA002002490870FFF78F
:1032D00081FE10BD3A00002003B40198410000981F
:1032E00050EAC12018BF04204A0D18BF40F0010069
:1032F00040F2FF72B2EB515F08BF40F002000128BC
:1033000008BF052002B070472DE9F04D2DED040BEC
:103310002DED0E8B96B0DDE92550279CDDF890A0B1
:1033200025F0004624F00048BAF1000F14BF012137
:10333000002101EB4502FC4953184A1093422AD35D
:10334000002814BF0123002303EB44030B44F74977
:103350008B4220D358EA00019FEDF59B76D0DFF831
:10336000D8B35D4503D1BAF1000F05D188E0BAF1B9
:10337000000F08BF002100D0012101EB450111F52C
:10338000001F08D8002814BF0121002101EB4401CF
:1033900011F5001F0BD99DED261B9DED240B16B0DA
:1033A000BDEC0E8B04B0BDE8F04D00F069BE002707
:1033B000002DBCBFE149884521DAE1498845A8BF15
:1033C00002271CDAC3451ADCDE4901EB2851142917
:1033D00008DDC1F1340220FA02F101FA02F2824260
:1033E0000DD108E058B9C1F1140228FA02F101FA2E
:1033F00002F2424503D101F00101C1F1020756EA90
:103400000A0124D1002C22DA002D18BF022F01D08E
:10341000012F0AD00220FCF7CFFF16B0BDEC0E8BB7
:1034200004B0BDE8F04D00F013BE0220FCF7C4FF6D
:1034300000F00EFE51EC100B01F092FC41EC100B71
:1034400016B0BDEC0E8B04B0BDE8F08D18E09FED1A
:10345000BEAB9FEDBF8B002871D1B848804522D10B
:1034600005F1804010F5801008BFBAF1000F07D0B9
:10347000B3450ADC002CA8BF9DED260BE0DA0DE079
:10348000B0EE490AF0EE690ADAE7002C06DA9DEDA3
:10349000260B51EC100B01F063FC6FE0AE48784452
:1034A00090ED000BCCE7D8454DD1002C48DA2EB179
:1034B00086423AD1BAF1000F42D126E0BAF1000FAC
:1034C00013D00220FCF778FF00F0F6FD8DED020B23
:1034D0009DED240B8DED000B10EE900A039961F326
:1034E0001E0003909DED020BAAE78DED02AB9DED52
:1034F000240B1AEE901A10EE900A8DED000B61F37A
:103500001E0003909DED020B9AE78DED028B9DED61
:10351000240B18EE901A10EE900A8DED000B61F35B
:103520001E0003909DED020B8AE709DA9DED240B46
:1035300051EC190B53EC102B01F00CFD1EE020E0B8
:103540009DED240B7CE786421BDAB4F1804F0DD051
:10355000A4F10050B0F1FF5013D1002D11DB9DED0F
:10356000240B51EC100B01F0ADFB07E09DED240B9B
:1035700053EC102B51EC100B00F0C2BC41EC100BC3
:103580005EE79DED240B51EC100B01F09FF9BAF1B1
:10359000000FCDE90E0142D19FED710B46B3A6F1AC
:1035A000E040B0F17F600CD05E4538D1002D00DAEC
:1035B000A7B3022F0CBF01204FF0FF3001F07FFEB8
:1035C000DCE7002D01DD002C0DDA002D01DD002CE3
:1035D0001FDB002D16DA002C14DB012F08BF9FED36
:1035E000620B3FF42DAFB0EE4A0AF0EE6A0A27E70D
:1035F000022F18BF002D0CD0012F0AD1002DFFF68D
:103600001FAF06E0002DB8BF002C08DA012F3FF4F1
:1036100017AFB0EE480AF0EE680A11E71BE0012090
:1036200000EBE57050EA070115D0791EB0EE498A2B
:10363000F0EE698A084308BF9FED4D8B4E48002588
:10364000804570DD4D494E48884514DDB0420DDBA4
:10365000002C19DB2FE00120FCF7AEFE16B0BDEC0C
:103660000E8B04B0BDE8F04D00F016BDB34502DC92
:10367000002C09DC1FE0864202DA002C1BDA03E092
:103680005E452BDD002C16DD0220FCF795FE00F0D8
:1036900013FD8DED020B53EC1A2B51EC180B01F0BE
:1036A00061FECDE900010399019861F31E000390CA
:1036B0009DED020BC4E60220FCF77EFE00F00CFD3F
:1036C00010EE901A18EE900A8DED020B8DED008B26
:1036D00061F31E0003909DED020BB1E69DED0E0B14
:1036E00053EC192B51EC100B02F048F89FED260B10
:1036F000CDE9080153EC102B9DED080B51EC100B9C
:1037000001F030FE9FED221B53EC112B01F05EFF08
:103710009DED081B53EC112B01F024FE9FED1E1BA9
:1037200053EC112B3CE08CE0FFFF1F00FFFF0F006C
:10373000000000000000F03F0000F03F0000F07FBC
:103740000000404301FCFFFF000000000000F07F8C
:1037500000000000000000003E2700000000000004
:103760000000000000000080000000000000F0FFEA
:10377000000000000000F0BF0000E0410000F04346
:10378000FFFFEF3F00000000000000000000D03FFE
:10379000555555555555D53F000000000000E03FF8
:1037A00001F014FF9DED080B41EC1A0B53EC102BAC
:1037B00051EC100B01F0D6FD53EC1A2B01F0D2FDA9
:1037C00041EC1A0B9FEDFE0B53EC102B9DED080BFB
:1037D00051EC100B01F0C6FD41EC1B0B9FEDFA0BF9
:1037E00051EC1A0B53EC102B01F0BCFD41EC1A0B01
:1037F0009FEDF70B53EC102B9DED080B51EC100BCC
:1038000001F0B0FD53EC1A2B01F0B8FF41EC1A0B9C
:1038100051EC1B0B53EC1A2B01F0E0FA0690CDE9AA
:1038200006519DED060B53EC1B2B51EC100B01F0D8
:10383000A5FF53EC1A2B01F0C9FE41EC100B00F070
:10384000A1B90020B6F5801F0EDA9FEDE30B53EC13
:10385000102B9DED0E0B51EC100B01F083FDCDE90B
:103860000E016FF034000E4600EB2650A0F2FF3739
:10387000C6F31300DA4940F07F6646F040568842AE
:10388000D8BF002408DDD7498142C8BF012403DC2A
:103890000024A6F580167F1CD348784400EBC400B2
:1038A0000F9690ED00CB9DED0E0B53EC1C2B51ECC5
:1038B000100B01F063FF9DED0E0B41EC1B0B53EC65
:1038C0001C2B51EC100B01F089FA41EC100B51EC60
:1038D000190B53EC102B01F03DFB41EC1D0B51EC8F
:1038E0001B0B53EC1D2B01F03DFD41EC1A0BBF48A7
:1038F0008DED10AB7844109590ED000B4FF000501B
:1039000040EA660000EB84408DED080B00F50020D6
:1039100009909DED080B53EC1C2B51EC100B01F0A2
:103920002DFF9DED0E1B53EC112B01F04FFE41ECD2
:10393000100B53EC102B9DED100B51EC100B01F004
:1039400011FD9DED080B41EC1C0B53EC102B9DED74
:10395000100B51EC100B01F005FD53EC1B2B01F08B
:1039600035FE53EC1C2B01F009FF53EC1D2B01F02D
:10397000F9FC41EC1C0B53EC1A2B51EC1A0B01F027
:10398000F1FC41EC1B0B9A480621B0EE4B0AF0EE1D
:103990006B0A784400F0E0FAB0EE401AF0EE601ADC
:1039A000B0EE41DAF0EE61DA53EC1B2B51EC1B0B5D
:1039B00001F0D8FC53EC1D2B01F0D4FC9DED100B55
:1039C00041EC1B0B53EC1A2B51EC100B01F006FAD7
:1039D00053EC1C2B01F0C6FC53EC1B2B01F0FEF941
:1039E0009DED100B41EC1B0B53EC102B51EC100B0D
:1039F00001F0B8FC41EC1D0B9FED7FEB53EC1E2B4F
:103A000001F0ECF953EC1B2B01F0E8F90890CDE93B
:103A100008519DED080B53EC1E2B51EC100B01F0DF
:103A2000ADFE53EC1D2B01F0A9FE53EC1B2B01F056
:103A3000CDFD9DED080B41EC1D0B53EC102B9DEDC6
:103A4000100B51EC100B01F08DFC41EC1B0B53ECF7
:103A50001A2B51EC1D0B01F085FC9DED080B41EC80
:103A60001A0B53EC102B51EC1C0B01F07BFC53ECAC
:103A70001A2B01F0B3F941EC1A0B51EC1B0B53EC70
:103A80001A2B01F0ABF90C90CDE90C519DED0C0B0C
:103A900053EC1B2B51EC100B01F070FE53EC1A2B66
:103AA00001F094FD41EC1B0B9FED550B53EC102BDB
:103AB0009DED0C0B51EC100B01F054FC41EC1A0B7A
:103AC0009FED510B51EC1B0B53EC102B01F04AFCFA
:103AD00041EC1B0B9FED4E0B53EC102B9DED0C0B93
:103AE00051EC100B01F03EFC53EC1B2B01F076F96E
:103AF00041EC100B4848784400EBC40090ED001BEB
:103B000051EC100B53EC112B01F068F941EC1B0B3D
:103B1000384601F0D4FBCDE9080153EC1B2B51ECE6
:103B20001A0B01F05BF941EC100B3C48784400EBB8
:103B3000C40090ED00CB51EC100B53EC1C2B01F0AA
:103B40004DF99DED081B53EC112B01F047F9069040
:103B5000CDE906519DED080B53EC102B9DED060BA6
:103B600051EC100B01F00AFE53EC1C2B01F006FE89
:103B700053EC1A2B01F002FE53EC1B2B01F026FD37
:103B800041EC100B9DED261B53EC102B8DED001B13
:103B900000959DED260B51EC100B01F0E3FB9DED24
:103BA000000B41EC1A0B53EC102B9DED260B51EC46
:103BB000100B01F0E3FD9DED061B53EC112B2FE0E4
:103BC000000000604715F73FFE822B654715F73F61
:103BD00044DF5DF80BAE543E00000000000040439F
:103BE0008E9803007AB60B00BA220000E82200008B
:103BF000F22100000000000000000000000008406A
:103C0000000000E009C7EE3FFD033ADC09C7EE3FC4
:103C1000F5015B14E02F3EBE7E200000382000003E
:103C200001F0A0FB53EC1A2B01F0D8F89DED060B28
:103C300041EC1A0B53EC102B9DED000B51EC100BCB
:103C400001F090FBCDE90C019DED0C0B51EC1A0B32
:103C500053EC102B01F0C2F8CDE902010C46AA4941
:103C60008C422FDB611A084318D19DED0C0B53ECED
:103C7000102B9DED020B51EC100B01F07FFD41EC80
:103C80001B0B9FEDA30B51EC1A0B53EC102B01F007
:103C9000A5F853EC1B2B01F063FC2DD20220FCF79E
:103CA0008BFB00F009FA10EE901A18EE900A8DEDD9
:103CB000020B8DED008B61F31E0003909DED020B56
:103CC000FFF7BEBB944A24F00041914214D39349BC
:103CD000214408437FF4EFAC9DED0C0B53EC102B0B
:103CE0009DED020B51EC100B01F048FD53EC1A2B2B
:103CF00001F036FC7FF6DFAC24F000408849894AA9
:103D0000002601EB205182422BDA481C4FF480112F
:103D100021FA00F02044844AC0F30A517A44A1F207
:103D2000FF3192ED000B814A8DED080BCA4020EA6D
:103D30000202C0F3130040F48010C1F1140120FA14
:103D400001F60992002CB8BF76429DED080B53ECAA
:103D5000102B9DED0C0B51EC100B01F00FFDCDE97C
:103D60000C019DED0C0B51EC1A0B53EC102B01F0D8
:103D700035F89FED6F0B0890CDE9085153EC102BEF
:103D80009DED080B51EC100B01F0ECFA41EC1B0B14
:103D90009FED690B53EC102B9DED080B51EC100BB4
:103DA00001F0E0FA9DED0C0B41EC1C0B53EC102BD9
:103DB0009DED080B51EC100B01F0E0FC53EC1A2BBD
:103DC00001F004FC9FED5E1B53EC112B01F0CAFACD
:103DD00053EC1C2B01F002F841EC1A0B51EC1B0BBD
:103DE00053EC1A2B00F0FAFFCDE902019DED020B16
:103DF00053EC1B2B51EC100B01F0C0FC53EC1A2BB5
:103E000001F0E4FB9DED020B41EC1A0B53EC102B7F
:103E100051EC100B01F0A6FACDE908014A489DEDDE
:103E2000080B0521784400F097F89DED081B51EC34
:103E3000100B53EC112B01F095FA9DED021B53EC86
:103E4000112B01F0C3FBCDE906019DED020B53ECF4
:103E50001A2B51EC100B01F085FA53EC1A2B00F0E1
:103E6000BDFF9FED3B0B41EC1A0B53EC102B9DED6E
:103E7000060B51EC100B01F081FC9DED060B41ECA3
:103E80001B0B53EC102B9DED020B51EC100B01F0B2
:103E900069FA53EC1B2B01F05DF853EC1A2B01F07F
:103EA0006DFC9DED021B53EC112B01F067FC53ECF4
:103EB000192B01F08BFBCDE9020101EB0650011536
:103EC0000029C8BF039015DC9DED020B324651EC72
:103ED000100B01F0EAFDFFF7FFF9042808BF00F01E
:103EE000FBF832469DED020B51EC100B01F0DDFDAD
:103EF000CDE902019DED020B51EC180B53EC102B98
:103F000001F030FAFFF73ABB0000904000000000DB
:103F1000FE822B654715973C00CC904000346F3FE4
:103F200001FCFFFF0000E03FC01E0000FFFF0F008C
:103F300000000000432EE63F396CA80C615C20BEF7
:103F4000EF39FAFE422EE63F901D0000000000000F
:103F5000000000000000004070B504462DED028B0B
:103F60004D1E00EBC500B0EE408AF0EE608A90ED89
:103F7000000B35F0060017D053EC182B51EC100B4A
:103F800001F0F0F941EC100B6D1E04EBC50090ED53
:103F9000001B51EC100B53EC112B00F01FFF41ECF8
:103FA000100B35F00600E7D1022D36D0042D1CD0C1
:103FB000062D1CBFBDEC028B70BD53EC182B51ECD1
:103FC000100B01F0CFF994ED0A1B53EC112B00F00C
:103FD00005FF53EC182B01F0C5F994ED081B53ECC9
:103FE000112B00F0FBFE41EC100B53EC182B51ECA5
:103FF000100B01F0B7F994ED061B53EC112B00F0F8
:10400000EDFE53EC182B01F0ADF994ED040B53ECDD
:10401000102B00F0E3FE41EC100B53EC182B51EC8D
:10402000100B01F09FF994ED021B53EC112B00F0E3
:10403000D5FE53EC182B01F095F994ED001B53ECD1
:10404000112B00F0CBFEBDEC028B41EC100B70BDD0
:104050009FED070B10B553EC102B9FED070B51ECA8
:10406000100B00F077FF41EC100B10BD00000000BA
:104070000000000000000000000000000000F03F11
:1040800010B553EC112B51EC100B00F0A7FE41ECD6
:10409000100B10BD000000009FED050B10B553EC98
:1040A000102B51EC100B00F055FF41EC100B10BD24
:1040B00000000000000000009FED050B10B553EC60
:1040C000102B51EC100B01F04DF941EC100B10BD11
:1040D00000000000000000709FED050B10B553ECD0
:1040E000102B51EC100B01F03DF941EC100B10BD01
:1040F00000000000000000102DE9F04389B00446E4
:104100000D4616461F46DDE910898DF808408DF8EA
:1041100009508DF80A60072200216846FEF744FF27
:104120001822002103A8FEF73FFF3F20ADF80C0046
:104130008A20ADF80E0002A8059003200690CDF865
:104140001CD007200890002103A800F01FFC0028C5
:1041500003DAFF2009B0BDE8F0839DF8000010B13C
:104160009DF80000F6E7BDF801003880BDF80300B7
:10417000A8F80000BDF80500A9F800000020E9E754
:104180002DE9F04F8FB004460D4616461F46DDE977
:104190001AABDDE918898DF808408DF80950102216
:1041A00031460DF10A00FEF7F5FE8DF81A708DF814
:1041B0001B808DF81C90CDF81DA08DF821B0182221
:1041C000002109A8FEF7F0FE3F20ADF8240086206C
:1041D000ADF8260002A80B901A200C9001A80D90B3
:1041E00001200E90002109A800F0D0FB002803DA7E
:1041F000FF200FB0BDE8F08F9DF8040010B19DF8CE
:104200000400F6E70020F4E72DE9FF4F91B00746E0
:104210009846DDE9216BDDE91F5ADDF8789000242E
:10422000A8190E30282803D9422015B0BDE8F08F18
:104230000DF80470601CC4B2BDF8480012900DEB7C
:104240000400022212A9FEF7A5FEA01CC4B2BDF80C
:104250004C0013900DEB0400022213A9FEF79AFE06
:10426000A01CC4B20DF80480601CC4B20DF8049008
:10427000601CC4B20DF80450601CC4B20DEB040005
:104280002A465146FEF786FE6019C4B20DF8046056
:10429000601CC4B20DEB040032465946FEF77AFEAC
:1042A000A019C4B2BDF88C0023900DEB04000222CB
:1042B00023A9FEF76FFEA01CC4B2BDF890002490A5
:1042C0000DEB0400022224A9FEF764FEA01CC4B278
:1042D000182200210BA8FEF767FE3F20ADF82C0046
:1042E0008320ADF82E00CDF834D00E940AA80F909C
:1042F0000120109000210BA800F048FB002801DAF3
:10430000FF2092E79DF8280010B19DF828008CE767
:1043100000208AE72DE9FF4F8FB00E4617469846DA
:10432000DDE91DABDDF870900024BDF83C000F9076
:1043300001A9081902220FA9FEF72CFEA41C01A84E
:104340000655641C012E01D1022500E0102501A9AB
:1043500008192A463946FEF71DFE6019C4B201A8A5
:1043600000F80480601CC4B201A800F80490601C2E
:10437000C4B201A800F804A0601CC4B201A800F8EF
:1043800004B0601CC4B201A91F980855601CC4B2D7
:1043900020980855601CC4B20322002108A8FEF72B
:1043A00003FE1822002109A8FEF7FEFD3F20ADF80C
:1043B00024004FF48270ADF8260001A80B900C94F5
:1043C00008A80D9003200E90002109A800F0DEFA45
:1043D000002803DAFF2013B0BDE8F08F9DF820001D
:1043E00010B19DF82000F6E7BDF82110219801805A
:1043F0000020F0E72DE9F0478CB0064689461746C5
:104400009846DDF850A000240DF80460641C012ECD
:1044100001D1022500E010250DEB04002A46494693
:10442000FEF7B8FD6019C4B20DF80470601CC4B288
:104430000DF80480601CC4B20322002105A8FEF719
:10444000B3FD1822002106A8FEF7AEFD3F20ADF80F
:1044500018004FF48170ADF81A00CDF820D00994FF
:1044600005A80A9003200B90002106A800F08EFA00
:10447000002803DAFF200CB0BDE8F0879DF8140097
:1044800010B19DF81400F6E7BDF81500AAF8000079
:104490000020F0E710B588B00446019418220021EE
:1044A00002A8FEF781FD3F20ADF8080040F227107A
:1044B000ADF80A0001A8049002200590CDF818D0AC
:1044C00001200790002102A800F060FA002802DA1B
:1044D000FF2008B010BD9DF80000FAE700B587B0D6
:1044E0001822002101A8FEF75FFD3F20ADF804006F
:1044F00040F20110ADF80600CDF814D0012006906E
:10450000002101A800F042FA002802DAFF2007B0DB
:1045100000BD9DF80000FAE7FFB5A7B016461D469E
:10452000309F0024A81D802802DD42202BB0F0BD62
:10453000BDF89C0027900DEB0400022227A9FEF78E
:1045400029FDA01CC4B2BDF8A00028900DEB04000A
:10455000022228A9FEF71EFDA01CC4B20DF80460BB
:10456000601CC4B20DF80450601CC4B20DEB040012
:104570002A463946FEF70EFD6019C4B21822002102
:1045800021A8FEF711FD3F20ADF884004FF48370A1
:10459000ADF88600CDF88CD0249420A82590012079
:1045A0002690002121A800F0F1F9002801DAFF206F
:1045B000BCE79DF8800010B19DF88000B6E70020B0
:1045C000B4E730B589B004460D468DF808408DF843
:1045D00009501822002103A8FEF7E6FC3F20ADF8A1
:1045E0000C000F20ADF80E0002A8059002200690E6
:1045F00001A8079001200890002103A800F0C6F947
:10460000002802DAFF2009B030BD9DF8040010B187
:104610009DF80400F7E70020F5E7F0B5A7B00646DF
:104620000D4617460024A81C802802DD422027B032
:10463000F0BD0DF80460601CC4B20DF80450601C9D
:10464000C4B20DEB04002A463946FEF7A3FC6019FC
:10465000C4B21822002121A8FEF7A6FC3F20ADF825
:1046600084000C20ADF88600CDF88CD0249420A8CE
:10467000259001202690002121A800F087F900282C
:1046800001DAFF20D3E79DF8800010B19DF880008B
:10469000CDE70020CBE7F220704700000121014A5E
:1046A000117070473A00002070B505460E4614465A
:1046B00055B9207810B90020FCF7B0F8207801280F
:1046C00002D10020FCF79AF870BD0000F0B587B069
:1046D00006460C4617461348008810B9F22007B06A
:1046E000F0BD122C00D912248DF80860E0B28DF8CC
:1046F0000900224639460DF10A00FBF7DAFD02A84F
:1047000000909DF80900801CC3B200220648018871
:1047100006480088FFF700FF05460DB14720DEE799
:1047200000BFDCE73E0000204600002040000020E3
:1047300001494880704700003400002010B504464D
:104740002046FBF797FD0949087008460278214684
:104750000748FBF7AEFD09200649087003480278B8
:1047600021460448401CFBF7A4FD10BD6400002056
:10477000E00300205000002070B5044621460120CF
:10478000FFF71FFF0546284670BD000030B589B011
:10479000032518A0006808900021084600F0A2F840
:1047A00015480090154803780022154801881548DF
:1047B0000088FFF7B1FE0446002008AACDE90420D6
:1047C0001149039506900D480078401CC0B20022A4
:1047D000CDE9002002910D48428841880023184607
:1047E000FFF712FD04460CB100BFFEE7204609B0FA
:1047F00030BD000002FE9000E003002064000020B5
:104800004C0000204A00002050000020340000200E
:1048100010B586B018A103C9CDE90401FFF75EFE0B
:10482000044614B1682006B010BD15481549164B52
:10483000CDE900101548027800210120FFF75CFC4B
:1048400004460CB16920EEE7012011490022102333
:10485000CDE90032CDE9021007231146FFF790FCA5
:1048600004460CB16A20DEE7FBF73EFE04460CB1BD
:104870006B20D8E700BFD6E7043400E180020000D7
:104880004E0000204C0000204A0000206400002060
:1048900040E201002DE9F04107460C4615461E4650
:1048A0002046FBF7D9FE3846FFF748FFFFF7B0FF79
:1048B0002846FFF761FF3046FFF73AFFBDE8F08179
:1048C00001490880704700003C00002082B0CDE91B
:1048D000000121F0004001909DED000B02B051EC71
:1048E000100B704730B58FB004460D4620220021D2
:1048F00001A8FEF759FB8DF804401F2C01DD1F2095
:1049000000E02046024629460DF10500FEF742FB75
:104910001822002109A8FEF747FB0820ADF8240063
:104920000920ADF8260001A80B9020200C90CDF8AE
:1049300034D001200E90002109A800F027F80028AB
:1049400002DAFF200FB030BD9DF80000FAE72DE934
:10495000FC4105460F4614461E46384665F39F2027
:1049600080B2ADF804008DF8064001208DF80000FB
:10497000032201A9C81EFEF70DFB2346042231467F
:10498000684600F0DFF8BDE8FC8100002DE9F04F3B
:1049900089B004468A462188608861F39F2080B2EE
:1049A0000890654800680A21B0FBF1F006900020ED
:1049B000039001A800F0E0F8227B61882088A368BA
:1049C000FFF7C5FFBAF1000F00D0A9E0069808B9BB
:1049D0000120069004A80699FEF768FC94E008E020
:1049E00004A8FEF755FC00B18FE0FDF79FFB00B96E
:1049F00000E0F5E700BFFCF702F803A94F4800F01C
:104A0000D4F8039800F108073878042806D001A8E4
:104A1000039900F0BBF8FBF7FCFF75E0781C0790EA
:104A2000039800F10B05039890F88800C61E0798BC
:104A300000780E2823D00F2804D010284DD03E280F
:104A40004CD133E0A8464546B8F802100898814298
:104A500000D05AE060680F2804D098F8000000B138
:104A600053E03CE06069B04201DD304600E060693F
:104A700060612946D4E90402FEF78CFA50E0AB46A7
:104A80005D46BBF801100898814200D03DE0ED1C66
:104A9000F61E6069B04201DD304600E06069606189
:104AA0002946D4E90402FEF775FA39E0A9464D46D5
:104AB00099F800006168884200D010E0761E6069B5
:104AC000B04201DD304600E06069606109F101013A
:104AD000D4E90402FEF75EFA22E016E000BF00BF50
:104AE00001A8039900F052F8154800F056F840B1BB
:104AF0006946124800F059F81148009900F046F84C
:104B000000BFFBF786FF00BF69E701A90B4800F073
:104B100093F8FBF77EFF4FF0FF3009B0BDE8F08F50
:104B20000748039900F02BF801A9044800F084F825
:104B3000FBF76FFF0020F0E7385B0008280000203B
:104B4000200000202DE9F04104460D4616461F4680
:104B50003B46324629462046FDF754FEBDE8F0812B
:104B600010B504E00A20FBF759FFFBF7C3FDFBF784
:104B70000BFE0128F6D110BD00604060704702684E
:104B80000A60486001600A685160704708604268C6
:104B90004A6041604A68116070470146086888426F
:104BA00001D1012070470020FCE710B504460B46F8
:104BB00020681860206800F006F800201968086076
:104BC0001968486010BDD0E900121160D0E90021D9
:104BD000516070471CB512A415A103C9CDE90001AD
:104BE00007256426FCF794FA0020FBF7D3FD00208C
:104BF000FBF714FEFEF7C6FAFFF7B2FFFBF73AFD2C
:104C0000FDF7F0F9FBF726FE33462A4669462046B3
:104C1000FFF740FE03E0FDF747FAFEF74FFBFAE728
:104C2000426C75654E52475F494F545F3200000039
:104C3000080504030202000038B505460C4607E0EB
:104C400069462046FFF7B1FF28460099FFF79EFF0F
:104C50002046FFF7A2FF0028F2D038BD00B585B08E
:104C60001020009009480190022002900320039038
:104C70000020049069460648FBF7F0FE00200290F1
:104C800069460348FBF7EAFE05B000BD00001110BD
:104C90000008024000B585B010200090012001906E
:104CA000032003900020029069460548FBF7D6FEDA
:104CB000012210210248FBF7C1FF05B000BD000032
:104CC0000008024000B52DED048B83B041EC190BB8
:104CD00000F088FC41EC180B18EE100A18EE901A40
:104CE0008DED008B002818BF0120084320F0004004
:104CF000C0F17F6000F1E040C00F14D019EE101A2F
:104D000019EE900A8DED009B002918BF0121084380
:104D100020F00040C0F17F6000F1E040C00F04BF10
:104D20000120FBF749FB51EC180B03B0BDEC048BE1
:104D300000BD08B50020009003E000BF0098401CB3
:104D4000009040F2654100988842F6DB08BD70B5DE
:104D500005460C46224602212846FFF7B7FC70BDE7
:104D600081F00041704780F00040704721F0004121
:104D7000704720F00040704721F00042A2F16052DD
:104D8000B2F5801F01F0004328BFD2F17F6C0BD930
:104D90005FEA001C43EAC20242EB507018BF704742
:104DA00028BF20F001007047B2F5801FBCBF184635
:104DB00070474FEA410C1CF5001F02D2084600F074
:104DC0003DBE70B500F078FB00000089FFF7F6BF2C
:104DD0004FF00040A0F580007047000010B591EA48
:104DE000030F48BF83F0004300F1D084841A71EBB5
:104DF000030C05D2121943EB0C03001B61EB0C01F1
:104E0000DFF824E14FEA1154A4EB135C1EEA430FD0
:104E100018BF9EEA445F73D023EA0E03DCF1200E34
:104E200021EA045143F4801332D322FA0CFE10EB32
:104E30000E0023FA0CFE41EB0E01CCF1200E03FA1A
:104E40000EFE10EB0E0051F10001B1F5801FCCF108
:104E5000200E32D201EB045112FA0EF2BDE81040DE
:104E600058BF7047401C38BF5FEA420218BF704706
:104E7000002814BF20F0010041F100014FEA410376
:104E800013F5001F38BF7047A1F1C04100F062BBAD
:104E9000012A43EB0302ACF1200CDCF11F0E32BF00
:104EA0004FF0000E23FA0CF310EB030041EB04511A
:104EB000B4EB115FD0D0A1EB045101F5801149088A
:104EC0005FEA300001EB04510ED350F1000038BF0F
:104ED00012FA0EFE08D1BDE81040C9E7401C38BFE9
:104EE0005FEA4202CAD1C3E7BDE810404FEA41037E
:104EF00013F5001F38BF7047A1F1C04100F02ABB75
:104F00009EEA445F08D011EA5E0FBDE8104004BF7E
:104F100001F0004100207047BDE8104070B500F07E
:104F2000CBFA00BF64FBBE3E0000E0FF02494FF039
:104F3000000000F088BD00BF0000F87F491058BF96
:104F4000C1F140415B1058BFC3F140438B42EFF3C6
:104F5000008070472DE9C04130B4DFF8A0C23CEAC0
:104F6000111418BF3CEA131400F0EC8081EA030529
:104F70001CEA111444EAD57418BF1CEA131500F09A
:104F8000C780A4EB05044FF0004545EAC12145EA7E
:104F9000C32341EA505143EA525304F17F749942CA
:104FA00004F500344FEAC0204FEAC22208BF904205
:104FB00000F09C804FEA13650FF24016765D4FEAD1
:104FC000134506FB05F7C7F1807706FB07F74FEAA5
:104FD000D737A7FB03687642C8F58038A7FB06CE13
:104FE00038BFA8F1010807FB08E64FF0000EA6FB4A
:104FF000028CE6FB03CEDCF1000CCEF1004E38BF94
:10500000AEF1010EA6FB0C584FF000074FF0000563
:10501000E6FB0E87A1FB08C6A0FB07CE16EB0E062B
:1050200045F10005E1FB076515F1E04E7EBFA4F5F3
:1050300080345FEA46066D4116F1800745F10005B0
:105040004FEA17274FEA066647EA0567A6F1DE46EC
:10505000B6F1805F4FEA15251FD9384624F0010CC0
:1050600005EBC471BCF1FE6F01EB0C1102D8F0BC72
:10507000BDE8008124425CBF01F5801E9EEAC47F2A
:1050800002D4F0BCBDE80081244238D4F0BCA1F1C8
:10509000C041BDE8004100F05DBA4FEAD22242EAC9
:1050A00043524FEAD323A7FB02864FEAD02040EABF
:1050B000415007FB03661EEA0E0F4FEAD12105FBA4
:1050C000026658BFA6EB0056B6EB00564FEA520EEA
:1050D0004EEAC37E18EB0E0E56EB530EBDD518EB01
:1050E00002085E417F1C55F10005B6E74FF48015BC
:1050F0004FF000074FF000064FF00008ADE7F0BC9E
:105100004FF0000001F1C04101F00041BDE8008115
:1051100011EA0C1F0CEA131500D00CE013EA0C1F67
:1051200000F025804FF00000F0BC81EA030101F09F
:105130000041BDE80081F0BCBDE8004181EA030107
:1051400000F008BAF0BCBDE8004170B500F0B4F959
:10515000097EFC3E00F007B881EA03014FF0000031
:1051600001F00041704781EA030100F0F3B9F0BC9F
:10517000BDE800414FF0000021497047FFFDFBF9F9
:10518000F7F5F4F2F0EEEDEBE9E8E6E4E3E1E0DE7A
:10519000DDDBDAD8D7D5D4D3D1D0CFCDCCCBCAC8EC
:1051A000C7C6C5C4C2C1C0BFBEBDBCBBBAB9B8B713
:1051B000B6B5B4B3B2B1B0AFAEADACABAAA9A8A806
:1051C000A7A6A5A4A3A3A2A1A09F9F9E9D9C9C9BD4
:1051D0009A9999989797969595949393929191907F
:1051E0008F8F8E8E8D8C8C8B8B8A89898888878710
:1051F0008685858484838382828181800000FF0785
:105200000000F87F4FEA41034FEA5353A3F5806350
:10521000D3F11E03C8BFD3F1210C0CDD4FF00042C7
:1052200042EAC12242EA505232FA03FC8CEAE17CA3
:10523000ACEBE1707047102BC4BF0020704703F542
:10524000787CBCF1FF3F04D06FF0004282EA21007D
:10525000704770B500F030F9499224800020704703
:10526000F2E700004FEA1153A3F58063D3F11E0368
:10527000A8BFD3F1200C08DB4FF0004242EAC12264
:1052800052EA505232FA03F0704709420BD4102B05
:10529000C4BF0020704703F5787CBCF1FF3F05D008
:1052A0004FF0FF3070474FF00000704770B500F0CE
:1052B00003F900BF4992248000207047F0E710F006
:1052C000004248BF4042B0FA80F310FA03F10AD01E
:1052D000C3F11D0303F580634FEA415002EB035213
:1052E00002EBD12170474FF00000704751EA030CE8
:1052F00017D41CF5801F58BFBCF5801F00F1068035
:10530000994218BF704708BF9042704707D711F500
:10531000801F58BF13F5801F19D4994270478942E6
:1053200070471CF5801F08D5BCF5801FF7D58B4250
:1053300018BF704708BF824270474FF4001C1CEB37
:10534000410F38BF1CEB430F01D28B42704770B541
:1053500000F0B2F8922449004FF000514FF0805312
:10536000FFF7ECBDDFF848C170B51CEA111E1EBF87
:105370001CEA13159EEA0C0F95EA0C0F00F06F80E3
:1053800081EA030423EA4C134EEAD47E21EA4C114D
:1053900041F4801143F48013AE44A1FB024CA0FB06
:1053A0000365AEF17F7E361955EB0C05A1FB034C6E
:1053B0004CF10003A0FB021C16EB0C06654153F1F7
:1053C0000003094218BF46F0010613F4007F0BD119
:1053D0004FEA03314FEA0530340341EA155140EA00
:1053E00016506FF003020AE04FEAC3214FEAC520CE
:1053F000F40241EA555140EA56506FF0020202EBC6
:105400002E4201EB025585EACE710AD05FEA440CC8
:1054100018BF24F0004450F1000041F1000120EADF
:10542000D47040F2FE7C624500D270BDA84214BF29
:105430004FF080444FF04044002E08BF0024BEF1DE
:10544000806FA8BFA1F1C041BDE8704080F28280AA
:105450004FF0000001F1C04101F0004170479EEAA9
:105460000C0F0CEA131518BF95EA0C0F06D04FF07D
:10547000000081EA030E0EF0004170BD00F01CF840
:105480008900013E00F007B800F009B84FEA430C6C
:105490005FEA5C5C08D081EA030100F05BB84FEA88
:1054A000410C5FEA5C5CF6D14FF0000001497047A7
:1054B0000000FF070000F87F0EF1020E2EF0030E31
:1054C0005EF8046B364205D4012A43EB030515F55B
:1054D000001F12D8012841EB010C1CF5001F0CD84D
:1054E0000ED14FEAD17C15F5001F0CEB4C0C0CF1E2
:1054F000020C08BF4CEBD37C04E04FF0080C01E039
:105500004FEAD37C0CEB4C0526FA05F606F00706AD
:10551000B6F1040C06D20EEB860CBDE870404CF0E0
:10552000010C6047DFE80CF0090B02024FF000416C
:105530004FF00000A1F5002170BD1946104601286A
:1055400051EB010418BFD4F5001484BF002001F012
:10555000004170BD0808A0F500114FEA3101704705
:1055600053EA010C17D41CF5801F58BFBCF5801FEF
:1055700000F106808B4218BF704708BF8242704717
:1055800007D713F5801F58BF11F5801F19D48B4220
:1055900070479B4270471CF5801F08D5BCF5801FE3
:1055A000F7D5994218BF704708BF904270474FF433
:1055B000001C1CEB430F38BF1CEB410F01D299427A
:1055C00070470FB40CBC03BCFFF7C1BE91EA030FD8
:1055D00010B581F000413FF509AC83F0004300F0C5
:1055E000D5B800002DE9F04101F5801CBCF5001F85
:1055F000C0F2A9804FEA115C21EA0C510CF1FD0CBC
:1056000041F480115FEA5C0C0CF5C07C01D34000D2
:10561000494130A4890241EA905187028E0E0A0C5A
:10562000A45D04FB04F602FB06F6C6F14046A4FBAB
:105630000662F60D46EA422606FB06F4A4FB0123A9
:105640005242C3F1404338BF5B1EA6FB0242002416
:10565000E6FB0324D20B42EA4446A6FB0623A1FB49
:1056600002E2A3FB07E4E3FB61426442C2F1404E65
:1056700038BFAEF1010EA6FB04234FF00002E6FB9B
:105680000E32A2FB03463400E2FB6264A1FB06E695
:10569000A4FB07E8E4FB61687642C8F1405838BFD4
:1056A000A8F10108A2FB06E4A3FB08E5E2FB6854AD
:1056B000A1FB05E6A7FB04E8E1FB648618F12005E1
:1056C00056F10006A809A8F11B08B10908F03F0827
:1056D000B8F10A0F40EA86601CD901EB0C51BDE815
:1056E000F08100BFFCF5EEE8E2DDD8D3CFCBC7C335
:1056F000C0BDB9B6B4B1AEACA9A7A5A3A19F9D9BEF
:105700009A9896959392908F8D8C8B8988878685B1
:1057100084838281A0FB006800FB01F208EB420851
:10572000B8EB872807D5341858EB0104D5D5401CB1
:1057300051F10001D1E7341A78EB0104CDD4401EB9
:1057400071F10001C9E75FEA4C0C5FEA9C5C0DD186
:1057500005D34FF0000001F00041BDE8F081BDE845
:10576000F04170B5FFF7A8FE6DDBFFBEBDE8F0416C
:105770004FF00000004970470000F87F10B591EA33
:10578000030F48BF83F000433FF530AB841A71EB41
:10579000030C07D212198CF0004C43EB0C03001BD6
:1057A00061EB0C01DFF8A4E14FEA1154A4EB135CA8
:1057B0001EEA430F18BF9EEA445F00F0B08023EA60
:1057C0006E03524221EA0451C3EB6E0338BF5B1EE5
:1057D000DCF1200E25D322FA0CFE10EB0E0043FA6A
:1057E0000CFE41EB0E01CCF1200E03FA0EFE10EB85
:1057F0000E0051F10001CCF1200E29D412FA0EF264
:1058000001EB0451BDE8104058BF7047401C1CBF5D
:10581000B2F1004F704700280CBF491C20F0010076
:10582000704712EB020E43EB030218BF4FF0010E5C
:105830004EEA4202ACF1200CDCF11E0E54D943FAC0
:105840000CFE10EB0E0051F1FF31CCF11E0ED5D540
:105850000EF1010E12FA0EFE404141EB010101EB87
:10586000445C5FEA5C5C10D910EBDE7001EB045124
:1058700038BFBEF1004FBDE8104018BF7047002888
:105880000CBF491C20F00100704730D24FEAD42CE5
:1058900011F5001124F400641BD0B1FA81F20B3A27
:1058A000A41AA41ED2F12003914030FA03F3194345
:1058B000904001EBCC71002C01EB0451BDE810408D
:1058C000A8BF704701F1C0414FF0000001F0004156
:1058D0007047B0FA80F310FA03F100D110BDE41A5A
:1058E000173C4805C90AE4E701EB045110BD491013
:1058F00001EB0451BDE810404FEA300002E04FF0E8
:10590000000170474A0008BF0042F8D0B2F5001FFE
:1059100028BF704701F000414FF0000070479EEA39
:10592000445F07D011EA5E0FBDE8104004BF0021BC
:1059300000207047BDE8104070B5FFF7BDFD00BF07
:1059400040DFF63E83F00041104670470000E0FF64
:1059500043004FEAD30C4FEA3C0C43401FBF4007C3
:105960000CF1605113F0FE4F70471CF0006F03D133
:1059700000200CF0004170470CF0004343EA5070E7
:1059800010B540EACC0000F00EF800BF0000009215
:105990004FEA0001FFF7DEBD4FF000414FF000007D
:1059A000A1F5002170470EF1020E2EF0030E5EF8F5
:1059B000044B244204D44FEA4102B2F17F4F11D884
:1059C0004FEA4003B3F17F4F0CD80ED14FEAD07CA1
:1059D000B2F17F4F0CEB4C0C0CF1020C08BF4CEBFE
:1059E000D17C04E04FF0080C01E04FEAD17C0CEBD5
:1059F0004C0324FA03F404F00704B4F1040C06D2B7
:105A00000EEB840CBDE810404CF0010C6047DFE861
:105A10000CF0070802024FF00040A0F5800010BD16
:105A20000846420018BFD2F1807288BF00F00040E3
:105A300010BD4FF04070E1EE100A7047FF2141EABF
:105A4000D050C00570470CF00F03092B08BF082089
:105A500000F059800A2B0BD0082B18BF704708BFE5
:105A60001CF0400F0AD04FF000004FF000017047CB
:105A70001CF0400F18BF4FF0004070471CF0100F93
:105A800008D020F0704300F07F4242EAD3014FEA91
:105A90004370704700F0604021F07F4242EA00020C
:105AA00001F07F4040EA727070474FF0FF0C4CF4F9
:105AB000E06C1CEA11531CBF9CEA030C9445C2BF66
:105AC000DA4201EB02517047002B0DD0BCF1000F00
:105AD0000FD0002A01F00041A4BF41F0E04141F0A5
