:020000040800F2
:2000000008050020C53F00089D3F00089F3F0008F13F0008F53F0008F93F00080000000029
:20002000000000000000000000000000FD3F0008A13F00080000000001400008A33F000861
:2000400005400008094000080D4000081140000815400008194000081D40000821400008C8
:200060002540000829400008AB3F00082D4000083140000835400008394000083D4000083F
:200080004140000845400008494000084D4000085140000855400008594000085D400008A8
:2000A0006140000865400008694000086D4000087140000875400008794000087D40000888
:2000C0008140000885400008894000088D4000089140000895400008994000089D40000868
:2000E000A1400008A5400008A9400008AD400008B140000800000000B5400008B94000084D
:20010000BD400008C1400008C5400008C9400008CD400008D1400008D54000080000000068
:20012000D940000838B5040000252078C00740F1EA80DFF8F00C006810F00C0008280BD03C
:20014000DFF8E00C006810F00C000C2827D1DFF8D40C0068C00322D54FF48040B0FA80F046
:2001600050F02000C0B24009C0B2012803D1DFF8B00C006802E0DFF8B40C00684FF4804115
:20018000B1FA81F111F01F01C840C00740F1BB806068002840F0B780012000F01EBCDFF8CD
:2001A000800C006830F48030DFF8741C0860DFF8700C006830F48020DFF8641C086000F07A
:2001C00045FF05004FF48040B0FA80F050F02000C0B24009C0B2012803D1DFF8440C0068A0
:2001E00002E0DFF8480C00684FF48041B1FA81F111F01F01C840C00708D500F027FF401B2B
:2002000041F289318842DDD30320E6E3DFF8100C006830F48030DFF8081C08606068012808
:2002200010D1DFF8FC0B006830F48020DFF8F01B0860DFF8EC0B006850F48030DFF8E01B8D
:2002400008600FE06068052804D16068DFF8881C087007E0DFF8C80B006830F48020DFF82E
:20026000C01B08606068002826D000F0EFFE05004FF48040B0FA80F050F02000C0B240093B
:20028000C0B2012803D1DFF8980B006802E0DFF89C0B00684FF48041B1FA81F111F01F0103
:2002A000C840C0072FD400F0D1FE401B41F289318842DDD3032090E300F0C8FE05004FF457
:2002C0008040B0FA80F050F02000C0B24009C0B2012803D1DFF8480B006802E0DFF84C0B18
:2002E00000684FF48041B1FA81F111F01F01C840C00708D500F0AAFE401B41F289318842FE
:20030000DDD3032069E32078800740F1B480DFF8140B006810F00C0004280BD0DFF8040BE3
:20032000006810F00C000C2835D1DFF8F80A0068C00330D45FF08040B0FA80F050F020007E
:20034000C0B24009C0B2012803D1DFF8D40A006802E0DFF8D80A00685FF08041B1FA81F126
:2003600011F01F01C840C00704D5E068012801D0012032E3DFF8B00A00685FF47801B1FACC
:2003800081F130F4F850226912FA01F10843DFF8981A08606FE0E06800283ED001205FF07D
:2003A0000041B1FA81F1DFF87C2B42F8210000F04DFE05005FF08040B0FA80F050F020003D
:2003C000C0B24009C0B2012803D1DFF8540A006802E0DFF8580A00685FF08041B1FA81F1A6
:2003E00011F01F01C840C00706D400F02FFE401B6528DFD30320F0E2DFF82C0A00685FF4BF
:200400007801B1FA81F130F4F850226912FA01F10843DFF8141A08602DE000205FF00041DC
:20042000B1FA81F1DFF8FC2A42F8210000F00EFE05005FF08040B0FA80F050F02000C0B24B
:200440004009C0B2012803D1DFF8D409006802E0DFF8D80900685FF08041B1FA81F111F098
:200460001F01C840C00706D500F0F0FD401B6528DFD30320B1E22078C00640F1EC80DFF8B3
:20048000A409006810F00C0F6CD15FF48000B0FA80F050F02000C0B24009C0B2012803D178
:2004A000DFF87C09006802E0DFF8800900685FF48001B1FA81F111F01F01C840C00704D514
:2004C000A069002801D1012087E2DFF85C09006810F46040216A884220D2206A00F024FD65
:2004E000002801D0012078E2DFF83C09006830F46040216A0843DFF830190860DFF82809DA
:200500000068FF21B1FA81F10002000AE26912FA01F10843DFF8101908601FE0DFF8080947
:20052000006830F46040216A0843DFF8FC180860DFF8F4080068FF21B1FA81F10002000AE2
:20054000E26912FA01F10843DFF8DC180860206A00F0EAFC002801D001203EE20F2000F01B
:200560005DFD78E0A069002847D001205FF40001B1FA81F1DFF8AC2942F8210000F066FD95
:2005800005005FF48000B0FA80F050F02000C0B24009C0B2012803D1DFF88408006802E032
:2005A000DFF8880800685FF48001B1FA81F111F01F01C840C00706D400F048FD401B652894
:2005C000DFD3032009E2DFF86008006830F46040216A0843DFF850180860DFF84C080068E0
:2005E000FF21B1FA81F10002000AE26912FA01F10843DFF8341808602DE000205FF4000112
:20060000B1FA81F1DFF81C2942F8210000F01EFD05005FF48000B0FA80F050F02000C0B277
:200620004009C0B2012803D1DFF8F407006802E0DFF8F80700685FF48001B1FA81F111F0B6
:200640001F01C840C00706D500F000FD401B6528DFD30320C1E12078000748D560690028D7
:2006600022D001205FF00041B1FA81F1DFF84C2942F8210000F0EAFC05005FF08040B0FA7F
:2006800080F0DFF8A80700685FF08041B1FA81F111F01F01C840C00729D400F0D7FC401BC4
:2006A0006528EAD3032098E100205FF00041B1FA81F1DFF8082942F8210000F0C7FC05006C
:2006C0005FF08040B0FA80F0DFF8600700685FF08041B1FA81F111F01F01C840C00706D553
:2006E00000F0B4FC401B6528EAD3032075E12078400740F1D180DFF8C808006850F08050BC
:20070000DFF8BC180860DFF8B808006810F0805000900098DFF8AC08006850F48070DFF8D1
:20072000A418086000F092FC0500DFF898080068C00506D400F08AFC401B6528F5D303204B
:200740004BE1DFF8E806006830F48070DFF8DC160860DFF8D806006830F48060DFF8CC1621
:20076000086000F073FC05005FF48000B0FA80F0DFF8B80600685FF48001B1FA81F111F0D1
:200780001F01C840C00708D500F060FC401B41F289318842E8D303201FE1A068012808D147
:2007A000DFF88806006850F48070DFF88016086037E0A068002810D1DFF87006006830F462
:2007C0008070DFF868160860DFF86006006830F48060DFF85816086023E0A068052810D1FD
:2007E000DFF84806006850F48060DFF840160860DFF83806006850F48070DFF8301608607D
:200800000FE0DFF82806006830F48070DFF81C160860DFF81806006830F48060DFF80C169D
:200820000860A06800281BD000F010FC05005FF48000B0FA80F0DFF8F40500685FF480013B
:20084000B1FA81F111F01F01C840C00724D400F0FDFB401B41F289318842E8D30320BCE01F
:2008600000F0F4FB05005FF48000B0FA80F0DFF8BC0500685FF48001B1FA81F111F01F0195
:20088000C840C00708D500F0E1FB401B41F289318842E8D30320A0E0606A002800F09C8072
:2008A000DFF88005006810F00C000C2800F09280606A022863D100208021B1FA81F1DFF855
:2008C000642642F8210000F0C1FB05004020B0FA80F050F02000C0B24009C0B2012803D17E
:2008E000DFF83C05006802E0DFF8400500684021B1FA81F111F01F01C840C00706D500F0D9
:20090000A5FB401B6528E1D3032066E0DFF81405006830F47D00A16A0843E16A0843216BC1
:200920000843DFF80015086001208021B1FA81F1DFF8F02542F8210000F088FB050040201A
:20094000B0FA80F050F02000C0B24009C0B2012803D1DFF8CC04006802E0DFF8D0040068EF
:200960004021B1FA81F111F01F01C840C00733D400F06CFB401B6528E1D303202DE00020BF
:200980008021B1FA81F1DFF89C2542F8210000F05DFB05004020B0FA80F050F02000C0B20D
:2009A0004009C0B2012803D1DFF87404006802E0DFF8780400684021B1FA81F111F01F018C
:2009C000C840C00708D500F041FB401B6528E1D3032002E0012000E0002032BD70B5040065
:2009E0000D000026DFF8E005006810F00100A84280F0FF80012D07D1DFF8CC05006850F070
:200A00000400DFF8C4150860DFF8BC050068400840002843DFF8B0150860DFF8AC050068D3
:200A200010F00100A84201D00120F6E12078800709D5DFF89805006830F0F000A1680843C5
:200A4000DFF8881508602078C00740F1C781606802281CD14FF48040B0FA80F050F0200086
:200A6000C0B24009C0B2012803D1DFF8B403006802E0DFF8B80300684FF48041B1FA81F159
:200A800011F01F01C840C0075AD40120C5E1606803281AD14020B0FA80F050F02000C0B247
:200AA0004009C0B2012803D1DFF87403006802E0DFF8780300684021B1FA81F111F01F018D
:200AC000C840C0073CD40120A7E1606801281BD15FF08040B0FA80F050F02000C0B240096D
:200AE000C0B2012802D1CE48006802E0DFF83C0300685FF08041B1FA81F111F01F01C84054
:200B0000C0071DD4012088E15FF48000B0FA80F050F02000C0B24009C0B2012802D1C04815
:200B2000006802E0DFF8040300685FF48001B1FA81F111F01F01C840C00701D401206CE101
:200B4000DFF8880400688008800061680843DFF87C14086000F07AFA06006068022810D1A2
:200B6000DFF86804006810F00C00082800F0368100F06CFA801B41F289318842F0D3032059
:200B80004BE16068032810D1DFF84004006810F00C000C2800F0228100F058FA801B41F2EF
:200BA00089318842F0D3032037E16068012810D1DFF81804006810F00C00042800F00E81CF
:200BC00000F044FA801B41F289318842F0D3032023E1DFF8F803006810F00C0F00F0FE80E8
:200BE00000F034FA801B41F289318842F1D3032013E12078800709D5DFF8D003006830F07B
:200C0000F000A1680843DFF8C41308602078C00740F1C880606802281AD14FF48040B0FA18
:200C200080F050F02000C0B24009C0B2012802D17B48006801E07D4800684FF48041B1FAD3
:200C400081F111F01F01C840C00756D40120E4E06068032818D14020B0FA80F050F020006D
:200C6000C0B24009C0B2012802D16D48006801E06E4800684021B1FA81F111F01F01C84088
:200C8000C0073AD40120C8E0606801281AD15FF08040B0FA80F050F02000C0B24009C0B224
:200CA000012802D15E48006801E0604800685FF08041B1FA81F111F01F01C840C0071CD42C
:200CC0000120AAE05FF48000B0FA80F050F02000C0B24009C0B2012802D15148006801E011
:200CE000524800685FF48001B1FA81F111F01F01C840C00701D401208FE0DFF8D00200689B
:200D00008008800061680843DFF8C012086000F09DF90600606802280FD1DFF8B002006857
:200D200010F00C0008283DD000F090F9801B41F289318842F1D303206FE0606803280FD196
:200D4000DFF88802006810F00C000C282AD000F07DF9801B41F289318842F1D303205CE0B5
:200D6000606801280FD1DFF86402006810F00C00042817D000F06AF9801B41F28931884239
:200D8000F1D3032049E0DFF84402006810F00C0F08D000F05BF9801B41F289318842F2D370
:200DA00003203AE0012D07D1DFF81C02006850F00400DFF814120860DFF80C020068400855
:200DC00040002843DFF800120860DFF8FC01006810F00100A84201D001201EE02078400721
:200DE00009D5DFF8E801006830F4E060E1680843DFF8D8110860207800070AD5DFF8CC01AB
:200E0000006830F46050216950EAC100DFF8BC1108600F2000F002F9002070BD000000009E
:200E200000380240083802400438024034380240F0B4002100220023002400250020634E66
:200E40003668310011F00C06042E04D0082E05D00C2E06D02CE05E4E30003AE05D4E3000B2
:200E600037E04FF47056B6FA86F65B4F11F4701C3CFA06F6F65D32004FF44076B6FA86F60F
:200E8000564F11F4400C3CFA06F6F65D33004F4E3668F60305D5B2FBF3F64E4F7E4334006E
:200EA00004E0B2FBF3F64A4F7E433400200010E04B4E366816F460465FF4E027B7FA87F7AA
:200EC000FE40350001266F1CBE404FF400477E433000F0BC704700000238024080B5FFF76A
:200EE000A7FF3A4909685FF07062B2FA82F23D4B11F0F001D140C95CC8403B4908603A48F1
:200F0000006802BD80B5FFF7E9FF304909685FF46002B2FA82F2334B11F4E061D140C95CDE
:200F2000C84002BD0000474270B582B00400002500262648006810F0F00F24D12048006821
:200F4000C00003D500F096F8050014E01C48006850F080501A4908601948006810F0805042
:200F60000090009800F086F805001548006830F0805013490860B5F5C05F04D1B4F5404F87
:200F800001D101200600012E05D10F48006850F004000D4908600C480068400840003043DB
:200FA000094908600848006810F00100B04201D0012000E0002076BD000000008006474298
:200FC0002438024000700040003C0240083802400024F40000127A00D43F0008EC3F0008D1
:200FE00004380240B43F0008AC00002080B51F48006850F004001D4908601C48006850F08A
:2010000002001A490860032000F0A4F80F2000F005F800F002F8002002BD704710B50400EF
:20102000FFF75CFF4FF47A71B0FBF1F000F0B2F8002221005FF0FF3000F092F8002010BDE3
:201040000B480068401C0A490860704708480068704711B581B00024FFF7F8FF0400FFF796
:20106000F5FF001B01998842F9D313BD003C0240FC0000200248006810F4C050704700004A
:201080000070004010F00702454B1B6819004FF6FF031940434B53EA02231943404B19607B
:2010A00070473F480068C0F302207047012110F01F0291403C4A40B2430942F82310704702
:2010C00010B440B2002808D50A01384B40B210F00F04E31803F8042C03E00A01344B40B23D
:2010E000C25410BC704770B4030013F00704D4F10706052E01D3042001E0D4F10700261D35
:20110000072E01D2002500E0E51E012616FA00F0401E0840A8400121A940491E11400843FC
:2011200070BC704710B50400601EB0F1807F01D301200EE0601E1F4908600F215FF0FF3006
:20114000FFF7BEFF00201C49086007201B490860002010BD10B504002000FFF793FF10BDD1
:20116000F8B504000D0016000027FFF79AFF0700320029003800FFF7B6FF0100200040B28D
:20118000FFF79EFFF1BD10B50400200040B2FFF78DFF10BD10B504002000FFF7C3FF10BD76
:2011A0000CED00E00000FA0500E100E018ED00E000E400E014E000E018E000E010E000E071
:2011C00010B5040000F0EFFE002801D0012036E000F043F8002801D0012030E0206800F06C
:2011E000E3FB002801D0012029E0606800F0C8FC002801D0012022E0A27A617A207A00F0D5
:2012000081F9002801D0012019E0E06800F067FA002801D0012012E0206900F03DFB0028C3
:2012200001D001200BE0A27D617D207D00F00DF9002801D0012002E000F0B9FE002010BDB1
:2012400010B50400002C01D1012005E001230F22D421200000F026FF10BD80B500208DF89B
:20126000000001231222D42100A800F01BFF002801D001203EE09DF8000010F0FB008DF822
:2012800000009DF8000050F004008DF8000001231222D42100A800F0E7FE002801D001200C
:2012A00028E001230A22D42100A800F0FBFE002801D001201EE09DF8000010F087008DF897
:2012C00000009DF800008DF800009DF8000010F0F8008DF800009DF800008DF800000123A4
:2012E0000A22D42100A800F0BFFE002801D0012000E0002002BD10B582B004000020ADF8DF
:20130000000002232822D42100A800F0CBFE002801D0012029E09DF801009DF8001011EBAE
:201320000020208002232A22D42100A800F0BAFE002801D0012018E09DF801009DF80010EA
:2013400011EB0020608002232C22D42100A800F0A9FE002801D0012007E09DF801009DF8BE
:20136000001011EB0020A080002016BD10B584B004000020009001A8FFF7BDFF002801D02D
:20138000012025E000A800F021FA002801D001201EE0BDF9040000F0A7FF009900F0CCFFB8
:2013A00001F036F82060BDF9060000F09DFF009900F0C2FF01F02CF86060BDF9080000F079
:2013C00093FF009900F0B8FF01F022F8A060002004B010BD10B582B004000020ADF80000CF
:2013E00002232222D42100A800F05CFE002801D0012029E09DF801009DF8001011EB002023
:20140000208002232422D42100A800F04BFE002801D0012018E09DF801009DF8001011EBA2
:201420000020608002232622D42100A800F03AFE002801D0012007E09DF801009DF800103E
:2014400011EB0020A080002016BD2DE9F84304000D00160000208DF8000000275FF00008C2
:201460005FF00009E4B2002C01D1002700E00827EDB2002D02D15FF0000801E05FF010080C
:20148000F6B2002E02D15FF0000901E05FF0200901231822D42100A800F004FE002801D00C
:2014A00001202DE09DF8000010F0F7008DF800009DF8000038438DF800009DF8000010F0C3
:2014C000EF008DF800009DF8000058EA00008DF800009DF8000010F0DF008DF800009DF8AE
:2014E000000059EA00008DF8000001231822D42100A800F0B9FD002801D0012000E0002069
:20150000BDE8F2832DE9F84304000D00160000208DF8000000275FF000085FF00009E4B228
:20152000002C01D1002700E00827EDB2002D02D15FF0000801E05FF01008F6B2002E02D190
:201540005FF0000901E05FF0200901231922D42100A800F0A7FD002801D001202DE09DF88E
:20156000000010F0F7008DF800009DF8000038438DF800009DF8000010F0EF008DF8000051
:201580009DF8000058EA00008DF800009DF8000010F0DF008DF800009DF8000059EA00001E
:2015A0008DF8000001231922D42100A800F05CFD002801D0012000E00020BDE8F28310B568
:2015C00084B004000020009001A8FFF703FF002801D0012025E000A800F046FA002801D092
:2015E00001201EE0BDF9040000F07EFE009900F0A3FE00F00DFF2060BDF9060000F074FEE2
:20160000009900F099FE00F003FF6060BDF9080000F06AFE009900F08FFE00F0F9FEA060E5
:20162000002004B010BD10B582B0040000208DF8000001231022D42100A800F033FD00282E
:2016400001D001204AE09DF8000010F0F0008DF800009DF80000002814D0102815D020285E
:2016600017D0302819D040281BD050281DD060281FD0702821D0802823D0902825D0A0287A
:2016800027D02AE00020206027E0DFF8F805206023E0DFF8F40520601FE0DFF8F0052060B0
:2016A0001BE0DFF8EC05206017E0DFF8E805206013E0DFF8E40520600FE0DFF8E00520604E
:2016C0000BE0DFF8DC05206007E0DFF8D805206003E0DFF8D4052060FFE7002016BD38B5F3
:2016E0000400002500208DF800002000002100F0B1FE01D8002548E02000DFF8B01500F06A
:20170000A9FE01D2102540E02000DFF8A41500F0A1FE01D2202538E02000DFF8981500F0F7
:2017200099FE01D2302530E02000DFF88C1500F091FE01D2402528E02000DFF8801500F007
:2017400089FE01D2502520E02000DFF8741500F081FE01D2602518E02000DFF8681500F017
:2017600079FE01D2702510E02000DFF85C1500F071FE01D2802508E02000DFF8501500F027
:2017800069FE01D2902500E0A02501231022D42100A800F087FC002801D0012015E09DF8AB
:2017A000000010F00F008DF800009DF8000028438DF8000001231022D42100A800F054FCDD
:2017C000002801D0012000E0002032BD10B582B0040000208DF8000001231022D42100A86D
:2017E00000F060FC002801D0012021E09DF8000010F00C008DF800009DF80000002806D0C9
:20180000042810D0082806D00C2808D00FE0DFF8C00420600BE0DFF8BC04206007E0DFF8E0
:20182000B804206003E0DFF8B4042060FFE7002016BD10B582B0040000208DF800000123DD
:201840001022D42100A800F02DFC002801D0012021E09DF8000010F00C008DF800009DF8CA
:201860000000002806D0042810D0082806D00C2808D00FE05FF0804020600BE05FF08140D3
:20188000206007E05FF08240206003E05FF083402060FFE7002016BD38B5040000250020CC
:2018A0008DF800002000DFF8381400F0D3FD01D2002510E02000DFF82C1400F0CBFD01D2F6
:2018C000082508E02000DFF8201400F0C3FD01D20C2500E0042501231022D42100A800F028
:2018E000E1FB002801D0012015E09DF8000010F0F3008DF800009DF8000028438DF800006B
:2019000001231022D42100A800F0AEFB002801D0012000E0002032BD10B582B00400002017
:201920008DF8000001231122D42100A800F0BAFB002801D0012036E09DF8000010F0F000D4
:201940008DF800009DF80000002810D0102811D0202812D0302813D0402814D0502815D03E
:20196000602816D0702817D0802818D01AE00020206017E0C348206014E0C348206011E05E
:20198000C24820600EE0C24820600BE0C148206008E0C148206005E0C048206002E0C04809
:2019A0002060FFE7002016BD38B50400002500208DF800002000002100F04CFD01D800259B
:2019C00031E02000B94900F045FD01D210252AE02000B74900F03EFD01D2202523E020000A
:2019E000B44900F037FD01D230251CE02000B24900F030FD01D2402515E02000AF4900F035
:201A000029FD01D250250EE02000AD4900F022FD01D2602507E02000AA4900F01BFD01D218
:201A2000702500E0802501231122D42100A800F039FB002801D0012015E09DF8000010F0D0
:201A40000F008DF800009DF8000028438DF8000001231122D42100A800F006FB002801D08F
:201A6000012000E0002032BD10B582B0040000208DF8000001231122D42100A800F012FBC5
:201A8000002801D0012034E09DF8000010F002008DF800009DF80000022802D1934820600F
:201AA00026E001231122D42100A800F0FBFA002801D001201DE09DF8000010F00C008DF80A
:201AC00000009DF80000002806D0042807D0082808D00C2809D00BE08548206008E085486E
:201AE000206005E08448206002E084482060FFE7002016BD10B582B0040000208DF800008E
:201B000001231122D42100A800F0CCFA002801D0012034E09DF8000010F002008DF80000D1
:201B20009DF80000022802D17548206026E001231122D42100A800F0B5FA002801D0012023
:201B40001DE09DF8000010F00C008DF800009DF80000002806D0042807D0082808D00C2890
:201B600009D00BE06748206008E06748206005E06648206002E066482060FFE7002016BD5F
:201B800038B50400002500208DF800002000614900F060FC20D20220050001231122D4210F
:201BA00000A800F07FFA002801D0012068E09DF8000010F0FD008DF800009DF8000028439B
:201BC0008DF8000001231122D42100A800F04CFA002854D0012053E001231122D42100A8C2
:201BE00000F060FA002801D0012049E09DF8000010F0FD008DF800009DF800008DF8000027
:201C000001231122D42100A800F02EFA002801D0012035E02000404900F01CFC01D20025E0
:201C20000EE020003D4900F015FC01D2042507E020003B4900F00EFC01D2082500E00C257D
:201C400001231122D42100A800F02CFA002801D0012015E09DF8000010F0F3008DF800005E
:201C60009DF8000028438DF8000001231122D42100A800F0F9F9002801D0012000E00020EF
:201C800032BD0000000050410000D041000050420000D042000050430000D0430040504495
:201CA0000080CF44002050450020D045010050410100D041010050420100D04201005043C9
:201CC0000100D043014050440180CF440120504523DB793D23DBF93D23DB793E23DBF93EFF
:201CE00001000040010080400100004100008C4000000C4100008C4100000C4200008C429E
:201D00000000FA42000075430000FA4300007A440000FA440100FA42010075430100FA4362
:201D200001007A4480B500208DF8000001231022D42100A800F0B6F9002801D00120A8E0D6
:201D40009DF8000010F00F008DF800009DF8000050F060008DF800009DF8000010F0F30018
:201D60008DF800009DF800008DF8000001231022D42100A800F078F9002801D0012088E0EE
:201D800001235C22D42100A800F08CF9002801D001207EE09DF8000010F07F008DF800007E
:201DA0009DF800008DF800009DF8000010F09F008DF800009DF800008DF800009DF80000A1
:201DC00010F0EF008DF800009DF800008DF800009DF8000010F0F0008DF800009DF80000D6
:201DE0008DF8000001235C22D42100A800F03CF9002801D001204CE001235D22D42100A874
:201E000000F050F9002801D0012042E09DF8000010F007008DF800009DF8000050F0300027
:201E20008DF800009DF8000010F0F8008DF800009DF8000050F003008DF8000001235D220B
:201E4000D42100A800F010F9002801D0012020E001235E22D42100A800F024F9002801D08B
:201E6000012016E09DF8000010F0EF008DF800009DF8000050F010008DF8000001235E2234
:201E8000D42100A800F0F0F8002801D0012000E0002002BD80B500208DF8000001235E2276
:201EA000D42100A800F0FEF8002801D001203CE09DF8000010F0EF008DF800009DF80000CB
:201EC0008DF8000001235E22D42100A800F0CCF8002801D0012028E001235D22D42100A826
:201EE00000F0E0F8002801D001201EE09DF8000010F007008DF800009DF800008DF80000C7
:201F00009DF8000010F0F8008DF800009DF800008DF8000001235D22D42100A800F0A4F8C9
:201F2000002801D0012000E0002002BD10B582B0040000208DF8000001231B22D42100A82A
:201F400000F0B0F8002801D001200FE09DF8000010F020008DF800009DF80000202802D1F6
:201F60000120207001E000202070002016BD10B450F8041B81B102681218001D50F8043B97
:201F8000DC0744BFA9F10104E31852F8044B43F8044B091FF9D1EBE710BC704780B500F032
:201FA00090F802BD704780B500F08BF802BD00B58BB0DFF80C03006850F00100DFF8001353
:201FC0000860DFF8FC02006810F001000090009810200690DFF8EC02079002200990002036
:201FE000089006A9DFF8E00200F046FA002200210A20FFF7B5F80A20FFF7C5F8DFF8C0022B
:020000040800F2
:20200000006850F00200DFF8B8120860DFF8B002006810F002000090009801200190DFF869
:20202000A4020290022004900020039001A9DFF89C0200F021FA002200210620FFF790F8EE
:202040000620FFF7A0F80BB000BDF8B504000D0016001F003B009BB23200D2B22900C9B27F
:20206000200000F037F8F2BDF8B504000D0016001F003B009BB23200D2B22900C9B220007D
:2020800000F028F8F2BDF8B504000D0016001F003B009BB23200D2B22900C9B2200000F09C
:2020A00032F8F2BDF8B504000D0016001F003B009BB23200D2B22900C9B2200000F023F847
:2020C000F2BD80B500F038F8002801D0012000E0002002BD2DE9F04104000D0016001F0096
:2020E0005FF000083B009BB23200D2B22900C9B2200000F041F8002801D0012080464046F8
:20210000C0B2BDE8F0812DE9F04104000D0016001F005FF000083B009BB23200D2B22900EC
:20212000C9B2200000F050F8002801D0012080464046C0B2BDE8F08110B50024644800F059
:2021400061FD002815D163486149486000206049886033205E49C8604FF480405C49086132
:202160005D485B49086000F062F8594800F0B6FA04002000C0B210BD2DE9F04184B0040041
:202180000D0016001F005FF00008544800680290BFB2019700940123F6B2320092B2EDB292
:2021A000290089B24A4800F073FB80465FFA88F8B8F1000F03D02800C0B200F02DF840466C
:2021C000C0B204B0BDE8F0812DE9F04184B004000D0016001F005FF0000840480068029029
:2021E000BFB2019700940123F6B2320092B2EDB2290089B2364800F0DBFB80465FFA88F81A
:20220000B8F1000F03D02800C0B200F005F84046C0B204B0BDE8F08110B504002C4800F0BD
:2022200012FB0120FEF715FFFFF786FF10BD00B587B02348006850F00200214908602048E4
:20224000006810F00200009000984FF4407001901220029002200490002003900420059082
:2022600001A91A4800F008F91D48006850F400101B4908601A48006810F40010009000986E
:202280001848006850F40010164908601548006830F4001013490860002200211F20FEF727
:2022A0005FFF1F20FEF76FFF002200212020FEF757FF2020FEF767FF07B000BD0000000041
:2022C0001C380240000011100000024000040240B8000020A086010000540040B00000205C
:2022E0002438024018380240002840F10780F446404200F003F850F0004060470AD0B0FA7C
:2023000080F18840D1F19D01C905020672F1004241EB1020704750F8041B61B150F8042BA6
:20232000D30744BFA9F101039A180023091F42F8043BFAD1EFE77047FF2212EAD05C1DBF2F
:2023400012EAD153944593422BE09C44D30780EA01021A4043EA002043EA0121A1FB0030BB
:20236000410038BF40007CF17F010BDBFE294ADA5B0842EAC15153EA006373F1004C51EB9A
:2023800010207047D1F1080CDCF120012FDB5B0810FA01F10B4373F1004120FA0CF050418F
:2023A000704794451CBF02EAD153934280EA010202F000421DD0400019D0490017D05BB9D2
:2023C000634514D00902B1FA81F39940BCEB030CC00140F00040C1E70002B0FA80FC10FAAD
:2023E0000CF0B3EB0C0CC90141F00041B6E71000704740000AD0490008D010F1807F94BFFD
:2024000011F1807F02E042F0FF407047D04370474100090E7F3915D4D1F11F0114D44000E4
:2024200007D2C00140F00040C84048BF6FF000407047C00140F00040C8404CBF4FF000406A
:20244000404270470020704700424FF0004058BFC04370474FF0807C1CEB400F94BF1CEBEF
:20246000410F05E040EA010C5FEA4C0C01D28842704718BF8142704778B400220023002415
:202480000D68D540002D00F0E3800D680126964035402B00002B00F0D9804D68022D02D0F6
:2024A0004D68122D16D1D50810EB85052D6A2C000F2512F00706F6B2B600B540AC430D6921
:2024C00012F00706F6B2B600B5402C43D50810EB85052C6205682C0003251600F6B2760046
:2024E000B540AC430D7915F003051600F6B27600B5402C4304604D68012D08D04D68022DCA
:2025000005D04D68112D02D04D68122D19D185682C0003251600F6B27600B540AC43CD68B5
:202520001600F6B27600B5402C43846045682C0001259540AC434D68C5F3001595402C4396
:202540004460C5682C0003251600F6B27600B540AC438D681600F6B27600B5402C43C4608D
:202560004D68ED0072D54E4D2D6855F001054C4E35604B4D2D6815F001050095009D494DC8
:20258000960855F826502C000F2512F00306F6B2B600B540AC43444DA84201D1002523E0B8
:2025A000424DA84201D101251EE0414DA84201D1022519E03F4DA84201D1032514E03E4D53
:2025C000A84201D104250FE03C4DA84201D105250AE03B4DA84201D1062505E0394DA8420A
:2025E00001D1072500E0082512F00306F6B2B600B5402C432B4D960845F82640324D2D6836
:202600002C009C434D68ED0300D51C432E4D2C602E4D2D682C009C434D68AD0300D51C431B
:202620002A4D2C602A4D2D682C009C434D68ED0200D51C43264D2C60264D2D682C009C4396
:202640004D68AD0200D51C43224D2C60521C17E771BC70470200136989B20B4202D001239B
:20266000180001E000231800C0B27047D2B2002A02D089B2816102E089B20B048361704799
:2026800010B5040014480068A4B2204206D0A4B211480460200080B200F0A8FC10BD000059
:2026A0002038024008000140000002400004024000080240000C024000100240001802406B
:2026C000001C0240001402400004014004040140080401400C0401401404014070B5040098
:2026E00000250026002C01D10120ABE094F83500002805D1002084F83400200000F0BFF88F
:20270000FEF700FC0600DFF87C01864201D2012098E0022084F835002068006840084000EF
:2027200021680860DFF86001B6FBF0F0050020684068800980012843216848602068006A12
:202740006168DFF84821914201D2691C08E04FF4967101FB05F14FF47A72B1FBF2F1491CFE
:20276000800980010843216808622068C0696168DFF8182191420ED261684900B6FBF1F12F
:202780000905090D042901D204212AE061684900B6FBF1F125E0A168002905D16168032246
:2027A0005143B6FBF1F106E0616819225143B6FBF1F151F48041090501D1012111E0A168DF
:2027C000002905D1616803225143B6FBF1F106E0616819225143B6FBF1F151F4804151F489
:2027E0000041DFF8C021104008432168C8612068006830F0C000E1690843216A08432168CF
:20280000086020688068DFF8A011084021690843E1680843216888602068C068000A00027A
:20282000A1696269114308432168C8602068006850F00100216808600020A063012084F891
:202840003500002070BD10B50400002C01D1012014E0022084F835002068006840084000CF
:2028600021680860200000F00BF80020A063002084F83500002084F83400002010BD7047EC
:202880007047000080841E0040420F00A18601002DE9F04782B005000E0017009846DDF84A
:2028A00028900B9CDDF830A095F83500012875D1B9F1000F02D0A4B2002C01D101206EE095
:2028C00028688069800701D5022068E095F83400012801D1022062E0012085F83400322074
:2028E00085F835000020A863CDF800A043469BB23A0092B2310089B2280000F086F9002817
:2029000006D0A86B042801D1012048E0032046E0A4B2002C1FD0534600222449280000F08D
:2029200065FA002801D0032039E099F800002968086119F10109641E286840694007E7D5A6
:20294000A4B2002CE4D099F800002968086119F10109641EDCE7534600221449280000F02D
:2029600045FA002801D0032019E02868006850F4007029680860534601225FF00211280018
:2029800000F034FA002801D0032008E0012085F83500002085F83400002000E00220BDE8AA
:2029A000F68700000030FFFF007CFFFF800001002DE9F04782B005000E0017009846DDF815
:2029C00028900B9CDDF830A095F83500012840F01281B9F1000F02D0A4B2002C01D1012045
:2029E0000AE128688069800701D5022004E195F83400012801D10220FEE0012085F8340081
:202A0000422085F835000020A863CDF800A043469BB23A0092B2310089B2280000F053F9EE
:202A2000002806D0A86B042801D10120E4E00320E2E0A4B2012C13D12868006830F480605A
:202A40002968086028684069009028688069009000982868006850F40070296808601DE071
:202A6000A4B2022C13D12868006830F48060296808602868006850F40060296808602868D4
:202A800040690090286880690090009806E02868406900902868806900900098A4B2002C8A
:202AA00000F09080A4B2042C6DDAA4B2012C12D153460022DFF84811280000F097F9002828
:202AC00001D0032098E02868006989F8000019F10109641EE2E7A4B2022C1ED15346002283
:202AE0004649280000F082F9002801D0032083E02868006850F40070296808602868006997
:202B000089F8000019F10109641E2868006989F8000019F10109641EC0E7534600223749AC
:202B2000280000F063F9002801D0032064E02868006830F48060296808602868006989F852
:202B4000000019F10109641E534600222B49280000F04CF9002801D003204DE02868006812
:202B600050F40070296808602868006989F8000019F10109641E2868006989F8000019F114
:202B80000109641E8AE753460022DFF87410280000F02CF9002801D003202DE028680069C3
:202BA00089F8000019F10109641E2868406940077FF574AF2868006989F8000019F1010959
:202BC000641E6BE72868006830F4006029680860534601225FF00211280000F007F900284E
:202BE00001D0032008E0012085F83500002085F83400002000E00220BDE8F687040001000C
:202C00004000010090F8350070472DE9F04182B004000D0016001F00DDF8208020680068DB
:202C200050F4807021680860434600225FF00111200000F0DBF8002801D0032041E015F03E
:202C4000FE00216808614246DFF89811200000F03AF9002806D0A06B042801D1012030E001
:202C600003202EE0206840690090206880690090009843460022DFF87011200000F0B6F808
:202C8000002801D003201CE0BFB2012F04D13000C0B22168086113E0B6B2300AC0B2216882
:202CA000086143460022DFF84011200000F09EF8002801D0032004E03000C0B2216808619E
:202CC0000020BDE8F6812DE9F04182B004000D0016001F00DDF820802068006850F4806070
:202CE000216808602068006850F4807021680860434600225FF00111200000F077F800281B
:202D000001D003206CE015F0FE002168086142463449200000F0D7F8002806D0A06B042865
:202D200001D101205CE003205AE02068406900902068806900900098434600222A4920006F
:202D400000F054F8002801D0032049E0BFB2012F04D13000C0B22168086112E0B6B2300A54
:202D6000C0B221680861434600221F49200000F03DF8002801D0032032E03000C0B221683E
:202D80000861434600221849200000F02FF8002801D0032024E02068006850F480702168BA
:202DA0000860434600225FF00111200000F01EF8002801D0032013E055F00100C0B2216829
:202DC000086142460749200000F07DF8002806D0A06B042801D1012002E0032000E0002000
:202DE000BDE8F68102000100800001002DE9F04104000D0016001F005FF00008FEF726F93B
:202E00008046F6B2002E2DD1280CC0B201280AD120684069284080B2A9B2884201D101208B
:202E20000BE0002009E020688069284080B2A9B2884201D1012000E00020002840D117F13A
:202E4000010FE1D0002F05D0FEF700F9B0EB08008742D9D2012084F83500002084F8340006
:202E600003202EE0280CC0B201280AD120684069284080B2A9B2884201D101200BE0002089
:202E800009E020688069284080B2A9B2884201D1012000E00020002812D017F1010FE1D053
:202EA000002F05D0FEF7D2F8B0EB08008742D9D2012084F83500002084F83400032000E093
:202EC0000020BDE8F081F8B504000D0016000027FEF7BCF80700280CC0B201280AD12068DF
:202EE0004069284080B2A9B2884201D101200BE0002009E020688069284080B2A9B2884253
:202F000001D1012000E00020002829D120684069400513D52068006850F4007021680860A9
:202F20007FF48060216848610420A063012084F83500002084F83400012012E016F1010F19
:202F4000C9D0002E04D0FEF781F8C01B8642C2D2012084F83500002084F83400032000E08C
:202F60000020F2BD80B5FEF741F800F059F8002000F0A2F8002000F0E8F80021002000F013
:202F8000F4F800F069F900F076FA0120214908602148006800280CD0002000F0C6F84FF4BA
:202FA000FA70FEF756F8002000F0CFF800201A490860002000F033F9002813D1002000F04A
:202FC0002EF90028FAD013480068002805D100F052FA01200F49086004E000F070FA00209C
:202FE0000C4908600A20FEF734F8D1E710B582B00400A4B2102C0CD100208DF8000000A85A
:2030000000F081FA9DF80000002802D001200249086013BDF8000020F4000020FEE72000E1
:2030200000B593B02148006850F080501F4908601E48006810F08050009000981C48006855
:2030400030F4C05050F4006019490860022006900120099010200A9002200F900020109011
:203060005FF4002011905FF40000129006A8FDF759F8002801D0FFF7D1FF0E480068C00611
:20308000FBD40F20019003200290002003900020049000200590012101A8FDF79FFC00284E
:2030A00001D0FFF7BBFF13B000BD00BF24380240007000400470004010B586B0040001A8A6
:2030C000142100F05FFADFF87401006850F00100DFF868110860DFF86401006810F0010020
:2030E00000900098DFF85801E4B230F81400019001200290012003900320049001A9DFF876
:203100004401E4B250F82400FFF7B6F90022DFF83001E4B230F81410DFF82801E4B250F8D9
:203120002400FFF7A3FA06B010BD10B504000122DFF80C01E4B230F81410DFF80801E4B22D
:2031400050F82400FFF792FA10BD10B504000022DFF8EC00E4B230F81410DFF8E800E4B2CF
:2031600050F82400FFF782FA10BD30B587B004000D0001A8142100F005FADFF8C0000068AB
:2031800050F00400DFF8B4100860DFF8B000006810F0040000900098EDB2002D13D1DFF846
:2031A000A800E4B230F81400019000200290002003900220049001A9DFF89000E4B250F8FA
:2031C0002400FFF759F9EDB2012D26D1DFF87800E4B230F8140001900020039002200490A4
:2031E000DFF86C00029001A9DFF86000E4B250F82400FFF741F900220F21DFF85800E4B2D0
:2032000030F8140040B2FDF7ABFFDFF84800E4B230F8140040B2FDF7B6FF07B030BD10B5ED
:203220000400DFF82400E4B230F81410DFF81C00E4B250F82400FFF70DFA10BD1C38024058
:203240001E300008A40000208A350008A800002000002110BE35000810B588B000208DF8F7
:2032600000000024DFF8F4020078002840F00081DFF8EC020078012840F08C80DFF8E402AD
:20328000DFF8E4120860DFF8E4020290DFF8E002019001208DF80C0001208DF80D000120DA
:2032A0008DF80E005FF080400590DFF8C402049001208DF8180001208DF8190001208DF883
:2032C0001A00DFF8A4020068006800280BD10020DFF894120860DFF888020078401EDFF870
:2032E00080120870C1E001A8DFF87C1209680968884700280BD00020DFF86C120860DFF8AD
:2033000060020078401EDFF858120870ADE0DFF858020068406800280BD10020DFF8481299
:203320000860DFF83C020078401EDFF8341208709BE000A8DFF83012096849688847002850
:203340000BD00020DFF820120860DFF814020078401EDFF80C12087087E09DF80000692844
:203360000CD1DFF81002DFF80012096808640120DFF8E81108700120040076E00020DFF8E6
:20338000E8110860DFF8D8010078401EDFF8D01108706AE00020DFF8C8110870DFF8D801D4
:2033A000DFF8C4110860DFF8C4010290DFF8CC01019001208DF80C0001208DF80D00012010
:2033C0008DF80E005FF080400590DFF8B001049001208DF8180001208DF8190001208DF877
:2033E0001A00DFF8840100680068002805D10020DFF87411086001203BE001A8DFF8681170
:20340000096809688847002805D00020DFF85811086001202DE0DFF85001006840680028A8
:2034200005D10020DFF840110860012021E000A8DFF83411096849688847002805D0002012
:20344000DFF824110860012013E09DF8000068280BD1DFF82C01DFF81011096808640120E9
:20346000DFF8F810087001200400002C3FF400AF002008B010BD80B53B480068006C002869
:203480000BD039480068006C0078022805D136480068006C4068002801D103200EE0324805
:2034A0000068006C40680068002801D1032005E02D480068006C40680068804702BD80B512
:2034C00029480068006C00280BD027480068006C0078022805D124480068006C40680028D9
:2034E00001D103200EE020480068006C40684068002801D1032005E01B480068006C40687C
:203500004068804702BD10B5040017480068006C00280BD014480068006C0078022805D1D6
:2035200011480068006C4068002801D1032013E00D480068006C40688068002801D10320D0
:203540000AE0002C01D1012006E0200006490968096C49688968884710BD000004010020C4
:20356000B400002044000020000100200000FA440000D0429C000020000000200000EE4296
:2035800094000020002200F001B8002000B500BF130096469446103928BFA0E80C50FAD869
:2035A0005FEA417C28BF0CC048BF40F8042BC90728BF20F8022B48BF00F8012B00BD2800D8
:2035C00010B50400FEF7EAFC002801D0012030E0206800F050FB002801D0012029E060686F
:2035E00000F0EFFB002801D0012022E0A27A617A207A00F033F9002801D0012019E0E068CD
:2036000000F001FA002801D0012012E0206900F0B7FA002801D001200BE0A27D617D207DEA
:2036200000F0BFF8002801D0012002E0FEF7BAFC002010BD10B50400002C01D1012005E082
:2036400001230F22D6212000FEF71DFD10BD10B582B004000020ADF800000223A822D6217C
:2036600000A8FEF710FD002801D0012029E09DF801009DF8001011EB002020800223AA2295
:20368000D62100A8FEF7FFFC002801D0012018E09DF801009DF8001011EB0020608002232D
:2036A000AC22D62100A8FEF7EEFC002801D0012007E09DF801009DF8001011EB0020A08046
:2036C000002016BD10B584B004000020009001A8FFF7BDFF002801D0012025E000A800F038
:2036E000E9F9002801D001201EE0BDF90400FEF7FBFD0099FEF720FEFEF78AFE2060BDF9CA
:203700000600FEF7F1FD0099FEF716FEFEF780FE6060BDF90800FEF7E7FD0099FEF70CFEBC
:20372000FEF776FEA060002004B010BD10B582B004000020ADF8000002239822D62100A841
:20374000FEF7A1FC002801D0012029E09DF801009DF8001011EB0020208002239A22D621E5
:2037600000A8FEF790FC002801D0012018E09DF801009DF8001011EB0020608002239C22F4
:20378000D62100A8FEF77FFC002801D0012007E09DF801009DF8001011EB0020A080002082
:2037A00016BD2DE9F84304000D00160000208DF8000000275FF000085FF00009E4B2002C81
:2037C00001D1002700E00827EDB2002D02D15FF0000801E05FF01008F6B2002E02D15FF0AB
:2037E000000901E05FF0200901231F22D62100A8FEF749FC002801D001202DE09DF800006D
:2038000010F0F7008DF800009DF8000038438DF800009DF8000010F0EF008DF800009DF8F9
:20382000000058EA00008DF800009DF8000010F0DF008DF800009DF8000059EA00008DF86B
:20384000000001231F22D62100A8FEF7FEFB002801D0012000E00020BDE8F2832DE9F843F1
:2038600004000D00160000208DF8000000275FF000085FF00009E4B2002C01D1002700E00B
:203880000827EDB2002D02D15FF0000801E05FF01008F6B2002E02D15FF0000901E05FF08A
:2038A000200901231E22D62100A8FEF7ECFB002801D001202DE09DF8000010F0F7008DF8C8
:2038C00000009DF8000038438DF800009DF8000010F0EF008DF800009DF8000058EA000073
:2038E0008DF800009DF8000010F0DF008DF800009DF8000059EA00008DF8000001231E2289
:20390000D62100A8FEF7A1FB002801D0012000E00020BDE8F28310B584B004000020009096
:2039200001A8FFF703FF002801D0012025E000A800F0F3F9002801D001201EE0BDF9040071
:20394000FEF7D2FC0099FEF7F7FCFEF761FD2060BDF90600FEF7C8FC0099FEF7EDFCFEF76F
:2039600057FD6060BDF90800FEF7BEFC0099FEF7E3FCFEF74DFDA060002004B010BD10B5B4
:2039800082B0040000208DF8000001232022D62100A8FEF778FB002801D0012032E09DF81E
:2039A000000010F0E0008DF800009DF8000000280CD020280DD040280FD0602811D080288C
:2039C00013D0A02815D0C02817D01AE00020206017E0DFF85C04206013E0DFF8580420609A
:2039E0000FE0DFF8540420600BE0DFF85004206007E0DFF84C04206003E0DFF8480420607F
:203A0000FFE7002016BD38B50400002500208DF8000020000021FEF71DFD01D8002528E0BC
:203A20002000DFF82414FEF715FD01D2202520E02000DFF81814FEF70DFD01D2402518E0E6
:203A40002000DFF80C14FEF705FD01D2602510E02000DFF80014FEF7FDFC01D2802508E0B7
:203A60002000DFF8F413FEF7F5FC01D2A02500E0C02501232022D62100A8FEF704FB0028E4
:203A800001D0012015E09DF8000010F01F008DF800009DF8000028438DF80000012320221B
:203AA000D62100A8FEF7D1FA002801D0012000E0002032BD10B582B0040000208DF80000FE
:203AC00001232022D62100A8FEF7DDFA002801D0012021E09DF8000010F018008DF80000C8
:203AE0009DF80000002806D0082810D0102806D0182808D00FE0DFF8640320600BE0DFF88E
:203B00006003206007E0DFF85C03206003E0DFF858032060FFE7002016BD10B582B00400BC
:203B200000208DF8000001232022D62100A8FEF7AAFA002801D0012021E09DF8000010F092
:203B400018008DF800009DF80000002806D0082810D0102806D0182808D00FE05FF0804001
:203B600020600BE05FF08140206007E05FF08240206003E05FF083402060FFE7002016BD84
:203B800038B50400002500208DF800002000B749FEF760FC01D200250EE02000B449FEF701
:203BA00059FC01D2102507E02000B249FEF752FC01D2182500E0082501232022D62100A841
:203BC000FEF761FA002801D0012015E09DF8000010F0E7008DF800009DF8000028438DF800
:203BE000000001232022D62100A8FEF72EFA002801D0012000E0002032BD10B582B004009F
:203C000000208DF8000001231022D62100A8FEF73AFA002801D001202CE09DF8000010F026
:203C2000E0008DF800009DF8000000280CD020280DD040280ED060280FD0802810D0A02864
:203C400011D0C02812D014E00020206011E08A4820600EE0894820600BE07748206008E091
:203C60007648206005E07648206002E075482060FFE7002016BD38B50400002500208DF830
:203C8000000020000021FEF7E5FB01D8002523E020007B49FEF7DEFB01D220251CE0200027
:203CA0007849FEF7D7FB01D2402515E020006849FEF7D0FB01D260250EE020006549FEF7B5
:203CC000C9FB01D2802507E020006349FEF7C2FB01D2A02500E0C02501231022D62100A8F1
:203CE000FEF7D1F9002801D0012015E09DF8000010F01F008DF800009DF8000028438DF838
:203D0000000001231022D62100A8FEF79EF9002801D0012000E0002032BD10B582B004001E
:203D200000208DF8000001231022D62100A8FEF7AAF9002801D0012018E09DF8000010F0AA
:203D400018008DF800009DF80000002804D0082805D0182806D008E04B48206005E04B48A7
:203D6000206002E04A482060FFE7002016BD10B582B0040000208DF8000001231022D62109
:203D800000A8FEF780F9002801D0012018E09DF8000010F018008DF800009DF8000000280C
:203DA00004D0082805D0182806D008E03948206005E03948206002E038482060FFE700205D
:203DC00016BD38B50400002500208DF8000020003349FEF73FFB01D2002507E02000314911
:203DE000FEF738FB01D2082500E0182501231022D62100A8FEF747F9002801D0012015E045
:203E00009DF8000010F0E7008DF800009DF8000028438DF8000001231022D62100A8FEF732
:203E200014F9002801D0012000E0002032BD000000002041000048420000EE4200006E43A0
:203E40000000EE4300006E4401002041010048420100EE4201006E430100EE4323DB793DC9
:203E600023DBF93D23DB793E5A643B3F01000040010080400100004166666E4100006E42B2
:203E800067666E4101006E4200000C4100008C4100008C42000075430000FA430000FA44DA
:203EA000010075430100FA431248006850F480701049086010480068104908400E49086034
:203EC0000C4800680E4908400A4908600948006830F48020074908600748006830F47D003F
:203EE000054908600020074908605FF0006006490860704700380240083802400CC0FF88C8
:203F0000FEFFFEEE0C38024008ED00E010B5074979441831064C7C44163404E00A68081D6B
:203F2000511888470146A142F8D110BD0800000028000000E3E3FFFF50000000B80000206D
:203F4000000000002BE0FFFFB800000090010000000000200000000000F00BF8002801D003
:203F6000FFF7D4FF0020C046C046FEF7FBFF00F002F80120704700F001B800000746384627
:203F800000F002F8FBE7000080B5C046C046024A11001820ABBEFBE7260002007047FEE770
:203FA000704780B5FDF74CF801BD80B51020FEF767FB01BD00000000010203040102030491
:203FC000060708090148804701480047A93E0008E13F0008030406080C1018203000000073
:203FE000C046C046C046C046FFF7B6FF01020304FFF7FEBFFFF7FEBFFFF7FEBFFFF7FEBF28
:020000040800F2
:20400000FFF7FEBFFFF7FEBFFFF7FEBFFFF7FEBFFFF7FEBFFFF7FEBFFFF7FEBFFFF7FEBF08
:20402000FFF7FEBFFFF7FEBFFFF7FEBFFFF7FEBFFFF7FEBFFFF7FEBFFFF7FEBFFFF7FEBFE8
:20404000FFF7FEBFFFF7FEBFFFF7FEBFFFF7FEBFFFF7FEBFFFF7FEBFFFF7FEBFFFF7FEBFC8
:20406000FFF7FEBFFFF7FEBFFFF7FEBFFFF7FEBFFFF7FEBFFFF7FEBFFFF7FEBFFFF7FEBFA8
:20408000FFF7FEBFFFF7FEBFFFF7FEBFFFF7FEBFFFF7FEBFFFF7FEBFFFF7FEBFFFF7FEBF88
:2040A000FFF7FEBFFFF7FEBFFFF7FEBFFFF7FEBFFFF7FEBFFFF7FEBFFFF7FEBFFFF7FEBF68
:2040C000FFF7FEBFFFF7FEBFFFF7FEBFFFF7FEBFFFF7FEBFFFF7FEBFFFF7FEBFC1350008FD
:2040E00035360008C53600084F360008173900082D3700087F390008073A0008B53A0008F9
:204100001B3B0008813B0008FB3B0008773C00081B3D00086F3D0008C33D00080000000068
:20412000C1110008411200086D130008F7120008BF150008D513000827160008DF160008A3
:20414000CD170008331800089918000819190008A9190008691A0008F51A0008811B00081D
:2041600000000000251D0008951E00082D1F0008010000000000000002000000880000203B
:1441800000000240000802400048E80100100000010000005D
:00000001FF
