:020000040002F8
:100100005D030200B1010200650302006703020003
:10011000C7010200DB0102000B0302006F030200B3
:10012000710302007303020010B50121032000F0E7
:1001300019FA0121042000F015FA0021032000F033
:1001400023FA0021042000F01FFA0121062000F00C
:1001500009FA0121052000F005FA0021062000F02F
:1001600013FA0021052000F00FFA10BD10B501218F
:10017000192000F0F7F901211A2000F0F3F901210C
:100180001B2000F0EFF90121002000F0EBF9002125
:10019000192000F0F9F900211A2000F0F5F90021EA
:1001A0001B2000F0F1F90021084600F0EDF910BD28
:1001B00010B5FFF7DBFFFFF7B7FF65A000F006F90A
:1001C00000F010F910BD10B50121022000F0CAF9AD
:1001D0000021022000F0D8F910BD10B50121022045
:1001E00000F0C0F90121022000F0CEF9FFF7BEFFB8
:1001F000FFF79AFF00F0F6F810BD10B501211920A5
:1002000000F0B0F901211A2000F0ACF901211B2007
:1002100000F0A8F90121002000F0A4F90121192023
:1002200000F0B2F900211A2000F0AEF901211B20E4
:1002300000F0AAF90021084600F0A6F910BD10B59B
:100240000121192000F08EF901211A2000F08AF90D
:1002500001211B2000F086F90121002000F082F925
:100260000021192000F090F901211A2000F08CF9EA
:1002700000211B2000F088F90121002000F084F902
:1002800010BD10B50121032000F06CF901210420FC
:1002900000F068F90021032000F076F90121042024
:1002A00000F072F90121062000F05CF9012105201F
:1002B00000F058F90121062000F066F90021052020
:1002C00000F062F910BD10B50121032000F04AF9D9
:1002D0000121042000F046F90121032000F054F927
:1002E0000021042000F050F90121062000F03AF925
:1002F0000121052000F036F90021062000F044F924
:100300000121052000F040F910BD10B51078144609
:10031000002804D0012805D0022808D105E0FFF705
:1003200025FF04E0FFF769FF01E0FFF788FF607831
:10033000002806D0012807D0022801D1FFF7C3FF0B
:1003400010BDFFF7F1FE10BDFFF79BFF10BD0000D1
:100350004A554D415F436172000000000549086045
:1003600070477047704770477047704770477047D5
:100370007047704700300020014B1B68DB6A18474C
:100380000030002001480068806D004700300020E8
:10039000014A1268D26B1047003000200148006803
:1003A000806B00470030002001490968096C08474C
:1003B00000300020014B1B68DB6D18470030002027
:1003C00001490968896C0847003000200149096823
:1003D000496C08470030002001490968C96C08478A
:1003E0000030002001480068006D00470030002008
:1003F00001480068406D004700300020024909684C
:100400008031496808470000003000200248006839
:100410008030C0680047000000300020024A1268A7
:1004200080329268104700000030002001480068C8
:100430008068004700300020024B1B6880331B6837
:100440001847000000300020014B1B68DB6F184785
:100450000030002001480068406B00470030002059
:1004600002480068803040690047000000300020EA
:1004700030B4034C24688034646BA44630BC6047BD
:100480000030002030B4034C24688034A46AA446B1
:1004900030BC6047003000207CB5069C0094079D6E
:1004A000034C019524688034E46BA0477CBD0000B8
:1004B0000030002038B5049C0094034C246880343C
:1004C000E469A04738BD000000300020024B1B68E3
:1004D00080339B69184700000030002038B5049C29
:1004E0000094034C24688034246AA04738BD00007F
:1004F0000030002030B4034C24688034A46BA44640
:1005000030BC60470030002030B4034C2468803495
:10051000E46AA44630BC60470030002038B5049C33
:100520000094034C24688034646AA04738BD0000FE
:100530000030002030B4034C246880342469A44681
:1005400030BC604700300020024909688031096BE7
:10055000084700000030002001490968096A08477F
:1005600000300020014A12689269104700300020D4
:1005700001490968896A084700300020014A126869
:10058000526A104700300020014A1268D2691047B1
:100590000030002001480068406F00470030002014
:1005A00001480068006F00470030002001490968D9
:1005B000896F084700300020014A1268D26E104748
:1005C0000030002001490968896E0847003000208A
:1005D000014B1B685B68184700300020014A126815
:1005E0001268104700300020014A1268126E10474E
:1005F00000300020014B1B685B6E18470030002064
:10060000014A1268D2681047003000200149096889
:100610000969084700300020014800684069004728
:100620000030002001490968096B084700300020AC
:10063000024909688031096C084700000030002039
:10064000024909688031496C0847000000300020E9
:10065000024800688030806C0047000000300020B5
:10066000024800688030C06C004700000030002065
:10067000024800688030006D004700000030002014
:10068000024800688030406D0047000000300020C4
:040690000000000066
:0400000500000000F7
:00000001FF
