:020000040002F8
:100100009D01020061010200A5010200A701020099
:10011000A90102005901020029010200AF010200F9
:10012000B1010200B301020010B51078541C01287F
:100130000BD000280DD0022806D100F04BF9124850
:1001400000F054F900F04CF910BD00F043F92046DE
:10015000F6E700F03FF910BD10B500F063F810BDF0
:1001600008B50AA000F052F87D20000100F048F820
:1001700000F058F80848012100680090684600F037
:100180003BF900F027F908BD003000205247425FDC
:100190004C69676874000000D004020005490860DB
:1001A0007047704770477047704770477047704797
:1001B0007047704704300020014B1B68DB6A18470A
:1001C0000430002001480068806D004704300020A2
:1001D000014A1268D26B10470430002001480068C1
:1001E000806B00470430002001490968096C08470A
:1001F00004300020014B1B68DB6D184704300020E1
:1002000001490968896C08470430002001490968E0
:10021000496C08470430002001490968C96C084747
:100220000430002001480068006D004704300020C1
:1002300001480068406D0047043000200249096809
:1002400080314968084700000430002002480068F7
:100250008030C0680047000004300020024A126865
:100260008032926810470000043000200148006886
:100270008068004704300020024B1B6880331B68F5
:100280001847000004300020014B1B68DB6F184743
:100290000430002001480068406B00470430002013
:1002A00002480068803040690047000004300020A8
:1002B00030B4034C24688034646BA44630BC60477F
:1002C0000430002030B4034C24688034A46AA4466F
:1002D00030BC6047043000207CB5069C0094079D2C
:1002E000034C019524688034E46BA0477CBD00007A
:1002F0000430002038B5049C0094034C24688034FA
:10030000E469A04738BD000004300020024B1B68A0
:1003100080339B69184700000430002038B5049CE6
:100320000094034C24688034246AA04738BD000040
:100330000430002030B4034C24688034A46BA446FD
:1003400030BC60470430002030B4034C2468803453
:10035000E46AA44630BC60470430002038B5049CF1
:100360000094034C24688034646AA04738BD0000C0
:100370000430002030B4034C246880342469A4463F
:1003800030BC604704300020024909688031096BA5
:10039000084700000430002001490968096A08473D
:1003A00004300020014A126892691047043000208E
:1003B00001490968896A084704300020014A126827
:1003C000526A104704300020014A1268D26910476F
:1003D0000430002001480068406F004704300020CE
:1003E00001480068006F0047043000200149096897
:1003F000896F084704300020014A1268D26E104706
:100400000430002001490968896E08470430002043
:10041000014B1B685B68184704300020014A1268D2
:100420001268104704300020014A1268126E10470B
:1004300004300020014B1B685B6E1847043000201D
:10044000014A1268D2681047043000200149096847
:1004500009690847043000200148006840690047E6
:100460000430002001490968096B08470430002066
:10047000024909688031096C0847000004300020F7
:10048000024909688031496C0847000004300020A7
:10049000024800688030806C004700000430002073
:1004A000024800688030C06C004700000430002023
:1004B000024800688030006D0047000004300020D2
:1004C000024800688030406D004700000430002082
:0C04D0000C0B1D00FFFF000000000000EE
:0400000500000000F7
:00000001FF
